:020000040800F2
:100000005008002089010008692700086D240008B5
:10001000652700088F020008D12B000800000000AF
:100020000000000000000000000000009927000808
:10003000B5020008000000006D2700089B2700089B
:10004000A3010008A3010008A3010008A301000800
:10005000A3010008A3010008A3010008A3010008F0
:10006000A3010008A3010008A3010008A3010008E0
:10007000A3010008A3010008A5020008A3010008CD
:10008000A3010008A3010008A3010008A3010008C0
:10009000C12B000895020008A3010008A301000875
:1000A000A3010008A3010008A3010008A3010008A0
:1000B0000D280008A3010008A3010008A3010008FF
:1000C000A3010008A3010008A3010008A301000880
:1000D000A3010008B12B0008A3010008A301000838
:1000E000B7020008A3010008A301000800F002F80D
:1000F00000F03AF80AA090E8000C82448344AAF188
:100100000107DA4501D100F02FF8AFF2090EBAE885
:100110000F0013F0010F18BFFB1A43F0010318473B
:10012000982B0000B82B0000103A24BF78C878C183
:10013000FAD8520724BF30C830C144BF04680C60ED
:10014000704700000023002400250026103A28BF35
:1001500078C1FBD8520728BF30C148BF0B60704739
:100160001FB51FBD10B510BD00F058F81146FFF7C0
:10017000F7FF02F04BFD00F076F803B4FFF7F2FF53
:1001800003BC00F07DF8000009488047094800479B
:10019000FEE7FEE7FEE7FEE7FEE7FEE7FEE7FEE737
:1001A000FEE7FEE704480549054A064B7047000094
:1001B00009280008ED000008500200205008002027
:1001C00050040020500400204FF0000200B51346F8
:1001D00094469646203922BFA0E80C50A0E80C5067
:1001E000B1F12001BFF4F7AF090728BFA0E80C5018
:1001F00048BF0CC05DF804EB890028BF40F8042B11
:1002000008BF704748BF20F8022B11F0804F18BF7D
:1002100000F8012B7047704770477047754600F033
:100220002BF8AE4605006946534620F00700854688
:1002300018B020B5FFF7B6FFBDE820404FF000062C
:100240004FF000074FF000084FF0000B21F00701BE
:10025000AC46ACE8C009ACE8C009ACE8C009ACE801
:10026000C0098D46704710B50446AFF300802046A4
:10027000BDE81040FFF781BF00487047F001002043
:1002800001491820ABBEFEE726000200704700BF00
:10029000FEE7000010B5024800F023FA10BD000090
:1002A0005C00002010B5024800F030FD10BD0000D9
:1002B000AC010020704710B54FF4004000F03EFE46
:1002C00010BD000007E04FF40051034800F0D4FFD8
:1002D000142000F01DFEF6E70010014010B50246A4
:1002E00092F82030012B01D0022B06D11068406912
:1002F000084314686061002010BD506A40F48020FB
:1003000050620120F8E7F0B504460D461E4694F809
:10031000207020688368A86800B900E000BF012F42
:1003200001D0022F7CD103F0806030B903F000606F
:1003300018B903F08050002873D0C3F3016102297B
:1003400005D9606A40F4000060620120F0BD012020
:1003500088403060A86860B9B5F800C0E86840EA35
:100360004C5C206800F5C07000EB0110C0F800C0C4
:100370000FE0D5E901C040EACC00D5F80CC040EA56
:100380000C00D4F800C00CF5C07C0CEB011CCCF8C0
:100390000000D5F810C0206800F5C07000EB011017
:1003A000C0F804C0287D01280ED1206800F5C07077
:1003B00000EB0110406840F4807C206800F5C070BC
:1003C00000EB0110C0F804C0D079000692F806C016
:1003D00040EA0C4092F805C040EA0C2C10794CEA37
:1003E000000C206800F5C07000EB0110C0F80CC0D4
:1003F000D078000692F802C040EA0C4092F801C0A2
:1004000040EA0C2092F800C040EA0C00D4F800C08A
:100410000CF5C07C0CEB011CCCF80800206801E056
:1004200016E00FE000F5C07000EB0110006840F02E
:10043000010C206800F5C07000EB0110C0F800C08E
:10044000002083E7606A40F40010606201207DE7CD
:10045000606A40F480206062012077E7F0B50446CE
:100460000A46216894F82050012D01D0022D74D144
:10047000D1F8000240F00100C1F80002107D00F048
:100480001F06012000FA06F3D1F81C029843C1F8B8
:100490001C02D069C8B9D1F80C029843C1F80C020B
:1004A000908880B2968940EA064601F51070576937
:1004B00040F83760108880B2168940EA064601F598
:1004C0001070576900EBC7004660D069012819D148
:1004D000D1F80C021843C1F80C02908880B216883B
:1004E00040EA064601F51070576940F83760908978
:1004F00080B2168940EA064601F51070576900EB94
:10050000C7004660906928B9D1F804029843C1F841
:10051000040204E0D1F804021843C1F8040210698F
:1005200028B9D1F814029843C1F8140204E0D1F8B4
:1005300014021843C1F81402106A012804D1D1F83A
:100540001C021843C1F81C02D1F8000220F001007F
:10055000C1F800020020F0BDFFE7606A40F480208F
:1005600060620120F7E7704770B5044694F82050A8
:10057000012D01D0022D7DD151B92068C06800F055
:10058000030080B9606A40F400106062012070BD11
:100590002068006900F0030028B9606A40F4001088
:1005A00060620120F3E7206800F5D87000EB0110CD
:1005B000006800F004009060906840B9206800F581
:1005C000D87000EB01100068400D106007E0206853
:1005D00000F5D87000EB01100068C008506020687A
:1005E00000F5D87000EB0110006800F00200D06048
:1005F000206800F5D87000EB0110406800F00F0093
:100600001061206800F5D87000EB0110406800F41C
:100610007F40000A9061206800F5D87000EB01105F
:100620004068000C5061206800F5D87000EB0110A4
:1006300080681870206800F5D87000EB01108068A1
:1006400000F47F40000A5870206800F5D87000EB75
:100650000110806800F47F00000C9870206800F59D
:10066000D87000EB01108068000ED870206800F58B
:10067000D87000E02FE000EB0110C068187120680E
:1006800000F5D87000EB0110C06800F47F40000A4C
:100690005871206800F5D87000EB0110C06800F4B4
:1006A0007F00000C9871206800F5D87000EB0110F5
:1006B000C068000ED87131B92068C06840F02000D1
:1006C0002668F06005E02068006940F02000266898
:1006D000306100205BE7606A40F4802060620120A6
:1006E00055E72DE9F05F044600252068466920683B
:1006F000D0F80490206887682068D0F80CA02068A3
:10070000D0F810B02068D0F8188006F0010000285A
:1007100055D007F00100C0B101202168886007F0C2
:10072000020018B1204600F068FA0EE007F004005D
:1007300010B145F4006508E007F0080010B145F479
:10074000805502E0204600F057FA07F48070C8B1E7
:100750004FF480702168886007F4007018B120465B
:1007600000F04DFA0EE007F4806010B145F400553A
:1007700008E007F4006010B145F4804502E020462F
:1007800000F03CFA07F48030C8B14FF480302168A3
:10079000886007F4003018B1204600F032FA0EE00D
:1007A00007F4802010B145F4004508E007F400206C
:1007B00010B145F4803502E0204600F021FA06F041
:1007C000080038B10AF0100020B145F4007510207F
:1007D0002168C86006F0040040B10AF0080028B1A2
:1007E00008202168C860204600F0B0F906F0020039
:1007F00038B12068C06800F0030010B1204600F056
:10080000A7F906F0400038B10BF0100020B145F414
:10081000806510202168086106F0200040B10BF0CF
:10082000080028B1082021680861204600F0B2F9CC
:1008300006F0100038B12068006900F0030010B124
:10084000204600F0A8F906F4003040B109F010008D
:1008500028B1102021684860204600F09DF906F478
:10086000803040B109F0080028B1082021684860B4
:10087000204600F0C7F906F4004088B309F00400F0
:1008800078B306F4807020B108F0010008B145F09B
:10089000010506F4007020B108F0020008B145F02F
:1008A000020506F4806020B108F0040008B145F0AC
:1008B000040506F40060A0B108F0700088B108F0EB
:1008C0007000402817D006DC10280BD020280CD050
:1008D000302819D10CE0502810D0602814D110E035
:1008E0001DE019E045F008050FE045F010050CE0AB
:1008F00045F0200509E045F0400506E045F080059B
:1009000003E045F4807500E000BF00BF2068806907
:1009100020F07000216888610420216848602DB1B2
:10092000606A284360622046FFF71DFEBDE8F09F25
:1009300070B504460CB9012070BD94F8200010B9C0
:10094000204600F0AFF82068006840F00100216800
:10095000086000F0A1FC05460DE000F09DFC401B86
:100960000A2808D9606A40F400306062052084F8E3
:1009700020000120E0E72068406800F00100002826
:10098000EBD02068006820F002002168086000F0C9
:1009900083FC05460DE000F07FFC401B0A2808D9C7
:1009A000606A40F400306062052084F82000012075
:1009B000C2E72068406800F002000028EBD1207EEA
:1009C000012806D12068006840F080002168086096
:1009D00005E02068006820F0800021680860607EE3
:1009E000012806D12068006840F0400021680860B6
:1009F00005E02068006820F0400021680860A07EC3
:100A0000012806D12068006840F0200021680860B5
:100A100005E02068006820F0200021680860E07E82
:100A2000012806D12068006820F0100021680860C5
:100A300005E02068006840F0100021680860207F11
:100A4000012806D12068006840F00800216808608D
:100A500005E02068006820F0080021680860607FD9
:100A6000012806D12068006840F004002168086071
:100A700005E02068006820F0040021680860D4E9DF
:100A80000201084321690843616908436168491EFE
:100A900008432168C86100206062012084F82000BA
:100AA000002049E710B586B004460020029003906C
:100AB000049005902249206888423ED100BF214819
:100AC000C06940F000701F49C8610846C06900F065
:100AD0000070019000BF00BF00BF0846806940F071
:100AE000040088610846806900F00400019000BF9E
:100AF00000BFC814029000200390049002A912487D
:100B000000F02AFA4FF48050029002200390032054
:100B1000059002A90C4800F01FFA0022114614208B
:100B200000F040FC142000F02DFC0022114615209E
:100B300000F038FC152000F025FC06B010BD0000C8
:100B400000640040001002400008014070470000AF
:100B500010B504460C4B0D4A00212046FFF704FD5A
:100B600008B1FFF7AFFB09480068B0F5817F09D1F4
:100B70000648806830B905480069022802D1012082
:100B80000349087010BD000009000020400000204B
:100B90000000002070477047704770B5044694F815
:100BA0002000012822D1022084F82000206800685B
:100BB00020F001002168086000F06EFB05460DE0A2
:100BC00000F06AFB401B0A2808D9606A40F4003034
:100BD0006062052084F82000012070BD2068406814
:100BE00000F001000028EBD16062F6E7606A40F493
:100BF000002060620120F0E770477047704770473F
:100C00007047704770470146002291F82100022882
:100C100008D00420886300BF002081F8200000BFB6
:100C2000012070470868006820F00E000B6818600B
:100C30000868006820F001000B68186091F84030E7
:100C400001209840CB6B5860012081F8210000BF43
:100C5000002081F8200000BF1046E2E770B504468E
:100C6000002594F82100022803D00420A063012568
:100C700048E02068006820F00E00216808602068C5
:100C8000006820F00100216808601F492068884240
:100C900001D1012026E01C4914312068884201D18D
:100CA00010201FE0184928312068884201D18015A2
:100CB00018E015493C312068884201D1801411E0C8
:100CC000114950312068884202D14FF4803009E048
:100CD0000D4964312068884202D14FF4801001E050
:100CE0004FF08070084908394860012084F82100DD
:100CF00000BF002084F8200000BF606B10B12046C8
:100D0000616B8847284670BD0800024070B50446F4
:100D1000E06B05682068066894F84010042088405D
:100D20002840002846D006F00400002842D0206861
:100D3000006800F0200028B92068006820F0040056
:100D40002168086057492068884201D1042027E0C3
:100D5000544914312068884201D1402020E0514993
:100D600028312068884201D1001519E04D493C31F5
:100D70002068884202D14FF4804011E04949503147
:100D80002068884202D14FF4802009E0454964314F
:100D90002068884202D14FF4800001E04FF080606B
:100DA000404908394860E06A00287AD02046E16A64
:100DB000884776E094F84010022088402840A0B38D
:100DC00006F0020088B32068006800F0200040B9F7
:100DD0002068006820F00A0021680860012084F87B
:100DE000210030492068884201D1022028E02D49A5
:100DF00014312068884201D1202021E0294928317E
:100E00002068884201D140151AE026493C3120680B
:100E1000884202D14FF4005012E02249503120683C
:100E2000884203D14FF400300AE017E01D496431D5
:100E30002068884202D14FF4001001E04FF00070AA
:100E400018490839486000BF002084F8200000BF1E
:100E5000A06A30B32046A16A884722E094F8401087
:100E6000082088402840E0B106F00800C8B120689A
:100E7000006820F00E002168086094F840100120FE
:100E80008840E16B48600120A06384F8210000BF26
:100E9000002084F8200000BF206B10B12046216B99
:100EA000884770BD080002400146002209B90120B0
:100EB0007047164B0868C01A1423B0FBF3F080008B
:100EC000086412480838C863022081F821000868C5
:100ED000026843F6F0708243D1E901031843CB68FE
:100EE00018430B6918434B6918438B691843CB6946
:100EF000184302430868026000208863012081F8DB
:100F00002100002081F8200000BFD1E70800024046
:100F100070B5044600F0C0F906462546681C10B1BD
:100F200004480078054400BF00F0B6F9801BA842D1
:100F3000FAD370BD200000207047000010B50446B1
:100F400004480068204020B1024804602046FFF7B2
:100F5000F3FF10BD140401402DE9F84703460022B9
:100F600094466EE14FF0010808FA02F4D1F80080CF
:100F700008EA0400A0427DD1DFF8DCA2D1F80480A9
:100F8000A8EB0A09D0453AD014DCB8F1030F50D0D1
:100F900009DCB8F1000F31D0B8F1010F1CD0B8F165
:100FA000020F49D120E0B8F1110F18D0B8F1120F9B
:100FB00042D11EE0B9F5881F25D006DCB9F5803F87
:100FC00020D0B9F5801F37D11AE0B9F5001F18D02D
:100FD000B9F5041F30D117E0D1F80CC02DE0D1F8DD
:100FE0000C8008F1040C28E0D1F80C8008F1080C02
:100FF00023E0D1F80C8008F10C0C1EE000BF00BF0C
:1010000000BF00BF00BF00BFD1F80880B8F1000FDB
:1010100002D14FF0040C0BE0D1F80880B8F1010FB9
:1010200003D14FF0080C1C6102E04FF0080C5C612A
:1010300003E04FF0000C00E000BF00BFFF2801D824
:10104000984601E003F104084646FF2802D84FEA1B
:10105000820803E0A2F108084FEA88084746D6F85C
:1010600000804FF00F0909FA07F928EA09080CFA7D
:1010700007F900E088E048EA0908C6F80080D1F8DE
:10108000048008F08058B8F1805F7DD100BFDFF8A0
:10109000CC81D8F8188048F00108DFF8C091C9F871
:1010A0001880C846D8F8188008F00108CDF80080EC
:1010B00000BF00BF4FEAB9384FEA920958F82950EB
:1010C0004FEA82784FEA18794FF00F0808FA09F8CA
:1010D00025EA0805DFF88881434502D14FF0000872
:1010E00016E0DFF88081434502D14FF001080FE0A0
:1010F000DFF87481434502D14FF0020808E0DFF8C1
:101100006C81434502D14FF0030801E04FF0040821
:101110004FEA82794FEA197908FA09F848EA050591
:10112000DFF84C814FEA920948F82950D1F8048041
:1011300008F48038B8F5803F0AD1DFF83881D8F854
:10114000008048EA0008DFF82C91C9F8008009E027
:10115000DFF82081D8F8008028EA0008DFF8149131
:10116000C9F80080D1F8048008F40038B8F5003FD1
:1011700010D1DFF8008108F10408D8F8008048EAAF
:101180000008DFF8F09000E05AE009F10409C9F81E
:1011900000800DE0DFF8DC8008F10408D8F800805A
:1011A00028EA0008DFF8CC9009F10409C9F80080AA
:1011B000D1F8048008F48018B8F5801F0ED1DFF84C
:1011C000B48008F10808D8F8008048EA0008DFF881
:1011D000A49009F10809C9F800800DE0DFF89480B7
:1011E00008F10808D8F8008028EA0008DFF88490A1
:1011F00009F10809C9F80080D1F8048008F4001842
:10120000B8F5001F0ED1DFF86C8008F10C08D8F893
:10121000008048EA0008DFF85C9009F10C09C9F881
:1012200000800DE0DFF84C8008F10C08D8F8008051
:1012300028EA0008DFF83C9009F10C09C9F80080A1
:10124000521CD1F8008028FA02F8B8F1000F7FF4A0
:1012500089AEBDE8F88700000000111000100240C0
:1012600000080140000C0140001001400014014042
:10127000080001400004014010B5C26821EA0203E1
:1012800002EA010443EA0443036110BD0AB10161AB
:1012900001E00B04036170470148006870470000DB
:1012A00018000020034800680349097808440149F0
:1012B00008607047180000202000002010B5084882
:1012C000006840F0100006490860032000F0A8F80C
:1012D0000F2000F007F800F02BF8002010BD0000F0
:1012E0000020024070B504460E4800784FF47A7131
:1012F000B1FBF0F00C490968B1FBF0F5284600F0AD
:10130000ADFC08B1012070BD102C07D2002221468F
:10131000501E00F047F80548046001E00120F2E7A4
:101320000020F0E720000020240000201C00002006
:1013300008B500BF1148806940F001000F4988617D
:101340000846806900F00100009000BF00BF00BFA8
:101350000846C06940F08050C8610846C06900F086
:101360008050009000BF00BF00BF0549486820F0D2
:10137000E06040F00070486000BF08BD001002400F
:101380000000014001460846002809DB00F01F0369
:1013900001229A4043099B0003F1E023C3F8002196
:1013A00000BF70472DE9F05F80460D4616460027C6
:1013B00001F010FC074639462A46334601F0070083
:1013C000C0F1070ABAF1040F02D94FF0040A01E094
:1013D000C0F1070AD14600F1040ABAF1070F02D2A0
:1013E0004FF0000A01E0A0F1030AD4464FF0010AD1
:1013F0000AFA09FAAAF1010A0AEA020A0AFA0CFA36
:101400004FF0010B0BFA0CFBABF1010B0BEA030BDA
:101410004AEA0B042146404601F0E4FBBDE8F09F98
:1014200000BF00F00702064B19684FF6FF03194092
:10143000044B0B4343EA0221014B196000BF704784
:101440000CED00E00000FA0570B504460D460CB93D
:10145000012070BD5A48006800F00700A8420ED273
:101460005748006820F0070028435549086008469F
:10147000006800F00700A84201D00120E9E72078C9
:1014800000F0020002281DD1207800F0040004289A
:1014900005D14C48406840F4E0604A4948602078F3
:1014A00000F00800082805D14648406840F4605024
:1014B000444948604348406820F0F000A168084370
:1014C00040494860207800F0010078B36068012846
:1014D00006D13C48006800F4003090B90120B8E71C
:1014E0006068022806D13748006800F0007040B9F3
:1014F0000120AEE73348006800F0020008B901207F
:10150000A7E73048406820F00300616808432D4990
:101510004860FFF7C1FE064609E0FFF7BDFE801BED
:1015200041F28831884202D9032092E707E025483A
:10153000406800F00C006168B0EB810FEDD12048ED
:10154000006800F00700A8420ED91D48006820F08E
:10155000070028431A4908600846006800F00700A1
:10156000A84201D0012074E7207800F0040004288C
:1015700007D11448406820F4E060E168084311494D
:101580004860207800F00800082808D10D4840681D
:1015900020F46050216940EAC1000A49486000F027
:1015A0003FF808494968C1F30311074A515CC84034
:1015B0000649086006480068FFF794FE002048E7E7
:1015C0000020024000100240A02C0008240000204F
:1015D0001C00002001480068704700002400002023
:1015E00000B5FFF7F7FF04494968C1F30221034A38
:1015F000515CC84000BD000000100240B02C000843
:1016000000B5FFF7E7FF04494968C1F3C221034A67
:10161000515CC84000BD000000100240B02C000822
:10162000F0B585B00FF26C0C9CE8E01001A8A0E8C2
:10163000E0101CA52D680095002100220023002445
:101640000020194D696801F00C05F5B1042D02D098
:10165000082D19D101E0154819E001ADC1F3834609
:10166000AC5D01F4803555B10F4D6D68C5F3404553
:101670001DF805200D4D6543B5FBF2F302E00C4D5E
:1016800004FB05F3184602E000BF084800BF00BF96
:1016900005B0F0BD02030405060708090A0B0C0D8E
:1016A0000E0F1010010200000010024000127A001C
:1016B00000093D00F8B504460CB90120F8BD2078BA
:1016C00000F00100002878D0F848406800F00C00D5
:1016D00004280CD0F548406800F00C00082811D10F
:1016E000F248406800F48030B0F5803F0AD1EF48FE
:1016F000006800F4003000285FD0606800285CD1EA
:101700000120DBE700BF6068B0F5803F06D1E74805
:10171000006840F48030E549086028E0606858B906
:10172000E248006820F48030E0490860084600681C
:1017300020F4802008601AE06068B0F5A02F0BD17B
:10174000DA48006840F48020D849086008460068FC
:1017500040F4803008600AE0D448006820F480300B
:10176000D24908600846006820F48020086000BF65
:10177000606888B1FFF790FD054606E0FFF78CFD35
:10178000401B642801D9032098E7C848006800F48A
:1017900000300028F2D010E0FFF77EFD054606E09D
:1017A000FFF77AFD401B642801D9032086E7BF4874
:1017B000006800F400300028F2D1207800F0020028
:1017C000022857D1B948406800F00C0050B1B74822
:1017D000406800F00C00082818D1B448406800F4B4
:1017E000803098B9B148006800F0020020B120694B
:1017F000012801D0012061E7AC48006820F0F80022
:10180000616940EAC100A949086033E02069E8B194
:101810000120A7490860FFF73FFD054606E0FFF7F6
:101820003BFD401B022801D9032047E79F48006881
:1018300000F002000028F2D09C48006820F0F80078
:10184000616940EAC1009949086013E000209849A5
:101850000860FFF721FD054606E0FFF71DFD401B70
:10186000022801D9032029E79048006800F002000F
:101870000028F2D1207800F0080008282DD1A069B6
:10188000B8B101208B490860FFF706FD054606E068
:10189000FFF702FD401B022801D903200EE7834811
:1018A000406A00F002000028F2D0012000F060FF42
:1018B00013E000207F490860FFF7EEFC054606E0D4
:1018C000FFF7EAFC401B022801D90320F6E677481F
:1018D000406A00F002000028F2D1207800F00400F5
:1018E000042873D100277148C06900F0805070B996
:1018F00000BF6E48C06940F080506C49C86108461E
:10190000C06900F08050009000BF00BF01276A4806
:10191000006800F48070B0B96748006840F48070D7
:1019200065490860FFF7B8FC054606E0FFF7B4FC20
:10193000401B642801D90320C0E65F48006800F41A
:1019400080700028F2D000BFE068012806D1574817
:10195000006A40F001005549086227E0E06858B984
:101960005248006A20F00100504908620846006AA7
:1019700020F00400086219E0E06805280BD14B480C
:10198000006A40F00400494908620846006A40F0D5
:10199000010008620AE04548006A20F0010043495E
:1019A00008620846006A20F00400086200BFE06890
:1019B000A0B1FFF771FC054609E0FFF76DFC401B85
:1019C00041F28831884202D9032077E622E0374885
:1019D000006A00F002000028EFD012E0FFF75CFC84
:1019E000054608E0FFF758FC401B41F28831884269
:1019F00001D9032062E62D48006A00F002000028A9
:101A0000F0D1012F05D12948C06920F08050274925
:101A1000C86100BFE069C8B32448406800F00C000A
:101A2000082860D0E069022848D1002020490866D3
:101A3000FFF732FC054606E0FFF72EFC401B0228AC
:101A400001D903203AE61948006800F00070002828
:101A5000F2D1206AB0F5803F07D11448406820F4E5
:101A60000030A168084311494860D4E908010843DF
:101A70000E49496821F4741108430C49486001205B
:101A80000B490866FFF708FC054607E03DE0FFF755
:101A900003FC401B022801D903200FE6034800681D
:101AA00000F000700028F2D02FE00000001002408B
:101AB000000042428004424200700040002014496D
:101AC0000866FFF7E9FB054606E0FFF7E5FB401B6C
:101AD000022801D90320F1E50E48006800F00070EB
:101AE0000028F2D111E0E069012800D1E6E50948BB
:101AF000466806F48031206A814204D106F47011F0
:101B0000606A814201D00120D8E50020D6E50000BE
:101B1000000042420010024010B504460CB90120FA
:101B200010BD606A38B96068B0F5827F00D105E009
:101B30000021E16102E00021216161610021A162D7
:101B400094F8510028B9002084F85000204600F095
:101B500043F8022084F851002068006820F040001B
:101B600021680860A08800F48270218901F4044192
:101B70000843A18901F400610843217C01F00201BE
:101B80000843217D01F001010843218B01F400711C
:101B90000843217F01F0380108432021095D01F04D
:101BA00080010843218D01F4005108432168086039
:101BB0000421A06901EA1040216848602068C069DA
:101BC00020F400602168C86100206065012084F86D
:101BD00051000020A4E7000010B586B004460020A4
:101BE00002900390049005901949206888422DD1F5
:101BF00000BF1848806940F4805016498861084643
:101C0000806900F48050019000BF00BF00BF08460B
:101C1000806940F0040088610846806900F0040093
:101C2000019000BF00BFB02002900220039003206B
:101C3000059002A90848FFF78FF940200290002084
:101C40000390049002A90448FFF786F906B010BD7E
:101C500000300140001002400008014070B5044609
:101C60002546681EB0F1807F01D301200FE0681E79
:101C70004FF0E02148610F214FF0FF3000F0B2FF3C
:101C800000204FF0E021886107200861002070BD2E
:101C90007047704730B502460B4600BF92F83C00D3
:101CA000012801D1022030BD012082F83C0000BF94
:101CB000022082F83D00106844681068816824F0B2
:101CC00070041868044310684460104D1068A842FE
:101CD0000BD01068B0F1804F07D00D4D1068A842AE
:101CE00003D00C4D1068A84205D121F0800158683E
:101CF000014310688160012082F83D0000BF002090
:101D000082F83C0000BF00BFCDE70000002C01407E
:101D1000000400400008004010B504460CB9012042
:101D200010BD94F83D0028B9002084F83C002046FE
:101D300000F026F8022084F83D00211D206800F004
:101D40006DFD012084F8460000BF84F83E000121AB
:101D50003F200155402001554120015500BF00BFE3
:101D6000012084F8420043200155442001554520BC
:101D7000015500BF012084F83D000020D0E700009D
:101D800038B504462068B0F1804F15D100BF0B482C
:101D9000C06940F001000949C8610846C06900F007
:101DA0000100009000BF00BF002211461C20FFF779
:101DB000F9FA1C20FFF7E6FA38BD000000100240D7
:101DC0002DE9F04104460D4600BF94F83C0001287F
:101DD00002D10220BDE8F081012084F83C0000BF60
:101DE000022084F83D002068866826F0770626F4F5
:101DF0007F46206886602868502833D00CDC202875
:101E000050D004DC00284BD0102851D149E03028B4
:101E100049D040284CD139E060282DD0702807D017
:101E2000B0F5805F03D0B0F5005F41D10DE040E038
:101E3000D5E902136A68206800F02AFD20688668E8
:101E400046F077062068866033E0D5E902136A68B9
:101E5000206800F01DFD2068806840F48040216803
:101E6000886026E0EA686968206800F025FD502156
:101E7000206800F018FD1CE0EA686968206800F03E
:101E80002EFD6021206800F00EFD12E0EA6869680E
:101E9000206800F011FD4021206800F004FD08E0FA
:101EA00000BF00BF00BF2968206800F0FCFC00E014
:101EB00000BF00BF012084F83D0000BF002084F86F
:101EC0003C0000BF00BF85E7704710B5044620689E
:101ED0000069C0F34000D8B12068C068C0F340007A
:101EE000B0B16FF0020021680861012020772068FE
:101EF000806900F0030018B12046FFF7E5FF05E018
:101F0000204600F0ADF8204600F0ABF80020207726
:101F100020680069C0F38000D8B12068C068C0F3B1
:101F20008000B0B16FF004002168086102202077C2
:101F30002068806900F4407018B12046FFF7C4FFA4
:101F400005E0204600F08CF8204600F08AF80020DA
:101F5000207720680069C0F3C000D8B12068C0684D
:101F6000C0F3C000B0B16FF0080021680861042020
:101F700020772068C06900F0030018B12046FFF701
:101F8000A3FF05E0204600F06BF8204600F069F85A
:101F90000020207720680069C0F30010D8B12068C5
:101FA000C068C0F30010B0B16FF010002168086184
:101FB000082020772068C06900F4407018B12046DE
:101FC000FFF782FF05E0204600F04AF8204600F0C7
:101FD00048F8002020772068006900F0010058B11F
:101FE0002068C06800F0010030B16FF00100216886
:101FF0000861204600F036F820680069C0F3C01080
:1020000058B12068C068C0F3C01030B16FF08000D4
:10201000216808612046FFF73BFE20680069C0F395
:10202000801058B12068C068C0F3801030B16FF0E4
:10203000400021680861204600F015F8206800691A
:10204000C0F3401058B12068C068C0F3401030B1F0
:102050006FF02000216808612046FFF71AFE10BDCE
:102060007047704770477047704770472DE9F84FC9
:102070000446206805682068C668206847694FF0F4
:102080000009CA4605F00F09B9F1000F0AD105F0A1
:10209000200038B106F0200020B1204600F068FC96
:1020A000BDE8F88FB9F1000F71D007F0010018B941
:1020B00006F4907000286AD005F0010030B106F4F3
:1020C000807018B1206C40F00100206405F004001D
:1020D00030B107F0010018B1206C40F0020020641C
:1020E00005F0020030B107F0010018B1206C40F09B
:1020F0000400206405F0080048B106F0200010B983
:1021000007F0010018B1206C40F008002064206C3A
:1021100068B305F0200028B106F0200010B1204679
:1021200000F026FC20684069C0F3801A206C00F0A3
:10213000080010B9BAF1000F22D0204600F0EDFBE4
:102140002068406900F04000B0B12068406920F08C
:10215000400021684861A06B50B15648A16B4863AC
:10216000A06BFEF77BFD10B1A06B416B88470CE0C4
:102170002046FFF77AFF08E02046FFF776FF04E0ED
:102180002046FFF772FF0020206489E7FFE7206BFD
:10219000012878D105F01000002874D006F0100056
:1021A000002870D000BF00200090206800680090D8
:1021B00020684068009000BF00BF2068406900F0C0
:1021C0004000C0B3A06B006840681FFA80F8B8F107
:1021D000000F2FD0A08D40452CDDA4F82E80A06BE1
:1021E000806920281FD02068C06820F48070216892
:1021F000C8602068406920F00100216848612068BB
:10220000406920F0400021684861202084F83E00A9
:10221000002020632068C06820F010002168C8609A
:10222000A06BFEF7F0FCA08DE28D801A81B22046F3
:10223000FFF71AFF34E7FFE7A08DE18D401A1FFA80
:1022400080F8E08DE8B1B8F1000F1AD02068C068BE
:1022500020F490702168C8602068406920F0010077
:1022600021684861202084F83E0000202063206817
:10227000C06820F010002168C86041462046FFF782
:10228000F3FE0DE7FFE705F0800030B106F08000B7
:1022900018B1204600F05CFC02E705F0400030B1C8
:1022A00006F0400018B1204600F052FBF8E600BFEF
:1022B000F6E600000729000810B504460CB9012015
:1022C00010BDA06900B100E000BF94F83D0028B93E
:1022D000002084F83C00204600F028F8242084F8F0
:1022E0003D002068C06820F400502168C860204686
:1022F00000F0B0FB2068006920F49040216808617C
:102300002068406920F02A00216848612068C06880
:1023100040F400502168C86000202064202084F828
:102320003D0084F83E000020CAE7000010B586B0EA
:1023300004460020029003900490059044492068D0
:10234000884250D100BF4348806940F480404149F1
:1023500088610846806900F48040019000BF00BF9A
:1023600000BF0846806940F0040088610846806923
:1023700000F00400019000BF00BF48150290022049
:1023800003900320059002A93348FEF7E5FD4FF4C2
:102390008060029000200390049002A92E48FEF76E
:1023A000DBFD2E482E4908601020486000212C4893
:1023B00081608021C1600021016141618161C16151
:1023C000FEF772FD08B1FDF77DFF00BF2448606392
:1023D000446200BF002211462520FEF7E3FF2520BE
:1023E000FEF7D0FF31E01F49206888422DD100BFA1
:1023F0001848C06940F400301649C8610846C069F1
:1024000000F40030019000BF00BF00BF08468069A3
:1024100040F0040088610846806900F004000190E3
:1024200000BF00BF0920029000200390049002A981
:102430000948FEF791FD0620029002200390032038
:10244000059002A90448FEF787FD06B010BD000004
:1024500000380140001002400008014044000240E2
:10246000AC010020004400407047704700BFFEE709
:1024700000B58BB01E481F4908601220486000213B
:102480001C488160C1604FF48031016100214161CD
:10249000017641768176C17601774177FEF748FA79
:1024A00008B1FDF70FFF002006900790012008906B
:1024B0000020019002900390049005900120099063
:1024C0000E200A9001A90B48FDF7C8FF08B1FDF7DF
:1024D000F9FE0848FEF761FB08B1FDF7F3FE0221A3
:1024E0000448FDF7FBFE08B1FDF7ECFE0BB000BDA4
:1024F000006400405C00002008B500BF0A48406945
:1025000040F00100084948610846406900F00100B8
:10251000009000BF00BF002211460E20FEF742FFD0
:102520000E20FEF72FFF08BD0010024000B585B059
:102530000020019002900390049000BF3C48806905
:1025400040F010003A4988610846806900F01000A8
:10255000009000BF00BF00BF0846806940F0200027
:1025600088610846806900F02000009000BF00BF2D
:1025700000BF0846806940F0040088610846806911
:1025800000F00400009000BF00BF00BF0846806953
:1025900040F0080088610846806900F0080000905B
:1025A00000BF00BF00224FF400512248FEF76EFE2C
:1025B00000224FF6FF712048FEF768FE4FF40050EE
:1025C000019001200290002003900220049001A9B4
:1025D0001848FEF7C1FC4FF6FF70019001200290F1
:1025E000002003900220049001A91348FEF7B4FCD8
:1025F0004FF48070019000200290039001A90F48D1
:10260000FEF7AAFC4FF4004001900D480290002014
:10261000039001A90948FEF79FFC002211462820DB
:10262000FEF7C0FE2820FEF7ADFE05B000BD00009D
:102630000010024000100140000C01400008014061
:102640000000111010B50E480E4908604FF482705A
:10265000486000210B488160C160016141614FF415
:10266000802181612821C161002101624162816272
:102670000A21C162FFF750FA08B1FDF723FE10BD31
:10268000003001408400002000B587B00020039096
:10269000049005900690019002904FF080401449FC
:1026A00008604720486000211148816040F2E7310E
:1026B000C160002101618161FFF72EFB08B1FDF7C8
:1026C00001FE4FF48050039003A90948FFF778FBFF
:1026D00008B1FDF7F7FD00200190029001A9044820
:1026E000FFF7D8FA08B1FDF7EDFD07B000BD000017
:1026F000DC00002010B50B480B4908604FF4165061
:102700004860002108488160C16001610C2141617D
:1027100000218161C161FFF7CFFD08B1FDF7D2FD56
:1027200010BD0000003801402401002010B50B4806
:102730000B4908604FF4E13048600021084881608F
:10274000C16001610C214161890181610021C16188
:10275000FFF7B2FD08B1FDF7B5FD10BD0044004024
:102760006801002000BFFEE700BFFEE770470000E1
:1027700008B508490968C9084FF47A72B1FBF2F14B
:102780004143009100BF00BF00994A1E00920029FA
:10279000F9D108BD24000020704710B5FEF782FD76
:1027A00010BD00B58FB0282105A8FDF70DFD14213F
:1027B0006846FDF709FD0120059000040690002001
:1027C00007900120099002200C90C1030D914FF455
:1027D000E0110E9105A8FEF76DFF08B1FDF772FD3F
:1027E0000F20009002200190002002904FF48060A2
:1027F00003900020049002216846FEF725FE08B1F0
:10280000FDF760FD0FB000BD7047000010B5024835
:10281000FFF75BFB10BD0000DC00002010B5026874
:10282000184B984208D0B0F1804F05D0164B984213
:1028300002D0164B984203D122F070024B681A4323
:10284000104B984208D0B0F1804F05D00E4B984203
:1028500002D00E4B984203D122F44072CB681A4347
:1028600022F080034C6943EA040202608B68C36271
:102870000B688362034B984201D10B690363012308
:10288000436110BD002C01400004004000080040DE
:1028900030B50C46816821F47F4142EA0325254387
:1028A0002943816030BD0A46816821F0700142F001
:1028B000070319438160704730B50B461446026A1E
:1028C000056A25F001050562816921F0F00141EA00
:1028D000041122F00A021A438161026230BD30B550
:1028E0000B461446056A25F0100505628169026AE7
:1028F00021F4704141EA043122F0A00242EA0312BD
:102900008161026230BD70B505466C6A0020E085C9
:10291000E0842046FFF7A9FB70BD0168C96821F477
:1029200090710268D1600168496921F00101026873
:102930005161016B012905D10168C96821F01001BD
:102940000268D160202180F83E10002101637047A9
:1029500010B504462068C06820F040002168C860B7
:10296000202084F83D002046FFF77FFD002010BDA9
:10297000F8B5044694F83E00222869D1A068B0F565
:10298000805F0CD1206950B90025A66A2068406894
:10299000C0F308003080A06A801CA06215E0A56A20
:1029A0000026A068B0F5805F03D0A06828B9206930
:1029B00018B920684068287004E02068406800F07A
:1029C0007F002870A06A401CA062E08D401E80B28B
:1029D000E085A8BB2068C06820F020002168C8609E
:1029E0002068C06820F480702168C8602068406951
:1029F00020F0010021684861202084F83E00206B0F
:102A000001281ED1002020632068C06820F010003B
:102A10002168C8602068006800F0100010280AD102
:102A200000BF002000902068006800902068406887
:102A3000009000BF00BFA18D2046FFF715FB03E00B
:102A400004E02046FFF710FD0020F8BD0020FCE761
:102A50000220FAE770B504462168096921F4405163
:102A6000E2681143226811612269A1681143626919
:102A700041EA02052168C96841F20C629143294389
:102A80002268D1602168496921F44071A26911432B
:102A9000226851612D4A2168914202D1FEF7B0FDB2
:102AA00001E0FEF79DFD00EBC00101EB0011626843
:102AB0009200B1FBF2F100EBC00202EB001263687E
:102AC0009B00B2FBF3F26423B2FBF3F202EBC2030E
:102AD00003EB0212A1EB8201322202EB011164220C
:102AE000B1FBF2F101F0F00100EBC00202EB0012C9
:102AF00063689B00B2FBF3F26423B2FBF3F201EBD9
:102B0000021200EBC00101EB001163689B00B1FBF6
:102B1000F3F100EBC00303EB00136668B600B3FBF0
:102B2000F6F36426B3FBF6F303EBC30606EB0313DD
:102B3000A1EB8301322303EB01116423B1FBF3F119
:102B400001F00F0111442268916070BD003801400E
:102B5000014691F83D00212828D18868B0F5805FB2
:102B60000BD1086948B90A6A1088C0F308000B68DD
:102B70005860086A801C086205E00B6A581C0862ED
:102B800018780B685860C88C401E80B2C88458B949
:102B90000868C06820F080000B68D8600868C068CA
:102BA00040F040000B68D860002070470220FCE72E
:102BB00010B50248FFF75AFA10BD000024010020AA
:102BC00010B50248FDF78DFD10BD00005C0000202F
:102BD00000BFFEE702480068C0F302207047000013
:102BE0000CED00E010B5002804DB0A07130E054ABF
:102BF000135406E00A07140E034A00F00F031B1FCC
:102C0000D45410BD00E400E018ED00E0FEF756FBE0
:102C1000FFF7C7FDFFF78AFCFFF788FDFFF76AFDA6
:102C2000FFF710FDFFF768FCFFF722FCFFF72CFD14
:102C3000A02016490870A1204870A2208870A32007
:102C4000C870A4200871A5204871A6208871A7200B
:102C5000C87140F201100E4908600020C860886009
:102C600008200861002008750EE00A4B074A084951
:102C70000948FDF748FB4FF400510848FEF7FCFAFD
:102C80004FF47A70FEF744F9EFE7000001000020EE
:102C900028000020140000205C00002000100140EB
:102CA00000000000000000000102030406070809FC
:102CB0000000000001020304D82C000800000020DE
:102CC0002800000028010008002D0008280000202E
:102CD0002808000044010008000000000000000077
:102CE00000000000000000000000000000000000E4
:102CF0000000000010000000010000000024F400AB
:04000005080000ED02
:00000001FF
