:020000040800F2
:10000000401A00203502000869470008753A0008C8
:1000100065470008470E00088D5E000800000000DC
:100020000000000000000000000000009D0100082A
:10003000E112000800000000E1010008E956000894
:100040004F0200084F0200084F0200084F0200084C
:100050004F0200084F0200084F0200084F0200083C
:100060004F0200084F0200084F020008D11200089A
:100070004F0200084F0200084F0200084F0200081C
:100080004F0200084F020008C90D00084F02000887
:100090004F0200084F0200084F0200084F020008FC
:1000A0004F0200084F0200084F0200084F020008EC
:1000B0004F0200084F020008A95700084F0200082D
:1000C0004F0200084F0200084F0200084F020008CC
:1000D0004F0200084F0200087D5E00084F02000832
:1000E0004F0200084F0200084F02000800F002F81B
:1000F00000F044F80AA090E8000C82448344AAF17E
:100100000107DA4501D100F039F8AFF2090EBAE87B
:100110000F0013F0010F18BFFB1A43F0010318473B
:100120007C9700009C970000103A24BF78C878C1E3
:10013000FAD8520724BF30C830C144BF04680C60ED
:10014000704700000023002400250026103A28BF35
:1001500078C1FBD8520728BF30C148BF0B60704739
:10016000002070471FB59DE8030000F01FFC00F061
:100170005BF91FBD10B500F0C0F910BD00F0F0F93B
:100180001146FFF7EFFF05F06BFF00F0DFFB03B454
:10019000FFF7F0FF03BC00F07BFD0000224B196865
:1001A0000868B0E8F00F80F30988BFF36F8F4FF055
:1001B000000080F311884EF00D0E70470000000023
:1001C00006480068006880F3088862B661B6BFF32D
:1001D0004F8FBFF36F8F00DF00BF00BF08ED00E05F
:1001E000EFF30980BFF36F8F0F4B1A6820E9F00F10
:1001F000106008B54FF0500080F31188BFF34F8FA7
:10020000BFF36F8F06F0D0FB4FF0000080F3118832
:10021000BDE8084019680868B0E8F00F80F3098865
:10022000BFF36F8F704700BF40000020EFF30580E1
:10023000704700000948804709480047FEE7FEE78D
:10024000FEE7FEE7FEE7FEE7FEE7FEE7FEE7FEE786
:1002500004480549054A064B70470000A7570008A7
:10026000ED00000840140020401A00204016002035
:10027000401600200FB4044910B503AA029800F0FC
:10028000A5F810BC5DF814FB381300202DE9F041EF
:100290000E460446002020622046E168884730B3BD
:1002A000252805D0D4E901219047206A401CF2E7B7
:1002B000E168204600278847050018D0A5F14100D5
:1002C000192802D820354FF40067324629462046C7
:1002D0002760FFF745FF40B1012804D0F61D26F046
:1002E00007060836D8E7361DD6E72846DAE7206A3B
:1002F000BDE8F0814FF0000200B5134694469646E3
:10030000203922BFA0E80C50A0E80C50B1F1200128
:10031000BFF4F7AF090728BFA0E80C5048BF0CC0D6
:100320005DF804EB890028BF40F8042B08BF704734
:1003300048BF20F8022B11F0804F18BF00F8012BA6
:10034000704700004FF0013C50F8042B51F8043B7B
:100350009A4221D1A2EB0C03934313EACC1317D199
:1003600050F8042B51F8043B9A4215D1A2EB0C0330
:10037000934313EACC130BD150F8042B51F8043BF0
:100380009A4209D1A2EB0C03934313EACC13DBD0BE
:100390004FF00000704700BFD01A01BAB1FA81F1E6
:1003A00001F0180122FA01F0CB40C1F12001DBB2CB
:1003B000C0B2C01A2CFA01F3D11A914311EAC31149
:1003C000E6D170477047704770470000074B70B523
:1003D0000D467B4400F011F80446284600F020F852
:1003E00010B14FF0FF3070BD204670BD715C000051
:1003F00001694A1C02610878704700B58FB0CDE9E9
:1004000001310021059105497944CDE903101146D8
:100410006846FFF73BFF0FB000BD0000E5FFFFFFA0
:10042000007B00F08000704710B542485421FFF770
:1004300061FF41485421FFF75DFF40485421FFF719
:1004400059FF3F493B483C4A3F4B08603D490A60E1
:100450003A491960531C0365481C10650120086562
:100460003B48344A39A1784400F0D4F920B93848DF
:1004700078440A3800F073FA37482F4A35A1784497
:1004800000F0C8F920B9344878440A3800F067FA17
:1004900032482A4A2FA1784400F0BCF920B92F48ED
:1004A00078440A3800F05BFA40232248DC0000213F
:1004B000224600F08CF920B125487844543800F0E9
:1004C0004EFA1D4822464023002100F080F920B159
:1004D00021487844543800F042FA18482246102344
:1004E000002100F074F9002806D01C487844BDE8CB
:1004F0001040563800F033BA10BD104870B5006D8A
:1005000020F001040B4800F0FBF90B4800F0F8F96B
:100510000A4800F0F5F909E0206D20F001052046B9
:1005200000F0EEF9204600F040F82C46002CF3D104
:1005300070BD0000E4120020381300208C1300204E
:10054000A0000020A4000020A800002072000000ED
:10055000199400007700000008940000F893000050
:10056000754600F003FAAE4605006946534620F092
:100570000700854618B020B5FFF76AFEBDE82040A9
:100580004FF000064FF000074FF000084FF0000B4F
:1005900021F00701AC46ACE8C009ACE8C009ACE802
:1005A000C009ACE8C0098D46704770B50446051F08
:1005B00000F0E0F90068002C14BF446870BD002C06
:1005C00018BFAC423CBF20466468F8D301680A18E3
:1005D000AA4218BF456003D12A680546114401604C
:1005E00028684119A1421CBF6C6070BD61686960D8
:1005F00021680844286070BD2DE9F04705460C4687
:10060000C86820F4201040F48000C860800602D53D
:10061000084600F0FCFAE06841F282014FF0FF3931
:100620000140022903D0204600F09AFAB5E000F418
:100630002041B1F5004F0FD1C00306D56168E06AD3
:10064000884200D80846606006E02069E062606089
:10065000606905F066FCA061A0680022EEB2002887
:100660000DDAE1688B050AD4C043A06041F49030F4
:100670002260E0606068411C61600670A5E0E0688F
:100680009046226040F40050E060206968BB6069D9
:1006900005F059FC012704F12405A0B1A08910F44C
:1006A000407F08D0E06900F0B0F9206118B1E0683F
:1006B00040F4006016E0E7612561E06820F44070D6
:1006C00040F480600EE0E06900F09FF900282061AE
:1006D000F1D0E06840F4006010F4407FE06002D1A7
:1006E00040F48070E06020696060E06825696FF028
:1006F000010AC1051FD56168E06A884200D8084632
:10070000411B04D02246284600F034FAF0BBE068D2
:10071000010203D5E562C4E9015854E0691CE162B5
:100720006160E16940F48030491EC4E9021030463E
:100730002E70BDE8F087010202D500F480320AE095
:100740006068411C61600670E0680A2E40F48030E9
:10075000E06006D00022E16A6068814203D90B465E
:1007600002E00122F7E70346A7895B1B7F0503D45C
:10077000E7699F4200DDE2B1814200D80146E562AF
:100780000F1AC4E90158002B09DD00E005E02246FC
:100790001946284600F0EEF908B14846C9E747B1C6
:1007A000A069E5626560C01BA061E06840F01000D0
:1007B000E060E068000208D56168A069E562491B55
:1007C00008446560A0615046B3E73046B1E770B5B4
:1007D000C468A50713D0650211D4B2F5807F09D093
:1007E000B2F5007F06D0B2F5806F08D1012300F189
:1007F000240106E05D1E6FF07F46B54201D3012063
:1008000070BD0161C361416024F470611143C16036
:10081000002070BD2DE9F0410C46074616461046F3
:1008200000F06EF82078611C61280AD0722802D08E
:1008300077283CD102E00125002405E002250424AC
:1008400002E0082448F2020511F8010B2B2806D01B
:10085000622809D011F8010C74280AD00BE045F089
:10086000030544F00204EFE745F0040544F00104F9
:10087000EAE744F010043846214605F077FB411CB6
:1008800015D00021316171604FF40071F560F161A4
:100890007061200704D530460222002100F0E4F800
:1008A000306D40F0010030653046BDE8F081002039
:1008B000FBE72DE9F0410D460646104C206DC107BF
:1008C00004D0410804D020F00104F7E722460EE0EE
:1008D000542000F09AF807000ED0206D47F0010177
:1008E0000843542120653846FFF704FD3A4629465F
:1008F0003046BDE8F0418DE70020D6E7E412002045
:100900002DE9F04704464FF000094FF0FF37C56866
:10091000D4E90486A80707D0204600F055F93046F0
:1009200005F0ECFA002802DA3846BDE8F087280521
:1009300002D54046FFF739FE4C212046FFF7DAFC8E
:10094000206D20F0010020654846EEE710B5044612
:10095000AFF300802046BDE81040FFF718BC10B58B
:1009600000F07CF9BDE8104000F072B90048704713
:10097000E013002000487047E813002070477047DC
:100980007047704738B504460A4600206946AFF301
:100990000080002808BF38BD02460099204600F0BC
:1009A00084F9012038BD012000F0D3B9F8B5AFF3C8
:1009B0000080054600200C46102000BF0646A819FE
:1009C000A0420DD9324669460020AFF300800700EF
:1009D00008BF00F0BEF90098A04218BF0546C41930
:1009E000FFF7C8FF05600746F01D20F00700461915
:1009F000284600F053F9B44208BFF8BDA21B3146A7
:100A00003868BDE8F84000F050B970B50646FFF709
:100A1000B1FF056806F10B0020F00704B4429CBF4B
:100A2000002070BD2B466A68BAB11068A04210D38E
:100A300004F1080188423CBF5068586007D35168F0
:100A4000101941601168091B016058601460101D85
:100A500070BD13465268002AE7D121462846FFF7A9
:100A600091FF0028DED170BD2DE9F0410446164605
:100A70000D464769007B80072ED0384605F063FAA3
:100A800050BB3EB3012E02D0022E25D104E02046F9
:100A900000F025F905441DE0384605F042FAE1680A
:100AA000002841F01001E16005DA204600F058F816
:100AB0000120BDE8F081C9030BD56268E16A91426B
:100AC00000D81146A26911442269891A814200DDC9
:100AD00008460544002D01DA0220EAE7E16A606871
:100AE000E268814206D29103E06203D522F400312C
:100AF00041F01002A6690027AE4213DCE16A814290
:100B000001D90B4600E0034603EB060C2369ACEB6E
:100B1000030CAC4506DD814201D98C4600E08446D9
:100B20009C4505D1A760276042F02000A5620DE03A
:100B3000AD1BE669AE1B8142A66000D90846C01A0B
:100B4000281A20605819606022F0200003490840EC
:100B5000E060002084F84870ABE70000BFCFD7FF0B
:100B6000C16821F4001141F08001C1600021816061
:100B7000016070472DE9F047814614460E464FF05C
:100B8000FF383248D5685769054209D03846A1690F
:100B900005F020FA002811DB2C48C0430540E56031
:100BA0002B4632464946384605F02AFAA16920F01C
:100BB0000042B21A11440028A16103D02046FFF779
:100BC000CFFF4046BDE8F08770B504460569C06AAE
:100BD0006168884200D80846E16821F42011E1608C
:100BE000C90312D5A84208D02246411B2846FFF768
:100BF000C1FF10B14FF0FF3070BD0020E562C4E9C5
:100C00000150E06820F48030E060002070BD10B535
:100C10000446C06820F02000E060A16AA069884214
:100C20000DD02046FFF7D0FFE06820F4405040F0A0
:100C30001000E060A06AA0612069E062606044F298
:100C40004001E0688843E06010BD00001000020031
:100C5000002801D000F01CB87047000010B5014614
:100C600002A000F05DF8012010BD0000534947527A
:100C7000545245443A2052656469726563743A205F
:100C800063616E2774206F70656E3A20000000006B
:100C900001491820ABBEFEE72600020000210160DA
:100CA000C0E90110704710207047034640688C4629
:100CB000002818BF88423CBF03464068F8D3186834
:100CC0001844884207D00CF1030020F00700001DF3
:100CD000411A521A0146081D0A60FFF766BC10B59A
:100CE0000146C268900703D0900607D5886A0AE0DB
:100CF00000F03EF801210160881E10BD8B69486834
:100D000018440B69C01A91F848301BB191F849108A
:100D1000401A10BD1103FCD50028FADD401E10BD9D
:100D200070B505460C460A2000E06D1C00F018F86E
:100D300035B128780028F8D102E0641C00F010F8E2
:100D400014B120780028F8D1BDE870400A2000F0E6
:100D500007B810B500F010F8BDE81040FFF778BFF5
:100D600008B569468DF800000320ABBE08BD70478A
:100D700000487047E013002010B5012805D000217D
:100D800003A0FFF7CDFF012010BD09A1F8E7000087
:100D900053494752544D454D3A204F7574206F6664
:100DA0002068656170206D656D6F727900000000CC
:100DB0003A2048656170206D656D6F727920636FB0
:100DC000727275707465640010B5024800F055FBCE
:100DD00010BD0000AC00002070B50446002520685E
:100DE000806800F0010018B32068806820F00100DE
:100DF0002168886001F00CF9054613E001F008F95C
:100E0000401B02280ED92068806800F0010048B11C
:100E1000A06A40F01000A062E06A40F00100E062C9
:100E2000012070BD2068806800F001000028E5D135
:100E30000020F6E7024601208840104008B101205A
:100E400070470020FCE700BFFEE7000010B5044635
:100E50000548007818B9204600F008F810BD204673
:100E600000F05AF8FAE700003800002030B50246DA
:100E7000002000233CE01C465B1C115D0A2900D1C8
:100E800036E01D4C247834B11C4C24781C4D2D7850
:100E900004FB050028E01B4C2478A14203DB1A4C1C
:100EA0002478A14204DD154C2478184D2C7015E0EF
:100EB000CC1D144D2D78641B154D2D682C5D134DE4
:100EC0002C70D42901DBDA2905DDE72901DBEC29C7
:100ED00001DDD12902D100240C4D2C700B4C24785B
:100EE000074D2D7804FB05000A4C2478204400BFF0
:100EF000D45C002CBFD130BD240000202B0000208A
:100F00002D00002028000020290000202A000020B9
:100F1000180000202F0000202DE9F0430346DFF8E1
:100F2000848398F8006000200022ACE19046521CB7
:100F300013F808100A2900D1A5E1DFF86C8398F8AE
:100F40000080B8F1000F0AD0DFF8608398F80080C5
:100F5000DFF85C9399F8009008FB090092E1DFF854
:100F6000548398F80080414505DBDFF84C8398F8FE
:100F70000080414508DDDFF8348398F80080DFF811
:100F80003C9389F800807DE1382947D00CDCA1F141
:100F90002C08B8F10C0F4FD2DFE808F04A4E4C4E47
:100FA00038393A3B3C3D3E3F8D2914D008DC392985
:100FB00035D03B293AD03F2936D081293CD108E0B1
:100FC0008E290AD090290AD098290AD0E12933D154
:100FD00009E0EA2130E0EB212EE0EE212CE0EF21C8
:100FE0002AE0DF2128E09046521C13F80880DFF841
:100FF000D09289F80080C84698F80080B8F1C70FF1
:1010000001D1FB2101E0521EE12115E000BF00BF2C
:1010100000BF00BF00BF00BF00BF00BF00BFA1F105
:10102000200808F0FF0107E0BF2105E01F2103E0D1
:101030001D2101E01C2100BF00BF9046521C13F887
:101040000880DFF87C9289F80080521EC84698F824
:101050000080B8F1370F55D00CDCA8F12C08B8F19E
:101060000B0F78D2DFE808F0697770774748494A74
:101070004B4C4D00B8F1810F1AD00CDCB8F1380F91
:1010800041D0B8F1390F3FD0B8F13B0F4ED0B8F195
:101090003F0F60D143E0B8F18D0F10D0B8F18E0F43
:1010A00014D0B8F1900F18D0B8F1980F53D11BE0BD
:1010B0004FF0EA08DFF8089289F800804BE04FF023
:1010C000EB08DFF8FC9189F8008044E04FF0EE086F
:1010D000DFF8EC9189F800803DE04FF0EF08DFF891
:1010E000E09189F8008036E04FF0DF08DFF8D0911A
:1010F00089F800802FE000BF00BF00BF00BF00BF25
:1011000000BF00BF00BF00BFDFF8B48198F80080C7
:10111000A8F12008DFF8A89189F800801BE04FF0C3
:10112000BF08DFF89C9189F8008014E04FF01F0899
:10113000DFF88C9189F800800DE04FF01D08DFF892
:10114000809189F8008006E04FF01C08DFF870916C
:1011500089F8008000BF00BFC0296FDDDFF864811F
:1011600098F80080B8F1C00F0EDDDFF8588198F8CC
:101170000080A8F1C10808EB4808DFF84C9109EBA2
:10118000480898F8057000E00027DFF8348198F8E7
:101190000080B8F1C00F0EDDDFF8248198F80080E0
:1011A000A8F1C10808EB4808DFF81C9109EB4808D2
:1011B00098F804C001E04FF0000C4CEA470808F032
:1011C000FF04012C06DD4FF00008DFF8D89089F805
:1011D000008003E0DFF8CC8088F80060A1F1C1084E
:1011E00008EB4808DFF8E09009EB480818F80450CD
:1011F00005F10708DFF8BC9099F80090A8EB090802
:10120000DFF8C890D9F8009019F80880DFF8AC90A2
:1012100089F80080C84698F80080DFF8949099F823
:10122000009008FB0900DFF87C8098F800804044BB
:10123000DFF8708088F8006020E0FFE701F1070820
:10124000DFF8709099F80090A8EB0908DFF87C901F
:10125000D9F8009019F80880DFF8609089F80080CC
:10126000C84698F80080DFF8489099F8009008FB8D
:101270000900DFF8308098F800804044DFF84480AF
:1012800088F8001000BF13F80280B8F1000F7FF457
:101290004DAE4FF0FF08DFF82C9089F80080BDE8D4
:1012A000F08300002F000020240000202B000020ED
:1012B0002D00002028000020290000202A00002006
:1012C0003A0000203900002009970008180000208B
:1012D00010B5024800F0DEFB10BD0000DC0000206D
:1012E0007047000010B501225103084800F08AFE43
:1012F000012002F0E3FF00224FF40051034800F008
:1013000081FE012002F0DAFF10BD0000000C014058
:1013100072B600BFFEE7704738B5024600230020D2
:10132000009000BF92F82400012801D1022038BDAE
:10133000012082F8240000BF4868072812D21068F4
:10134000406B0C79641E04EB84051F24AC40A04361
:101350000D796D1E05EB85050C68AC4020431468C3
:10136000606327E048680D2812D21068006B0C7982
:10137000E41F04EB84051F24AC40A0430D79ED1F4E
:1013800005EB85050C68AC4020431468206311E030
:101390001068C06A0C790D3C04EB84051F24AC4036
:1013A000A0430D790D3D05EB85050C68AC4020434D
:1013B0001468E06208680A2812D31068C0680C78C4
:1013C0000A3C04EB44050724AC40A0430D780A3DD9
:1013D00005EB45058C68AC4020431468E0600FE0E5
:1013E000106800690C7804EB44050724AC40A04366
:1013F0000D7805EB45058C68AC40204314682061EE
:101400000868102802D00868112827D1174C1068E6
:10141000A0421ED11068806800F40000F0B9106886
:10142000806840F400001468A0600868102815D196
:101430000F4800680F4CB0FBF4F000EB8000400058
:10144000009002E00098401E009000980028F9D11A
:1014500004E0906A40F020009062012300BF002069
:1014600082F8240000BF184661E700000024014014
:101470001400002040420F00704770B504462068F9
:1014800005682068466806F0200020282DD105F068
:101490000200022829D1A06A00F0100018B9A06A41
:1014A00040F40070A0622068806800F46020B0F50D
:1014B000602F13D1207B88B92068406820F020007D
:1014C00021684860A06A20F48070A062A06A00F4DD
:1014D000805018B9A06A40F00100A0622046FFF7D2
:1014E000CBFF6FF012002168086006F080008028B2
:1014F00039D105F00400042835D1A06A00F01000AD
:1015000018B9A06A40F40050A0622068806800F416
:10151000E040B0F5E04F0DD02068406800F48060F6
:10152000D0B92068806800F46020B0F5602F13D136
:10153000207B88B92068406820F0800021684860DE
:10154000A06A20F48050A062A06A00F4807018B9EC
:10155000A06A40F00100A0622046FFF7DCFE6FF0B9
:101560000C002168086006F0400040280DD105F00D
:10157000010050B1A06A40F48030A062204600F023
:10158000A7F86FF001002168086070BD2DE9F041F7
:101590000446002700250026A84614B90120BDE80E
:1015A000F081A06810B1207D00B100BFA06A30B901
:1015B0000020E06284F82400204600F08BF82046EA
:1015C000FFF70AFC0746A06A00F01000002873D15C
:1015D000002F71D1A06A20F4885040F00200A06270
:1015E000E16960680843217B40EA41000643A06846
:1015F000B0F5807F02D0A068012802D14FF480703E
:1016000000E000200543207D012811D1207B38B95E
:10161000A069401E4FF4006141EA4030054307E0F5
:10162000A06A40F02000A062E06A40F00100E062A1
:101630002068406820F46940284321684860206899
:10164000806821490840304321688860A068B0F56F
:10165000807F02D0A068012802D14FF4807000E0A2
:101660000020B0F5807F03D1208A401E4FEA005849
:101670002068C06A20F4700040EA08002168C8624F
:101680002068806811490840B04208D10020E0621B
:10169000A06A20F0020040F00100A06211E0A06A00
:1016A00020F0020040F01000A062E06A40F001006B
:1016B000E062012705E0FFE7A06A40F01000A062A9
:1016C000012738466BE70000FDF7E1FFFE0E1FFF24
:1016D0007047000010B586B00446002002900390C9
:1016E0000490059025492068884245D100BF2448D0
:1016F000806940F40070224988610846806900F4DE
:101700000070019000BF00BF00BF0846806940F034
:10171000040088610846806900F00400019000BF61
:1017200000BF012002900320039002A9154800F099
:10173000C7FA154815490860002048600021134881
:1017400081608021C16049000161890041610021FF
:101750008161C16100F06CFA08B1FFF7D9FD00BFEB
:101760000A482062446200BF00220521122000F0D6
:101770000FFD122000F0FCFC06B010BD002401405B
:10178000001002400008014008000240DC00002078
:1017900070B504460CB9012070BD94F8200010B952
:1017A000204600F0AFF82068006840F00100216892
:1017B000086000F02DFC05460DE000F029FC401B00
:1017C0000A2808D9606A40F400306062052084F875
:1017D00020000120E0E72068406800F001000028B8
:1017E000EBD02068006820F002002168086000F05B
:1017F0000FFC05460DE000F00BFC401B0A2808D941
:10180000606A40F400306062052084F82000012006
:10181000C2E72068406800F002000028EBD1207E7B
:10182000012806D12068006840F080002168086027
:1018300005E02068006820F0800021680860607E74
:10184000012806D12068006840F040002168086047
:1018500005E02068006820F0400021680860A07E54
:10186000012806D12068006840F020002168086047
:1018700005E02068006820F0200021680860E07E14
:10188000012806D12068006820F010002168086057
:1018900005E02068006840F0100021680860207FA3
:1018A000012806D12068006840F00800216808601F
:1018B00005E02068006820F0080021680860607F6B
:1018C000012806D12068006840F004002168086003
:1018D00005E02068006820F0040021680860D4E971
:1018E0000201084321690843616908436168491E90
:1018F00008432168C86100206062012084F820004C
:10190000002049E710B586B00446002002900390FD
:10191000049005901A49206888422ED100BF1948CA
:10192000C06940F000701749C8610846C06900F0FE
:101930000070019000BF00BF00BF0846806940F002
:10194000040088610846806900F00400019000BF2F
:1019500000BFC814029000200390049002A90A4816
:1019600000F0AEF94FF48050029002200390032063
:10197000059002A9044800F0A3F906B010BD0000CC
:1019800000640040001002400008014001460022AF
:1019900091F82100022808D00420886300BF0020AD
:1019A00081F8200000BF012070470868006820F01F
:1019B0000E000B6818600868006820F001000B68D2
:1019C000186091F8403001209840CB6B586001209E
:1019D00081F8210000BF002081F8200000BF1046E0
:1019E000E2E7000070B50446002594F821000228C3
:1019F00003D00420A063012548E02068006820F09F
:101A00000E00216808602068006820F0010021684D
:101A100008601F492068884201D1012026E01C4946
:101A200014312068884201D110201FE01849283164
:101A30002068884201D1801518E015493C312068A2
:101A4000884201D1801411E0114950312068884248
:101A500002D14FF4803009E00D496431206888429A
:101A600002D14FF4801001E04FF08070084908392E
:101A70004860012084F8210000BF002084F8200085
:101A800000BF606B10B12046616B8847284670BD6F
:101A90000800024070B50446E06B056820680668DF
:101AA00094F84010042088402840002846D006F0D2
:101AB0000400002842D02068006800F0200028B907
:101AC0002068006820F004002168086057492068F9
:101AD000884201D1042027E054491431206888420B
:101AE00001D1402020E0514928312068884201D1AD
:101AF000001519E04D493C312068884202D14FF46D
:101B0000804011E0494950312068884202D14FF4A9
:101B1000802009E0454964312068884202D14FF4B1
:101B2000800001E04FF08060404908394860E06A79
:101B300000287AD02046E16A884776E094F8401081
:101B4000022088402840A0B306F0020088B3206835
:101B5000006800F0200040B92068006820F00A000A
:101B600021680860012084F82100304920688842FB
:101B700001D1022028E02D4914312068884201D18A
:101B8000202021E0294928312068884201D14015D0
:101B90001AE026493C312068884202D14FF40050B7
:101BA00012E0224950312068884203D14FF40030BE
:101BB0000AE017E01D4964312068884202D14FF4E1
:101BC000001001E04FF0007018490839486000BF6C
:101BD000002084F8200000BFA06A30B32046A16A2C
:101BE000884722E094F84010082088402840E0B15F
:101BF00006F00800C8B12068006820F00E002168D7
:101C0000086094F8401001208840E16B4860012092
:101C1000A06384F8210000BF002084F8200000BFEA
:101C2000206B10B12046216B884770BD0800024030
:101C30000146002209B901207047164B0868C01AF6
:101C40001423B0FBF3F08000086412480838C8631E
:101C5000022081F821000868026843F6F070824390
:101C6000D1E901031843CB6818430B6918434B694A
:101C700018438B691843CB69184302430868026014
:101C800000208863012081F82100002081F82000D5
:101C900000BFD1E70800024070B5044600F0B8F973
:101CA00006462546681C10B104480078054400BF6C
:101CB00000F0AEF9801BA842FAD370BD10000020DE
:101CC0002DE9F8470346002294466EE14FF00108E3
:101CD00008FA02F4D1F8008008EA0400A0427DD19D
:101CE000DFF8DCA2D1F80480A8EB0A09D0453AD08D
:101CF00014DCB8F1030F50D009DCB8F1000F31D07B
:101D0000B8F1010F1CD0B8F1020F49D120E0B8F1B1
:101D1000110F18D0B8F1120F42D11EE0B9F5881F8B
:101D200025D006DCB9F5803F20D0B9F5801F37D12A
:101D30001AE0B9F5001F18D0B9F5041F30D117E02B
:101D4000D1F80CC02DE0D1F80C8008F1040C28E08B
:101D5000D1F80C8008F1080C23E0D1F80C8008F1D0
:101D60000C0C1EE000BF00BF00BF00BF00BF00BFE3
:101D7000D1F80880B8F1000F02D14FF0040C0BE04D
:101D8000D1F80880B8F1010F03D14FF0080C1C61A5
:101D900002E04FF0080C5C6103E04FF0000C00E043
:101DA00000BF00BFFF2801D8984601E003F10408F6
:101DB0004646FF2802D84FEA820803E0A2F108084D
:101DC0004FEA88084746D6F800804FF00F0909FA15
:101DD00007F928EA09080CFA07F900E088E048EA60
:101DE0000908C6F80080D1F8048008F08058B8F1DE
:101DF000805F7DD100BFDFF8CC81D8F8188048F033
:101E00000108DFF8C091C9F81880C846D8F81880D2
:101E100008F00108CDF8008000BF00BF4FEAB938D4
:101E20004FEA920958F829504FEA82784FEA187918
:101E30004FF00F0808FA09F825EA0805DFF888814D
:101E4000434502D14FF0000816E0DFF8808143459A
:101E500002D14FF001080FE0DFF87481434502D151
:101E60004FF0020808E0DFF86C81434502D14FF0E3
:101E7000030801E04FF004084FEA82794FEA19792C
:101E800008FA09F848EA0505DFF84C814FEA92099B
:101E900048F82950D1F8048008F48018B8F5801F5C
:101EA0000AD1DFF83881D8F8008048EA0008DFF866
:101EB0002C91C9F8008009E0DFF82081D8F8008073
:101EC00028EA0008DFF81491C9F80080D1F80480EE
:101ED00008F40018B8F5001F10D1DFF8008108F1F0
:101EE0000408D8F8008048EA0008DFF8F09000E025
:101EF0005AE009F10409C9F800800DE0DFF8DC8040
:101F000008F10408D8F8008028EA0008DFF8CC902F
:101F100009F10409C9F80080D1F8048008F40038F8
:101F2000B8F5003F0ED1DFF8B480A8F10408D8F866
:101F3000008048EA0008DFF8A490A9F10409C9F874
:101F400000800DE0DFF89480A8F10408D8F8008044
:101F500028EA0008DFF88490A9F10409C9F8008094
:101F6000D1F8048008F48038B8F5803F0ED1DFF84E
:101F70006C80A8F10808D8F8008048EA0008DFF86B
:101F80005C90A9F10809C9F800800DE0DFF84C80E9
:101F9000A8F10808D8F8008028EA0008DFF83C908B
:101FA000A9F10809C9F80080521CD1F8008028FA6C
:101FB00002F8B8F1000F7FF489AEBDE8F8870000A1
:101FC000000011100010024000080140000C014008
:101FD00000100140001401400800014008040140C5
:101FE000024693680B400BB1012000E000207047CF
:101FF00010B5C26821EA020302EA010443EA04437D
:10200000036110BD0AB1016101E00B040361704777
:10201000014800687047000008000020034800687D
:102020000349097808440149086070470800002006
:102030001000002010B50848006840F01000064964
:102040000860032000F0E2F80F2000F007F800F02D
:102050005FF8002010BD0000002002402DE9F04193
:1020600088B004460027B846002600BF2348C06950
:1020700040F004002149C8610846C06900F004002E
:10208000019000BF00BF02A903A800F0B5FA069FA7
:102090001FB900F0D9FA054602E000F0D5FA450074
:1020A0001748B5FBF0F0A0F1010816481649086082
:1020B00040F2E7311448C160C0F80480002101619A
:1020C0008160816100F0BAFF064696B90E4801F0C2
:1020D00013F806466EB91E2000F04AF8102C07D2FD
:1020E000002221461E2000F053F80848046000E05A
:1020F0000126304608B0BDE8F08100000010024023
:1021000040420F0000080040AC0500200C000020F9
:1021100008B500BF1448806940F001001249886189
:102120000846806900F00100009000BF00BF00BFBA
:102130000846C06940F08050C8610846C06900F098
:102140008050009000BF00BF00220F21901E00F0C1
:102150001FF800BF0549486820F0E06040F00070BB
:10216000486000BF08BD00000010024000000140B0
:1021700001460846002809DB00F01F0301229A40AF
:1021800043099B0003F1E023C3F8002100BF70471F
:102190002DE9F05F80460D461646002703F088FEC5
:1021A000074639462A46334601F00700C0F1070AC0
:1021B000BAF1040F02D94FF0040A01E0C0F1070A96
:1021C000D14600F1040ABAF1070F02D24FF0000A1B
:1021D00001E0A0F1030AD4464FF0010A0AFA09FA15
:1021E000AAF1010A0AEA020A0AFA0CFA4FF0010BF4
:1021F0000BFA0CFBABF1010B0BEA030B4AEA0B04E5
:102200002146404603F05CFEBDE8F09F00BF00F0B1
:102210000702064B19684FF6FF031940044B0B43A6
:1022200043EA0221014B196000BF70470CED00E04A
:102230000000FA05012001490862704700000E42C3
:102240002DE9F04706464FF000080025002700243E
:10225000A146012E31D0022E56D0102E5FD1324829
:102260004468006800F0807008B33048C4F38341CC
:10227000475C04F4803078B12B484068C0F340409C
:102280002B4911F8008004F4803040B12948B0FB9C
:10229000F8F000FB07F502E0274807FB00F52248AD
:1022A000406800F48000B0F5800F01D1A94603E03A
:1022B00068000321B0FBF1F932E01B48046A04F422
:1022C0004070B0F5807F05D104F0020010B14FF4EA
:1022D000004918E004F44070B0F5007F07D11248BF
:1022E000406A00F0020010B149F640490BE004F4E6
:1022F0004070B0F5407F06D10B48006800F4003014
:1023000008B14FF224490BE000F0AEF906494968E4
:10231000C1F38131491C4900B0FBF1F900E000BF75
:1023200000BF4846BDE8F08700100240DF96000875
:10233000EF96000800127A0000093D00F8B5044647
:1023400000260025207800F0010000286BD000272F
:102350004348C06900F0805070B900BF4048C06970
:1023600040F080503E49C8610846C06900F0805086
:10237000009000BF00BF01273A48006800F4807059
:10238000B0B93848006840F4807036490860FFF7FB
:102390003FFE064606E0FFF73BFE801B642801D99E
:1023A0000320F8BD2F48006800F480700028F2D0A8
:1023B0002B48006A00F440752DB3A08800F44070EB
:1023C000A84220D02648006A20F440750120264902
:1023D0000860002008602248056205F0010090B105
:1023E000FFF716FE064608E0FFF712FE801B41F2DB
:1023F0008831884201D90320D3E71948006A00F0E8
:1024000002000028F0D01648006A20F4407061688D
:10241000084313490862012F04D10846C06920F01F
:102420008050C86100BF207800F00200022807D168
:102430000B48406820F44040A168084308494860C0
:10244000207800F01000102807D10548406820F4DB
:102450008000E1680843024948600020A1E70000CD
:1024600000100240007000404004424270B5044633
:102470000D460CB9012070BD5A48006800F00700F5
:10248000A8420ED25748006820F00700284355495B
:1024900008600846006800F00700A84201D001204B
:1024A000E9E7207800F0020002281DD1207800F032
:1024B0000400042805D14C48406840F4E0604A49D3
:1024C0004860207800F00800082805D14648406898
:1024D00040F46050444948604348406820F0F000B0
:1024E000A168084340494860207800F0010078B3B3
:1024F0006068012806D13C48006800F4003090B9BB
:102500000120B8E76068022806D13748006800F06B
:10251000007040B90120AEE73348006800F00200C7
:1025200008B90120A7E73048406820F0030061683F
:1025300008432D494860FFF76BFD064609E0FFF7A9
:1025400067FD801B41F28831884202D9032092E75F
:1025500007E02548406800F00C006168B0EB810F8F
:10256000EDD12048006800F00700A8420ED91D48B0
:10257000006820F0070028431A49086008460068F0
:1025800000F00700A84201D0012074E7207800F095
:102590000400042807D11448406820F4E060E16892
:1025A000084311494860207800F00800082808D145
:1025B0000D48406820F46050216940EAC1000A4992
:1025C000486000F061F808494968C1F30311074AFF
:1025D000515CC8400649086006480068FFF73EFDA8
:1025E000002048E70020024000100240F196000859
:1025F000140000200C0000200F2202600D4A5268D7
:1026000002F0030242600B4A526802F0F00282605C
:10261000084A526802F4E062C260064A526802F454
:102620006052D2080261044A126802F007020A608E
:10263000704700000010024000200240014800687E
:10264000704700001400002000B5FFF7F7FF0449B1
:102650004968C1F30221034A515CC84000BD000033
:10266000001002400197000800B5FFF7E7FF04499A
:102670004968C1F3C221034A515CC84000BD000053
:10268000001002400197000870B5002100220024CC
:1026900000230020134D696801F00C05F5B1042DED
:1026A00002D0082D19D101E00F4819E00F4DC1F3F8
:1026B0008346AB5D01F4803555B10A4D6D68C5F3B5
:1026C00040450B4E725D084D5D43B5FBF2F402E0F0
:1026D000084D03FB05F4204602E000BF024800BF9E
:1026E00000BF70BD0010024000127A00CD960008B5
:1026F000DD96000800093D00F8B504460CB901203C
:10270000F8BD207800F00100002878D0F848406833
:1027100000F00C0004280CD0F548406800F00C00D4
:10272000082811D1F248406800F48030B0F5803FAD
:102730000AD1EF48006800F4003000285FD06068DC
:1027400000285CD10120DBE700BF6068B0F5803F66
:1027500006D1E748006840F48030E549086028E089
:10276000606858B9E248006820F48030E0490860A9
:102770000846006820F4802008601AE06068B0F520
:10278000A02F0BD1DA48006840F48020D8490860B7
:102790000846006840F4803008600AE0D4480068C9
:1027A00020F48030D24908600846006820F4802078
:1027B000086000BF606888B1FFF72AFC054606E0A4
:1027C000FFF726FC401B642801D9032098E7C8487E
:1027D000006800F400300028F2D010E0FFF718FC89
:1027E000054606E0FFF714FC401B642801D90320CE
:1027F00086E7BF48006800F400300028F2D1207856
:1028000000F00200022857D1B948406800F00C00DF
:1028100050B1B748406800F00C00082818D1B448FF
:10282000406800F4803098B9B148006800F00200B8
:1028300020B12069012801D0012061E7AC4800687F
:1028400020F0F800616940EAC100A949086033E05E
:102850002069E8B10120A7490860FFF7D9FB0546C8
:1028600006E0FFF7D5FB401B022801D9032047E70C
:102870009F48006800F002000028F2D09C480068E1
:1028800020F0F800616940EAC1009949086013E04E
:10289000002098490860FFF7BBFB054606E0FFF7FC
:1028A000B7FB401B022801D9032029E790480068A4
:1028B00000F002000028F2D1207800F0080008287B
:1028C0002DD1A069B8B101208B490860FFF7A0FBAA
:1028D000054606E0FFF79CFB401B022801D90320B8
:1028E0000EE78348406A00F002000028F2D0012081
:1028F00002F0EEFB13E000207F490860FFF788FB41
:10290000054606E0FFF784FB401B022801D903209F
:10291000F6E67748406A00F002000028F2D12078FD
:1029200000F00400042873D100277148C06900F04A
:10293000805070B900BF6E48C06940F080506C494B
:10294000C8610846C06900F08050009000BF00BF19
:1029500001276A48006800F48070B0B967480068D1
:1029600040F4807065490860FFF752FB054606E0B9
:10297000FFF74EFB401B642801D90320C0E65F48E7
:10298000006800F480700028F2D000BFE0680128E1
:1029900006D15748006A40F001005549086227E017
:1029A000E06858B95248006A20F0010050490862B6
:1029B0000846006A20F00400086219E0E068052873
:1029C0000BD14B48006A40F00400494908620846B0
:1029D000006A40F0010008620AE04548006A20F001
:1029E0000100434908620846006A20F004000862BA
:1029F00000BFE068A0B1FFF70BFB054609E0FFF759
:102A000007FB401B41F28831884202D9032077E658
:102A100022E03748006A00F002000028EFD012E000
:102A2000FFF7F6FA054608E0FFF7F2FA401B41F21D
:102A30008831884201D9032062E62D48006A00F0FF
:102A400002000028F0D1012F05D12948C06920F0EB
:102A500080502749C86100BFE069C8B32448406876
:102A600000F00C00082860D0E069022848D100205E
:102A700020490866FFF7CCFA054606E0FFF7C8FADA
:102A8000401B022801D903203AE61948006800F0EB
:102A900000700028F2D1206AB0F5803F07D11448B9
:102AA000406820F40030A168084311494860D4E927
:102AB000080108430E49496821F4741108430C4980
:102AC000486001200B490866FFF7A2FA054607E0B7
:102AD0003DE0FFF79DFA401B022801D903200FE6D5
:102AE0000348006800F000700028F2D02FE00000DA
:102AF0000010024000004242800442420070004048
:102B0000002014490866FFF783FA054606E0FFF740
:102B10007FFA401B022801D90320F1E50E48006826
:102B200000F000700028F2D111E0E069012800D126
:102B3000E6E50948466806F48031206A814204D1FE
:102B400006F47011606A814201D00120D8E50020AE
:102B5000D6E50000000042420010024070B5044675
:102B600000250CB9012070BD607C20B900202074C4
:102B7000204600F053F802206074204600F058F917
:102B800018B1042060740120EDE7204602F0BFFA7E
:102B900018B1042060740120E5E72068406820F047
:102BA000070021684860A06828B11B48006820F031
:102BB0000100194908601848001F006820F460707F
:102BC000A16808431449091F08606068401C08B1E7
:102BD000656809E00120FFF733FB05461DB90420B5
:102BE00060740120BFE76D1EC5F303402168886053
:102BF000A8B22168C860204602F0A6FA18B10420E5
:102C000060740120AFE70021E17301216173A173BA
:102C1000012060740020A6E7306C004038B50446FF
:102C20000B492068884212D1FFF704FB00BF094816
:102C3000C06940F000600749C8610846C06900F0FB
:102C40000060009000BF00BF01200349086038BD4C
:102C500000280040001002403C0442422DE9F047A9
:102C600004460D46904600260027B14604B115B92A
:102C70000120BDE8F08700BF207C012801D102209F
:102C8000F7E70120207400BF02206074B8F1000F44
:102C900006D1E978E17369786173A978A1730BE0D3
:102CA000E87802F029FAE073687802F025FA607398
:102CB000A87802F021FAA073A27B617BE07B02F08E
:102CC00086FA2073207B2870204602F066FA0646BA
:102CD0004FF46160B6FBF0F9B9F1180F2FD9182045
:102CE000B9FBF0F000EB4000C000C0EB4011C1EBBD
:102CF0000020A6EB00163146204602F0C1FA38B19A
:102D00000420607400BF0020207400BF0120B0E7E1
:102D1000204602F036FA0746781C80B1B7420ED240
:102D20000B4807443946204602F093FA38B1042094
:102D3000607400BF0020207400BF012099E70120CB
:102D4000607400BF0020207400BF00BF91E7000046
:102D5000805101002DE9F04704460D4690460026BB
:102D6000002704B115B90120BDE8F08700BF207C21
:102D7000012801D10220F7E70120207400BF0220C2
:102D80006074B8F1000F0BD128784FF461614843AB
:102D90006978C1EB011100EB8100A978461812E0B7
:102DA000287802F0A9F94FF4616100FB01F9687815
:102DB00002F0A2F9C0EB001009EB8009A87802F03C
:102DC0009BF909EB00063146204602F059FA38B16A
:102DD0000420607400BF0020207400BF0120C3E7FE
:102DE0002068406820F0050021684860204602F015
:102DF000C8F90746781C80B1B7420ED20B48074489
:102E00003946204602F025FA38B10420607400BF2C
:102E10000020207400BF0120A6E70120607400BFDD
:102E20000020207400BF00BF9EE700008051010019
:102E300070B5044600250CB9012070BD20684068BB
:102E400020F0080021684860FFF7E2F8054607E037
:102E5000FFF7DEF8401BB0F57A7F01D90320ECE7DD
:102E60002068406800F008000028F1D00020E4E766
:102E700010B504460CB9012010BD606A38B960680D
:102E8000B0F5827F00D105E00021E16102E0002180
:102E9000216161610021A16294F8510028B90020EC
:102EA00084F85000204600F043F8022084F85100D6
:102EB0002068006820F0400021680860A08800F4C5
:102EC0008270218901F404410843A18901F4006161
:102ED0000843217C01F002010843217D01F001013A
:102EE0000843218B01F400710843217F01F0380170
:102EF00008432021095D01F080010843218D01F480
:102F000000510843216808600421A06901EA1040CB
:102F1000216848602068C06920F400602168C861A9
:102F200000206065012084F851000020A4E7000023
:102F300010B586B0044600200290039004900590DE
:102F40001949206888422DD100BF1848806940F493
:102F50008050164988610846806900F480500190CD
:102F600000BF00BF00BF0846806940F004008861D0
:102F70000846806900F00400019000BF00BFA02057
:102F80000290022003900320059002A90848FEF752
:102F900097FE4020029000200390049002A904486C
:102FA000FEF78EFE06B010BD00300140001002405A
:102FB000000801407047704730B502460B4600BF1D
:102FC00092F83C00012801D1022030BD012082F896
:102FD0003C0000BF022082F83D0010684468106881
:102FE000816824F070041868044310684460104D30
:102FF0001068A8420BD01068B0F1804F07D00D4D7B
:103000001068A84203D00C4D1068A84205D121F0E9
:1030100080015868014310688160012082F83D00FA
:1030200000BF002082F83C0000BF00BFCDE70000D9
:10303000002C0140000400400008004010B5044688
:103040000CB9012010BD94F83D0028B9002084F887
:103050003C00204600F026F8022084F83D00211DA7
:10306000206802F0A9FB012084F8460000BF84F824
:103070003E0001213F2001554020015541200155CE
:1030800000BF00BF012084F84200432001554420C6
:1030900001554520015500BF012084F83D00002066
:1030A000D0E7000008B5124A016891420DD100BF77
:1030B0001049896941F400610E4A9161114689699C
:1030C00001F40061009100BF11E00168B1F1804F8F
:1030D0000DD100BF0749C96941F00101054AD1611D
:1030E0001146C96901F00101009100BF00BF08BD90
:1030F000002C014000100240014691F83D000128DB
:1031000001D001207047022081F83D000868C068A6
:1031100040F001000B68D860124B086898420BD051
:103120000868B0F1804F07D00F4B0868984203D071
:103130000E4B086898420CD10868806800F00702BE
:10314000062A0CD00868006840F001000B6818607F
:1031500005E00868006840F001000B681860002076
:10316000D0E70000002C01400004004000080040AF
:103170002DE9F04104460D46002700BF94F83C00BD
:10318000012802D10220BDE8F081012084F83C0032
:1031900000BF022084F83D002068866826F077068C
:1031A00026F47F46206886602868502833D00CDCDF
:1031B000202850D004DC00284BD0102851D149E001
:1031C000302849D040284CD139E060282DD07028D3
:1031D00007D0B0F5805F03D0B0F5005F41D10DE0BE
:1031E00041E0D5E902136A68206802F01FFB2068FD
:1031F000866846F077062068866034E0D5E90213D9
:103200006A68206802F012FB2068806840F4804001
:103210002168886027E0EA686968206802F0D6FBC8
:103220005021206802F00DFB1DE0EA686968206803
:1032300002F0DFFB6021206802F003FB13E0EA6884
:103240006968206802F0C2FB4021206802F0F9FAA8
:1032500009E000BF00BF00BF2968206802F0F1FA52
:1032600001E0012700BF00BF012084F83D0000BF3E
:10327000002084F83C0000BF384684E7704710B552
:10328000044620680069C0F34000D8B12068C068D7
:10329000C0F34000B0B16FF0020021680861012066
:1032A00020772068806900F0030018B12046FFF7FE
:1032B000E5FF05E0204600F0ADF8204600F061F99A
:1032C0000020207720680069C0F38000D8B1206812
:1032D000C068C0F38000B0B16FF0040021680861DD
:1032E000022020772068806900F4407018B12046E1
:1032F000FFF7C4FF05E0204600F08CF8204600F000
:1033000040F90020207720680069C0F3C000D8B1E0
:103310002068C068C0F3C000B0B16FF00800216839
:103320000861042020772068C06900F0030018B10C
:103330002046FFF7A3FF05E0204600F06BF820468B
:1033400000F01FF90020207720680069C0F300100A
:10335000D8B12068C068C0F30010B0B16FF01000A1
:1033600021680861082020772068C06900F4407057
:1033700018B12046FFF782FF05E0204600F04AF82A
:10338000204600F0FEF8002020772068006900F059
:10339000010058B12068C06800F0010030B16FF042
:1033A000010021680861204600F0ECF820680069FF
:1033B000C0F3C01058B12068C068C0F3C01030B16D
:1033C0006FF08000216808612046FFF7F3FD206858
:1033D0000069C0F3801058B12068C068C0F3801045
:1033E00030B16FF0400021680861204600F0D6F847
:1033F00020680069C0F3401058B12068C068C0F36D
:10340000401030B16FF02000216808612046FFF7BE
:10341000D2FD10BD70472DE9F04104460D46164619
:10342000002700BF94F83C00012802D10220BDE82B
:10343000F081012084F83C0000BF36B1042E1BD07F
:10344000082E31D00C2E5ED145E02946206802F0CE
:1034500001FA2068806940F00800216888612068CE
:10346000806920F0040021688861206880692969EA
:1034700008432168886148E02946206802F01AFA6A
:103480002068806940F40060216888612068806954
:1034900020F480602168886120688069296940EA99
:1034A00001202168886130E02946206802F036FA60
:1034B0002068C06940F008002168C8612068C069C0
:1034C00020F004002168C8612068C06929690843A8
:1034D0002168C86119E02946206802F053FA206883
:1034E000C06940F400602168C8612068C06920F4A8
:1034F00080602168C8612068C069296940EA0120AC
:103500002168C86101E0012700BF00BF00BF0020A3
:1035100084F83C0000BF384689E710B504460CB972
:10352000012010BD94F83D0028B9002084F83C002B
:10353000204600F025F8022084F83D00211D206877
:1035400002F03AF9012084F8460000BF84F83E00FA
:1035500001213F200155402001554120015500BF68
:1035600000BF012084F8420043200155442001554A
:103570004520015500BF012084F83D000020D0E720
:103580007047704710B5044603492068884201D14E
:10359000FEF744FD10BD0000000800407047704772
:1035A000704700002DE9F84F044620680568206840
:1035B000C668206847694FF00009CA4605F00F0940
:1035C000B9F1000F0AD105F0200038B106F0200053
:1035D00020B1204602F026FBBDE8F88FB9F1000FBC
:1035E0007BD007F0010018B906F49070002874D061
:1035F00005F0010030B106F4807018B1606C40F045
:103600000100606405F0040030B107F0010018B15A
:10361000606C40F00200606405F0020030B107F019
:10362000010018B1606C40F00400606405F008000F
:1036300048B106F0200010B907F0010018B1606C25
:1036400040F008006064606C002845D005F0200060
:1036500028B106F0200010B1204602F0E3FA2068FD
:103660004069C0F3801A606C00F0080010B9BAF12C
:10367000000F2CD0204602F08FFA2068406900F03D
:10368000400000B300BF00BF2168143151E8001FA3
:1036900021F040002168143141E80002002AF3D1F2
:1036A00000BFE06B50B17748E16B4863E06BFEF719
:1036B00099F988B1E06B416B88470DE02046FFF730
:1036C0006FFF09E009E02046FFF76AFF04E02046AB
:1036D000FFF766FF002060647EE7206B012877D14A
:1036E00005F01000002873D006F010000028FAD072
:1036F00000BF0020009020680068009020684068AB
:10370000009000BF00BF2068406900F04000002822
:103710005FD0E06B006840681FFA80F8B8F1000FD6
:1037200055D0A08D404552DDA4F82E80E06B806915
:10373000202843D000BF00BF21680C3151E8001F92
:1037400021F4807021680C3141E80002002AF3D195
:1037500000BF00BF00BF2168143151E8001F21F0F5
:1037600001002168143141E80002002AF3D100BFB2
:1037700000BF00BF2168143151E8001F21F0400054
:103780002168143141E80002002AF3D100BF202053
:1037900084F842000020206300BF00BF21680C3184
:1037A00051E8001F21F0100021680C3141E80002AF
:1037B000002AF3D100BFE06BFEF7E8F80220606357
:1037C000A08DE28D801A81B22046FFF7E8FE03E764
:1037D00042E0A08DE18D401A1FFA80F8E08DD0B351
:1037E000B8F1000F37D000BF00BF21680C3151E89D
:1037F000001F21F4907021680C3141E80002002A7A
:10380000F3D100BF00BF00BF2168143151E8001F91
:1038100021F001002168143141E80002002AF3D1AF
:1038200000BF202084F842000020206300BF00BFBA
:1038300021680C3151E8001F21F0100021680C3183
:1038400041E80002002AF3D100BF02206063414634
:103850002046FFF7A4FEBFE605F0800030B106F079
:10386000800018B1204602F0D9FAB5E605F0400014
:1038700030B106F0400018B1204602F0C3F9ABE6C3
:1038800000BFA9E6855B000810B504460CB901200D
:1038900010BDA06900B100E000BF94F8410028B954
:1038A000002084F84000204600F02AF8242084F804
:1038B00041002068C06820F400502168C86020469C
:1038C00002F02EFA2068006920F490402168086117
:1038D0002068406920F02A00216848612068C0689B
:1038E00040F400502168C86000206064202084F803
:1038F000410084F842000020606300BFC8E7000078
:1039000010B586B004460020029003900490059004
:103910005149206888422FD100BF5048806940F447
:1039200080404E4988610846806900F480400190DB
:1039300000BF00BF00BF0846806940F004008861F6
:103940000846806900F00400019000BF00BF4815E0
:103950000290022003900320059002A94048FEF740
:10396000AFF94FF48060029000200390049002A908
:103970003B48FEF7A5F96DE03A492068884236D108
:1039800000BF3648C06940F400303449C861084679
:10399000C06900F40030019000BF00BF00BF0846BE
:1039A000806940F0040088610846806900F00400E6
:1039B000019000BF00BF042002900220039003206A
:1039C000059002A92648FEF77BF908200290002006
:1039D0000390049002A92248FEF772F90022052103
:1039E0002620FEF7D5FB2620FEF7C2FB32E01E495B
:1039F000206888422ED100BF1848C06940F480205A
:103A00001649C8610846C06900F48020019000BFD3
:103A100000BF00BF0846806940F008008861084682
:103A2000806900F00800019000BF00BF08150290F7
:103A3000022003900320059002A90C48FEF740F9EC
:103A40004FF40060029000200390049002A9074800
:103A5000FEF736F906B010BD0038014000100240F4
:103A6000000801400044004000480040000C0140B4
:103A70007047704700BFFEE70A49096801F001017D
:103A800071B108498039096801F0010141B100BFF5
:103A90004FF0604109680029FAD04FF06042107081
:103AA00070470000800E00E01FB5FF20009000204E
:103AB0000190029069460248FEF702F91FBD00001E
:103AC000000C014070B5054600240AE0E006010E36
:103AD000002000F097F92946204600F005F8601C08
:103AE000C4B2082CF2DB70BD70B505460E4600244A
:103AF00009E0E806010E204600F084F9304600F0A7
:103B00001FFB601CC4B2802CF3DB70BD70B5054692
:103B100030480078402801DA002404E02D4800787D
:103B2000402800DB01242B480078402803D115B140
:103B3000012100F0D5FA0022FF212748FEF762FAA2
:103B4000FFF7B2FF5CB900224FF400712248FEF784
:103B500059FA012211022048FEF754FA0BE0012C19
:103B600009D1002221021C48FEF74CFA0122510221
:103B70001948FEF747FA0122D1031748FEF742FA27
:103B8000012251031448FEF73DFA012000F096FB94
:103B900001F08EFB064600224FF400510E48FEF75E
:103BA00031FA012000F08AFB00224FF400410A485C
:103BB000FEF728FA00F0DAFD064A5178107800F096
:103BC00021F90648007808B1F04300E03046C0B261
:103BD00070BD00003B000020000C01403E000020B2
:103BE0002DE9F04F89B00746894615469A46387840
:103BF000079097F80180B8780890CDF80C80089C61
:103C0000DDF80C8009EB0800802803DDC9F1800095
:103C1000C0B203902819402802DDC5F14000C4B2AB
:103C2000E11704EB5171C910A4EBC10139B1204671
:103C3000E11704EB5171C910491CCCB205E02046D4
:103C4000E11704EB5171C1F3C7044FF0000BBAF157
:103C5000020F0BD0002000900898401EC3B2A8F1BC
:103C60000100C2B22946484600F051F800263CE067
:103C700005EBC600C0B20490049838280ADD284637
:103C8000E91705EB5171C910A5EBC10101F0FF0B5C
:103C9000382004904846049900F0B4F8079806FBD1
:103CA000080002900020059019E00298411C029142
:103CB000385C0690BBF1000F0AD000F0D8F90699E5
:103CC00001FA0BF10843C0B2019000F039FA02E0AA
:103CD000069800F035FA0598401CC0B2059003998B
:103CE00005988842E1DB701CC6B2A642C0DBBAF17F
:103CF000000F09D10898401EC3B2A8F10100C2B25A
:103D00002946484600F02CF909B0BDE8F08F2DE9AE
:103D1000FF5F0C4692461D46681CC5B24FF0FF0877
:103D20002046E11704EB5171C910A4EBC10101F069
:103D3000FF0BA4EB0B00C4B2CBF10800A84205DDD9
:103D4000C5F1080048FA00F82E4602E0CBF1080061
:103D5000C6B208FA0BF000F0FF082146009800F008
:103D600051F800270FE000F082F981460E98FF28F5
:103D700002D149EA080901E029EA0809484600F0A9
:103D8000DFF9781CC7B25745EDDD12E006F10800F7
:103D9000C6B204F10800C4B22146009800F032F81F
:103DA000002704E00E9800F0CBF9781CC7B2574505
:103DB000F8DD06F10800A842E8DDAE421FDAA91BD3
:103DC000FF208840C04300F0FF0804F10800C1B2A2
:103DD000009800F017F800270FE000F048F981463E
:103DE0000E98FF2802D149EA080901E029EA0809EA
:103DF000484600F0A5F9781CC7B25745EDDDBDE88F
:103E0000FF9F00002DE9F04105460C467F2D01D8AB
:103E10003F2C01D9BDE8F0811B4805704470014674
:103E20008978E21704EB5272B1EBE20F15D020460D
:103E3000E11704EB5171C1F3C701134A91701046A9
:103E4000807840F0B807002605E03146384600F09B
:103E500047F9701CC6B2022EF7DB0B490878C11770
:103E600000EB91618E112846E91705EB91618911EC
:103E7000A5EB8111CDB245F040073146384600F040
:103E80002FF900BFC6E700003B00002038B504460C
:103E900000F038F8012291031748FEF7B3F802202A
:103EA00000F00CFA0020154908704870887014481A
:103EB000047000213F2000F013F901213F2000F0A1
:103EC0000FF90021C02000F00BF90121C02000F003
:103ED00007F90CB1FF2100E000210846FFF7F2FDD1
:103EE00000210846FFF78EFF00203F237F22014676
:103EF0000090FFF70CFF38BD000C01403B00002094
:103F00003E00002010B500224FF480411348FEF718
:103F100079F80022FF211148FEF774F800224FF4CF
:103F200080710E48FEF76EF800224FF400710B48C6
:103F3000FEF768F800224FF480510848FEF762F857
:103F400000224FF400410548FEF75CF800224FF4D0
:103F500000510248FEF756F810BD0000000C014069
:103F60002DE9FF4F81B00C4692461D46681CC5B234
:103F70004FF0FF082046E11704EB5171C910A4EB84
:103F8000C10101F0FF0BA4EB0B00C4B2CBF10800A0
:103F9000A84205DDC5F1080048FA00F82E4602E007
:103FA000CBF10800C6B208FA0BF000F0FF0821467A
:103FB0000198FFF727FF002712E000F058F881462C
:103FC0006FEA0900C0B20090009800EA080029EAF0
:103FD000080140EA0109484600F0B2F8781CC7B26F
:103FE0005745EADD17E006F10800C6B204F1080003
:103FF000C4B221460198FFF705FF002709E000F051
:1040000036F881466FEA0901C8B200F099F8781CC9
:10401000C7B25745F3DD06F10800A842E3DDAE4222
:1040200022DAA91BFF208840C04300F0FF0804F1FA
:104030000800C1B20198FFF7E5FE002712E000F08A
:1040400016F881466FEA0900C0B20090009800EAB5
:10405000080029EA080140EA0109484600F070F822
:10406000781CC7B25745EADD05B0BDE8F08F10B542
:104070000120FFF74BFD0020FFF748FD10BD2DE9A3
:10408000F04180460C4617462546E01704EB507079
:10409000C010A4EBC000201AC1B24046FFF7B2FE28
:1040A000FFF7E5FF0646FF2F0BD12046E11704EB93
:1040B0005171C910A4EBC102012191403143CEB22C
:1040C00009E02046E11704EB5171C910A4EBC102CD
:1040D000012191408E43304600F032F8BDE8F08176
:1040E00070B505460C465CB900224FF400711348C8
:1040F000FDF788FF012211021048FDF783FF0BE056
:10410000012C09D1002221020C48FDF77BFF01227E
:1041100051020A48FDF776FF00224FF4805107480C
:10412000FDF770FF284601F0B3FEFDF7DBF8012232
:1041300011030248FDF766FF70BD0000000C01404E
:104140002DE9F04106465A480078802801DBBDE899
:10415000F08157480078402801DA002404E05448F0
:104160000078402800DB012451480078402802D123
:104170000121FFF7B5FF4E494878C11700EB517197
:10418000C910A0EBC101CFB2002F67D0FFF76FFFBE
:10419000054606FA07F02843C5B24648007808B13C
:1041A000E843C5B25CB900224FF400714248FDF704
:1041B00029FF012211024048FDF724FF0BE0012CEA
:1041C00009D1002221023C48FDF71CFF01225102C7
:1041D0003948FDF717FF284601F05AFEFDF782F82F
:1041E000334A52780832D1B2314A1078FFF70AFECA
:1041F000FFF73DFF0546C7F1080146FA01F0054308
:104200002C48007808B1E843C5B25CB900224FF4ED
:1042100000712948FDF7F6FE012211022648FDF73C
:10422000F1FE0BE0012C09D1002221022248FDF70A
:10423000E9FE012251022048FDF7E4FE284601F084
:1042400027FEFDF74FF81A4A5278083AD1B2184AB9
:104250001278521CD0B2FFF7D5FD27E01548007840
:1042600008B1F043C6B25CB900224FF400711248A5
:10427000FDF7C8FE012211020F48FDF7C3FE0BE057
:10428000012C09D1002221020B48FDF7BBFE0122BF
:1042900051020948FDF7B6FE304601F0F9FDFDF781
:1042A00021F803480078401C0149087000BF4EE720
:1042B0003B0000203E000020000C014010B50446E9
:1042C00002E0142001F010FE201EA4F10101CCB286
:1042D000F7D110BD1149086009688978104A11703A
:1042E0000E490968C9780F4A11700C490968497864
:1042F00009020D4A11800949096809781288114498
:10430000094A1180054909684979084A1170034929
:1043100009688979064A117070470000180000206A
:104320002B0000202C000020260000202800002068
:10433000290000200EB50020009001900290124844
:1043400012490860002111488160017301754FF422
:104350006021C16100200D49486001210B480161C5
:10436000FDF714F908B1FCF7D3FF002000900120FD
:1043700001900020029069460448FCF7CDFF08B187
:10438000FCF7C6FF0EBD000000240140AC00002079
:1043900010B50B480B4908601020486000210948FF
:1043A0008160C16001614161017641768176C176AB
:1043B00001774177FDF7ECF908B1FCF7A9FF10BDD3
:1043C000006400402001002008B500BF0A48406991
:1043D00040F00100084948610846406900F00100CA
:1043E000009000BF00BF002205210B20FDF7D0FE8A
:1043F0000B20FDF7BDFE08BD0010024000B585B0E2
:104400000020019002900390049000BF374880691B
:1044100040F01000354988610846806900F01000BE
:10442000009000BF00BF00BF0846806940F0200038
:1044300088610846806900F02000009000BF00BF3E
:1044400000BF0846806940F0040088610846806922
:1044500000F00400009000BF00BF00BF0846806964
:1044600040F0080088610846806900F0080000906C
:1044700000BF00BF00224FF400511D48FDF7C2FDF0
:10448000002248F212111B48FDF7BCFD00224FF23A
:10449000FF311948FDF7B6FD4FF40050019001209F
:1044A0000290002003900220049001A91048FDF71B
:1044B00007FC48F2121001900120029000200390A6
:1044C0000220049001A90B48FDF7FAFB4FF2FF30E0
:1044D000019001200290002003900220049001A985
:1044E0000548FDF7EDFB05B000BD000000100240DF
:1044F0000010014000080140000C01401CB50020E4
:10450000019000901748184908604FF0FF3048604C
:10451000002115488160FEF721FB08B1FCF7F8FE89
:1045200000208DF804008DF805008DF806000122AA
:1045300001A90D48FEF70EFC08B1FCF7E9FE0120C9
:104540008DF800008DF801008DF8020000208DF834
:104550000300012269460448FEF780FB08B1FCF71E
:10456000D7FE1CBD002800404801002010B50E48B1
:104570000E4908604FF48270486000210B4881604A
:10458000C160016141614FF4007181611821C16115
:1045900000210162416281620A21C162FEF768FC6A
:1045A00008B1FCF7B5FE10BD003001405C010020F1
:1045B00000B587B00020039004900590069001900C
:1045C00002901548154908600020486000211348F2
:1045D00081604FF6FF71C16000210161416181611D
:1045E000FEF72CFD08B1FCF793FE4FF480500390CA
:1045F00003A90A48FEF7BCFD08B1FCF789FE0020BC
:104600000190029001A90548FEF7D6FC08B1FCF71D
:104610007FFE07B000BD0000002C0140B401002067
:1046200000B58DB0002009900A900B900C90079077
:1046300008901C216846FBF75DFE4FF080401E4944
:1046400008600020486000211B4881604FF6FF7120
:10465000C160002101618161FEF7F0FC08B1FCF747
:1046600057FE4FF48050099009A91348FEF780FDCA
:1046700008B1FCF74DFE1048FEF74FFF08B1FCF7FC
:1046800047FE00200790089007A90B48FEF794FC0E
:1046900008B1FCF73DFE60200090002001900290E0
:1046A0000490002269460448FEF7B5FE08B1FCF705
:1046B0002FFE0DB000BD0000FC01002010B50B481E
:1046C0000B4908604FF4165048600021084881608B
:1046D000C16001610C21416100218161C161FFF76D
:1046E000D3F808B1FCF714FE10BD000000380140FB
:1046F0004402002010B50B480B4908604FF41650D7
:104700004860002108488160C16001610C2141615D
:1047100000218161C161FFF7B7F808B1FCF7F8FD2E
:1047200010BD0000004400408C02002010B50B4872
:104730000B4908604FF4E13048600021084881606F
:10474000C16001610C21416100218161C161FFF7FC
:104750009BF808B1FCF7DCFD10BD000000480040EC
:10476000D402002000BFFEE700BFFEE71FB5FF2018
:104770000090012001900220039069460148FDF756
:104780009FFA1FBD000C01402DE9F04F87B0044691
:104790000020069082460590049000250390029028
:1047A0000190002600278046E01DB2490978401A92
:1047B000B1490968085CB14908700A2C0FD1002082
:1047C000AF490860AF480168AF480078AF4A127837
:1047D00000FB0210AB49086007B0BDE8F08FA548A8
:1047E0000078844206DBAA480078844202DCA948AB
:1047F000008800B9F0E7A148007800B9ECE7A648C6
:10480000007820B1A54800789C49087013E0D42CAA
:1048100001DBDA2C05DDE72C01DBEC2C01DDD12CF2
:1048200009D197480168954800789D4A127800FBA5
:10483000121093490860302C0ADB392C08DC8D48B3
:104840000078C0F137008C490968085C8B49087012
:104850008B48006889490978914A127801FB020067
:104860007F280CD98748006887490978874A1278D9
:1048700001FB020083490860002081490860002094
:1048800002900AE07C4801680298C01D085C284438
:1048900085B20298401CC0B2029076480078211A76
:1048A00002988142EEDC78480078684385B2784807
:1048B000007870490978401AC01D05EBC00085B228
:1048C0002846E91705EB5171C9100391E91705EB6B
:1048D0005171C910A5EBC10101F0FF0A50464FEA22
:1048E000EA710AEB5171C910AAEBC101C9B2059175
:1048F00000200190A8E000269DE00598072805DD2E
:10490000002005900498401C80B20490DDE903016A
:104910000844401C58490968085C069058480168DA
:104920005F4A1278019800FB02101FFA80F95D4877
:104930000078B8B15C48007858B153480078801BC3
:10494000524909784F4A126800FB01201FFA80FB88
:104950001FE04C4800684D49097806FB01001FFA2A
:1049600080FB16E05048007858B147480078801B1B
:1049700046490978434A126800FB01201FFA80FB70
:1049800007E0404800684149097806FB01001FFA2A
:1049900080FB002745E04FF000083CE0DDE9051012
:1049A000FCF748FAC0B14148007850B1404B1A7842
:1049B00009EB0703D9B20BEB0803D8B2FFF75FFB93
:1049C00025E03B4B1A780BEB0803D9B209EB070340
:1049D000D8B2FFF754FB1AE036480078B8B1334834
:1049E000007850B1344B1A7809EB0703D9B20BEBBE
:1049F0000803D8B2FFF743FB09E02F4B1A780BEB03
:104A00000803D9B209EB0703D8B2FFF738FB08F166
:104A1000010000F0FF081D4800788045BEDB781CCF
:104A2000C7B21F4800788742B5DB0598401CC0B26A
:104A30000590701CC6B2144800788642FFF65DAF40
:104A40000198401CC0B201900C4909780198884235
:104A5000FFF651AF1948007808490978104A1278D2
:104A600001FB02000649096808440549086000BFC7
:104A7000B2E6000028000020180000202A000020D4
:104A800030000020340000202C0000202E000020E8
:104A90002900002026000020240000202B000020F8
:104AA0002D0000201E0000201D0000201C00002002
:104AB0002000002025000020220000202F000020E0
:104AC0002DE9F04F87B005460020069082460590FC
:104AD0000490002403900290019000260027804655
:104AE000E81DA4490978401AA3490968085CA3494C
:104AF00008700A2D0FD17F20A1490860A1480068E5
:104B0000A1490978A14A127801FB02009D49086079
:104B100007B0BDE8F08F97480078854206DB9C48D7
:104B20000078854202DC9B48008800B9F0E7934892
:104B3000007800B9ECE79848007818B197480078F9
:104B40008E4908708E4800688C490978944A12781A
:104B500001FB1200002812D58A4800688A490978AA
:104B60008A4A127801FB020086490860834800786F
:104B70008B4909784843C0F17F0081490860894822
:104B800001787E480078864A127800FB02107C4942
:104B90000968081A7A490860002002900AE07648FD
:104BA00001680298C01D085C204484B20298401C31
:104BB000C0B202906F480078291A02988142EEDC58
:104BC00071480078604384B2714800786949097877
:104BD000401AC01D04EBC00084B22046E11704EB6C
:104BE0005171C9100391E11704EB5171C910A4EB85
:104BF000C10101F0FF0A50464FEAEA710AEB517118
:104C0000C910AAEBC101C9B2059100200190A8E02A
:104C100000269DE00598072805DD002005900498F2
:104C2000401C80B20490DDE903010844401C524955
:104C30000968085C069052480168594A1278019840
:104C400000FB02101FFA80F957480078B8B15748A6
:104C5000007858B14C480078811B4C480078494A8C
:104C6000126801FB00201FFA80FB1FE04548006826
:104C70004649097806FB01001FFA80FB16E04B4805
:104C8000007858B140480078811B404800783D4A80
:104C9000126801FB00201FFA80FB07E0394800681A
:104CA0003A49097806FB01001FFA80FB002745E01E
:104CB0004FF000083CE0DDE90510FCF7BBF8C0B19F
:104CC0003B48007850B13B4B1A7809EB0703D9B247
:104CD0000BEB0803D8B2FFF7D2F925E0354B1A7871
:104CE0000BEB0803D9B209EB0703D8B2FFF7C7F9FA
:104CF0001AE031480078B8B12D48007850B12F4BF8
:104D00001A7809EB0703D9B20BEB0803D8B2FFF707
:104D1000B6F909E0294B1A780BEB0803D9B209EB75
:104D20000703D8B2FFF7ABF908F1010000F0FF0864
:104D3000164800788045BEDB781CC7B2184800785A
:104D40008742B5DB0598401CC0B20590701CC6B206
:104D50000D4800788642FFF65DAF0198401CC0B256
:104D600001900649097801988842FFF651AF00BFCB
:104D7000CEE6000028000020180000202A000020B5
:104D800030000020340000202C0000202E000020E5
:104D90002900002026000020240000202B000020F5
:104DA0002D0000202F0000201E0000201D000020EC
:104DB0001C000020200000202500002022000020F0
:104DC0002DE9F04705460F4614469846DDE908A947
:104DD0005046FCF73BF886B2A8EB0701264A12784A
:104DE000264B1B7802FB131000EBD07107EB61011F
:104DF0008FB223480078E8B909F0030020B10128F8
:104E000007D0022812D10CE01E480078284485B251
:104E10000CE0611B881B00EBD07105EB61018DB2CA
:104E200004E0B44201DDA01B85B200BF00BF1648FC
:104E3000056019E009F0030060B1012802D00228E2
:104E40000FD10EE0611B881B00EBD071A4EB610158
:104E50008CB206E0A81984B20A480078204484B2D3
:104E600000BF00BF0848046008480760504600F0D3
:104E70000FF8BDE8F08700002C0000202E00002075
:104E8000380000202F0000203000002034000020D7
:104E900070B50446002509480078012803D1204652
:104EA00000F00EF808E004E029466D1C605CFFF796
:104EB0006BFC605D0028F7D170BD00003800002059
:104EC0002DE9F04F8FB006467D4890F800A04FF0D6
:104ED0000008C1460025E8E028466D1C345C8D2C96
:104EE00018D00CDC3B2C2DD004DC2C2C2CD02E2C00
:104EF0002ED12BE03F2C23D0812C29D108E08E2C01
:104F00000AD0902C0AD0982C0AD0E12C20D109E0AC
:104F1000EA241DE0EB241BE0EE2419E0EF2417E067
:104F2000DF2415E028466D1C305C66490870084691
:104F30000078C72801D1FB2401E06D1EE12407E0C1
:104F4000BF2405E01F2403E01D2401E01C2400BF52
:104F500000BF28466D1C305C5A4908706D1E08461B
:104F60000078812812D008DC2C282BD02E282DD0B8
:104F70003B2823D03F282DD11CE08D280AD08E2835
:104F80000CD090280ED0982824D10FE0EA204D496B
:104F900008701FE0EB204B4908701BE0EE204949E8
:104FA000087017E0EF204749087013E0DF204549FB
:104FB00008700FE0BF20434908700BE01F204149F3
:104FC000087007E01D203F49087003E01C203D49A0
:104FD000087000BF00BFC02C3CDD3B480078C028F3
:104FE0000ADD39480078C13800EB4000374901EB51
:104FF000400090F805B001E04FF0000B3148007818
:10500000C0280ADD2F480078C13800EB40002F4946
:1050100001EB400000790E9001E000200E900E9808
:1050200040EA4B00C7B2012F03DD0020244908707D
:1050300002E0234880F800A0A4F1C10101EB410186
:10504000224A02EB4101C85DFFF73AFD1C4880F897
:1050500000A028E0302C23DB392C21DC08F10100F2
:1050600000F0FF0801A800F8084016480078302832
:1050700003DB14480078392815DDC1460AE001A990
:1050800011F809102039C8B2FFF71AFDA9F1010083
:1050900000F0FF09B9F1000FF1DC4FF0000802E069
:1050A0002046FFF70DFD08480470705D00287FF46E
:1050B00013AFFF20044908700FB0BDE8F08F000067
:1050C0002F0000203A000020390000200997000836
:1050D00008B508490968C9084FF47A72B1FBF2F1C2
:1050E0004143009100BF00BF00994A1E0092002971
:1050F000F9D108BD14000020014600BF080900EBEB
:105100008000420001F00F001044C0B2704770B53B
:1051100004460025FCF77CFF054607E0FCF778FF16
:10512000401BB0F57A7F01D9032070BD206840682C
:1051300000F020000028F1D02068406840F0100006
:10514000216848600020F0E770B50446002520681B
:10515000406820F0100021684860FCF759FF0546C0
:1051600007E0FCF755FF401BB0F57A7F01D903201B
:1051700070BD2068406800F020000028F1D00020B9
:10518000F6E70146002200230868006A82B2086838
:10519000406A83B243EA0240704730B501460022BC
:1051A0000023002400200D68AD69AAB20D68ED69E6
:1051B000ACB20D68AD69ABB29A4205D00D68ED692D
:1051C00063F31F45284601E044EA024030BDF0B5D4
:1051D00004460B460021002504F5FA61032B1BD27F
:1051E000C3EBC30000EB03100926B0FBF6F010443C
:1051F000001D4618481E06EB90066427B0FBF7F02A
:10520000361A481EBF00B0FBF7F030440726B0FB4B
:10521000F6F706FB17051AE0C3EBC30000EB03101B
:105220000926B0FBF6F01044001D084400EB910085
:105230006426B1FBF6F6801B4FF4C876B1FBF6F698
:105240003044801E0726B0FBF6F706FB1705E8B2D0
:10525000F0BD70B504460D4600262046FFF757FF07
:1052600008B101260AE0280C21680862A8B221686A
:1052700048622046FFF768FF00B10126304670BD46
:1052800070B504460D4600262046FFF740FF08B1E2
:1052900001260AE0280C21688861A8B22168C8614B
:1052A0002046FFF751FF00B10126304670BD0000D7
:1052B00010B500202E49087001212E48FCF790FE01
:1052C00028B12B48007840F00100294908700221DC
:1052D0002848FCF785FE28B12548007840F00200F8
:1052E0002349087004212348FCF77AFE28B120489E
:1052F000007840F004001E49087008211D48FCF7A2
:105300006FFE28B11A48007840F00800184908706C
:1053100010211848FCF764FE28B11548007840F0C9
:1053200010001349087020211248FCF759FE28B1DB
:105330000F48007840F020000D49087040210D48CA
:10534000FCF74EFE28B10A48007840F040000849BA
:10535000087080210748FCF743FE28B10448007814
:1053600040F08000024908700148007810BD00003C
:1053700004000020000C01402DE9F84306460F46CA
:1053800014461D46DDF82080F81BC3B2A01BC2B234
:1053900039463046CDF80080FEF7B9FC681BC3B231
:1053A000A01BC2B229463046CDF80080FEF7AFFC04
:1053B000E81BC3B2B01BC2B239463046CDF80080FC
:1053C000FEF7A5FCE81BC3B2201BC2B2394620463B
:1053D000CDF80080FEF79BFCBDE8F8832DE9FC5F6B
:1053E0000746884691469A46DDF838B00C9C002561
:1053F0002646C4F1010001900D9800287DD0AAEB4B
:10540000040008EB040CA0EB0C00C3B2A9EB0700EE
:10541000C2B208EB0400C1B23846CDF800B0FEF7C6
:1054200076FC00BFA8EB060CA444ACEB0C0C0CF013
:10543000FF0305EB090CACEB040CA7EB050EA6442F
:10544000ACEB0E0C0CF0FF02A8EB060CA4440CF025
:10545000FF01A7EB050CA4440CF0FF00CDF800B051
:10546000FEF755FCA8EB050CA444ACEB0C0C0CF0BF
:10547000FF0306EB090CACEB040CA7EB060EA644ED
:10548000ACEB0E0C0CF0FF02A8EB050CA4440CF0E6
:10549000FF01A7EB060CA4440CF0FF00CDF800B010
:1054A000FEF735FC05EB0A0CACEB040CACEB0C0C7A
:1054B0000CF0FF0306EB090CACEB040CA7EB060E9B
:1054C000A644ACEB0E0C0CF0FF0205EB0A0CACEBA7
:1054D000040C0CF0FF01A7EB060CA4440CF0FF0039
:1054E000CDF800B0FEF713FC06EB0A0CACEB040C95
:1054F000ACEB0C0C0CF0FF0300E032E005EB090C08
:10550000ACEB040CA7EB050EA644ACEB0E0C0CF0B8
:10551000FF0206EB0A0CACEB040C0CF0FF01A7EB4E
:10552000050CA4440CF0FF00CDF800B0FEF7EFFB33
:105530000198002807DA28466D1C4000C01C01991C
:105540000844019009E028466D1C3146761E401A39
:105550004000401D019908440190B5427FF762AFB9
:10556000B0E0A9EB040107EB040CA1EB0C01CAB2FB
:10557000A8EB0801CBB23919C8B24146CDF800B04A
:10558000FEF7C5FBA9EB040107EB040CA1EB0C0132
:10559000CAB2AAEB0A01CBB23919C8B25146CDF84A
:1055A00000B0FEF7B4FBAAEB040008EB040CA0EB80
:1055B0000C00C3B2F81BC2B208EB0400C1B23846FB
:1055C000CDF800B0FEF7A3FBAAEB040008EB040C37
:1055D000A0EB0C00C3B2A9EB0900C2B208EB0400B7
:1055E000C1B24846CDF800B0FEF791FB00BFA8EB72
:1055F00006022244D1B205EB0902121BD0B25A4670
:10560000FEF73DFDA8EB05022244D1B206EB0902EC
:10561000121BD0B25A46FEF732FD05EB0A02121BEE
:10562000D1B206EB0902121BD0B25A46FEF727FD93
:1056300006EB0A02121BD1B205EB0902121BD0B213
:105640005A46FEF71CFD06EB0A02121BD1B27A1B6A
:105650002244D0B25A46FEF712FD05EB0A02121B95
:10566000D1B2BA1B2244D0B25A46FEF708FDA8EBCD
:1056700005022244D1B2BA1B2244D0B25A46FEF7E8
:10568000FEFCA8EB06022244D1B27A1B2244D0B21F
:105690005A46FEF7F4FC0198002807DA28466D1CEC
:1056A0004000C01C01990844019009E028466D1C87
:1056B0003146761E401A4000401D01990844019071
:1056C000B54294DDBDE8FC9F05490870012803D16F
:1056D0007F21044A116002E00021024A11607047F4
:1056E000380000203000002010B500BF502080F3AB
:1056F0001188BFF34F8FBFF36F8F00BF01F00CFB1A
:1057000018B14FF080500449086000BF002080F3BA
:10571000118800BF10BD000004ED00E000B593B09B
:10572000282109A8FAF7E6FD142104A8FAF7E2FDFA
:105730000020009001900290039001200990000445
:105740000A9000200B9001200D9002201090C103C0
:1057500011914FF4E011129109A8FCF7CDFF08B1A7
:10576000FBF7D6FD0F200490022005900020069044
:105770004FF48060079000200890022104A8FCF7F5
:1057800075FE08B1FBF7C4FD0320009000020190F4
:105790004FF4004002906846FCF7D0FD08B1FBF7DB
:1057A000B7FD13B000BD704710B50248FDF767FDA7
:1057B00010BD0000AC05002010B50268184B9842DF
:1057C00008D0B0F1804F05D0164B984202D0164B4E
:1057D000984203D122F070024B681A43104B984252
:1057E00008D0B0F1804F05D00E4B984202D00E4B3E
:1057F000984203D122F44072CB681A4322F080030E
:105800004C6943EA040202608B68C3620B688362DE
:10581000034B984201D10B6903630123436110BD1F
:10582000002C0140000400400008004030B50C4648
:10583000816821F47F4142EA0325254329438160A1
:1058400030BD0A46816821F0700142F00703194318
:105850008160704730B5026A056A25F0010505626E
:105860004368846924F0700424F003040D682C4319
:1058700022F002028D682A430D4DA84206D100BFD6
:1058800022F00802CD682A4322F00402084DA84203
:1058900007D123F4807323F400734D692B438D6982
:1058A0002B43436084614D684563026230BD000054
:1058B000002C014030B5026A056A25F0100505622A
:1058C0004368846924F4E04424F440740D6844EA95
:1058D000052422F020028D6842EA05120E4DA842EE
:1058E00007D100BF22F08002CD6842EA051222F003
:1058F0004002094DA84209D123F4806323F40063D8
:105900004D6943EA85038D6943EA850343608461F9
:105910004D688563026230BD002C014030B5026ADB
:10592000056A25F4807505624368C46924F0700433
:1059300024F003040D682C4322F400728D6842EABF
:1059400005220F4DA84207D100BF22F40062CD68A6
:1059500042EA052222F48062094DA84209D123F4CB
:10596000805323F400534D6943EA05138D6943EADC
:1059700005134360C4614D68C563026230BD000019
:10598000002C014030B5036A056A25F48055056294
:105990004468C26922F4E04222F440720D6842EA8F
:1059A000052223F400538D6843EA0533064DA842CF
:1059B00004D124F480444D6944EA85144460C261F2
:1059C0004D680564036230BD002C014030B50B46C4
:1059D0001446026A056A25F001050562816921F015
:1059E000F00141EA041122F00A021A4381610262C5
:1059F00030BD30B50B461446026A056A25F0100525
:105A00000562816921F4704141EA043122F0A0026B
:105A100042EA03128161026230BD00002DE9FE4FAF
:105A200004460D4617469846DDE90CA606F004002C
:105A300000285CD04FEA1619B9F1000F2CD006F0FF
:105A40000800C8B14C480078012209F0FF01A8F114
:105A5000010C0CF0FF03A7F1010CCDE9001202903C
:105A60000CF0FF0205F1010C0CF0FF0104F1010C38
:105A70000CF0FF00FFF7B2FC40480078002209F06C
:105A8000FF0108F0FF03CDE900120290FAB2E9B27B
:105A9000E0B2FFF7A3FC3CE006F00800E0B13648B6
:105AA0000078A8F1010CACEB050C0CF1010C0CF02A
:105AB000FF03A7F1010CACEB040C0CF1010C0CF092
:105AC000FF0205F1010C0CF0FF0104F1010C009044
:105AD0000CF0FF00FEF71BF92848007808F0FF03E0
