:020000040800F2
:100000009011002021020008993C0008D52F00081B
:10001000953C0008A7030008BD530008000000003D
:10002000000000000000000000000000890100083E
:100030004108000800000000CD010008194C00082C
:100040003B0200083B0200083B0200083B0200089C
:100050003B0200083B0200083B0200083B0200088C
:100060003B0200083B0200083B0200083108000880
:100070003B0200083B0200083B0200083B0200086C
:100080003B0200083B020008290300083B0200086D
:100090003B0200083B0200083B0200083B0200084C
:1000A0003B0200083B0200083B0200083B0200083C
:1000B0003B0200083B020008D94C00083B02000844
:1000C0003B0200083B0200083B0200083B0200081C
:1000D0003B0200083B020008AD5300083B02000849
:1000E0003B0200083B0200083B02000800F002F857
:1000F00000F03AF80AA090E8000C82448344AAF188
:100100000107DA4501D100F02FF8AFF2090EBAE885
:100110000F0013F0010F18BFFB1A43F0010318473B
:10012000A4880000C4880000103A24BF78C878C1B1
:10013000FAD8520724BF30C830C144BF04680C60ED
:10014000704700000023002400250026103A28BF35
:1001500078C1FBD8520728BF30C148BF0B60704739
:100160001FB51FBD10B510BD00F0A4F81146FFF774
:10017000F7FF05F05BF900F0C2F803B4FFF7F2FFF8
:1001800003BC00F0C9F80000224B19680868B0E809
:10019000F00F80F30988BFF36F8F4FF0000080F3FA
:1001A00011884EF00D0E70470000000006480068F0
:1001B000006880F3088862B661B6BFF34F8FBFF363
:1001C0006F8F00DF00BF00BF08ED00E0EFF3098094
:1001D000BFF36F8F0F4B1A6820E9F00F106008B55E
:1001E0004FF0500080F31188BFF34F8FBFF36F8F34
:1001F00005F0BEFC4FF0000080F31188BDE8084018
:1002000019680868B0E8F00F80F30988BFF36F8FB2
:10021000704700BF40000020EFF3058070470000EA
:100220000948804709480047FEE7FEE7FEE7FEE78A
:10023000FEE7FEE7FEE7FEE7FEE7FEE704480549C6
:10024000054A064B70470000D74C0008ED00000837
:10025000900B002090110020900D0020900D0020A8
:100260004FF0000200B5134694469646203922BF4F
:10027000A0E80C50A0E80C50B1F12001BFF4F7AF9A
:10028000090728BFA0E80C5048BF0CC05DF804EB7C
:10029000890028BF40F8042B08BF704748BF20F8EA
:1002A000022B11F0804F18BF00F8012B70477047E8
:1002B00070477047754600F02BF8AE46050069465A
:1002C000534620F00700854618B020B5FFF7B6FF6B
:1002D000BDE820404FF000064FF000074FF0000847
:1002E0004FF0000B21F00701AC46ACE8C009ACE8C8
:1002F000C009ACE8C009ACE8C0098D46704710B52C
:100300000446AFF300802046BDE81040FFF735BF3C
:10031000004870472C0B002001491820ABBEFEE7B7
:10032000260002007047000010B5024800F055FB9F
:1003300010BD0000A000002070B504460025206814
:10034000806800F0010018B32068806820F0010088
:100350002168886001F00CF9054613E001F008F906
:10036000401B02280ED92068806800F0010048B1C7
:10037000A06A40F01000A062E06A40F00100E06274
:10038000012070BD2068806800F001000028E5D1E0
:100390000020F6E7024601208840104008B1012005
:1003A00070470020FCE700BFFEE7000010B50446E0
:1003B0000548007818B9204600F008F810BD20461E
:1003C00000F05AF8FAE700003800002030B5024685
:1003D000002000233CE01C465B1C115D0A2900D173
:1003E00036E01D4C247834B11C4C24781C4D2D78FB
:1003F00004FB050028E01B4C2478A14203DB1A4CC7
:100400002478A14204DD154C2478184D2C7015E099
:10041000CC1D144D2D78641B154D2D682C5D134D8E
:100420002C70D42901DBDA2905DDE72901DBEC2971
:1004300001DDD12902D100240C4D2C700B4C247805
:10044000074D2D7804FB05000A4C2478204400BF9A
:10045000D45C002CBFD130BD240000202B00002034
:100460002D00002028000020290000202A00002064
:10047000180000202F0000202DE9F0430346DFF88C
:10048000848398F8006000200022ACE19046521C62
:1004900013F808100A2900D1A5E1DFF86C8398F859
:1004A0000080B8F1000F0AD0DFF8608398F8008070
:1004B000DFF85C9399F8009008FB090092E1DFF8FF
:1004C000548398F80080414505DBDFF84C8398F8A9
:1004D0000080414508DDDFF8348398F80080DFF8BC
:1004E0003C9389F800807DE1382947D00CDCA1F1EC
:1004F0002C08B8F10C0F4FD2DFE808F04A4E4C4EF2
:1005000038393A3B3C3D3E3F8D2914D008DC39292F
:1005100035D03B293AD03F2936D081293CD108E05B
:100520008E290AD090290AD098290AD0E12933D1FE
:1005300009E0EA2130E0EB212EE0EE212CE0EF2172
:100540002AE0DF2128E09046521C13F80880DFF8EB
:10055000D09289F80080C84698F80080B8F1C70F9B
:1005600001D1FB2101E0521EE12115E000BF00BFD7
:1005700000BF00BF00BF00BF00BF00BF00BFA1F1B0
:10058000200808F0FF0107E0BF2105E01F2103E07C
:100590001D2101E01C2100BF00BF9046521C13F832
:1005A0000880DFF87C9289F80080521EC84698F8CF
:1005B0000080B8F1370F55D00CDCA8F12C08B8F149
:1005C0000B0F78D2DFE808F0697770774748494A1F
:1005D0004B4C4D00B8F1810F1AD00CDCB8F1380F3C
:1005E00041D0B8F1390F3FD0B8F13B0F4ED0B8F140
:1005F0003F0F60D143E0B8F18D0F10D0B8F18E0FEE
:1006000014D0B8F1900F18D0B8F1980F53D11BE067
:100610004FF0EA08DFF8089289F800804BE04FF0CD
:10062000EB08DFF8FC9189F8008044E04FF0EE0819
:10063000DFF8EC9189F800803DE04FF0EF08DFF83B
:10064000E09189F8008036E04FF0DF08DFF8D091C4
:1006500089F800802FE000BF00BF00BF00BF00BFCF
:1006600000BF00BF00BF00BFDFF8B48198F8008072
:10067000A8F12008DFF8A89189F800801BE04FF06E
:10068000BF08DFF89C9189F8008014E04FF01F0844
:10069000DFF88C9189F800800DE04FF01D08DFF83D
:1006A000809189F8008006E04FF01C08DFF8709117
:1006B00089F8008000BF00BFC0296FDDDFF86481CA
:1006C00098F80080B8F1C00F0EDDDFF8588198F877
:1006D0000080A8F1C10808EB4808DFF84C9109EB4D
:1006E000480898F8057000E00027DFF8348198F892
:1006F0000080B8F1C00F0EDDDFF8248198F800808B
:10070000A8F1C10808EB4808DFF81C9109EB48087C
:1007100098F804C001E04FF0000C4CEA470808F0DC
:10072000FF04012C06DD4FF00008DFF8D89089F8AF
:10073000008003E0DFF8CC8088F80060A1F1C108F8
:1007400008EB4808DFF8E09009EB480818F8045077
:1007500005F10708DFF8BC9099F80090A8EB0908AC
:10076000DFF8C890D9F8009019F80880DFF8AC904D
:1007700089F80080C84698F80080DFF8949099F8CE
:10078000009008FB0900DFF87C8098F80080404466
:10079000DFF8708088F8006020E0FFE701F10708CB
:1007A000DFF8709099F80090A8EB0908DFF87C90CA
:1007B000D9F8009019F80880DFF8609089F8008077
:1007C000C84698F80080DFF8489099F8009008FB38
:1007D0000900DFF8308098F800804044DFF844805A
:1007E00088F8001000BF13F80280B8F1000F7FF402
:1007F0004DAE4FF0FF08DFF82C9089F80080BDE87F
:10080000F08300002F000020240000202B00002097
:100810002D00002028000020290000202A000020B0
:100820003A00002039000020498800081800002004
:1008300010B5024800F0DEFB10BD0000D000002023
:100840007047000010B501225103084800F08AFEED
:10085000012002F0CBFF00224FF40051034800F0CA
:1008600081FE012002F0C2FF10BD0000000C01401B
:1008700072B600BFFEE7704738B50246002300207D
:10088000009000BF92F82400012801D1022038BD59
:10089000012082F8240000BF4868072812D210689F
:1008A000406B0C79641E04EB84051F24AC40A0430C
:1008B0000D796D1E05EB85050C68AC40204314686E
:1008C000606327E048680D2812D21068006B0C792D
:1008D000E41F04EB84051F24AC40A0430D79ED1FF9
:1008E00005EB85050C68AC4020431468206311E0DB
:1008F0001068C06A0C790D3C04EB84051F24AC40E1
:10090000A0430D790D3D05EB85050C68AC402043F7
:100910001468E06208680A2812D31068C0680C786E
:100920000A3C04EB44050724AC40A0430D780A3D83
:1009300005EB45058C68AC4020431468E0600FE08F
:10094000106800690C7804EB44050724AC40A04310
:100950000D7805EB45058C68AC4020431468206198
:100960000868102802D00868112827D1174C106891
:10097000A0421ED11068806800F40000F0B9106831
:10098000806840F400001468A0600868102815D141
:100990000F4800680F4CB0FBF4F000EB8000400003
:1009A000009002E00098401E009000980028F9D1C5
:1009B00004E0906A40F020009062012300BF002014
:1009C00082F8240000BF184661E7000000240140BF
:1009D0001400002040420F00704770B504462068A4
:1009E00005682068466806F0200020282DD105F013
:1009F0000200022829D1A06A00F0100018B9A06AEC
:100A000040F40070A0622068806800F46020B0F5B7
:100A1000602F13D1207B88B92068406820F0200027
:100A200021684860A06A20F48070A062A06A00F487
:100A3000805018B9A06A40F00100A0622046FFF77C
:100A4000CBFF6FF012002168086006F0800080285C
:100A500039D105F00400042835D1A06A00F0100057
:100A600018B9A06A40F40050A0622068806800F4C1
:100A7000E040B0F5E04F0DD02068406800F48060A1
:100A8000D0B92068806800F46020B0F5602F13D1E1
:100A9000207B88B92068406820F080002168486089
:100AA000A06A20F48050A062A06A00F4807018B997
:100AB000A06A40F00100A0622046FFF7DCFE6FF064
:100AC0000C002168086006F0400040280DD105F0B8
:100AD000010050B1A06A40F48030A062204600F0CE
:100AE000A7F86FF001002168086070BD2DE9F041A2
:100AF0000446002700250026A84614B90120BDE8B9
:100B0000F081A06810B1207D00B100BFA06A30B9AB
:100B10000020E06284F82400204600F08BF8204694
:100B2000FFF70AFC0746A06A00F01000002873D106
:100B3000002F71D1A06A20F4885040F00200A0621A
:100B4000E16960680843217B40EA41000643A068F0
:100B5000B0F5807F02D0A068012802D14FF48070E8
:100B600000E000200543207D012811D1207B38B909
:100B7000A069401E4FF4006141EA4030054307E0A0
:100B8000A06A40F02000A062E06A40F00100E0624C
:100B90002068406820F46940284321684860206844
:100BA000806821490840304321688860A068B0F51A
:100BB000807F02D0A068012802D14FF4807000E04D
:100BC0000020B0F5807F03D1208A401E4FEA0058F4
:100BD0002068C06A20F4700040EA08002168C862FA
:100BE0002068806811490840B04208D10020E062C6
:100BF000A06A20F0020040F00100A06211E0A06AAB
:100C000020F0020040F01000A062E06A40F0010015
:100C1000E062012705E0FFE7A06A40F01000A06253
:100C2000012738466BE70000FDF7E1FFFE0E1FFFCE
:100C30007047000010B586B0044600200290039073
:100C40000490059025492068884245D100BF24487A
:100C5000806940F40070224988610846806900F488
:100C60000070019000BF00BF00BF0846806940F0DF
:100C7000040088610846806900F00400019000BF0C
:100C800000BF012002900320039002A9154800F044
:100C9000C7FA15481549086000204860002113482C
:100CA00081608021C16049000161890041610021AA
:100CB0008161C16100F06CFA08B1FFF7D9FD00BF96
:100CC0000A482062446200BF00220521122000F081
:100CD0000FFD122000F0FCFC06B010BD0024014006
:100CE000001002400008014008000240D00000202F
:100CF00070B504460CB9012070BD94F8200010B9FD
:100D0000204600F0AFF82068006840F0010021683C
:100D1000086000F02DFC05460DE000F029FC401BAA
:100D20000A2808D9606A40F400306062052084F81F
:100D300020000120E0E72068406800F00100002862
:100D4000EBD02068006820F002002168086000F005
:100D50000FFC05460DE000F00BFC401B0A2808D9EB
:100D6000606A40F400306062052084F820000120B1
:100D7000C2E72068406800F002000028EBD1207E26
:100D8000012806D12068006840F0800021680860D2
:100D900005E02068006820F0800021680860607E1F
:100DA000012806D12068006840F0400021680860F2
:100DB00005E02068006820F0400021680860A07EFF
:100DC000012806D12068006840F0200021680860F2
:100DD00005E02068006820F0200021680860E07EBF
:100DE000012806D12068006820F010002168086002
:100DF00005E02068006840F0100021680860207F4E
:100E0000012806D12068006840F0080021680860C9
:100E100005E02068006820F0080021680860607F15
:100E2000012806D12068006840F0040021680860AD
:100E300005E02068006820F0040021680860D4E91B
:100E40000201084321690843616908436168491E3A
:100E500008432168C86100206062012084F82000F6
:100E6000002049E710B586B00446002002900390A8
:100E7000049005901A49206888422ED100BF194875
:100E8000C06940F000701749C8610846C06900F0A9
:100E90000070019000BF00BF00BF0846806940F0AD
:100EA000040088610846806900F00400019000BFDA
:100EB00000BFC814029000200390049002A90A48C1
:100EC00000F0AEF94FF4805002900220039003200E
:100ED000059002A9044800F0A3F906B010BD000077
:100EE000006400400010024000080140014600225A
:100EF00091F82100022808D00420886300BF002058
:100F000081F8200000BF012070470868006820F0C9
:100F10000E000B6818600868006820F001000B687C
:100F2000186091F8403001209840CB6B5860012048
:100F300081F8210000BF002081F8200000BF10468A
:100F4000E2E7000070B50446002594F8210002286D
:100F500003D00420A063012548E02068006820F049
:100F60000E00216808602068006820F001002168F8
:100F700008601F492068884201D1012026E01C49F1
:100F800014312068884201D110201FE0184928310F
:100F90002068884201D1801518E015493C3120684D
:100FA000884201D1801411E01149503120688842F3
:100FB00002D14FF4803009E00D4964312068884245
:100FC00002D14FF4801001E04FF0807008490839D9
:100FD0004860012084F8210000BF002084F8200030
:100FE00000BF606B10B12046616B8847284670BD1A
:100FF0000800024070B50446E06B0568206806688A
:1010000094F84010042088402840002846D006F07C
:101010000400002842D02068006800F0200028B9B1
:101020002068006820F004002168086057492068A3
:10103000884201D1042027E05449143120688842B5
:1010400001D1402020E0514928312068884201D157
:10105000001519E04D493C312068884202D14FF417
:10106000804011E0494950312068884202D14FF454
:10107000802009E0454964312068884202D14FF45C
:10108000800001E04FF08060404908394860E06A24
:1010900000287AD02046E16A884776E094F840102C
:1010A000022088402840A0B306F0020088B32068E0
:1010B000006800F0200040B92068006820F00A00B5
:1010C00021680860012084F82100304920688842A6
:1010D00001D1022028E02D4914312068884201D135
:1010E000202021E0294928312068884201D140157B
:1010F0001AE026493C312068884202D14FF4005062
:1011000012E0224950312068884203D14FF4003068
:101110000AE017E01D4964312068884202D14FF48B
:10112000001001E04FF0007018490839486000BF16
:10113000002084F8200000BFA06A30B32046A16AD6
:10114000884722E094F84010082088402840E0B109
:1011500006F00800C8B12068006820F00E00216881
:10116000086094F8401001208840E16B486001203D
:10117000A06384F8210000BF002084F8200000BF95
:10118000206B10B12046216B884770BD08000240DB
:101190000146002209B901207047164B0868C01AA1
:1011A0001423B0FBF3F08000086412480838C863C9
:1011B000022081F821000868026843F6F07082433B
:1011C000D1E901031843CB6818430B6918434B69F5
:1011D00018438B691843CB691843024308680260BF
:1011E00000208863012081F82100002081F8200080
:1011F00000BFD1E70800024070B5044600F0B8F91E
:1012000006462546681C10B104480078054400BF16
:1012100000F0AEF9801BA842FAD370BD1000002088
:101220002DE9F8470346002294466EE14FF001088D
:1012300008FA02F4D1F8008008EA0400A0427DD147
:10124000DFF8DCA2D1F80480A8EB0A09D0453AD037
:1012500014DCB8F1030F50D009DCB8F1000F31D025
:10126000B8F1010F1CD0B8F1020F49D120E0B8F15C
:10127000110F18D0B8F1120F42D11EE0B9F5881F36
:1012800025D006DCB9F5803F20D0B9F5801F37D1D5
:101290001AE0B9F5001F18D0B9F5041F30D117E0D6
:1012A000D1F80CC02DE0D1F80C8008F1040C28E036
:1012B000D1F80C8008F1080C23E0D1F80C8008F17B
:1012C0000C0C1EE000BF00BF00BF00BF00BF00BF8E
:1012D000D1F80880B8F1000F02D14FF0040C0BE0F8
:1012E000D1F80880B8F1010F03D14FF0080C1C6150
:1012F00002E04FF0080C5C6103E04FF0000C00E0EE
:1013000000BF00BFFF2801D8984601E003F10408A0
:101310004646FF2802D84FEA820803E0A2F10808F7
:101320004FEA88084746D6F800804FF00F0909FABF
:1013300007F928EA09080CFA07F900E088E048EA0A
:101340000908C6F80080D1F8048008F08058B8F188
:10135000805F7DD100BFDFF8CC81D8F8188048F0DD
:101360000108DFF8C091C9F81880C846D8F818807D
:1013700008F00108CDF8008000BF00BF4FEAB9387F
:101380004FEA920958F829504FEA82784FEA1879C3
:101390004FF00F0808FA09F825EA0805DFF88881F8
:1013A000434502D14FF0000816E0DFF88081434545
:1013B00002D14FF001080FE0DFF87481434502D1FC
:1013C0004FF0020808E0DFF86C81434502D14FF08E
:1013D000030801E04FF004084FEA82794FEA1979D7
:1013E00008FA09F848EA0505DFF84C814FEA920946
:1013F00048F82950D1F8048008F48018B8F5801F07
:101400000AD1DFF83881D8F8008048EA0008DFF810
:101410002C91C9F8008009E0DFF82081D8F800801D
:1014200028EA0008DFF81491C9F80080D1F8048098
:1014300008F40018B8F5001F10D1DFF8008108F19A
:101440000408D8F8008048EA0008DFF8F09000E0CF
:101450005AE009F10409C9F800800DE0DFF8DC80EA
:1014600008F10408D8F8008028EA0008DFF8CC90DA
:1014700009F10409C9F80080D1F8048008F40038A3
:10148000B8F5003F0ED1DFF8B480A8F10408D8F811
:10149000008048EA0008DFF8A490A9F10409C9F81F
:1014A00000800DE0DFF89480A8F10408D8F80080EF
:1014B00028EA0008DFF88490A9F10409C9F800803F
:1014C000D1F8048008F48038B8F5803F0ED1DFF8F9
:1014D0006C80A8F10808D8F8008048EA0008DFF816
:1014E0005C90A9F10809C9F800800DE0DFF84C8094
:1014F000A8F10808D8F8008028EA0008DFF83C9036
:10150000A9F10809C9F80080521CD1F8008028FA16
:1015100002F8B8F1000F7FF489AEBDE8F88700004B
:10152000000011100010024000080140000C0140B2
:10153000001001400014014008000140080401406F
:10154000024693680B400BB1012000E00020704779
:1015500010B5C26821EA020302EA010443EA044327
:10156000036110BD0AB1016101E00B040361704722
:101570000148006870470000080000200348006828
:1015800003490978084401490860704708000020B1
:101590001000002010B50848006840F0100006490F
:1015A0000860032000F0E2F80F2000F007F800F0D8
:1015B0005FF8002010BD0000002002402DE9F0413E
:1015C00088B004460027B846002600BF2348C069FB
:1015D00040F004002149C8610846C06900F00400D9
:1015E000019000BF00BF02A903A800F0B5FA069F52
:1015F0001FB900F0D9FA054602E000F0D5FA45001F
:101600001748B5FBF0F0A0F101081648164908602C
:1016100040F2E7311448C160C0F804800021016144
:101620008160816100F0BAFF064696B90E4801F06C
:1016300013F806466EB91E2000F04AF8102C07D2A7
:10164000002221461E2000F053F80848046000E004
:101650000126304608B0BDE8F081000000100240CD
:1016600040420F0000080040F40900200C00002058
:1016700008B500BF1448806940F001001249886134
:101680000846806900F00100009000BF00BF00BF65
:101690000846C06940F08050C8610846C06900F043
:1016A0008050009000BF00BF00220F21901E00F06C
:1016B0001FF800BF0549486820F0E06040F0007066
:1016C000486000BF08BD000000100240000001405B
:1016D00001460846002809DB00F01F0301229A405A
:1016E00043099B0003F1E023C3F8002100BF7047CA
:1016F0002DE9F05F80460D461646002703F070FE88
:10170000074639462A46334601F00700C0F1070A6A
:10171000BAF1040F02D94FF0040A01E0C0F1070A40
:10172000D14600F1040ABAF1070F02D24FF0000AC5
:1017300001E0A0F1030AD4464FF0010A0AFA09FABF
:10174000AAF1010A0AEA020A0AFA0CFA4FF0010B9E
:101750000BFA0CFBABF1010B0BEA030B4AEA0B048F
:101760002146404603F044FEBDE8F09F00BF00F074
:101770000702064B19684FF6FF031940044B0B4351
:1017800043EA0221014B196000BF70470CED00E0F5
:101790000000FA05012001490862704700000E426E
:1017A0002DE9F04706464FF00008002500270024E9
:1017B000A146012E31D0022E56D0102E5FD13248D4
:1017C0004468006800F0807008B33048C4F3834177
:1017D000475C04F4803078B12B484068C0F3404047
:1017E0002B4911F8008004F4803040B12948B0FB47
:1017F000F8F000FB07F502E0274807FB00F5224858
:10180000406800F48000B0F5800F01D1A94603E0E4
:1018100068000321B0FBF1F932E01B48046A04F4CC
:101820004070B0F5807F05D104F0020010B14FF494
:10183000004918E004F44070B0F5007F07D1124869
:10184000406A00F0020010B149F640490BE004F490
:101850004070B0F5407F06D10B48006800F40030BE
:1018600008B14FF224490BE000F0AEF9064949688F
:10187000C1F38131491C4900B0FBF1F900E000BF20
:1018800000BF4846BDE8F087001002401F880008EE
:101890002F88000800127A0000093D00F8B50446C0
:1018A00000260025207800F0010000286BD00027DA
:1018B0004348C06900F0805070B900BF4048C0691B
:1018C00040F080503E49C8610846C06900F0805031
:1018D000009000BF00BF01273A48006800F4807004
:1018E000B0B93848006840F4807036490860FFF7A6
:1018F0003FFE064606E0FFF73BFE801B642801D949
:101900000320F8BD2F48006800F480700028F2D052
:101910002B48006A00F440752DB3A08800F4407095
:10192000A84220D02648006A20F4407501202649AC
:101930000860002008602248056205F0010090B1AF
:10194000FFF716FE064608E0FFF712FE801B41F285
:101950008831884201D90320D3E71948006A00F092
:1019600002000028F0D01648006A20F44070616838
:10197000084313490862012F04D10846C06920F0CA
:101980008050C86100BF207800F00200022807D113
:101990000B48406820F44040A1680843084948606B
:1019A000207800F01000102807D10548406820F486
:1019B0008000E1680843024948600020A1E7000078
:1019C00000100240007000404004424270B50446DE
:1019D0000D460CB9012070BD5A48006800F00700A0
:1019E000A8420ED25748006820F007002843554906
:1019F00008600846006800F00700A84201D00120F6
:101A0000E9E7207800F0020002281DD1207800F0DC
:101A10000400042805D14C48406840F4E0604A497D
:101A20004860207800F00800082805D14648406842
:101A300040F46050444948604348406820F0F0005A
:101A4000A168084340494860207800F0010078B35D
:101A50006068012806D13C48006800F4003090B965
:101A60000120B8E76068022806D13748006800F016
:101A7000007040B90120AEE73348006800F0020072
:101A800008B90120A7E73048406820F003006168EA
:101A900008432D494860FFF76BFD064609E0FFF754
:101AA00067FD801B41F28831884202D9032092E70A
:101AB00007E02548406800F00C006168B0EB810F3A
:101AC000EDD12048006800F00700A8420ED91D485B
:101AD000006820F0070028431A490860084600689B
:101AE00000F00700A84201D0012074E7207800F040
:101AF0000400042807D11448406820F4E060E1683D
:101B0000084311494860207800F00800082808D1EF
:101B10000D48406820F46050216940EAC1000A493C
:101B2000486000F061F808494968C1F30311074AA9
:101B3000515CC8400649086006480068FFF73EFD52
:101B4000002048E7002002400010024031880008D1
:101B5000140000200C0000200F2202600D4A526881
:101B600002F0030242600B4A526802F0F002826007
:101B7000084A526802F4E062C260064A526802F4FF
:101B80006052D2080261044A126802F007020A6039
:101B90007047000000100240002002400148006829
:101BA000704700001400002000B5FFF7F7FF04495C
:101BB0004968C1F30221034A515CC84000BD0000DE
:101BC000001002404188000800B5FFF7E7FF044914
:101BD0004968C1F3C221034A515CC84000BD0000FE
:101BE000001002404188000870B500210022002446
:101BF00000230020134D696801F00C05F5B1042D98
:101C000002D0082D19D101E00F4819E00F4DC1F3A2
:101C10008346AB5D01F4803555B10A4D6D68C5F35F
:101C200040450B4E725D084D5D43B5FBF2F402E09A
:101C3000084D03FB05F4204602E000BF024800BF48
:101C400000BF70BD0010024000127A000D8800082D
:101C50001D88000800093D00F8B504460CB90120B4
:101C6000F8BD207800F00100002878D0F8484068DE
:101C700000F00C0004280CD0F548406800F00C007F
:101C8000082811D1F248406800F48030B0F5803F58
:101C90000AD1EF48006800F4003000285FD0606887
:101CA00000285CD10120DBE700BF6068B0F5803F11
:101CB00006D1E748006840F48030E549086028E034
:101CC000606858B9E248006820F48030E049086054
:101CD0000846006820F4802008601AE06068B0F5CB
:101CE000A02F0BD1DA48006840F48020D849086062
:101CF0000846006840F4803008600AE0D448006874
:101D000020F48030D24908600846006820F4802022
:101D1000086000BF606888B1FFF72AFC054606E04E
:101D2000FFF726FC401B642801D9032098E7C84828
:101D3000006800F400300028F2D010E0FFF718FC33
:101D4000054606E0FFF714FC401B642801D9032078
:101D500086E7BF48006800F400300028F2D1207800
:101D600000F00200022857D1B948406800F00C008A
:101D700050B1B748406800F00C00082818D1B448AA
:101D8000406800F4803098B9B148006800F0020063
:101D900020B12069012801D0012061E7AC4800682A
:101DA00020F0F800616940EAC100A949086033E009
:101DB0002069E8B10120A7490860FFF7D9FB054673
:101DC00006E0FFF7D5FB401B022801D9032047E7B7
:101DD0009F48006800F002000028F2D09C4800688C
:101DE00020F0F800616940EAC1009949086013E0F9
:101DF000002098490860FFF7BBFB054606E0FFF7A7
:101E0000B7FB401B022801D9032029E7904800684E
:101E100000F002000028F2D1207800F00800082825
:101E20002DD1A069B8B101208B490860FFF7A0FB54
:101E3000054606E0FFF79CFB401B022801D9032062
:101E40000EE78348406A00F002000028F2D001202B
:101E500002F0D6FB13E000207F490860FFF788FB03
:101E6000054606E0FFF784FB401B022801D903204A
:101E7000F6E67748406A00F002000028F2D12078A8
:101E800000F00400042873D100277148C06900F0F5
:101E9000805070B900BF6E48C06940F080506C49F6
:101EA000C8610846C06900F08050009000BF00BFC4
:101EB00001276A48006800F48070B0B9674800687C
:101EC00040F4807065490860FFF752FB054606E064
:101ED000FFF74EFB401B642801D90320C0E65F4892
:101EE000006800F480700028F2D000BFE06801288C
:101EF00006D15748006A40F001005549086227E0C2
:101F0000E06858B95248006A20F001005049086260
:101F10000846006A20F00400086219E0E06805281D
:101F20000BD14B48006A40F004004949086208465A
:101F3000006A40F0010008620AE04548006A20F0AB
:101F40000100434908620846006A20F00400086264
:101F500000BFE068A0B1FFF70BFB054609E0FFF703
:101F600007FB401B41F28831884202D9032077E603
:101F700022E03748006A00F002000028EFD012E0AB
:101F8000FFF7F6FA054608E0FFF7F2FA401B41F2C8
:101F90008831884201D9032062E62D48006A00F0AA
:101FA00002000028F0D1012F05D12948C06920F096
:101FB00080502749C86100BFE069C8B32448406821
:101FC00000F00C00082860D0E069022848D1002009
:101FD00020490866FFF7CCFA054606E0FFF7C8FA85
:101FE000401B022801D903203AE61948006800F096
:101FF00000700028F2D1206AB0F5803F07D1144864
:10200000406820F40030A168084311494860D4E9D1
:10201000080108430E49496821F4741108430C492A
:10202000486001200B490866FFF7A2FA054607E061
:102030003DE0FFF79DFA401B022801D903200FE67F
:102040000348006800F000700028F2D02FE0000084
:1020500000100240000042428004424200700040F2
:10206000002014490866FFF783FA054606E0FFF7EB
:102070007FFA401B022801D90320F1E50E480068D1
:1020800000F000700028F2D111E0E069012800D1D1
:10209000E6E50948466806F48031206A814204D1A9
:1020A00006F47011606A814201D00120D8E5002059
:1020B000D6E50000000042420010024070B5044620
:1020C00000250CB9012070BD607C20B9002020746F
:1020D000204600F053F802206074204600F058F9C2
:1020E00018B1042060740120EDE7204602F0A7FA41
:1020F00018B1042060740120E5E72068406820F0F2
:10210000070021684860A06828B11B48006820F0DB
:102110000100194908601848001F006820F4607029
:10212000A16808431449091F08606068401C08B191
:10213000656809E00120FFF733FB05461DB904205F
:1021400060740120BFE76D1EC5F3034021688860FD
:10215000A8B22168C860204602F08EFA18B10420A7
:1021600060740120AFE70021E17301216173A17365
:10217000012060740020A6E7306C004038B50446AA
:102180000B492068884212D1FFF704FB00BF0948C1
:10219000C06940F000600749C8610846C06900F0A6
:1021A0000060009000BF00BF01200349086038BDF7
:1021B00000280040001002403C0442422DE9F04754
:1021C00004460D46904600260027B14604B115B9D5
:1021D0000120BDE8F08700BF207C012801D102204A
:1021E000F7E70120207400BF02206074B8F1000FEF
:1021F00006D1E978E17369786173A978A1730BE07E
:10220000E87802F011FAE073687802F00DFA607372
:10221000A87802F009FAA073A27B617BE07B02F050
:102220006EFA2073207B2870204602F04EFA064694
:102230004FF46160B6FBF0F9B9F1180F2FD91820EF
:10224000B9FBF0F000EB4000C000C0EB4011C1EB67
:102250000020A6EB00163146204602F0A9FA38B15C
:102260000420607400BF0020207400BF0120B0E78C
:10227000204602F01EFA0746781C80B1B7420ED203
:102280000B4807443946204602F07BFA38B1042057
:10229000607400BF0020207400BF012099E7012076
:1022A000607400BF0020207400BF00BF91E70000F1
:1022B000805101002DE9F04704460D469046002666
:1022C000002704B115B90120BDE8F08700BF207CCC
:1022D000012801D10220F7E70120207400BF02206D
:1022E0006074B8F1000F0BD128784FF46161484356
:1022F0006978C1EB011100EB8100A978461812E062
:10230000287802F091F94FF4616100FB01F96878D7
:1023100002F08AF9C0EB001009EB8009A87802F0FE
:1023200083F909EB00063146204602F041FA38B144
:102330000420607400BF0020207400BF0120C3E7A8
:102340002068406820F0050021684860204602F0BF
:10235000B0F90746781C80B1B7420ED20B4807444B
:102360003946204602F00DFA38B10420607400BFEF
:102370000020207400BF0120A6E70120607400BF88
:102380000020207400BF00BF9EE7000080510100C4
:1023900070B5044600250CB9012070BD2068406866
:1023A00020F0080021684860FFF7E2F8054607E0E2
:1023B000FFF7DEF8401BB0F57A7F01D90320ECE788
:1023C0002068406800F008000028F1D00020E4E711
:1023D00010B504460CB9012010BD606A38B96068B8
:1023E000B0F5827F00D105E00021E16102E000212B
:1023F000216161610021A16294F8510028B9002097
:1024000084F85000204600F043F8022084F8510080
:102410002068006820F0400021680860A08800F46F
:102420008270218901F404410843A18901F400610B
:102430000843217C01F002010843217D01F00101E4
:102440000843218B01F400710843217F01F038011A
:1024500008432021095D01F080010843218D01F42A
:1024600000510843216808600421A06901EA104076
:10247000216848602068C06920F400602168C86154
:1024800000206065012084F851000020A4E70000CE
:1024900010B586B004460020029003900490059089
:1024A0001949206888422DD100BF1848806940F43E
:1024B0008050164988610846806900F48050019078
:1024C00000BF00BF00BF0846806940F0040088617B
:1024D0000846806900F00400019000BF00BFA02002
:1024E0000290022003900320059002A90848FEF7FD
:1024F00097FE4020029000200390049002A9044817
:10250000FEF78EFE06B010BD003001400010024004
:10251000000801407047704730B502460B4600BFC7
:1025200092F83C00012801D1022030BD012082F840
:102530003C0000BF022082F83D001068446810682B
:10254000816824F070041868044310684460104DDA
:102550001068A8420BD01068B0F1804F07D00D4D25
:102560001068A84203D00C4D1068A84205D121F094
:1025700080015868014310688160012082F83D00A5
:1025800000BF002082F83C0000BF00BFCDE7000084
:10259000002C0140000400400008004010B5044633
:1025A0000CB9012010BD94F83D0028B9002084F832
:1025B0003C00204600F026F8022084F83D00211D52
:1025C000206802F091FB012084F8460000BF84F8E7
:1025D0003E0001213F200155402001554120015579
:1025E00000BF00BF012084F8420043200155442071
:1025F00001554520015500BF012084F83D00002011
:10260000D0E7000008B5124A016891420DD100BF21
:102610001049896941F400610E4A91611146896946
:1026200001F40061009100BF11E00168B1F1804F39
:102630000DD100BF0749C96941F00101054AD161C7
:102640001146C96901F00101009100BF00BF08BD3A
:10265000002C014000100240014691F83D00012885
:1026600001D001207047022081F83D000868C06851
:1026700040F001000B68D860124B086898420BD0FC
:102680000868B0F1804F07D00F4B0868984203D01C
:102690000E4B086898420CD10868806800F0070269
:1026A000062A0CD00868006840F001000B6818602A
:1026B00005E00868006840F001000B681860002021
:1026C000D0E70000002C014000040040000800405A
:1026D0002DE9F04104460D46002700BF94F83C0068
:1026E000012802D10220BDE8F081012084F83C00DD
:1026F00000BF022084F83D002068866826F0770637
:1027000026F47F46206886602868502833D00CDC89
:10271000202850D004DC00284BD0102851D149E0AB
:10272000302849D040284CD139E060282DD070287D
:1027300007D0B0F5805F03D0B0F5005F41D10DE068
:1027400041E0D5E902136A68206802F007FB2068BF
:10275000866846F077062068866034E0D5E9021383
:102760006A68206802F0FAFA2068806840F48040C5
:102770002168886027E0EA686968206802F0BEFB8B
:102780005021206802F0F5FA1DE0EA6869682068C7
:1027900002F0C7FB6021206802F0EBFA13E0EA6860
:1027A0006968206802F0AAFB4021206802F0E1FA83
:1027B00009E000BF00BF00BF2968206802F0D9FA15
:1027C00001E0012700BF00BF012084F83D0000BFE9
:1027D000002084F83C0000BF384684E7704710B5FD
:1027E000044620680069C0F34000D8B12068C06882
:1027F000C0F34000B0B16FF0020021680861012011
:1028000020772068806900F0030018B12046FFF7A8
:10281000E5FF05E0204600F0ADF8204600F061F944
:102820000020207720680069C0F38000D8B12068BC
:10283000C068C0F38000B0B16FF004002168086187
:10284000022020772068806900F4407018B120468B
:10285000FFF7C4FF05E0204600F08CF8204600F0AA
:1028600040F90020207720680069C0F3C000D8B18B
:102870002068C068C0F3C000B0B16FF008002168E4
:102880000861042020772068C06900F0030018B1B7
:102890002046FFF7A3FF05E0204600F06BF8204636
:1028A00000F01FF90020207720680069C0F30010B5
:1028B000D8B12068C068C0F30010B0B16FF010004C
:1028C00021680861082020772068C06900F4407002
:1028D00018B12046FFF782FF05E0204600F04AF8D5
:1028E000204600F0FEF8002020772068006900F004
:1028F000010058B12068C06800F0010030B16FF0ED
:10290000010021680861204600F0ECF820680069A9
:10291000C0F3C01058B12068C068C0F3C01030B117
:102920006FF08000216808612046FFF7F3FD206802
:102930000069C0F3801058B12068C068C0F38010EF
:1029400030B16FF0400021680861204600F0D6F8F1
:1029500020680069C0F3401058B12068C068C0F317
:10296000401030B16FF02000216808612046FFF769
:10297000D2FD10BD70472DE9F04104460D461646C4
:10298000002700BF94F83C00012802D10220BDE8D6
:10299000F081012084F83C0000BF36B1042E1BD02A
:1029A000082E31D00C2E5ED145E02946206802F079
:1029B000E9F92068806940F0080021688861206892
:1029C000806920F004002168886120688069296995
:1029D00008432168886148E02946206802F002FA2D
:1029E0002068806940F400602168886120688069FF
:1029F00020F480602168886120688069296940EA44
:102A000001202168886130E02946206802F01EFA22
:102A10002068C06940F008002168C8612068C0696A
:102A200020F004002168C8612068C0692969084352
:102A30002168C86119E02946206802F03BFA206845
:102A4000C06940F400602168C8612068C06920F452
:102A500080602168C8612068C069296940EA012056
:102A60002168C86101E0012700BF00BF00BF00204E
:102A700084F83C0000BF384689E710B504460CB91D
:102A8000012010BD94F83D0028B9002084F83C00D6
:102A9000204600F025F8022084F83D00211D206822
:102AA00002F022F9012084F8460000BF84F83E00BD
:102AB00001213F200155402001554120015500BF13
:102AC00000BF012084F842004320015544200155F5
:102AD0004520015500BF012084F83D000020D0E7CB
:102AE0007047704710B5044603492068884201D1F9
:102AF000FEF744FD10BD000000080040704770471D
:102B0000704700002DE9F84F0446206805682068EA
:102B1000C668206847694FF00009CA4605F00F09EA
:102B2000B9F1000F0AD105F0200038B106F02000FD
:102B300020B1204602F00EFBBDE8F88FB9F1000F7E
:102B40007BD007F0010018B906F49070002874D00B
:102B500005F0010030B106F4807018B1606C40F0EF
:102B60000100606405F0040030B107F0010018B105
:102B7000606C40F00200606405F0020030B107F0C4
:102B8000010018B1606C40F00400606405F00800BA
:102B900048B106F0200010B907F0010018B1606CD0
:102BA00040F008006064606C002845D005F020000B
:102BB00028B106F0200010B1204602F0CBFA2068C0
:102BC0004069C0F3801A606C00F0080010B9BAF1D7
:102BD000000F2CD0204602F077FA2068406900F000
:102BE000400000B300BF00BF2168143151E8001F4E
:102BF00021F040002168143141E80002002AF3D19D
:102C000000BFE06B50B17748E16B4863E06BFEF7C3
:102C100099F988B1E06B416B88470DE02046FFF7DA
:102C20006FFF09E009E02046FFF76AFF04E0204655
:102C3000FFF766FF002060647EE7206B012877D1F4
:102C400005F01000002873D006F010000028FAD01C
:102C500000BF002000902068006800902068406855
:102C6000009000BF00BF2068406900F040000028CD
:102C70005FD0E06B006840681FFA80F8B8F1000F81
:102C800055D0A08D404552DDA4F82E80E06B8069C0
:102C9000202843D000BF00BF21680C3151E8001F3D
:102CA00021F4807021680C3141E80002002AF3D140
:102CB00000BF00BF00BF2168143151E8001F21F0A0
:102CC00001002168143141E80002002AF3D100BF5D
:102CD00000BF00BF2168143151E8001F21F04000FF
:102CE0002168143141E80002002AF3D100BF2020FE
:102CF00084F842000020206300BF00BF21680C312F
:102D000051E8001F21F0100021680C3141E8000259
:102D1000002AF3D100BFE06BFEF7E8F80220606301
:102D2000A08DE28D801A81B22046FFF7E8FE03E70E
:102D300042E0A08DE18D401A1FFA80F8E08DD0B3FB
:102D4000B8F1000F37D000BF00BF21680C3151E847
:102D5000001F21F4907021680C3141E80002002A24
:102D6000F3D100BF00BF00BF2168143151E8001F3C
:102D700021F001002168143141E80002002AF3D15A
:102D800000BF202084F842000020206300BF00BF65
:102D900021680C3151E8001F21F0100021680C312E
:102DA00041E80002002AF3D100BF022060634146DF
:102DB0002046FFF7A4FEBFE605F0800030B106F024
:102DC000800018B1204602F0C1FAB5E605F04000D7
:102DD00030B106F0400018B1204602F0ABF9ABE686
:102DE00000BFA9E6B550000810B504460CB9012093
:102DF00010BDA06900B100E000BF94F8410028B9FF
:102E0000002084F84000204600F02AF8242084F8AE
:102E100041002068C06820F400502168C860204646
:102E200002F016FA2068006920F4904021680861D9
:102E30002068406920F02A00216848612068C06845
:102E400040F400502168C86000206064202084F8AD
:102E5000410084F842000020606300BFC8E7000022
:102E600010B586B0044600200290039004900590AF
:102E70005149206888422FD100BF5048806940F4F2
:102E800080404E4988610846806900F48040019086
:102E900000BF00BF00BF0846806940F004008861A1
:102EA0000846806900F00400019000BF00BF48158B
:102EB0000290022003900320059002A94048FEF7EB
:102EC000AFF94FF48060029000200390049002A9B3
:102ED0003B48FEF7A5F96DE03A492068884236D1B3
:102EE00000BF3648C06940F400303449C861084624
:102EF000C06900F40030019000BF00BF00BF084669
:102F0000806940F0040088610846806900F0040090
:102F1000019000BF00BF0420029002200390032014
:102F2000059002A92648FEF77BF9082002900020B0
:102F30000390049002A92248FEF772F900220521AD
:102F40002620FEF7D5FB2620FEF7C2FB32E01E4905
:102F5000206888422ED100BF1848C06940F4802004
:102F60001649C8610846C06900F48020019000BF7E
:102F700000BF00BF0846806940F00800886108462D
:102F8000806900F00800019000BF00BF08150290A2
:102F9000022003900320059002A90C48FEF740F997
:102FA0004FF40060029000200390049002A90748AB
:102FB000FEF736F906B010BD00380140001002409F
:102FC000000801400044004000480040000C01405F
:102FD0007047704700BFFEE71FB5FF20009000203C
:102FE0000190029069460248FEF71AF91FBD0000E1
:102FF000000C014070B5054600240AE0E006010E11
:10300000002000F097F92946204600F005F8601CE2
:10301000C4B2082CF2DB70BD70B505460E46002424
:1030200009E0E806010E204600F084F9304600F081
:103030001FFB601CC4B2802CF3DB70BD70B505466D
:1030400030480078402801DA002404E02D48007858
:10305000402800DB01242B480078402803D115B11B
:10306000012100F0D5FA0022FF212748FEF77AFA65
:10307000FFF7B2FF5CB900224FF400712248FEF75F
:1030800071FA012211022048FEF76CFA0BE0012CC4
:1030900009D1002221021C48FEF764FA01225102E4
:1030A0001948FEF75FFA0122D1031748FEF75AFAD2
:1030B000012251031448FEF755FA012000F096FB57
:1030C00001F08EFB064600224FF400510E48FEF739
:1030D00049FA012000F08AFB00224FF400410A481F
:1030E000FEF740FA00F0DAFD064A5178107800F059
:1030F00021F90648007808B1F04300E03046C0B23C
:1031000070BD00003B000020000C01403E0000208C
:103110002DE9F04F89B00746894615469A4638781A
:10312000079097F80180B8780890CDF80C80089C3B
:10313000DDF80C8009EB0800802803DDC9F1800070
:10314000C0B203902819402802DDC5F14000C4B286
:10315000E11704EB5171C910A4EBC10139B120464C
:10316000E11704EB5171C910491CCCB205E02046AF
:10317000E11704EB5171C1F3C7044FF0000BBAF132
:10318000020F0BD0002000900898401EC3B2A8F197
:103190000100C2B22946484600F051F800263CE042
:1031A00005EBC600C0B20490049838280ADD284612
:1031B000E91705EB5171C910A5EBC10101F0FF0B37
:1031C000382004904846049900F0B4F8079806FBAC
:1031D000080002900020059019E00298411C02911D
:1031E000385C0690BBF1000F0AD000F0D8F90699C0
:1031F00001FA0BF10843C0B2019000F039FA02E085
:10320000069800F035FA0598401CC0B20590039965
:1032100005988842E1DB701CC6B2A642C0DBBAF159
:10322000000F09D10898401EC3B2A8F10100C2B234
:103230002946484600F02CF909B0BDE8F08F2DE989
:10324000FF5F0C4692461D46681CC5B24FF0FF0852
:103250002046E11704EB5171C910A4EBC10101F044
:10326000FF0BA4EB0B00C4B2CBF10800A84205DDB4
:10327000C5F1080048FA00F82E4602E0CBF108003C
:10328000C6B208FA0BF000F0FF082146009800F0E3
:1032900051F800270FE000F082F981460E98FF28D0
:1032A00002D149EA080901E029EA0809484600F084
:1032B000DFF9781CC7B25745EDDD12E006F10800D2
:1032C000C6B204F10800C4B22146009800F032F8FA
:1032D000002704E00E9800F0CBF9781CC7B25745E0
:1032E000F8DD06F10800A842E8DDAE421FDAA91BAE
:1032F000FF208840C04300F0FF0804F10800C1B27D
:10330000009800F017F800270FE000F048F9814618
:103310000E98FF2802D149EA080901E029EA0809C4
:10332000484600F0A5F9781CC7B25745EDDDBDE869
:10333000FF9F00002DE9F04105460C467F2D01D886
:103340003F2C01D9BDE8F0811B480570447001464F
:103350008978E21704EB5272B1EBE20F15D02046E8
:10336000E11704EB5171C1F3C701134A9170104684
:10337000807840F0B807002605E03146384600F076
:1033800047F9701CC6B2022EF7DB0B490878C1174B
:1033900000EB91618E112846E91705EB91618911C7
:1033A000A5EB8111CDB245F040073146384600F01B
:1033B0002FF900BFC6E700003B00002038B50446E7
:1033C00000F038F8012291031748FEF7CBF80220ED
:1033D00000F00CFA002015490870487088701448F5
:1033E000047000213F2000F013F901213F2000F07C
:1033F0000FF90021C02000F00BF90121C02000F0DE
:1034000007F90CB1FF2100E000210846FFF7F2FDAB
:1034100000210846FFF78EFF00203F237F22014650
:103420000090FFF70CFF38BD000C01403B0000206E
:103430003E00002010B500224FF480411348FEF7F3
:1034400091F80022FF211148FEF78CF800224FF47A
:1034500080710E48FEF786F800224FF400710B4889
:10346000FEF780F800224FF480510848FEF77AF802
:1034700000224FF400410548FEF774F800224FF493
:1034800000510248FEF76EF810BD0000000C01402C
:103490002DE9FF4F81B00C4692461D46681CC5B20F
:1034A0004FF0FF082046E11704EB5171C910A4EB5F
:1034B000C10101F0FF0BA4EB0B00C4B2CBF108007B
:1034C000A84205DDC5F1080048FA00F82E4602E0E2
:1034D000CBF10800C6B208FA0BF000F0FF08214655
:1034E0000198FFF727FF002712E000F058F8814607
:1034F0006FEA0900C0B20090009800EA080029EACB
:10350000080140EA0109484600F0B2F8781CC7B249
:103510005745EADD17E006F10800C6B204F10800DD
:10352000C4B221460198FFF705FF002709E000F02B
:1035300036F881466FEA0901C8B200F099F8781CA4
:10354000C7B25745F3DD06F10800A842E3DDAE42FD
:1035500022DAA91BFF208840C04300F0FF0804F1D5
:103560000800C1B20198FFF7E5FE002712E000F065
:1035700016F881466FEA0900C0B20090009800EA90
:10358000080029EA080140EA0109484600F070F8FD
:10359000781CC7B25745EADD05B0BDE8F08F10B51D
:1035A0000120FFF74BFD0020FFF748FD10BD2DE97E
:1035B000F04180460C4617462546E01704EB507054
:1035C000C010A4EBC000201AC1B24046FFF7B2FE03
:1035D000FFF7E5FF0646FF2F0BD12046E11704EB6E
:1035E0005171C910A4EBC102012191403143CEB207
:1035F00009E02046E11704EB5171C910A4EBC102A8
:10360000012191408E43304600F032F8BDE8F08150
:1036100070B505460C465CB900224FF400711348A2
:10362000FDF7A0FF012211021048FDF79BFF0BE000
:10363000012C09D1002221020C48FDF793FF012241
:1036400051020A48FDF78EFF00224FF480510748CF
:10365000FDF788FF284601F0B3FEFDF7F3F80122DD
:1036600011030248FDF77EFF70BD0000000C014011
:103670002DE9F04106465A480078802801DBBDE874
:10368000F08157480078402801DA002404E05448CB
:103690000078402800DB012451480078402802D1FE
:1036A0000121FFF7B5FF4E494878C11700EB517172
:1036B000C910A0EBC101CFB2002F67D0FFF76FFF99
:1036C000054606FA07F02843C5B24648007808B117
:1036D000E843C5B25CB900224FF400714248FDF7DF
:1036E00041FF012211024048FDF73CFF0BE0012C95
:1036F00009D1002221023C48FDF734FF012251028A
:103700003948FDF72FFF284601F05AFEFDF79AF8D9
:10371000334A52780832D1B2314A1078FFF70AFEA4
:10372000FFF73DFF0546C7F1080146FA01F00543E2
:103730002C48007808B1E843C5B25CB900224FF4C8
:1037400000712948FDF70EFF012211022648FDF7FE
:1037500009FF0BE0012C09D1002221022248FDF7CC
:1037600001FF012251022048FDF7FCFE284601F02E
:1037700027FEFDF767F81A4A5278083AD1B2184A7C
:103780001278521CD0B2FFF7D5FD27E0154800781B
:1037900008B1F043C6B25CB900224FF40071124880
:1037A000FDF7E0FE012211020F48FDF7DBFE0BE002
:1037B000012C09D1002221020B48FDF7D3FE012282
:1037C00051020948FDF7CEFE304601F0F9FDFDF744
:1037D00039F803480078401C0149087000BF4EE7E3
:1037E0003B0000203E000020000C014010B50446C4
:1037F00002E0142001F010FE201EA4F10101CCB261
:10380000F7D110BD1149086009688978104A117014
:103810000E490968C9780F4A11700C49096849783E
:1038200009020D4A11800949096809781288114472
:10383000094A1180054909684979084A1170034904
:1038400009688979064A1170704700001800002045
:103850002B0000202C000020260000202800002043
:10386000290000200EB5002000900190029012481F
:1038700012490860002111488160017301754FF4FD
:103880006021C16100200D49486001210B480161A0
:10389000FDF72CF908B1FCF7EBFF002000900120A8
:1038A00001900020029069460448FCF7E5FF08B14A
:1038B000FCF7DEFF0EBD000000240140A000002048
:1038C00010B50B480B4908601020486000210948DA
:1038D0008160C16001614161017641768176C17686
:1038E00001774177FDF704FA08B1FCF7C1FF10BD7D
:1038F000006400401401002008B500BF0A48406978
:1039000040F00100084948610846406900F00100A4
:10391000009000BF00BF002205210B20FDF7E8FE4C
:103920000B20FDF7D5FE08BD0010024000B585B0A4
:103930000020019002900390049000BF37488069F6
:1039400040F01000354988610846806900F0100099
:10395000009000BF00BF00BF0846806940F0200013
:1039600088610846806900F02000009000BF00BF19
:1039700000BF0846806940F00400886108468069FD
:1039800000F00400009000BF00BF00BF084680693F
:1039900040F0080088610846806900F00800009047
:1039A00000BF00BF00224FF400511D48FDF7DAFDB3
:1039B000002248F212111B48FDF7D4FD00224FF2FD
:1039C000FF311948FDF7CEFD4FF400500190012062
:1039D0000290002003900220049001A91048FDF7F6
:1039E0001FFC48F212100190012002900020039069
:1039F0000220049001A90B48FDF712FC4FF2FF30A2
:103A0000019001200290002003900220049001A95F
:103A10000548FDF705FC05B000BD000000100240A0
:103A20000010014000080140000C01401CB50020BE
:103A3000019000901748184908604FF0FF30486027
:103A4000002115488160FEF739FB08B1FCF710FF33
:103A500000208DF804008DF805008DF80600012285
:103A600001A90D48FEF726FC08B1FCF701FF012073
:103A70008DF800008DF801008DF8020000208DF80F
:103A80000300012269460448FEF798FB08B1FCF7E1
:103A9000EFFE1CBD002800403C01002010B50E4880
:103AA0000E4908604FF48270486000210B48816025
:103AB000C160016141614FF4007181611821C161F0
:103AC00000210162416281620A21C162FEF780FC2D
:103AD00008B1FCF7CDFE10BD0030014050010020C0
:103AE00000B587B0002003900490059006900190E7
:103AF00002901548154908600020486000211348CD
:103B000081604FF6FF71C1600021016141618161F7
:103B1000FEF744FD08B1FCF7ABFE4FF48050039074
:103B200003A90A48FEF7D4FD08B1FCF7A1FE002066
:103B30000190029001A90548FEF7EEFC08B1FCF7E0
:103B400097FE07B000BD0000002C0140A801002036
:103B500000B58DB0002009900A900B900C90079052
:103B600008901C216846FCF77BFB4FF080401E4903
:103B700008600020486000211B4881604FF6FF71FB
:103B8000C160002101618161FEF708FD08B1FCF709
:103B90006FFE4FF48050099009A91348FEF798FD75
:103BA00008B1FCF765FE1048FEF767FF08B1FCF7A7
:103BB0005FFE00200790089007A90B48FEF7ACFCB9
:103BC00008B1FCF755FE60200090002001900290A3
:103BD0000490002269460448FEF7CDFE08B1FCF7C8
:103BE00047FE0DB000BD0000F001002010B50B48ED
:103BF0000B4908604FF41650486000210848816066
:103C0000C16001610C21416100218161C161FFF747
:103C1000EBF808B1FCF72CFE10BD000000380140A5
:103C20003802002010B50B480B4908604FF41650BD
:103C30004860002108488160C16001610C21416138
:103C400000218161C161FFF7CFF808B1FCF710FED8
:103C500010BD0000004400408002002010B50B4859
:103C60000B4908604FF4E13048600021084881604A
:103C7000C16001610C21416100218161C161FFF7D7
:103C8000B3F808B1FCF7F4FD10BD00000048004097
:103C9000C802002000BFFEE700BFFEE71FB5FF20FF
:103CA0000090012001900220039069460148FDF731
:103CB000B7FA1FBD000C01402DE9F04F87B0044654
:103CC0000020069082460590049000250390029003
:103CD0000190002600278046E01DB2490978401A6D
:103CE000B1490968085CB14908700A2C0FD100205D
:103CF000AF490860AF480168AF480078AF4A127812
:103D000000FB0210AB49086007B0BDE8F08FA54882
:103D10000078844206DBAA480078844202DCA94885
:103D2000008800B9F0E7A148007800B9ECE7A648A0
:103D3000007820B1A54800789C49087013E0D42C85
:103D400001DBDA2C05DDE72C01DBEC2C01DDD12CCD
:103D500009D197480168954800789D4A127800FB80
:103D6000121093490860302C0ADB392C08DC8D488E
:103D70000078C0F137008C490968085C8B490870ED
:103D80008B48006889490978914A127801FB020042
:103D90007F280CD98748006887490978874A1278B4
:103DA00001FB02008349086000208149086000206F
:103DB00002900AE07C4801680298C01D085C284413
:103DC00085B20298401CC0B2029076480078211A51
:103DD00002988142EEDC78480078684385B27848E2
:103DE000007870490978401AC01D05EBC00085B203
:103DF0002846E91705EB5171C9100391E91705EB46
:103E00005171C910A5EBC10101F0FF0A50464FEAFC
:103E1000EA710AEB5171C910AAEBC101C9B205914F
:103E200000200190A8E000269DE00598072805DD08
:103E3000002005900498401C80B20490DDE9030145
:103E40000844401C58490968085C069058480168B5
:103E50005F4A1278019800FB02101FFA80F95D4852
:103E60000078B8B15C48007858B153480078801B9E
:103E7000524909784F4A126800FB01201FFA80FB63
:103E80001FE04C4800684D49097806FB01001FFA05
:103E900080FB16E05048007858B147480078801BF6
:103EA00046490978434A126800FB01201FFA80FB4B
:103EB00007E0404800684149097806FB01001FFA05
:103EC00080FB002745E04FF000083CE0DDE90510ED
:103ED000FCF760FAC0B14148007850B1404B1A7805
:103EE00009EB0703D9B20BEB0803D8B2FFF75FFB6E
:103EF00025E03B4B1A780BEB0803D9B209EB07031B
:103F0000D8B2FFF754FB1AE036480078B8B133480E
:103F1000007850B1344B1A7809EB0703D9B20BEB98
:103F20000803D8B2FFF743FB09E02F4B1A780BEBDD
:103F30000803D9B209EB0703D8B2FFF738FB08F141
:103F4000010000F0FF081D4800788045BEDB781CAA
:103F5000C7B21F4800788742B5DB0598401CC0B245
:103F60000590701CC6B2144800788642FFF65DAF1B
:103F70000198401CC0B201900C4909780198884210
:103F8000FFF651AF1948007808490978104A1278AD
:103F900001FB02000649096808440549086000BFA2
:103FA000B2E6000028000020180000202A000020AF
:103FB00030000020340000202C0000202E000020C3
:103FC0002900002026000020240000202B000020D3
:103FD0002D0000201E0000201D0000201C000020DD
:103FE0002000002025000020220000202F000020BB
:103FF0002DE9F04F87B005460020069082460590D7
:10400000049000240390029001900026002780462F
:10401000E81DA4490978401AA3490968085CA34926
:1040200008700A2D0FD17F20A1490860A1480068BF
:10403000A1490978A14A127801FB02009D49086054
:1040400007B0BDE8F08F97480078854206DB9C48B2
:104050000078854202DC9B48008800B9F0E793486D
:10406000007800B9ECE79848007818B197480078D4
:104070008E4908708E4800688C490978944A1278F5
:1040800001FB1200002812D58A4800688A49097885
:104090008A4A127801FB020086490860834800784A
:1040A0008B4909784843C0F17F00814908608948FD
:1040B00001787E480078864A127800FB02107C491D
:1040C0000968081A7A490860002002900AE07648D8
:1040D00001680298C01D085C204484B20298401C0C
:1040E000C0B202906F480078291A02988142EEDC33
:1040F00071480078604384B2714800786949097852
:10410000401AC01D04EBC00084B22046E11704EB46
:104110005171C9100391E11704EB5171C910A4EB5F
:10412000C10101F0FF0A50464FEAEA710AEB5171F2
:10413000C910AAEBC101C9B2059100200190A8E005
:1041400000269DE00598072805DD002005900498CD
:10415000401C80B20490DDE903010844401C524930
:104160000968085C069052480168594A127801981B
:1041700000FB02101FFA80F957480078B8B1574881
:10418000007858B14C480078811B4C480078494A67
:10419000126801FB00201FFA80FB1FE04548006801
:1041A0004649097806FB01001FFA80FB16E04B48E0
:1041B000007858B140480078811B404800783D4A5B
:1041C000126801FB00201FFA80FB07E039480068F5
:1041D0003A49097806FB01001FFA80FB002745E0F9
:1041E0004FF000083CE0DDE90510FCF7D3F8C0B162
:1041F0003B48007850B13B4B1A7809EB0703D9B222
:104200000BEB0803D8B2FFF7D2F925E0354B1A784B
:104210000BEB0803D9B209EB0703D8B2FFF7C7F9D4
:104220001AE031480078B8B12D48007850B12F4BD2
:104230001A7809EB0703D9B20BEB0803D8B2FFF7E2
:10424000B6F909E0294B1A780BEB0803D9B209EB50
:104250000703D8B2FFF7ABF908F1010000F0FF083F
:10426000164800788045BEDB781CC7B21848007835
:104270008742B5DB0598401CC0B20590701CC6B2E1
:104280000D4800788642FFF65DAF0198401CC0B231
:1042900001900649097801988842FFF651AF00BFA6
:1042A000CEE6000028000020180000202A00002090
:1042B00030000020340000202C0000202E000020C0
:1042C0002900002026000020240000202B000020D0
:1042D0002D0000202F0000201E0000201D000020C7
:1042E0001C000020200000202500002022000020CB
:1042F0002DE9F04705460F4614469846DDE908A922
:104300005046FCF753F886B2A8EB0701264A12780C
:10431000264B1B7802FB131000EBD07107EB6101F9
:104320008FB223480078E8B909F0030020B10128D2
:1043300007D0022812D10CE01E480078284485B22C
:104340000CE0611B881B00EBD07105EB61018DB2A5
:1043500004E0B44201DDA01B85B200BF00BF1648D7
:10436000056019E009F0030060B1012802D00228BD
:104370000FD10EE0611B881B00EBD071A4EB610133
:104380008CB206E0A81984B20A480078204484B2AE
:1043900000BF00BF0848046008480760504600F0AE
:1043A0000FF8BDE8F08700002C0000202E00002050
:1043B000380000202F0000203000002034000020B2
:1043C00070B50446002509480078012803D120462D
:1043D00000F00EF808E004E029466D1C605CFFF771
:1043E0006BFC605D0028F7D170BD00003800002034
:1043F0002DE9F04F8FB006467D4890F800A04FF0B1
:104400000008C1460025E8E028466D1C345C8D2C70
:1044100018D00CDC3B2C2DD004DC2C2C2CD02E2CDA
:104420002ED12BE03F2C23D0812C29D108E08E2CDB
:104430000AD0902C0AD0982C0AD0E12C20D109E087
:10444000EA241DE0EB241BE0EE2419E0EF2417E042
:10445000DF2415E028466D1C305C6649087008466C
:104460000078C72801D1FB2401E06D1EE12407E09C
:10447000BF2405E01F2403E01D2401E01C2400BF2D
:1044800000BF28466D1C305C5A4908706D1E0846F6
:104490000078812812D008DC2C282BD02E282DD093
:1044A0003B2823D03F282DD11CE08D280AD08E2810
:1044B0000CD090280ED0982824D10FE0EA204D4946
:1044C00008701FE0EB204B4908701BE0EE204949C3
:1044D000087017E0EF204749087013E0DF204549D6
:1044E00008700FE0BF20434908700BE01F204149CE
:1044F000087007E01D203F49087003E01C203D497B
:10450000087000BF00BFC02C3CDD3B480078C028CD
:104510000ADD39480078C13800EB4000374901EB2B
:10452000400090F805B001E04FF0000B31480078F2
:10453000C0280ADD2F480078C13800EB40002F4921
:1045400001EB400000790E9001E000200E900E98E3
:1045500040EA4B00C7B2012F03DD00202449087058
:1045600002E0234880F800A0A4F1C10101EB410161
:10457000224A02EB4101C85DFFF73AFD1C4880F872
:1045800000A028E0302C23DB392C21DC08F10100CD
:1045900000F0FF0801A800F808401648007830280D
:1045A00003DB14480078392815DDC1460AE001A96B
:1045B00011F809102039C8B2FFF71AFDA9F101005E
:1045C00000F0FF09B9F1000FF1DC4FF0000802E044
:1045D0002046FFF70DFD08480470705D00287FF449
:1045E00013AFFF20044908700FB0BDE8F08F000042
:1045F0002F0000203A0000203900002049880008E0
:1046000008B508490968C9084FF47A72B1FBF2F19C
:104610004143009100BF00BF00994A1E009200294B
:10462000F9D108BD14000020014600BF080900EBC5
:104630008000420001F00F001044C0B2704770B516
:1046400004460025FCF794FF054607E0FCF790FFC1
:10465000401BB0F57A7F01D9032070BD2068406807
:1046600000F020000028F1D02068406840F01000E1
:10467000216848600020F0E770B5044600252068F6
:10468000406820F0100021684860FCF771FF054683
:1046900007E0FCF76DFF401BB0F57A7F01D90320DE
:1046A00070BD2068406800F020000028F1D0002094
:1046B000F6E70146002200230868006A82B2086813
:1046C000406A83B243EA0240704730B50146002297
:1046D0000023002400200D68AD69AAB20D68ED69C1
:1046E000ACB20D68AD69ABB29A4205D00D68ED6908
:1046F00063F31F45284601E044EA024030BDF0B5AF
:1047000004460B460021002504F5FA61032B1BD259
:10471000C3EBC30000EB03100926B0FBF6F0104416
:10472000001D4618481E06EB90066427B0FBF7F004
:10473000361A481EBF00B0FBF7F030440726B0FB26
:10474000F6F706FB17051AE0C3EBC30000EB0310F6
:104750000926B0FBF6F01044001D084400EB910060
:104760006426B1FBF6F6801B4FF4C876B1FBF6F673
:104770003044801E0726B0FBF6F706FB1705E8B2AB
:10478000F0BD70B504460D4600262046FFF757FFE2
:1047900008B101260AE0280C21680862A8B2216845
:1047A00048622046FFF768FF00B10126304670BD21
:1047B00070B504460D4600262046FFF740FF08B1BD
:1047C00001260AE0280C21688861A8B22168C86126
:1047D0002046FFF751FF00B10126304670BD0000B2
:1047E00010B500202E49087001212E48FCF7A8FEC4
:1047F00028B12B48007840F00100294908700221B7
:104800002848FCF79DFE28B12548007840F00200BA
:104810002349087004212348FCF792FE28B1204860
:10482000007840F004001E49087008211D48FCF77C
:1048300087FE28B11A48007840F00800184908702F
:1048400010211848FCF77CFE28B11548007840F08C
:1048500010001349087020211248FCF771FE28B19E
:104860000F48007840F020000D49087040210D48A5
:10487000FCF766FE28B10A48007840F0400008497D
:10488000087080210748FCF75BFE28B104480078D7
:1048900040F08000024908700148007810BD000017
:1048A00004000020000C01402DE9F84306460F46A5
:1048B00014461D46DDF82080F81BC3B2A01BC2B20F
:1048C00039463046CDF80080FEF7B9FC681BC3B20C
:1048D000A01BC2B229463046CDF80080FEF7AFFCDF
:1048E000E81BC3B2B01BC2B239463046CDF80080D7
:1048F000FEF7A5FCE81BC3B2201BC2B23946204616
:10490000CDF80080FEF79BFCBDE8F8832DE9FC5F45
:104910000746884691469A46DDF838B00C9C00253B
:104920002646C4F1010001900D9800287DD0AAEB25
:10493000040008EB040CA0EB0C00C3B2A9EB0700C9
:10494000C2B208EB0400C1B23846CDF800B0FEF7A1
:1049500076FC00BFA8EB060CA444ACEB0C0C0CF0EE
:10496000FF0305EB090CACEB040CA7EB050EA6440A
:10497000ACEB0E0C0CF0FF02A8EB060CA4440CF000
:10498000FF01A7EB050CA4440CF0FF00CDF800B02C
:10499000FEF755FCA8EB050CA444ACEB0C0C0CF09A
:1049A000FF0306EB090CACEB040CA7EB060EA644C8
:1049B000ACEB0E0C0CF0FF02A8EB050CA4440CF0C1
:1049C000FF01A7EB060CA4440CF0FF00CDF800B0EB
:1049D000FEF735FC05EB0A0CACEB040CACEB0C0C55
:1049E0000CF0FF0306EB090CACEB040CA7EB060E76
:1049F000A644ACEB0E0C0CF0FF0205EB0A0CACEB82
:104A0000040C0CF0FF01A7EB060CA4440CF0FF0013
:104A1000CDF800B0FEF713FC06EB0A0CACEB040C6F
:104A2000ACEB0C0C0CF0FF0300E032E005EB090CE2
:104A3000ACEB040CA7EB050EA644ACEB0E0C0CF093
:104A4000FF0206EB0A0CACEB040C0CF0FF01A7EB29
:104A5000050CA4440CF0FF00CDF800B0FEF7EFFB0E
:104A60000198002807DA28466D1C4000C01C0199F7
:104A70000844019009E028466D1C3146761E401A14
:104A80004000401D019908440190B5427FF762AF94
:104A9000B0E0A9EB040107EB040CA1EB0C01CAB2D6
:104AA000A8EB0801CBB23919C8B24146CDF800B025
:104AB000FEF7C5FBA9EB040107EB040CA1EB0C010D
:104AC000CAB2AAEB0A01CBB23919C8B25146CDF825
:104AD00000B0FEF7B4FBAAEB040008EB040CA0EB5B
:104AE0000C00C3B2F81BC2B208EB0400C1B23846D6
:104AF000CDF800B0FEF7A3FBAAEB040008EB040C12
:104B0000A0EB0C00C3B2A9EB0900C2B208EB040091
:104B1000C1B24846CDF800B0FEF791FB00BFA8EB4C
:104B200006022244D1B205EB0902121BD0B25A464A
:104B3000FEF73DFDA8EB05022244D1B206EB0902C7
:104B4000121BD0B25A46FEF732FD05EB0A02121BC9
:104B5000D1B206EB0902121BD0B25A46FEF727FD6E
:104B600006EB0A02121BD1B205EB0902121BD0B2EE
:104B70005A46FEF71CFD06EB0A02121BD1B27A1B45
:104B80002244D0B25A46FEF712FD05EB0A02121B70
:104B9000D1B2BA1B2244D0B25A46FEF708FDA8EBA8
:104BA00005022244D1B2BA1B2244D0B25A46FEF7C3
:104BB000FEFCA8EB06022244D1B27A1B2244D0B2FA
:104BC0005A46FEF7F4FC0198002807DA28466D1CC7
:104BD0004000C01C01990844019009E028466D1C62
:104BE0003146761E401A4000401D0199084401904C
:104BF000B54294DDBDE8FC9F05490870012803D14A
:104C00007F21044A116002E00021024A11607047CE
:104C1000380000203000002010B500BF502080F385
:104C20001188BFF34F8FBFF36F8F00BF01F014F9EE
:104C300018B14FF080500449086000BF002080F395
:104C4000118800BF10BD000004ED00E000B593B076
:104C5000282109A8FBF704FB142104A8FBF700FB9B
:104C60000020009001900290039001200990000420
:104C70000A9000200B9001200D9002201090C1039B
:104C800011914FF4E011129109A8FCF7E5FF08B16A
:104C9000FBF7EEFD0F200490022005900020069007
:104CA0004FF48060079000200890022104A8FCF7D0
:104CB0008DFE08B1FBF7DCFD03200090000201909F
:104CC0004FF4004002906846FCF7E8FD08B1FBF79E
:104CD000CFFD13B000BD704710B50248FDF77FFD52
:104CE00010BD0000F409002010B50268184B98426E
:104CF00008D0B0F1804F05D0164B984202D0164B29
:104D0000984203D122F070024B681A43104B98422C
:104D100008D0B0F1804F05D00E4B984202D00E4B18
:104D2000984203D122F44072CB681A4322F08003E8
:104D30004C6943EA040202608B68C3620B688362B9
:104D4000034B984201D10B6903630123436110BDFA
:104D5000002C0140000400400008004030B50C4623
:104D6000816821F47F4142EA03252543294381607C
:104D700030BD0A46816821F0700142F007031943F3
:104D80008160704730B5026A056A25F00105056249
:104D90004368846924F0700424F003040D682C43F4
:104DA00022F002028D682A430D4DA84206D100BFB1
:104DB00022F00802CD682A4322F00402084DA842DE
:104DC00007D123F4807323F400734D692B438D695D
:104DD0002B43436084614D684563026230BD00002F
:104DE000002C014030B5026A056A25F01005056205
:104DF0004368846924F4E04424F440740D6844EA70
:104E0000052422F020028D6842EA05120E4DA842C8
:104E100007D100BF22F08002CD6842EA051222F0DD
:104E20004002094DA84209D123F4806323F40063B2
:104E30004D6943EA85038D6943EA850343608461D4
:104E40004D688563026230BD002C014030B5026AB6
:104E5000056A25F4807505624368C46924F070040E
:104E600024F003040D682C4322F400728D6842EA9A
:104E700005220F4DA84207D100BF22F40062CD6881
:104E800042EA052222F48062094DA84209D123F4A6
:104E9000805323F400534D6943EA05138D6943EAB7
:104EA00005134360C4614D68C563026230BD0000F4
:104EB000002C014030B5036A056A25F4805505626F
:104EC0004468C26922F4E04222F440720D6842EA6A
:104ED000052223F400538D6843EA0533064DA842AA
:104EE00004D124F480444D6944EA85144460C261CD
:104EF0004D680564036230BD002C014030B50B469F
:104F00001446026A056A25F001050562816921F0EF
:104F1000F00141EA041122F00A021A43816102629F
:104F200030BD30B50B461446026A056A25F01005FF
:104F30000562816921F4704141EA043122F0A00246
:104F400042EA03128161026230BD00002DE9FE4F8A
:104F500004460D4617469846DDE90CA606F0040007
:104F600000285CD04FEA1619B9F1000F2CD006F0DA
:104F70000800C8B14C480078012209F0FF01A8F1EF
:104F8000010C0CF0FF03A7F1010CCDE90012029017
:104F90000CF0FF0205F1010C0CF0FF0104F1010C13
:104FA0000CF0FF00FFF7B2FC40480078002209F047
:104FB000FF0108F0FF03CDE900120290FAB2E9B256
:104FC000E0B2FFF7A3FC3CE006F00800E0B1364891
:104FD0000078A8F1010CACEB050C0CF1010C0CF005
:104FE000FF03A7F1010CACEB040C0CF1010C0CF06D
:104FF000FF0205F1010C0CF0FF0104F1010C00901F
:105000000CF0FF00FEF71BF92848007808F0FF03BA
:10501000FAB2E9B20090E0B2FFF746FC11E006F008
:10502000080070B120480078A8EB050C0CF0FF03D5
:10503000A7EB040C0CF0FF02E9B20090E0B2FEF71F
:10504000FEF81B48007828B1A3462C465D46BB46B7
:105050004746D84606F0040010B906F00800B0B183
:1050600006F00300A8F1010C1FFA8CF3A7F1010C64
:105070001FFA8CF205F1010C1FFA8CF104F1010CFE
:10508000CDE900A01FFA8CF0FFF732F909E006F035
:10509000030043463A462946CDE900A02046FFF7E3
:1050A00027F9BDE8FE8F000022000020200000202C
:1050B0001C00002070B505466C6A0020E085E08485
:1050C0002046FDF71DFD70BD00BF00BF02680C3219
:1050D00052E8002F22F4907102680C3242E800136B
:1050E000002BF3D100BF00BF00BF0268143252E8AA
:1050F000002F22F001010268143242E80013002B55
:10510000F3D100BF016B01290ED100BF00BF0268BF
:105110000C3252E8002F22F0100102680C3242E8F3
:105120000013002BF3D100BF202180F84210002192
:105130000163704710B504462068C06820F0400045
:105140002168C860202084F841002046FDF741FF17
:10515000002010BDF8B5044694F84200222875D10D
:10516000A068B0F5805F0CD1206950B90025A66A0F
:1051700020684068C0F308003080A06A801CA062EC
:1051800015E0A56A0026A068B0F5805F03D0A0688E
:1051900028B9206918B920684068287004E02068A0
:1051A000406800F07F002870A06A401CA062E08D7B
:1051B000401E80B2E085002846D12068C06820F0FB
:1051C00020002168C8602068C06820F480702168D1
:1051D000C8602068406920F00100216848612020F3
:1051E00084F8420000206063206B012826D1002053
:1051F000206300BF00BF21680C3151E8001F21F07F
:10520000100021680C3141E80002002AF3D100BFF0
:105210002068006800F0100010280AD100BF0020AC
:10522000009020680068009020684068009000BFEF
:1052300000BFA18D2046FDF762FC02E02046FDF78D
:10524000C7FE0020F8BD01E00020FBE70220F9E7DF
:1052500070B504462168096921F44051E2681143A0
:10526000226811612269A1681143626941EA02055D
:105270002168C96841F20C62914329432268D160D8
:105280002168496921F44071A26911432268516182
:105290002D4A2168914202D1FCF796FC01E0FCF70F
:1052A00083FC00EBC00101EB001162689200B1FBCE
:1052B000F2F100EBC00202EB001263689B00B2FB4C
:1052C000F3F26423B2FBF3F202EBC20303EB02122C
:1052D000A1EB8201322202EB01116422B1FBF2F157
:1052E00001F0F00100EBC00202EB001263689B00CA
:1052F000B2FBF3F26423B2FBF3F201EB021200EB18
:10530000C00101EB001163689B00B1FBF3F100EBFE
:10531000C00303EB00136668B600B3FBF6F3642624
:10532000B3FBF6F303EBC30606EB0313A1EB830118
:10533000322303EB01116423B1FBF3F101F00F0100
:1053400011442268916070BD00380140014691F817
:105350004100212828D18868B0F5805F0BD1086909
:1053600048B90A6A1088C0F308000B685860086AD8
:10537000801C086205E00B6A581C086218780B68EC
:105380005860C88C401E80B2C88458B90868C0688C
:1053900020F080000B68D8600868C06840F04000CA
:1053A0000B68D860002070470220FCE710B5024867
:1053B000FDF7A8FB10BD00008002002000BFFEE743
:1053C00010B504460022FF210448FCF7CBF8012267
:1053D00021460248FCF7C6F810BD0000000C014051
:1053E00002480068C0F30220704700000CED00E0A6
:1053F00010B5002804DB0A07130E054A135406E013
:105400000A07140E034A00F00F031B1FD45410BDEB
:1054100000E400E018ED00E001460022002001E079
:105420000244401C8842FBD9104670470EB5FCF779
:10543000B1F8FFF70BFCFEF779FAFEF75DFAFEF71D
:10544000D5FBFEF7EFFBFEF70DFAFEF739FAFEF794
:1054500025FBFEF745FBFEF701FCFEF779FBFEF7A7
:10546000E5FA4FF400513248FCF772F86420FBF77C
:10547000C3FE4FF400512E48FCF76AF86420FBF796
:10548000BBFE0020FDF79AFF00203F237F2201464C
:105490000090FDF7D4FE0223002211462548FDF7B7
:1054A00037FE40F2DC50FBF7A7FE00203F237F22AF
:1054B00001460090FDF7C3FE0020FFF79DFB1E484C
:1054C000FEF7A0F90D201DA119237F22CDE90010C0
:1054D00005210020FFF73AFD40F2DC50FBF78CFE7F
:1054E00000203F237F2201460090FDF7A8FE4FF4E5
:1054F00000510F48FCF72CF86420FBF77DFE4FF4B9
:1055000000510B48FCF724F86420FBF775FE00BF40
:105510000F48104901220023CDE900210290120218
:105520000DA10F4800F03CFC00F0C2FA00BFFEE7FE
:10553000001001400A840008F0780008456C65639B
:1055400074726F6E44726976656E2E636F6D0000C3
:105550004C030020A0030020486F6D650000000090
:10556000FD5B000810B5044600F0FCF92348006814
:10557000401C224908602248006840B92048046065
:105580000846006801280DD100F0FCF80AE01D482B
:10559000006838B91A480068C06AE16A884201D8D0
:1055A0001748046018480068401C1749086094F8C0
:1055B0002C100120884015490968084313490860E8
:1055C000E16A01EB8101124A02EB8100211D00F02A
:1055D000BDF900F0F1F90B48006868B108480068AF
:1055E000C06AE16A884207D24FF0805009490860DA
:1055F000BFF34F8FBFF36F8F10BD0000500000202E
:10560000400000205C0000206C00002058000020BA
:105610003C0A002004ED00E010B516E000F0A2F90D
:105620000C48C068C468201D00F060F90A48006892
:10563000401E0949086009480068401E0749086083
:1056400000F0BAF9204600F00BF804480068002882
:10565000E4D110BD040B0020500000204C000020BD
:1056600010B5044694F8510030B9206B00F0C2F92F
:10567000204600F0BFF91AE094F85100012803D148
:10568000204600F0B7F912E094F85100022801D149
:10569000012000E0002050B900BF502080F31188A5
:1056A000BFF34F8FBFF36F8F00BF00BFFEE710BD8A
:1056B00000BFFFF7B1FF064800680128F9D94FF095
:1056C000805004490860BFF34F8FBFF36F8FF0E73E
:1056D0003C0A002004ED00E02DE9FF5F81460F4603
:1056E0009246DDE90E6B109CAAF10100216B01EBE3
:1056F000800828F0070808F0070008B9012000E03A
:10570000002050B900BF502080F31188BFF34F8FA5
:10571000BFF36F8F00BF00BFFEE7002507E0795D94
:1057200004F134004155785D00B902E06D1C102D84
:10573000F5D300BF002143200155072E00D30626D4
:10574000E66266640020A064201D00F0FCF804F10D
:10575000180000F0F8F82461C6F10700A061646247
:105760000020E06484F8500049464046039A00F067
:10577000ABF82060BBF1000F01D0CBF80040BDE8D2
:10578000FF9F000010B5002407E004EB84010F4ADE
:1057900002EB810000F0CAF8641C072CF5D30C481A
:1057A00000F0C4F80B4800F0C1F80B4800F0BEF858
:1057B0000A4800F0BBF80A4800F0B8F80448094964
:1057C000086004480849086010BD00003C0A002039
:1057D000C80A0020DC0A0020F00A0020040B002088
:1057E000180B0020440000204800002010B501469E
:1057F000164800E0006803688B42FBD3024643680A
:1058000013448B4204D143684C68234443600146EF
:105810000A464B6813440468A34211D10C4C036838
:105820002468A34208D04B680468646823444B6032
:1058300003681B680B6005E0054B1B680B6001E00B
:1058400003680B60884200D0016010BD7C0000201E
:10585000840000200A490968096809B9012100E0AB
:10586000002121B14FF0FF31064A116006E00449E2
:105870000968C968C868034A416811607047000038
:1058800044000020700000200E480068401C08B949
:10589000012000E0002050B900BF502080F31188A3
:1058A000BFF34F8FBFF36F8F00BF00BFFEE700BF96
:1058B000502080F31188BFF34F8FBFF36F8F00BF6D
:1058C00000BFFEE794000020001F4FF080730360CC
:1058D000001F21F001030360001F034B0360143815
:1058E00002602038704700008958000801460A69A4
:1058F000D1E901309860D1E90103586050688842CD
:1059000001D188685060002008611068401E106056
:1059100010687047034B0360034B0B6080231360D8
:1059200070470000A0070020F407002000F10801E4
:1059300041604FF0FF31816000F10801C1600161F9
:1059400000210160704700210161704742684A6090
:1059500093688B60936859609160086103685B1C71
:105960000360704700BF502080F31188BFF34F8F52
:10597000BFF36F8F00BF0E480068401C0C490860E1
:1059800008460068012812D10A480068C0B208B968
:10599000012000E0002050B900BF502080F31188A2
:1059A000BFF34F8FBFF36F8F00BF00BFFEE770479D
:1059B0009400002004ED00E00D48006850B900BFDD
:1059C000502080F31188BFF34F8FBFF36F8F00BF5C
:1059D00000BFFEE706480068401E0549086008460B
:1059E000006820B9002080F3118800BF00BF704715
:1059F0009400002070B506463546002E3FD0083D85
:105A00002C461F4960680968084008B1012000E081
:105A1000002050B900BF502080F31188BFF34F8F92
:105A2000BFF36F8F00BF00BFFEE7206808B90120F9
:105A300000E0002050B900BF502080F31188BFF370
:105A40004F8FBFF36F8F00BF00BFFEE70C49606848
:105A50000968084098B1206888B9094960680968F0
:105A60008843606000F07CF8064960680968084473
:105A7000044908602046FFF7B9FE00F091FA70BDB6
:105A8000900000208800002000204FF0E0210861F5
:105A90008861064800684FF47A71B0FBF1F0401E4F
:105AA0004FF0E02148610720086170471400002092
:105AB00010B586B000200590049003AA04A905A89B
:105AC000FFF728FF0022DDE904101346CDE900218D
:105AD00002901CA11D48039A00F062F91C4908605D
