:020000040800F2
:100000002809002091010008FF2B00083122000878
:10001000FD2B000875050008753A00080000000077
:10002000000000000000000000000000EF340008A5
:100030006D08000800000000292C000809350008A0
:10004000AB010008AB010008AB010008AB010008E0
:10005000AB010008AB010008AB010008AB010008D0
:10006000AB010008AB010008AB010008AB010008C0
:10007000AB010008AB010008AB010008AB010008B0
:10008000AB010008AB010008AB010008AB010008A0
:10009000AB010008AB010008AB010008AB01000890
:1000A000AB010008AB010008AB010008AB01000880
:1000B000AB010008AB010008AB010008AB01000870
:1000C000AB010008AB010008AB010008AB01000860
:1000D000AB010008AB010008693A0008AB01000859
:1000E000AB010008AB010008AB01000800F002F80A
:1000F00000F03FF80AA090E8000C82448344AAF183
:100100000107DA4501D100F034F8AFF2090EBAE880
:100110000F0013F0010F18BFFB1A43F0010318473B
:10012000C0430000E0430000103A24BF78C878C103
:10013000FAD8520724BF30C830C144BF04680C60ED
:10014000704700000023002400250026103A28BF35
:1001500078C1FBD8520728BF30C148BF0B60704739
:10016000642900F07D80002070471FB51FBD10B5C9
:1001700010BD00F052F91146FFF7F7FF03F0A8FC9D
:1001800000F070F903B4FFF7F2FF03BC00F078F958
:100190000948804709480047FEE7FEE7FEE7FEE71B
:1001A000FEE7FEE7FEE7FEE7FEE7FEE70448054957
:1001B000054A064B7047000085350008ED00000831
:1001C00028030020280900202805002028050020F9
:1001D0000FB41CB5074B06AA7B44694600900598EE
:1001E00000F003F90020694600F012F91CBC5DF82C
:1001F00014FB0000350200002DE9F0410E460446D4
:10020000002020622046E168884730B3252805D0C9
:10021000D4E901219047206A401CF2E7E1682046BA
:1002200000278847050018D0A5F14100192802D8F9
:1002300020354FF400673246294620462760FFF7F5
:100240008FFF40B1012804D0F61D26F007060836BE
:10025000D8E7361DD6E72846DAE7206ABDE8F08100
:100260002DE9F0410646002410687529314616A58F
:1002700010D0AFF30080002802DA404213A507E057
:1002800031688A0701D512A502E0490704D511A5F6
:10029000012401E0AFF3008000210A2206F12407C7
:1002A00009E0B0FBF2FCB0FBF2F302FB1C003030C3
:1002B00078541846491C0028F3D123462A46304674
:1002C000BDE8F04100F032B8000000002D00000051
:1002D0002B000000200000004FF0000200B5134684
:1002E00094469646203922BFA0E80C50A0E80C5056
:1002F000B1F12001BFF4F7AF090728BFA0E80C5007
:1003000048BF0CC05DF804EB890028BF40F8042BFF
:1003100008BF704748BF20F8022B11F0804F18BF6C
:1003200000F8012B70477047704770472DE9F04780
:100330000D4699469246044600F124080168880655
:1003400004D5E06921F01001216000E00120A842FD
:1003500001DD471B00E00027A1697A1902EB0900C3
:10036000081AA0612078C00602D42046AFF30080AE
:10037000002608E0D4E901211AF806009047206A17
:10038000401C761C20624E45F4DB2078C0060AD55E
:100390002046AFF3008006E0D4E9012130209047E9
:1003A000206A401C2062381EA7F10107F4DC07E038
:1003B000D4E9012118F805009047206A401C20620A
:1003C000281EA5F10105F3DC2046AFF3008020785C
:1003D000000602D50220BDE8F0870120FBE70000FF
:1003E00001694A1C02610878704700B58FB0CDE9F9
:1003F00001310021059105497944CDE903101146E9
:100400006846FFF7F9FE0FB000BD0000E5FFFFFFF3
:100410000A6802F8010B0A607047754600F02CF874
:10042000AE4605006946534620F00700854618B0E1
:1004300020B5FFF7BBFEBDE820404FF000064FF0AF
:1004400000074FF000084FF0000B21F00701AC4609
:10045000ACE8C009ACE8C009ACE8C009ACE8C00928
:100460008D46704710B50446AFF300802046BDE8C6
:100470001040FFF787BE000000487047C802002008
:1004800001491820ABBEFEE72600020070470000BD
:1004900070B5044600688168C943C90717D18168EF
:1004A00021F00101816000F0E9FE05460AE000BF8D
:1004B00000F0E4FE401B022804D920688068C04395
:1004C000C00706D020688068C043C007F0D0002075
:1004D00070BDA06A40F01000A062E06A40F0010028
:1004E000E062012070BD0000F8B5002604460096C9
:1004F00000688168C943C9072DD0816841F00101B6
:100500008160164816490068B0FBF1F000E0401E1B
:1005100000900028FBD100F0B1FE054616E000BFB8
:1005200000F0ACFE401B022810D920688068C04350
:10053000C0070BD0A06A40F01000A062E06A40F053
:100540000100E06284F824600120F8BD2068806822
:10055000C043C007E4D10020F8BD00001000002017
:1005600040420F0001228A40024201D00120704720
:1005700000207047FEE700000349097A09B100F046
:100580004DB800F003B80000140000202DE9F04F32
:10059000DFF8849006460020024699F80BA099F8EF
:1005A0000CB099F80E4099F8053099F8035099F875
:1005B0000770D9F820E029E0521C0A2926D015B18D
:1005C00004FB030021E0514501D3594502D989F8C4
:1005D0000D4016E0A1EB0A0808EB0E0C9CF8078012
:1005E00089F80D80A1F1D408B8F1060F06D9A1F160
:1005F000E708B8F1050F01D9D12902D1002189F806
:100600000D1099F80D1001FB03003844B15C00296E
:10061000D2D1BDE8F08F0000140000202DE9F84F82
:1006200090490446002091F807E0034691F80B90AA
:100630004D7991F80CA08E7BCF78D1F820B009E1EC
:100640005B1C0A2A02D017B106FB050002E14A45ED
:1006500001D3524501D94E73FCE0382A36D00CDC68
:10066000A2F12C0CBCF10C0F3AD2DFE80CF03639B9
:1006700038392F2F2F2F2F2F2F2F8D2A14D008DC12
:10068000392A23D03B2A26D03F2A22D0812A27D1BB
:1006900008E08E2A0AD0902A0AD0982A0AD0E12AA5
:1006A0001ED109E0EA221BE0EB2219E0EE2217E05E
:1006B000EF2215E0DF2213E0E25C5B1C8A72C72A9E
:1006C00002D0E1225B1E0BE0FB2209E0203AD2B20D
:1006D00006E0BF2204E01F2202E01D2200E01C22EF
:1006E00014F803C081F80AC0CDF800C0BCF1370F80
:1006F0004DD00CDCACF12C0CBCF10B0F2CD2DFE894
:100700000CF0512B542B4646464646464600BCF15B
:10071000810F1AD00CDCBCF1380F38D0BCF1390F86
:1007200035D0BCF13B0F3AD0BCF13F0F14D133E0D0
:10073000BCF18D0F0CD0BCF18E0F1FD0BCF1900F0F
:100740001FD0BCF1980F07D11EE04FF0EA0C01E07A
:100750004FF0EB0C81F80AC0C02A6DD991F809C09E
:10076000BCF1C00F24D90CEB4C08DFF8FCC00CEB3B
:10077000480CACF5805C9CF87FCB1BE04FF0EE0C96
:10078000E8E74FF0EF0CE5E74FF0DF0CE2E7DDF8CC
:1007900000C0ACF1200CDDE74FF0BF0CDAE74FF002
:1007A0001F0CD7E74FF01D0CD4E74FF01C0CD1E71E
:1007B0004FF0000CCDF800C091F80AC0BCF1C00F9A
:1007C0000AD90CEB4C08DFF8A0C00CEB480CACF5D8
:1007D000805C9CF87ECB01E04FF0000CDDF80080DF
:1007E0004CEA480C0CF0FF0CCDF800C0BCF1010F36
:1007F00002D94FF0000C00E0F44681F807C0DFF8A2
:1008000068C002EB42080CEB4808DDF800C0C444A5
:10081000ACF5805C9CF87ACBACEB090808EB0B0CD0
:100820009CF807C081F80DC00CFB050091F807C0CB
:1008300081F807E060440CE0A2EB090808EB0B0C20
:100840009CF807C081F80DC00CFB05000EF0FF0CF2
:1008500060444A72E25C002A7FF4F2AEFF224A72E0
:10086000BDE8F88F140000206543000870470000C1
:1008700070B50122094D54032146284600F0F9FCC9
:10088000012002F053F800222146284600F0F1FC36
:10089000BDE87040012002F049B80000000C0140A2
:1008A000F8B500250446009590F82400012808D0EA
:1008B000012084F824002046FFF7EAFD060002D05C
:1008C00053E00220F8BDA06A20F4885040F00200F6
:1008D000A062022000F070FD26490968B1FBF0F02B
:1008E000400000E0401E00900028FBD12046FFF7AA
:1008F000FBFD2068816841F00801816000F0BEFCCA
:10090000074608E000F0BAFCC01B0A2803D920689B
:100910008068000715D4206880680007F2D420683A
:10092000816841F00401816000F0A8FC074612E0F4
:1009300000F0A4FCC01B0A280DD92068806840077D
:1009400009D5A06A20F0020040F01000A06284F8EF
:1009500024500120F8BD206880684007E8D4A06AD0
:1009600020F0020040F00100A06284F824503046DC
:10097000F8BD000010000020F8B50024009490F8A5
:1009800024202546012A12D0012280F824204A681A
:100990001F23072A0DD20668776B521E02EB8202D4
:1009A00093409F430B6893401F43776319E00220F5
:1009B000F8BD06680D2A0AD2376BD21F02EB8202FD
:1009C00093409F430B6893401F43376309E0F76AE6
:1009D0000D3A02EB820293409F430B6893401F4302
:1009E000F7620A68072306680A2A0AD3F7680A3AF0
:1009F00002EB420293409F438B6893401F43F76092
:100A000008E0376902EB420293409F438B689340B2
:100A10001F4337610A68102A01D0112A20D1124BD6
:100A200002689A4217D193681B0219D4936843F461
:100A3000000393600968102912D10C490C4A096817
:100A4000B1FBF2F101EB8101490000E0491E009188
:100A50000029FBD104E0816A41F020018162012478
:100A600080F824502046F8BD0024014010000020EA
:100A700040420F000068C06C704700002DE9F04153
:100A80004FF0000704003D467ED0A06A002628B93A
:100A9000E66284F82460204600F07EF82046FFF7E6
:100AA000F7FCA16AC90600D420B1A06A40F010008A
:100AB000A06269E0A16A21F4885141F00201A162BB
:100AC0006268E169237B0A4347EA43010A43A1685C
:100AD0004FF48077B94209D0012907D05FF00001B7
:100AE00094F814C0BCF1010F02D00AE03946F7E7D0
:100AF000F3B1A36A43F02003A362E36A43F0010366
:100B0000E3622368D3F804C02CF4694C4CEA010C6E
:100B1000C3F804C021688B68DFF870C003EA0C03D7
:100B200013438B60A168B9420BD0012909D00CE0B6
:100B3000DFF85CC0A3690CEB43330B4343F4006163
:100B4000DFE7218A0D05A5F580152168CB6A23F41E
:100B500070032B43CB62216889680E4B1940914288
:100B600008D1E662A16A21F0020141F00101A1620F
:100B7000BDE8F081A06A20F0020040F01000A06201
:100B8000E06A40F00100E0620120F1E7FDF7E1FFDB
:100B900000E0FFFFFE0E1FFF00B585B000210091B1
:100BA00001910291039100680E49884218D10E48C4
:100BB000816941F400718161816901F400710491DE
:100BC000816941F0040181618069694600F0040097
:100BD00004900120009003200190044800F04CFA9A
:100BE00005B000BD00240140001002400008014093
:100BF0002DE9F84300270D460446009700F03EFB20
:100C0000804620688168C90508D5A06A40F02000A8
:100C1000A06284F824700120BDE8F8834168C9050A
:100C200003D4C06A10F4700F2AD0022000F0C4FB75
:100C30003B490968B1FBF0F62068036939490B426A
:100C40004FEA61014FEAA1121FD1C3684FEA611C4C
:100C500013EA0C0F19D103690B4225D1C068104269
:100C600022D1142023E0681C0AD02DB100F006FB2D
:100C7000A0EB0800A84203D920680068800725D5AA
:100C8000206800688007EED52DE003690B4202D191
:100C9000C168114206D0026923490A4206D1C068E0
:100CA000084203D1542002E0292000E0FC20464302
:100CB000009816E0681C11D02DB100F0DFFAA0EB0F
:100CC0000800A8420AD90098B04207D2A06A40F0B2
:100CD0000400A06284F8247003209DE70098401C63
:100CE0000090B042E6D321686FF012000860A06A5D
:100CF00040F40070A06220688068C0F3424007287A
:100D00000CD1207B50B9A06A20F48070A062A06A48
:100D1000C00403D4A06A40F00100A06200207BE779
:100D200010000020244992244992240070B5044602
:100D300090F8240001280DD0012084F824002046DA
:100D4000FFF7D2FB02004FF0000005D084F824002A
:100D5000104670BD022070BDA16A40F20123994384
:100D600041F48071A1621F4D23681F49AB4218D125
:100D70000E6816F4702F14D0A66A46F48016A66288
:100D80000E68760505D5A66A26F4005646F4805608
:100D9000A662A66AF6040AD5E66A26F00606E662A8
:100DA00006E0A66A26F48016A6625E68E9E7E062BD
:100DB00084F824006FF00200186020688368C3F391
:100DC0004243072B05D1A84208D1096811F4702FBE
:100DD00004D0816841F480118160B9E7816841F4F1
:100DE000A001F9E7002801400424014070B5040087
:100DF00003D094F8200010B104E0012070BD20461B
:100E000000F082F82068016841F00101016000F003
:100E100035FA0546052604E000F030FA401B0A28A2
:100E200011D820684068C007F6D02068016821F01A
:100E30000201016000F022FA05460BE000F01EFA04
:100E4000401B0A2806D9606A40F40030606284F8CA
:100E50002060D2E7206840688007EFD4207E012818
:100E6000206801683DD021F080010160607E01288A
:100E70002068016838D021F040010160A07E01287F
:100E80002068016833D021F020010160E07E012854
:100E9000206801682ED041F010010160207F0128F8
:100EA0002068016829D021F008010160607F0128D5
:100EB0002068016824D021F004010160D4E9020116
:100EC0000843D4E90412114308436168491E0843EA
:100ED0002168C86100206062012084F820000020A1
:100EE00070BD41F08001C0E741F04001C5E741F02D
:100EF0002001CAE721F01001CFE741F00801D4E753
:100F000041F00401D9E7000010B586B0002100913E
:100F100001910291039100681349884222D113483C
:100F2000C16941F00071C161C16901F000710491B2
:100F3000816941F00401816180690D4C00F0040079
:100F400004904FF4006000906946204600F094F849
:100F5000A0140090022001900320039069462046CF
:100F600000F08AF806B010BD006400400010024096
:100F70000008014010B590F821100022022905D088
:100F80000421816380F82020012010BD01680B68D6
:100F900023F00E030B6001680B6823F001030B6064
:100FA00090F84030C46B012101FA03F3636080F8CC
:100FB000211080F82020104610BD000010B590F8D8
:100FC00021100024022903D00421816301243DE083
:100FD00001680A6822F00E020A6001680A6822F0BD
:100FE00001020A601A4A0168914201D1012121E0FF
:100FF000174A1432914201D110211BE0144A2832C1
:10100000914201D1891515E0114A3C32914201D13A
:1010100089140FE00E4A5032914202D14FF48031D0
:1010200008E00B4A6432914202D14FF4801101E092
:101030004FF08071064A083A5160012180F8211072
:10104000002180F82010416B01B18847204610BD77
:101050000800024070B5044600F010F90546601C17
:1010600002D004480078044400F008F9401BA04274
:10107000FAD370BD040000202DE9F84FDFF8B891D5
:10108000002409F1040A0AF1040B23460F270BF18F
:10109000040EC9E00125A5402A40AA427DD1674E31
:1010A000D1F804C0ACEB0608B44532D014DCBCF176
:1010B000030F3AD009DCBCF1000F2AD0BCF1010FBC
:1010C0001CD0BCF1020F31D11DE0BCF1110F17D0C3
:1010D000BCF1120F2AD119E0B8F5881F19D006DC2F
:1010E000B8F5803F15D0B8F5801F1FD111E0B8F5D5
:1010F000001F0ED0B8F5041F18D10AE0CB6815E028
:10110000CB681B1D12E0CB6808330FE0CB680C33B3
:101110000CE08B682BB1012B4FF0080303D0456125
:1011200004E0042302E0056100E00023FF2A01D867
:10113000064601E000F104064FEA840501D9A5F155
:101140002005D6F8008007FA05FC28EA0C0803FA07
:1011500005F548EA0508C6F800804D68ED0062D53F
:10116000374DAE6946F00106AE61AD6924F0030665
:1011700005F001050095334D06EB050CDCF8085031
:10118000A607360F07FA06F825EA0805DFF8B88043
:10119000404503D14FF0000817E044E0DFF8AC8091
:1011A000404502D14FF001080FE0DFF8A480404530
:1011B00002D14FF0020808E0DFF89880404502D1E4
:1011C0004FF0030801E04FF0040808FA06F848EA77
:1011D0000508CCF808804D68D9F80060ED034D464D
:1011E00001D5164300E096432E604D68DAF80060A2
:1011F000AD03554601D5164300E096432E604D6879
:10120000DBF80060ED025D4601D5164300E0964331
:101210002E604D68DEF80060AD02754601D51643BC
:1012200000E096432E60641C0D682A46E5407FF47A
:1012300031AFBDE8F88F000000040140000011103C
:10124000001002400000014000080140000C014075
:1012500000100140001401408068084000D00120C7
:101260007047C26821EA02030A4043EA0241016171
:1012700070470AB1016170470904FBE701488068C3
:101280007047000004000020024881680278114481
:101290008160704704000020074810B5016841F0E4
:1012A00010010160032000F075F80F2000F006F82F
:1012B00000F024F8002010BD0020024070B50D4D54
:1012C00004464FF47A712878B1FBF0F00A490968B6
:1012D000B1FBF0F000F058FC48B9102C07D2002206
:1012E0002146501E00F036F800206C6070BD0120D1
:1012F00070BD000004000020100000200C4808B55C
:10130000816941F001018161816901F00101009170
:10131000C16941F08051C161C06900F08050009006
:101320000448416821F0E06141F00071416008BD6E
:101330000010024000000140002809DB00F01F02FD
:10134000012191404009800000F1E020C0F8001127
:1013500070470000F0B40E4B1B680C46C3F3022329
:10136000C3F10705042D00D90425191D072901D251
:10137000002300E0DB1E012606FA05F1491E21408C
:1013800099409E40761E16403143F0BC02F086BB69
:101390000CED00E0064900F0070208684FF6FF0375
:1013A000184040EA0220034A1043086070470000DA
:1013B0000CED00E00000FA0510B529A401461DCC93
:1013C00086B08DE81D002AA02A4C006804900020F9
:1013D000012923D002293AD010291DD16168226841
:1013E000D20119D5C1F38342C9031DF8020009D502
:1013F000616804AAC1F34041515C1F4AB2FBF1F19C
:10140000484301E01D4948436168490204D4400053
:101410005FF00301B0FBF1F006B010BD226AC2F329
:101420000121012903D1920701D5C803F4E702295C
:1014300005D1626A920702D549F64040ECE70329DC
:10144000EAD121688903E7D54FF22440E4E700F0B0
:1014500033F96168C1F38131491C4900DAE70000C2
:1014600002030405060708090A0B0C0D0E0F1010E5
:10147000010200000010024000127A0000093D0045
:101480002DE9F84305460078354CC00754D0E06993
:101490000026C00008D4E06940F08050E061E069B7
:1014A000012600F0805000902E480168C90512D432
:1014B0000168804641F480710160FFF7DFFE074656
:1014C00005E000BFFFF7DAFEC01B642823D8D8F878
:1014D0000000C005F6D5206A10F4407021D0A9881C
:1014E00001F4407181421CD0206A1F49012220F47E
:1014F00040700A6000220A602062C00711D0FFF726
:10150000BDFE074641F2883808E000BFFFF7B6FE8F
:10151000C11B414502D90320BDE8F883206A80073A
:10152000F4D5206A696820F44070084320621EB137
:10153000E06920F08050E0612878800705D5606878
:10154000A96820F44040084360602878C00605D5AB
:101550006068E96820F48000084360600020DBE7F1
:101560000010024000700040400442422DE9F04764
:101570000F46050061D0434E306800F00700B842C6
:1015800009D2306820F0070038433060306800F03E
:101590000700B84251D128683B4C810712D540075B
:1015A00003D5606840F4E06060602878000703D5E8
:1015B000606840F4605060606068A96820F0F000E6
:1015C000084360602878C00728D06868012810D0D8
:1015D0002168022810D0890700292EDA616821F0DD
:1015E000030101436160FFF749FE804641F28839FB
:1015F0000DE021688903EFE78901EDE7FFF73EFE83
:10160000A0EB0801494502D90320BDE8F0876068D6
:10161000696800F00C00B0EB810FEFD1306800F08A
:101620000700B8420BD9306820F00700384330601B
:10163000306800F00700B84201D00120E5E72878C3
:10164000400705D56068E96820F4E0600843606001
:101650002878000706D56068296920F4605040EAC0
:10166000C100606000F038F86168084AC1F30311F6
:10167000515CC8400649086006480068FFF71EFE36
:101680000020C2E700200240001002404D43000845
:10169000100000200800002004480549006849683F
:1016A000044AC1F30221515CC84070471000002079
:1016B000001002405D43000804480549006849687D
:1016C000044AC1F3C221515CC84070471000002099
:1016D000001002405D43000812A185B00FC98DE8DB
:1016E0000F0014A0144A006804905168134801F0D8
:1016F0000C03042B10D0082B0ED1C1F38343C90374
:101700001DF803000AD5516804AAC1F34041515C99
:101710000A4A5043B0FBF1F005B07047084948430E
:10172000FAE7000002030405060708090A0B0C0D7E
:101730000E0F1010010200000010024000127A008B
:1017400000093D002DE9F84F040070D02078C04D0D
:10175000C00749D06868C0F38100012807D06868D5
:10176000C0F38100022809D16868C00306D5286843
:10177000800339D560680028E7D035E06068B0F5AF
:10178000803F0BD010B1B0F5A02F11D0286820F405
:1017900080302860286820F4802002E0286840F427
:1017A00080302860606890B1FFF768FD06460AE067
:1017B000286840F480202860F0E700BFFFF75EFD56
:1017C000801B642873D828688003F7D50CE0FFF7E6
:1017D00055FD064605E000BFFFF750FD801B64285D
:1017E000F0D828688003F7D420789A4E80074FF00D
:1017F00001094FF0000839D5686810F00C0F07D0C8
:101800006868C0F38100022809D16868C00306D463
:101810002868800714D52069012808D110E02069C4
:10182000B0B1C6F80090FFF729FD074605E00AE1D0
:10183000FFF724FDC01B0228C4D828688007F7D50D
:101840002868616920F0F80040EAC10028600DE0D6
:10185000C6F80080FFF712FD074604E0FFF70EFD13
:10186000C01B022823D828688007F7D420780007F7
:101870002CD57948A169D9B1C0F80090FFF7FEFCDA
:10188000074604E0FFF7FAFCC01B02280FD8686A7D
:101890008007F7D571484FF4FA510068B0FBF1F0BA
:1018A000009000BF0098411E0091FAD20EE080E047
:1018B000C0F80080FFF7E2FC074604E0FFF7DEFC1B
:1018C000C01B022875D8686A8007F7D420784007C3
:1018D00060D5E8690027C00008D4E86940F080506E
:1018E000E861E869012700F0805000905C480168D9
:1018F000C90513D40168834641F480710160FFF784
:10190000BDFC824606E000BFFFF7B8FCA0EB0A0072
:1019100064284ED8DBF80000C005F5D5E068012842
:101920000AD008B1052813D0286A20F001002862E7
:10193000286A20F0040002E0286A40F001002862D2
:10194000E06841F2883B98B1FFF798FC82460BE0D3
:10195000286A40F004002862EEE700BFFFF78EFC23
:10196000A0EB0A0159455AD8286A8007F6D50CE041
:10197000FFF784FC824605E0FFF780FCA0EB0A013C
:1019800059454CD8286A8007F6D41FB1E86920F081
:101990008050E861E06988B36968C1F38101022978
:1019A00044D00228C6F8608004D0FFF767FC0446E4
:1019B00038E034E0FFF762FC074604E0FFF75EFC26
:1019C000C01B02282BD828688001F7D4206AB0F504
:1019D000803F05D16868A16820F400300843686042
:1019E000D4E908010843696821F474110843686068
:1019F000C6F86090FFF742FC044606E025E000BF11
:101A0000FFF73CFC001B022809D828688001F7D5A5
:101A10001BE000BFFFF732FC001B022802D90320A5
:101A2000BDE8F88F28688001F4D40EE00128F7D0D3
:101A30006868226A00F48031914204D1616A00F43E
:101A40007010884201D00120EAE70020E8E700009A
:101A50000010024000004242800442421000002078
:101A60000070004070B5040009D0606A002540B1E4
:101A700025616561A56294F8510040B10CE0012038
:101A800070BD6068B0F5827FF4D0E561F2E784F85C
:101A90005050204600F040F8022084F851002068A1
:101AA000016821F040010160A088218900F4827062
:101AB00001F404410843A18901F400610843217C39
:101AC00001F002010843217D01F001010843218B4F
:101AD00001F400710843217F01F03801084394F8B4
:101AE000201001F080010843218D01F400510843CA
:101AF00021680860A069042101EA1040216848605B
:101B00002068C16921F40061C1616565012084F824
:101B10005100002070BD000030B585B00024009455
:101B200001940294039400681449884223D1144814
:101B3000816941F480518161816901F4805104918E
:101B4000816941F00401816180690E4D00F004005B
:101B50000490A02000900220019003200390694689
:101B60002846FFF789FA4020CDE900046946284657
:101B70000294FFF781FA05B030BD0000003001404B
:101B8000001002400008014010B5401EB0F1807FF7
:101B900001D3012010BD4FF0E02460610F216017D8
:101BA00001F07CFF0020A06107202061002010BD13
:101BB00070B590F83C20012A26D0012480F83C40E2
:101BC000022280F83D2003685A689D6822F0700662
:101BD0000A6832435A600D4B02689A4208D0B2F14B
:101BE000804F05D00A4B9A4202D00A4B9A4204D148
:101BF000496825F080031943916080F83D40002139
:101C000080F83C10084670BD022070BD002C0140D9
:101C1000000400400008004010B5040003D094F810
:101C20003D0010B107E0012010BD002084F83C0009
:101C3000204600F01FF8022084F83D00211D206896
:101C400001F0A2FC012084F8460084F83E0084F8EC
:101C50003F0084F8400084F8410084F8420084F892
:101C6000430084F8440084F8450084F83D000020D7
:101C700010BD000008B50C4A01680C48914207D11C
:101C8000816941F400618161806900F4006009E0CC
:101C9000B1F1804F07D1C16941F00101C161C06953
:101CA00000F00100009008BD002C0140001002402F
:101CB00070B5044690F83C00012817D0012584F83F
:101CC0003C50022084F83D002068826822F07702B0
:101CD00022F47F4282600868502830D00DDC202832
:101CE0004DD005DC98B310283BD148E0022070BDF0
:101CF000302844D0402834D139E0602828D07028DA
:101D000006D0B0F5805F2CD0B0F5005F29D10AE095
:101D1000CB68D1E90121206801F06CFC2068816862
:101D200041F0770109E0CB68D1E90121206801F099
:101D300061FC2068816841F48041816011E0CA68DB
:101D40004968206801F00AFD5021206807E016E08C
:101D5000CA684968206801F012FD6021206801F01E
:101D600053FC84F83D50002084F83C0070BDCA68E4
:101D70004968206801F0F2FC40212068EFE7226802
:101D800001461046EBE770B5044690F83C000D465E
:101D900001280AD0012084F83C0042B1042A18D05E
:101DA000082A2AD00C2A4DD139E0022070BD2068C3
:101DB00001F032FC2068816941F0080181612068EE
:101DC000816921F004018161206881692A691143D8
:101DD00011E0206801F048FC2068816941F400614D
:101DE00081612068816921F4806181612068816955
:101DF0002A6941EA0221816124E0206801F060FC47
:101E00002068C16941F00801C1612068C16921F001
:101E10000401C1612068C1692A69114311E0206889
:101E200001F07AFC2068C16941F40061C161206859
:101E3000C16921F48061C1612068C1692A6941EAF0
:101E40000221C161002084F83C0070BD10B504007F
:101E500003D094F83D0010B107E0012010BD002030
:101E600084F83C00204600F01EF8022084F83D0073
:101E7000211D206801F088FB012084F8460084F8C9
:101E80003E0084F83F0084F8400084F8410084F864
:101E9000420084F8430084F8440084F8450084F844
:101EA0003D00002010BD704770477047F8B50268CC
:101EB00004461068D168536910F00F0F4FF0000509
:101EC00053D003F0010601F4907737435FD0C20787
:101ED00005D0CA0503D5226C42F0010222644207F4
:101EE00005D5DA0703D0226C42F002022264820791
:101EF00005D5DA0703D0226C42F0040222640207FF
:101F000007D501F02002324303D0226C42F00802D0
:101F10002264226C002A34D0800604D5880602D5BB
:101F2000204601F0E9FC20684069216CC0F3801074
:101F3000090700D430B3204601F0C6FC206841698F
:101F400049061BD5416921F040014161A06BA8B150
:101F500058494163A06BFFF731F8002811D0A06BFE
:101F6000416B01B0BDE8F040084783060FD58B06F2
:101F70000DD52046BDE8F84001F0BEBC2046FFF775
:101F800094FFF8BD2046FFF790FF2564F8BD266B4F
:101F90002023012E52D1C60650D5CE064ED510684C
:101FA00050680090506940062AD5A16B08684068C7
:101FB0000004000CEAD0A68D8642E7D9E085886946
:101FC000202818D0D06820F48070D0602068416943
:101FD00021F0010141612068416921F04001416126
:101FE00084F83E3025632068C16821F01001C1608B
:101FF000A06BFEF7BFFFA08DE18D401A81B219E002
:10200000A08DE18D401A81B2E08D0028BED000295C
:10201000BCD0D06820F49070D0602068426922F073
:102020000102426184F83E3025632068C26822F0D4
:102030001002C2602046FFF737FFF8BD05062BD51A
:102040000D0629D594F83D002128F6D1A068B0F5F9
:10205000805F01D12069B0B1206A411C21622168F2
:1020600000784860E08C401E0004000CE084E4D15D
:102070002068C16821F08001C1602068C16841F01A
:102080004001C160F8BD206A0088C0F308005060BC
:10209000206A801C2062E5E74006F3D54806F1D5AA
:1020A000D168204621F04001D16084F83D3000F035
:1020B000BEF8F8BDB938000870B5040004D094F833
:1020C0003D00002510B106E0012070BD84F83C50B1
:1020D000204600F023F8242084F83D002068C168E1
:1020E00021F40051C160204601F062FC20680169C2
:1020F00021F4904101612068416921F02A01416188
:102100002068C16841F40051C1602564202084F832
:102110003D0084F83E00002070BD0000F0B585B0A1
:10212000002400940194029403940368394F022020
:1021300039490322394D4602BB421AD18B6943F417
:1021400080438B618B6903F4804304938B6943F074
:1021500004038B618969039201F004010491010277
:10216000CDE9001069462846FEF786FFCDE90064F8
:102170004AE02B4FBB4229D1CB6943F40033CB61FA
:10218000CB6903F4003304938B6943F004038B6140
:102190008969039201F0040104910421CDE9001042
:1021A00069462846FEF768FF0820CDE90004694625
:1021B00028460294FEF760FF002211462620FFF712
:1021C000C9F82620FFF7B8F805B0F0BD154DAB42B1
:1021D000FAD1CB6943F48023CB61CB6903F480232C
:1021E00004938B6943F008038B6189690E4D01F0FC
:1021F0000801CDE90321CDE9006069462846FEF7D4
:102200003BFFE814CDE90004694628460294FEF736
:1022100033FFD9E7003801400010024000080140B8
:102220000044004000480040000C014070477047E7
:10223000FEE700001FB5FF20009000200190012064
:10224000029069460148FEF717FF1FBD000C0140D0
:1022500070B505460024E006010E002000F05EF98E
:102260002946204600F005F8641CE4B2082CF2D39D
:1022700070BD70B500240E46C500E9B2204600F0DE
:102280004DF9304600F0A2FA641CE4B2802CF4D37D
:1022900070BD00002DE9F0412F4E3178402902D267
:1022A0004FF0000409E04FF0010406D128B14FF0CF
:1022B00001014FF0400000F057FA284D0022FF21A5
:1022C0002846FEF7D6FFFFF7B5FF6F154FF480786D
:1022D000C4B34CB1002241462846FEF7CAFF012292
:1022E00039462846FEF7C5FF4FF400480122414613
:1022F0002846FEF7BEFF0122570339462846FEF75F
:10230000B8FF012000F012FB00F074FF0446002229
:1023100039462846FEF7ADFF012000F007FB0022FA
:1023200041462846FEF7A5FF00F06AFC7178307838
:1023300000F0F4F80848401E007800B1E443E0B231
:10234000BDE8F081FFE7002239462846FEF791FFFD
:1023500001224146C5E7000039000020000C014081
:102360002DE9FF4F83B081460078029099F80180F3
:10237000049999F80200454629448246802903D9E8
:102380000499C1F18001CDB205990144402903D9D6
:102390000598C0F14000C0B2410703D0012101EB14
:1023A000D00000E0C0088346002001900698022873
:1023B0000BD000200090AAF10100C3B2A8F10100E7
:1023C000C2B2DDE9040100F041F8002429E00598DB
:1023D00000EBC400C1B2382904D90598382100F0B7
:1023E00007000190049800F099F80299002604FB78
:1023F000081712E019F80700009001987F1C38B107
:1024000000F08CF9DDE900218A401043C0B200E001
:10241000009800F0DBF9761CF6B2AE42EAD3641CF9
:10242000E4B25C45D3D3069800280CD1AAF1010090
:10243000C3B2A8F10100C2B2DDE9040107B0BDE8F2
:10244000F04F00F003B907B0BDE8F08F2DE9F05F61
:10245000174601F0070283465B1C891ADDB2FF2094
:10246000C2F10804DDF828A001F0FF08AC4203DD4A
:10247000C5F10801C8402C46904000F0FF094146D4
:10248000584600F04BF800260CE000BF00F046F97B
:10249000BAF1FF0F09D020EA090000BF00F096F959
:1024A000761CF6B2BE42F1D914E040EA0900F5E725
:1024B000C4B208F10800C0B280460146584600F098
:1024C0002DF8002604E0504600F080F9761CF6B2A4
:1024D000BE42F8D904F10800A842E9D9AC4219D2A9
:1024E000291BFF208840C043C5B208F10800C1B2D3
:1024F000584600F013F800240AE000BF00F00EF97F
:10250000BAF1FF0F08D0A84300F060F9641CE4B2F0
:10251000BC42F3D9BDE8F09F2843F5E72DE9F0412F
:1025200006467F281FD83F291DD8104C26706170A1
:10253000A078B0EBD10F0CD0C808A07040F0B8075D
:1025400000252946384600F00FF96D1CEDB2022D2A
:10255000F7D32078810906F03F00BDE8F04140F054
:10256000400000F001B9BDE8F08100003900002012
:1025700038B5054600F03EF8012291031A48FEF7EF
:1025800078FE00224FF400511848FEF772FE022038
:1025900000F0CCF916480024214604704470847081
:1025A000401E05703F2000F0DFF801213F2000F0C1
:1025B000DBF80021C02000F0D7F80121C02000F096
:1025C000D3F80DB1FF2000E00020FFF741FE00210D
:1025D0000846FFF7A3FF00213F237F22084600940F
:1025E000FFF734FF38BD0000000C0140001001402F
:1025F0003900002010B5144C00224FF480412046D1
:10260000FEF737FE0022FF212046FEF732FE0022B1
:10261000A1152046FEF72DFE002261152046FEF78B
:1026200028FE0022A1142046FEF723FE00224FF4CC
:1026300000412046FEF71DFE002261142046BDE841
:102640001040FEF716BE0000000C01402DE9F047D7
:10265000174601F0070282465B1C891ADDB2FF2093
:10266000C2F1080401F0FF08AC4203DDC5F1080126
:10267000C8402C46904000F0FF0941465046FFF705
:102680004DFF00260EE000BF00F048F80146C843A9
:10269000C0B200EA090021EA0901084300F096F8F7
:1026A000761CF6B2BE42EFD914E0C4B208F10800BD
:1026B000C0B2804601465046FFF730FF002607E0D3
:1026C00000F02CF8C043C0B200F080F8761CF6B2DF
:1026D000BE42F5D904F10800A842E6D9AC421BD2AB
:1026E000291BFF208840C043C5B208F10800C1B2D1
:1026F0005046FFF713FF00240CE000BF00F00EF877
:102700000146C843C0B22840A943084300F05EF820
:10271000641CE4B2BC42F1D9BDE8F08710B50120D9
:10272000FFF7B8FDBDE810400020FFF7B3BD70B55E
:10273000C1F1400101F00704C0F18000091B1546FA
:10274000C0B2C9B2FFF7EAFEFFF7E8FF0121FF2D93
:1027500001FA04F104D08843BDE8704000F036B8B7
:102760000143C8B2F8E700002DE9F0414FF40075CD
:10277000154C07466E1011B1012908D011E0002256
:1027800029462046FEF775FD0122314606E000226B
:1027900031462046FEF76DFD012229462046FEF710
:1027A00068FD4FF48055002229462046FEF761FD62
:1027B000384601F061F9FEF75BF829462046BDE88E
:1027C000F0410122FEF755BD000C01402DE9F05FFC
:1027D000544E04463078802867D2402802D24FF009
:1027E000000508E04FF0010505D14FF001014FF061
:1027F0004000FFF7B9FFB1467078DFF828A14A4ED4
:1028000010F00707AAF1010A4FF4007B63D0FFF72D
:1028100085FF04FA07F101439AF8000001F0FF0870
:1028200018B16FEA080000F0FF08EDB355B10022BF
:102830004FF480713046FEF71CFD012259463046A8
:10284000FEF717FD404601F017F9FEF711F899F869
:10285000011099F800000831C9B2FFF75FFEFFF7D9
:102860005DFFC7F10801CC4004439AF8000008B1AD
:10287000E043C4B23DB355B100224FF480713046FD
:10288000FEF7F7FC012259463046FEF7F2FC2046DF
:1028900001F0F2F8FDF7ECFF99F8011099F800004B
:1028A0000839C9B2401C01E005E030E0BDE8F05F46
:1028B000C0B2FFF733BE002259463046FEF7D9FCBE
:1028C00001221102BBE7002259463046FEF7D1FC37
:1028D00001221102D8E79AF8000008B1E043C4B21F
:1028E000BDB155B100224FF480713046FEF7C1FCF6
:1028F000012259463046FEF7BCFC204601F0BCF8E8
:10290000FDF7B6FF99F80010491C89F80010BDE8E2
:10291000F09F002259463046FEF7ABFC012211021F
:10292000E8E7000039000020000C014010B5044623
:1029300002E0142001F0C2F8641EE4B2F9D210BD26
:102940000849086282788A73C278CA734278120290
:102950008A8203781A448A824279CA72807908731B
:1029600070470000140000203EB500241048009479
:10297000019402940D49846001600473047501257B
:1029800005614FF460214460C161FEF777F808B13A
:1029900072B6FEE7CDE90045694605480294FDF7A9
:1029A000EBFF002801D072B6FEE73EBD00240140D7
:1029B0003C0000200C4810B50A490160102141601C
:1029C00000218160C16001614161017641768176BB
:1029D000C17601774177FEF709FA002801D072B677
:1029E000FEE710BD006400406C0000202DE9F04FB0
:1029F00085B000242E4800940194029403948169C8
:102A000041F010018161816901F010010491816937
:102A100041F020018161816901F020010491816907
:102A200041F004018161816901F00401049181692F
:102A300041F0080181618069DFF8789000F00800BA
:102A40004FF400550490002229464846FEF711FC39
:102A5000DFF864A048F21217002239465046FEF70C
:102A600008FCDFF858B04FF2FF38002241465846C4
:102A7000FEF7FFFB0095022601250396CDE90154E0
:102A800069464846FEF7F8FA00970396CDE90154E7
:102A900069465046FEF7F0FACDF800800396CDE97E
:102AA000015469465846FEF7E7FA05B0BDE8F08FD5
:102AB000001002400010014000080140000C0140DD
:102AC0000F4810B50D4901604FF48271416000213B
:102AD0008160C1604FF400720161C0E905121822E3
:102AE000C0E90721416281620A21C162FEF7BAFF93
:102AF000002801D072B6FEE710BD00000030014092
:102B00009400002010B586B000241748009401946A
:102B100002940394049413490594C0E900144FF6F9
:102B2000FF71C0E90241046144618461FFF774F8F8
:102B300008B172B6FEE74FF48050009069460A482B
:102B4000FFF7B6F808B172B6FEE7049404A9064888
:102B50000594FFF72DF8002801D072B6FEE706B005
:102B600010BD0000002C0140EC00002010B58EB01C
:102B700000240794089409940A940B941C21684635
:102B80000C94FDF7A9FB1C484FF08041C0E90014EC
:102B90004FF6FF71C0E9024104618461FFF73CF820
:102BA00008B172B6FEE74FF48050079007A91248AB
:102BB000FFF77EF808B172B6FEE70F48FFF746F957
:102BC00008B172B6FEE70B940BA90B480C94FEF704
:102BD000EFFF08B172B6FEE76020CDE90004029471
:102BE0000022694604480494FFF7CDF8002801D07C
:102BF00072B6FEE70EB010BD34010020FEE7FEE71E
:102C00001FB5FF200090012001900220054C039089
:102C100069462046FEF730FA69462046FEF72CFA50
:102C20001FBD0000000C0140704700002DE9FE4F61
:102C3000DFF8C8814FF0000A464698F80B20D8F814
:102C40002040851A25445146ED7988F80D5096F8B4
:102C500006C096F80FB0F76953460BFB0C76D646C4
:102C60000A2818D0904218D398F80C70B946B84288
:102C700013D8B8F81470002F0FD0002D0DD0474690
:102C800098F803C07F79BCF1000F08D098F80E5077
:102C900088F80D5015E0C8E906E6BDE8FE8FA0F102
:102CA000D40CBCF1060F06D9A0F1E70CBCF1050F5E
:102CB00001D9D12805D1D8F818C005FB17C5C8F827
:102CC0001850A0F13005092D04D8C2F13705655D13
:102CD00088F80D5098F80DC0D8F818500CFB07551F
:102CE0007F2D01D9C8E906E6801A05E0E5185B1CCE
:102CF000ED79DBB2294489B29842F7DC01FB0BF194
:102D0000A9EB020001EBC000383080B2C10800F02E
:102D100007090026029162E0002759E0B9F1070F88
:102D200005D90AF101024FF000091FFA82FA029A4E
:102D3000036A52441A44527801924379826906FB2D
:102D4000032292B20092827842782AB18279C369D2
:102D5000C91B01FB023103E08279C16907FB021143
:102D60001FFA81FB002529E0002420E04946019854
:102D7000FDF7F8FB50B118780028187C0CD0C2B2CF
:102D800000982844C1B20BEB04000BE0187960B145
:102D900018780028987CF2D1C2B20BEB0400C1B2C3
:102DA00000982844C0B2FFF7C2FC641CE4B298F853
:102DB000060043468442D9D36D1CEDB298F8051045
:102DC0008D42D1D309F101007F1C00F0FF09FFB251
:102DD00098F80F1040468F42A0D3761CF6B298F8B0
:102DE0000D1040468E4297D3C279816943791144D0
:102DF000427B02FB0311C8F818104EE714000020B4
:102E00002DE9FE4F60494FF0000A5246CC7A0D6A18
:102E1000061BA94635440E46ED794D7396F806C05B
:102E200096F80FB0F76953460BFB0C770A2826D0AB
:102E3000A04227D391F80C80404523D88E8A002EDB
:102E400020D0002D1ED0CD780DB18D7B4D734D7BE4
:102E50004E79D1F818C005FB16CCBCF1000F05D592
:102E6000CF6105FB06F7C7F17F078F61CF7905FBBF
:102E700006758E69751B8D614D46001B0AE07F202B
:102E8000C1E90607BDE8FE8FEE185B1CF679DBB2E0
:102E9000324492B29842F7DC02FB0BF2A8EB04003A
:102EA00002EBC000383080B2C20800F007080026EC
:102EB0008946029263E000275AE000BFB8F1070F8D
:102EC00005D90AF101024FF000081FFA82FA029AAE
:102ED000036A52441A44527801924379826906FB8C
:102EE000032292B20092827842782AB1CA1B837977
:102EF000C16902FB031103E08179C26907FB01216B
:102F00001FFA81FB002529E0002420E041460198BA
:102F1000FDF728FB50B118780028187C0CD0C2B2FD
:102F200000982844C1B20BEB04000BE0187960B1A3
:102F300018780028987CF2D1C2B20BEB0400C1B221
:102F400000982844C0B2FFF7F2FB641CE4B299F881
:102F500006004B468442D9D36D1CEDB299F805109A
:102F60008D42D1D308F101007F1C00F0FF08FFB2B1
:102F700099F80F1048468F42A0D3761CF6B299F804
:102F80000D108E4297D37DE7140000202DE9F04705
:102F90000446DDE90897984615460E464846FDF773
:102FA000EBFA1F49A8EB060280B2CB7B91F806C072
:102FB00003FB1C2202EBD27206EB620293B20E7A82
:102FC0002A1B002E07F0030603D0EEB1012E1FD1FD
:102FD00014E026B1012E05D0022E0DD108E0C879EB
:102FE000204408E0101A00EBD07004EB600002E00F
:102FF000854201D9281A84B28C610AE0101A00EBCC
:10300000D070A5EB600002E0CA792044104485B27C
:103010008D614846CB61BDE8F04700F003B8000081
:103020001400002070B5054608480024007A0128E5
:1030300007D12846BDE8704000F00AB8641CFFF7CD
:10304000F5FD285D0028F9D170BD000014000020B6
:103050002DE9F04F074665488DB0002690F807909F
:103060003546DFF88CA1EB468046B5E06D1C8D2C13
:1030700018D00CDC3B2C2AD004DC2C2C29D02E2C94
:103080002AD128E03F2C20D0812C25D108E08E2C9D
:103090000AD0902C0AD0982C0AD0E12C1CD109E03F
:1030A000EA2419E0EB2417E0EE2415E0EF2413E006
:1030B000DF2411E0785D6D1C88F80A00C72802D073
:1030C000E1246D1E08E0FB2406E0BF2404E01F2479
:1030D00002E01D2400E01C24785D88F80A008128A5
:1030E00012D008DC2C282DD02E282DD03B2827D01C
:1030F0003F280ED122E08D2808D08E2818D09028A5
:1031000018D0982805D117E0EA2100E0EB2188F8D3
:103110000A10C02C42D998F80900C02816D900EB33
:1031200040020AEB4200A0F5805090F87F0B0EE0C1
:10313000EE21ECE7EF21EAE7DF21E8E7BF21E6E750
:103140001F21E4E71D21E2E71C21E0E7002098F8B9
:103150000A10C02908D901EB41020AEB4201A1F58E
:10316000805191F87E1B00E0002141EA4000C0B28E
:10317000012803D9002288F8072001E088F8079089
:1031800004EB44020AEB42010844A0F5805090F899
:103190007A0BFFF735FE88F807901BE0A4F13000AA
:1031A000092814D8761CF6B20BF8064098F80A10D5
:1031B00030390A2908D20DE01BF806002038C0B2C9
:1031C000FFF71EFE761EF6B2002EF5D102E0204675
:1031D000FFF716FE88F809407C5D002C7FF446AFAF
:1031E000FF2188F809100DB0BDE8F08F1400002011
:1031F0006543000870B5274C0020274D6070012101
:103200002846FEF729F818B1607840F00100607098
:1032100002212846FEF720F818B1607840F002003D
:10322000607004212846FEF717F818B1607840F066
:103230000400607008212846FEF70EF818B1607887
:1032400040F00800607010212846FEF705F818B11C
:10325000607840F01000607020212846FDF7FCFFE8
:1032600018B1607840F02000607040212846FDF7DA
:10327000F3FF18B1607840F040006070802128466C
:10328000FDF7EAFF18B1607840F080006070607868
:1032900070BD000000000020000C01402DE9F84343
:1032A000074698469146089CD51B0E46EAB2002375
:1032B0000094FFF7CBF8EAB2002341463846009469
:1032C000FFF7C4F8A8EB0605EBB2002231463846FA
:1032D0000094FFF7BBF8EBB2002231464846009459
:1032E000FFF7B4F8BDE8F8832DE9FF4F85B08246BB
:1032F000DDE912400699914621441A1B0291511AA8
:103300000025DDF8508000289B462646C4F10107C1
:1033100001914046CDF800805DD0A9EB0A00C2B211
:103320000298CBB2C1B25046FFF790F805EB090006
:10333000011BAAEB05002044CDE90080081AC2B2A7
:10334000029006980023801B2044C1B20198C0B2AD
:10335000FFF77CF806EB0900011BAAEB06002044EE
:103360000390081AC2B204900698CDF80080401B62
:103370002044C1B203980023C0B2FFF767F8049855
:10338000CDF80080C2B205EB0B00001BC1B2039860
:103390000023C0B2FFF75AF80298CDF80080C2B2FD
:1033A00006EB0B00001BC1B201980023C0B2FFF76F
:1033B0004DF8002F04DA07EB45076D1CFF1C05E0F4
:1033C000A81B07EB40076D1C761E7F1DB542ADDDC7
:1033D00009B0BDE8F08F0AEB0400A9EB04010390EB
:1033E000081AC2B2049003980023C0B20699FFF7EE
:1033F0002DF80498CDF80080C2B203980023C0B223
:103400005946FFF723F80198CDF80080C3B202981F
:103410000022C1B25046FFF719F80198CDF800809C
:10342000C3B202980022C1B24846FFF70FF80698CF
:103430004246801B2044C1B2029005EB0900001BEC
:103440000390C0B2FFF773F906984246401B204430
:10345000C1B2009006EB0900001B0490C0B2FFF758
:1034600066F905EB0B00001BC1B2019004984246BF
:10347000C0B2FFF75CF906EB0B00001BC1B2049071
:1034800003984246C0B2FFF752F904984246C1B2CF
:10349000AAEB050020440390C0B2FFF748F9019859
:1034A0004246C1B2AAEB060020440190C0B2FFF729
:1034B0003EF900984246C1B20198C0B2FFF737F911
:1034C00002984246C1B20398C0B2FFF730F9002F0C
:1034D00004DA07EB45076D1CFF1C05E0A81B07EB92
:1034E00040076D1C761E7F1DB542A0DD70E770475A
:1034F00004490128087202D00020886170477F20AB
:10350000FBE7000014000020FDF7BEBE30B593B00D
:1035100028216846FCF7E0FE14210AA8FCF7DCFE2F
:10352000002501200F9510951195010412958DE845
:10353000230004904FF4E010CDE908100224079412
:103540006846FEF7FFF808B172B6FEE70AA90F2039
:1035500081E831004FF48060CDE90D0502210AA811
:10356000FEF704F808B172B6FEE74FF40040119080
:103570000F940FA8FDF784FF002801D072B6FEE774
:1035800013B030BD70470000F0B50268164B174C01
:10359000174D4FF08047984205D0B84203D0A04263
:1035A00001D0A84203D122F070064A683243984203
:1035B00005D0B84203D0A04201D0A84203D122F4E2
:1035C0004074CA6822434C6922F0800222430260A0
:1035D0008A68C2620A688262984201D109690163FD
:1035E00001214161F0BD0000002C014000040040B9
:1035F0000008004010B5846842EA032224F47F44A6
:103600000A432243826010BD826822F070020A439E
:1036100042F007018160704730B5026A22F0010272
:103620000262026A4368846924F073050C682C43C3
:1036300022F002058A682A430A4DA8420BD122F0E3
:103640000805CA6823F440732A434D6922F0040236
:103650001D438B692B434360846149684163026267
:1036600030BD0000002C014030B5026A22F010028B
:103670000262026A436884690D6824F4E64444EAFD
:1036800005248D6822F0200242EA05120B4DA84263
:103690000ED1CD6822F0800242EA05124D6923F472
:1036A000406343EA85038D6922F0400243EA8503C3
:1036B0004360846149688163026230BD002C01402F
:1036C00030B5026A22F480720262036A4268C469F9
:1036D00023F4007324F073050C682C438D6843EACF
:1036E00005230C4DA8420ED1CD6823F4006343EAB4
:1036F00005234D6922F4405242EA05128D6923F4F4
:10370000806342EA05124260C4614968C163036292
:1037100030BD0000002C014030B5026A22F4805216
:103720000262046A4268C3690D6823F4E64343EA0F
:1037300005238D6824F4005444EA0534064DA8425C
:1037400004D14D6922F4804242EA85124260C3618D
:1037500049680164046230BD002C014010B5036A61
:10376000046A24F001040462846924F0F00444EA49
:10377000021423F00A020A438461026210BD10B5EC
:10378000036A23F0100303628369046A23F470431D
:1037900043EA023224F0A00343EA0111826101628C
:1037A00010BD00002DE9FE4FDFF808B10C460546BC
:1037B0000D9F91469BF812001E467907A3EB040C5F
:1037C000A2EB050246D55FEA171804F1010305F1E3
:1037D000010126D05FEA077CC7F3071A12D54FF024
:1037E000010CCDF800A0CDE901C0701E00F0FF086B
:1037F000A9F10100C2B203F0FF0CC8B24346614612
:10380000FFF772FD9BF810100022CDF800A0CDE963
:103810000121F3B209F0FF02E1B2E8B2FFF764FD63
:1038200022E05FEA07780AD50CF0FF0803F0FF0CEE
:103830000090C8B2D2B243466146FEF707FE9BF83D
:1038400010000090F3B209F0FF02E1B2E8B2FFF716
:1038500025FD09E0390707D500900CF0FF03D2B22F
:10386000E1B2E8B2FEF7F2FD9BF8000028B128466D
:10387000254604464846B14606460C9917F00C0FFB
:1038800007F003000BD0CDE90010761E641CA9F1EF
:10389000010082B26D1CB3B2A1B2A8B205E0CDE9BD
:1038A000001033464A4621462846FFF76FFBBDE825
:1038B000FE8F00001400002010B5406A0021C18571
:1038C000C184FEF7F2FA10BD0168CA6822F4907252
:1038D000CA6001684A6922F001024A61016B01294C
:1038E00004D10168CA6822F01002CA60202180F861
:1038F0003E1000210163704708B590F83E10222960
:1039000001D0022008BD82684FF480539A4201D151
:10391000016921B1816A9A421BD04AB10AE002686A
:10392000816A5268C2F308020A80816A891C08E031
:10393000026972B10268526802F07F020A70816AFD
:10394000491C8162C18D491E0904090CC18503D03F
:1039500019E002685268F1E70168CA6822F02002A3
:10396000CA600168CA6822F48072CA6001684A6944
:1039700022F001024A61202180F83E10016B0129EA
:1039800003D0FEF753FC002008BD0021016301684D
:10399000CA6822F01002CA6001680A68D20602D51D
:1039A0000A6849680091818DFEF77EFAEBE7000016
:1039B00070B5044600680169E26821F44051114382
:1039C00001612169A0680843616908432168CA68E8
:1039D00041F20C639A430243CA6020684169A269BC
:1039E00021F44071114341611E492068884202D18F
:1039F000FDF762FE01E0FDF74FFE00EBC00101EBB9
:103A00000012606864218000B2FBF0F3B3FBF1F3B5
:103A10006FF018067343B2FBF0F5B2FBF0F605EB5E
:103A20008305322303EB0515B5FBF1F5B6FBF1F683
:103A300005F0F00505EB0615B2FBF0F6B2FBF0F071
:103A4000B0FBF1F06FF01802504306EB800003EB7F
:103A50000010B0FBF1F0216800F00F0028448860EE
:103A600070BD0000003801400148FEF71FBA000099
:103A7000C0010020FEE7000070B5074D044600229B
:103A8000FF212846FDF7F5FB21462846BDE870409A
:103A90000122FDF7EEBB0000000C01400907090EF2
:103AA000002804DB00F1E02080F80014704700F0EB
:103AB0000F0000F1E02080F8141D7047024600203E
:103AC000014601E00844491C9142FBD970470000BF
:103AD0001CB5FDF7E1FBFFF719FDFEF787FF8148F5
:103AE0007F494FF4165600240160C0E901640C259B
:103AF000C460C0E904458461C461FEF7DDFA08B121
:103B000072B6FEE77748784944300160C0E9016445
:103B1000C460C0E904458461C461FEF7CDFA08B110
:103B200072B6FEE7FEF720FFFEF744FFFEF7C8FF80
:103B3000FEF7E8FF6B486D49883001604FF4E131D2
:103B4000C0E90114C460C0E904458461C461FEF7A2
:103B5000B3FA08B172B6FEE7FFF708F8644E4FF407
:103B6000005529463046FDF77CFB6420FDF772FACC
:103B700029463046FDF775FB6420FDF76BFA5D487A
:103B8000FCF78EFE0020FEF7F3FC6420FDF762FADE
:103B90000022022311465848FEF7E2FB40F2DC50B7
:103BA000FDF758FA00213F237F2208460094FEF7D4
:103BB0004DFC0020FFF79CFC5048FEF7C1FE294653
:103BC0003046FDF74EFB6420FDF744FA29463046A7
:103BD000FDF747FB6420FDF73DFA424E484DCC36D9
:103BE0004448FDF7A3F801214248FDF701F8414898
:103BF000FCF740FF82B23B486A8042A1CC30FCF720
:103C0000E7FACDE900640021092330220846FFF7D6
:103C1000C9FD688870B1A0F2F511632915D23EA0E4
:103C2000CDE900041223302209210020FFF7BAFD5C
:103C3000022036E03AA0CDE9000412233022092107
:103C40000020FFF7AFFD01202BE0A0F21551632902
:103C50000AD234A0CDE90004122330220921002029
:103C6000FFF7A0FD03201CE0A0F2D17163290AD266
:103C70002DA0CDE900041223302209210020FFF7F6
:103C800091FD04200DE0A0F6553063280BD228A04A
:103C9000CDE900041223302209210020FFF782FD24
:103CA0000520287009E024A0CDE900041223302269
:103CB00009210020FFF776FD2C706420FDF7CAF97A
:103CC00009232A22362100200094FEF7BFFB092396
:103CD0002F222D2150200094FEF7B8FB80E7000032
:103CE000003801407C0100200044004000480040B2
:103CF000001001403C0000204A3F0008403D000801
:103D00000000002056616C7565206F66204B657958
:103D100073203D20256400004241434B0000000019
:103D2000474F00005550000053454C454354000098
:103D3000444F574E000000004E4F204B4559530052
:103D4000020A060701207F0305050505050505058F
:103D50000505050505050505050505050505050513
:103D60000505050505050505050505050505050503
:103D700005050505050505050505050505050505F3
:103D800005050505050505050505050505050505E3
:103D900005050505050505050505050505050505D3
:103DA0000505050505050500000000F80200800175
:103DB0006000A0FC297F0A49F55749461304596C55
:103DC0004B564550406100000038A220001014718D
:103DD000000815478540207C0804000A03001008ED
:103DE0000402010083010010044110F8A2C9A20FCF
:103DF00020FC0301C27034690C058BCB188622F9B4
:103E0000434EC56231C7532693B0403C5118D892F7
:103E1000C9A4CD904CA63C009B0D0000586D00003D
:103E20000041110529140A85121451100041209AED
:103E300030C892F9A0CF1F8944FCFF643269F305B2
:103E40008341D13F181471FEC96432F84F24020136
:103E50005F301895FD1108C41F10FC07011050E8D1
:103E600017F82328A2E01F080402FF0282E0FF27C0
:103E700020207F5F3018F4FD138984C1178C86BC25
:103E8000FF442665342693C95820F00F047E402055
:103E9000F0F70101419F3F0803FA8F2908CA7840D3
:103EA000C01306E168B2380400FEC1A080808080A3
:103EB00082C13F00401004040420100804020202E2
:103EC000020044A552F17F249188C3118944108EC9
:103ED0004844FE71542A1583F027020204854AE5FE
:103EE000FD1104021E40EC03012020B10700FC215B
:103EF000282220F80702F8040C01CF471008781C8C
:103F00009148C4F129140A0241A160F87C0481801F
:103F10004052A95410E147048278402088CF010123
:103F2000411C1E1006E41151101491018542794480
:103F300032954904206C410000F0070000411B024B
:103F40008040A838080447854000038040FFFFFFF9
:103F5000FFFFFFFFFFFFFFFFFFFFFFFFFFFFFFFF71
:103F6000FFFFFFFFFFFFFFFFFFFFFFFFFFFFFFFF61
:103F7000FFFFFFFFFFFFFFFFFFFFFFFFFFFFFFFF51
:103F8000FFFFFFFFFFFFFFFFFFFFFFFFFFFFFFFF41
:103F9000FFFFFFFFFFFFFFFFFFFFFFFFFFFFFFFF31
:103FA000FFFFFFFFFFFFFFFFFFFFFFFFFFFFFFFF21
:103FB000FFFFFFFFFFFFFFFFFFFFFFFFFFFFFFFF11
:103FC000FFFFFFFFFFFFFFFFFFFFFFFFFFFFFFFF01
:103FD000FFFFFFFFFFFFFFFFFFFFFFFFFFFFFFFFF1
:103FE000FFFFFFFFFFFFFFFFFFFFFFFFFFFFFFFFE1
:103FF000FF7F3F1F0F0FFF7F3F1F1F0F0F0F0F0F81
:104000000F0F0F1F1F3F3F7FFFFFFFFFFFFFFFFF50
:10401000FFFFFFFF7F3F3F1F1F0F0F0F0F0F0F1FF0
:104020001F3F3F7FFFFFFFFFFFFFFFFFFFFFFFFF80
:10403000FFFFFFFFFFFFFFFFFFFFFFFFFFFFFFFF90
:10404000FFFFFFFFFFFFFFFFFFFFFFFFFFFFFFFF80
:10405000FFFFFFFFFFFFFFFFFFFFFFFFFFFFFFFF70
:10406000FFFFFFFFFFFFFFFFFFFFFFFFFFFFFFFF60
:10407000FCF0401004020080C0E0F0F8FCFCFCFC06
:10408000FCFCFCF8F0E0C0000003073FFFFFFFFF6F
:104090009FC7E1E0F0F0F8F8F8FCFCFCFCFCF8F855
:1040A000F0E0C0800001071F7FFFFFFFFFFFFFFF61
:1040B000FFFFFFFFFFFFFFFFFFFFFFFFFFFFFFFF10
:1040C000FFFFFFFFFFFFFFFFFFFFFFFFFFFFFFFF00
:1040D000FFFFFFFFFFFFFFFFFFFFFFFFFFFFFFFFF0
:1040E000FFFFFFFFFFFFFFFFFFFFFFFFFFFFFFFFE0
:1040F000FF07000000E0F6C08003071F3F7F7FFF3F
:10410000FFFFFFFFFFFFFFFFFC80000000FFFF3FFE
:104110001F0F0F0F070F0F0F0F1F1F3F3F7FFFFFD7
:10412000FFFFFFFFFEF000000003FFFFFFFFFFFFA8
:10413000FFFFFFFFFFFFFFFFFFFFFFFFFFFFFFFF8F
:10414000FFFFFFFFFFFFFFFFFFFFFFFFFFFFFFFF7F
:10415000FFFFFFFFFFFFFFFFFFFFFFFFFFFFFFFF6F
:10416000FFFFFFFFFFFFFFFFFFFFFFFFFFFFFFFF5F
:10417000FF800000001FFFFFFFFFFEFCFCF8F0F0D7
:10418000E1C1C3C383878783C3C0E0F0FCFF0000A5
:1041900000007EFFFFFFFFFFFEFEFCFCFCF8F0E1ED
:1041A000C3871F7FFFFF00000000FFFFFFFFFFFF2F
:1041B000FFFFFFFFFFFFFFFFFFFFFFFFFFFFFFFF0F
:1041C000FFFFFFFFFFFFFFFFFFFFFFFFFFFFFFFFFF
:1041D000FFFFFFFFFFFFFFFFFFFFFFFFFFFFFFFFEF
:1041E000FFFFFFFFFFFFFFFFFFFFFFFFFFFFFFFFDF
:1041F000FFFFF8E0800001071F3F7FFFFFFFFFFF89
:10420000FFFFFFFFFFFFFFFFFFFFFFFFFFFFFEF0CE
:10421000C00000030F1F3F7FFFFFFFFFFFFFFFFFF7
:104220007F3F1F0E010000C0F0FEFFFFFFFFFFFFFA
:10423000FFFFFFFFFFFFFFFFFFFFFFFFFFFFFFFF8E
:10424000FFFFFFFFFFFFFFFFFFFFFFFFFFFFFFFF7E
:10425000FFFFFFFFFFFFFFFFFFFFFFFFFFFFFFFF6E
:10426000FFFFFFFFFFFFFFFFFFFFFFFFFFFFFFFF5E
:10427000FFFFFFFFFFFEFCF8F0E0E0C0C1C3C7C7CF
:10428000CFCFCFEFFFFFFFFFFFFFFFFFFFFFFFFFDE
:10429000FFFFFEF8F0F0E0C0C0C081818181C0C0A6
:1042A000C0E0F0F0F8FEFFFFFFFFFFFFFFFFFFFFA2
:1042B000FFFFFFFFFFFFFFFFFFFFFFFFFFFFFFFF0E
:1042C000FFFFFFFFFFFFFFFFFFFFFFFFFFFFFFFFFE
:1042D000FFFFFFFFFFFFFFFFFFFFFFFFFFFFFFFFEE
:1042E000FFFFFFFFFFFFFFFFFFFFFFFFFFFFFFFFDE
:1042F000FFFFFFFFFFFFFFFFFFFFFFFFFFFFFFFFCE
:10430000FFFFFFFFFFFFFFFFFFFFFFFFFFFFFFFFBD
:10431000FFFFFFFFFFFFFFFFFFFFFFFFFFFFFFFFAD
:10432000FFFFFFFFFFFFFFFFFFFFFFFFFFFFFFFF9D
:10433000FFFFFFFFFFFFFFFFFFFFFFFFFFFFFFFF8D
:10434000FFFFFFFFFFFFFFFFFFFFFFFFFF0000007A
:104350000000000000010203040607080900000035
:104360000001020304C1C1C1C10000C2C2020201B6
:1043700000C3C301010100C4C4C4C40000C5C50317
:10438000030100C6C6C6C60000C7C700000100C8BA
:1043900004C8040101C9FEE9950101CA05CA050165
:1043A00001CB06CB060101CC0708070101CD090AA4
:1043B000090101CE0B0C0B0101CFCFCFCF0100D0F3
:1043C000D0D0D00100D1D1D1D10100D2D2D2D201EE
:1043D00000D38AD38A0101D40ED40E0101D50FD5A2
:1043E0000F0101D61AD61A0101D7D7D7D70000D8A6
:1043F000D8D8D80101D9D9D9D90101DA1BF1F001F6
:1044000001DBF57FF60101DCDCDCDC0101DD80DDB8
:10441000800101DE83DE830101DF8CDF8C0101E09E
:10442000E0E0E00000E1F3E1F30101E2E2E2E200BA
:1044300000E3F8E3F80101E4F2E4F20101E5FEE74C
:10444000950101E6E6E6E60100E7E7E7E70000E8B8
:10445000E8E8E80000E9E9E9E9000081FD81FD0103
:10446000018D9D9E9D0101ECC0A0C00101EDC09C8D
:10447000C001018E8E8E8E010090FA90FA0101F03B
:10448000F0F0F00000F1F1F1F10000F2F2F2F200D0
:1044900000F3F3F3F30000F4F4F4F40000F5F5F5A1
:1044A000F50000F6F6F6F60000F7F7F7F70000F86B
:1044B000F8F8F80000F9F9F9F90000FAFAFAFA0048
:1044C00000A5A59F9F0100FCFCFCFC0000FDFDFD7C
:1044D000FD0000FEFEFEFE0000FFFFFFFF000000EB
:1044E00000450008000000203C00000028010008F2
:1044F0003C4500083C000020EC0800004401000896
:10450000000000000100000010000000000000009A
:104510000024F400000001000001010100FFFF0081
:1045200000000000FF00000000000000000000008C
:0C4530000000000000000000000000007F
:04000005080000ED02
:00000001FF
