:020000040800F2
:100000000018002021020008DF1F0008AD1D0008B5
:10001000DD1F0008E30300084D2300080000000076
:10002000000000000000000000000000890100083E
:10003000E503000800000000CD0100085D21000874
:100040003B0200083B0200083B0200086120000858
:100050003B0200083B0200083B0200083B0200088C
:100060003B0200083B0200083B0200083B0200087C
:100070003B0200083B0200083B0200083B0200086C
:100080003B0200083B0200083B0200083B0200085C
:10009000412300083B0200083B0200083B02000825
:1000A0003B020008112200083B0200083B02000846
:1000B0003B0200083B0200083B0200083B0200082C
:1000C0003B0200083B0200083B0200083B0200081C
:1000D0003B0200083B0200083B0200083B0200080C
:1000E0003B0200083B0200083B02000800F002F857
:1000F00000F03AF80AA090E8000C82448344AAF188
:100100000107DA4501D100F02FF8AFF2090EBAE885
:100110000F0013F0010F18BFFB1A43F0010318473B
:10012000A02D0000C02D0000103A24BF78C878C16F
:10013000FAD8520724BF30C830C144BF04680C60ED
:10014000704700000023002400250026103A28BF35
:1001500078C1FBD8520728BF30C148BF0B60704739
:100160001FB51FBD10B510BD00F0D6F81146FFF742
:10017000F7FF02F0FDF800F0F4F803B4FFF7F2FF28
:1001800003BC00F0FBF80000224B19680868B0E8D7
:10019000F00F80F30988BFF36F8F4FF0000080F3FA
:1001A00011884EF00D0E70470000000006480068F0
:1001B000006880F3088862B661B6BFF34F8FBFF363
:1001C0006F8F00DF00BF00BF08ED00E0EFF3098094
:1001D000BFF36F8F0F4B1A6820E9F00F106008B55E
:1001E0004FF0500080F31188BFF34F8FBFF36F8F34
:1001F00002F0A6FC4FF0000080F31188BDE8084033
:1002000019680868B0E8F00F80F30988BFF36F8FB2
:10021000704700BF14000020EFF305807047000016
:100220000948804709480047FEE7FEE7FEE7FEE78A
:10023000FEE7FEE7FEE7FEE7FEE7FEE704480549C6
:10024000054A064B704700000D220008ED0000082B
:1002500000120020001800200014002000140020CC
:1002600010B5203AC0F00B80B1E81850203AA0E851
:100270001850B1E81850A0E81850BFF4F5AF5FEA85
:10028000027C24BFB1E81850A0E8185044BF18C938
:1002900018C0BDE810405FEA827C24BF51F8043BDF
:1002A00040F8043B08BF7047D20728BF31F8023B33
:1002B00048BF11F8012B28BF20F8023B48BF00F8C7
:1002C000012B70474FF0000200B513469446964646
:1002D000203922BFA0E80C50A0E80C50B1F1200159
:1002E000BFF4F7AF090728BFA0E80C5048BF0CC007
:1002F0005DF804EB890028BF40F8042B08BF704765
:1003000048BF20F8022B11F0804F18BF00F8012BD6
:100310007047704770477047754600F02BF8AE463F
:1003200005006946534620F00700854618B020B501
:10033000FFF784FFBDE820404FF000064FF00007B4
:100340004FF000084FF0000B21F00701AC46ACE87D
:10035000C009ACE8C009ACE8C009ACE8C0098D46EA
:10036000704710B50446AFF300802046BDE810404A
:10037000FFF703BF00487047A01100200149182073
:10038000ABBEFEE7260002007047000070B50446D1
:1003900000688168C943C90717D1816821F001014C
:1003A000816000F02DFC05460AE000BF00F028FC4B
:1003B000401B022804D920688068C043C00706D0CB
:1003C00020688068C043C007F0D0002070BDA06ADC
:1003D00040F01000A062E06A40F00100E0620120FD
:1003E00070BDFEE770470000F8B50024009490F857
:1003F00024202546012A12D0012280F824204A68B0
:100400001F23072A0DD20668776B521E02EB820269
:1004100093409F430B6893401F43776319E002208A
:10042000F8BD06680D2A0AD2376BD21F02EB820292
:1004300093409F430B6893401F43376309E0F76A7B
:100440000D3A02EB820293409F430B6893401F4397
:10045000F7620A68072306680A2A0AD3F7680A3A85
:1004600002EB420293409F438B6893401F43F76027
:1004700008E0376902EB420293409F438B68934048
:100480001F4337610A68102A01D0112A20D1124B6C
:1004900002689A4217D193681B0219D4936843F4F7
:1004A000000393600968102912D10C490C4A0968AD
:1004B000B1FBF2F101EB8101490000E0491E00911E
:1004C0000029FBD104E0816A41F02001816201240E
:1004D00080F824502046F8BD002401401000002080
:1004E00040420F002DE9F0414FF0000704003D4667
:1004F0007ED0A06A002628B9E66284F824602046EF
:1005000000F07EF82046FFF741FFA16AC90600D43B
:1005100020B1A06A40F01000A06269E0A16A21F455
:10052000885141F00201A1626268E169237B0A43BC
:1005300047EA43010A43A1684FF48077B94209D0E2
:10054000012907D05FF0000194F814C0BCF1010F3D
:1005500002D00AE03946F7E7F3B1A36A43F020037B
:10056000A362E36A43F00103E3622368D3F804C0A3
:100570002CF4694C4CEA010CC3F804C021688B6868
:10058000DFF870C003EA0C0313438B60A168B94223
:100590000BD0012909D00CE0DFF85CC0A3690CEB9B
:1005A00043330B4343F40061DFE7218A0D05A5F5D2
:1005B00080152168CB6A23F470032B43CB6221683A
:1005C00089680E4B1940914208D1E662A16A21F078
:1005D000020141F00101A162BDE8F081A06A20F0B2
:1005E000020040F01000A062E06A40F00100E0620A
:1005F0000120F1E7FDF7E1FF00E0FFFFFE0E1FFF26
:1006000000B585B00021009101910291039100682D
:100610000E49884218D10E48816941F40071816108
:10062000816901F400710491816941F004018161E3
:100630008069694600F004000490102000900320B7
:100640000190044800F0DEF905B000BD002401402F
:10065000001002400008014070472DE9F05F054698
:10066000006800244669D0F804908768D0F80CB080
:10067000D0F810A0D0F81880F10748D0F90714D0AE
:1006800001218160B80703D5284600F0B5F90CE0D8
:10069000780702D54FF4006407E0380702D54FF41D
:1006A000805402E0284600F0A6F9F80516D529681E
:1006B0004FF480708860B80503D5284600F09EF995
:1006C0000CE0780502D544F4005407E0380502D563
:1006D00044F4804402E0284600F08FF9F80316D570
:1006E00029684FF480308860B80303D5284600F0AD
:1006F00087F90CE0780302D544F4004407E038039E
:1007000002D544F4803402E0284600F078F930073E
:1007100007D55FEACB6004D52968102044F4007443
:10072000C86070074FF0080707D55FEA0B7004D563
:100730002868C760284600F059F9B00706D5286830
:10074000C068800702D0284600F051F9700607D52E
:100750005FEACA6004D52968102044F48064086107
:10076000B00607D55FEA0A7004D5286807612846F5
:1007700000F03EF9F00606D528680069800702D02F
:10078000284600F036F9B00308D55FEAC96005D500
:10079000296810204860284600F02CF9F00307D59E
:1007A0005FEA097004D528684760284600F029F9F7
:1007B000300446D55FEA497040D5F00504D55FEABC
:1007C000C87001D044F00104B00504D55FEA887018
:1007D00001D544F00204700504D55FEA487001D5E4
:1007E00044F00404300529D518F0700F26D008F025
:1007F0007000402815D006DC102809D020280AD027
:10080000302816D10AE050280ED0602811D10EE011
:1008100044F008040DE044F010040AE044F0200421
:1008200007E044F0400404E044F0800401E044F4B4
:1008300080742868816921F0700181612968042031
:100840004860002C05D0686A204368622846FFF79C
:1008500003FFBDE8F09F70B5040003D094F82000BA
:1008600010B104E0012070BD204600F081F820683E
:10087000016841F00101016000F0C2F9054605265A
:1008800004E000F0BDF9401B0A2811D82068406838
:10089000C007F6D02068016821F00201016000F075
:1008A000AFF905460BE000F0ABF9401B0A2806D96A
:1008B000606A40F40030606284F82060D2E720680B
:1008C00040688007EFD4207E0128206801683DD071
:1008D00021F080010160607E01282068016838D025
:1008E00021F040010160A07E01282068016833D01A
:1008F00021F020010160E07E0128206801682ED0EF
:1009000041F010010160207F01282068016829D092
:1009100021F008010160607F01282068016824D06F
:1009200021F004010160D4E902010843D4E9041272
:10093000114308436168491E08432168C8610020CB
:100940006062012084F82000002070BD41F0800129
:10095000C0E741F04001C5E741F02001CAE721F0BE
:100960001001CFE741F00801D4E741F00401D9E7D5
:1009700010B586B0002100910191029103910068A9
:10098000174988422AD11748C16941F00071C161F5
:10099000C16901F000710491816941F00401816134
:1009A0008069114C00F0040004904FF40060009046
:1009B0006946204600F026F8A0140090022001901D
:1009C000032003906946204600F01CF80022052110
:1009D000142000F095FA142000F084FA06B010BD3F
:1009E000006400400010024000080140704770475A
:1009F000704770477047704770477047704770473F
:100A0000704770472DE9F84FDFF8B891002409F1DD
:100A1000040A0AF1040B23460F270BF1040EC9E068
:100A20000125A5402A40AA427DD1674ED1F804C0D5
:100A3000ACEB0608B44532D014DCBCF1030F3AD05D
:100A400009DCBCF1000F2AD0BCF1010F1CD0BCF1B5
:100A5000020F31D11DE0BCF1110F17D0BCF1120F04
:100A60002AD119E0B8F5881F19D006DCB8F5803F07
:100A700015D0B8F5801F1FD111E0B8F5001F0ED0BA
:100A8000B8F5041F18D10AE0CB6815E0CB681B1D30
:100A900012E0CB6808330FE0CB680C330CE08B68B6
:100AA0002BB1012B4FF0080303D0456104E0042370
:100AB00002E0056100E00023FF2A01D8064601E0BC
:100AC00000F104064FEA840501D9A5F12005D6F806
:100AD000008007FA05FC28EA0C0803FA05F548EA45
:100AE0000508C6F800804D68ED0062D5374DAE6947
:100AF00046F00106AE61AD6924F0030605F001057C
:100B00000095334D06EB050CDCF80850A607360FB0
:100B100007FA06F825EA0805DFF8B880404503D152
:100B20004FF0000817E044E0DFF8AC80404502D108
:100B30004FF001080FE0DFF8A480404502D14FF0EC
:100B4000020808E0DFF89880404502D14FF0030822
:100B500001E04FF0040808FA06F848EA0508CCF866
:100B600008804D68D9F80060ED034D4601D5164365
:100B700000E096432E604D68DAF80060AD035546FC
:100B800001D5164300E096432E604D68DBF8006007
:100B9000ED025D4601D5164300E096432E604D6898
:100BA000DEF80060AD02754601D5164300E09643BD
:100BB0002E60641C0D682A46E5407FF431AFBDE825
:100BC000F88F0000000401400000111000100240E6
:100BD0000000014000080140000C014000100140ED
:100BE00000140140C26821EA02030A4043EA0241BC
:100BF000016170470AB1016170470904FBE7000019
:100C000001488068704700000400002070B50400AF
:100C100025D094F83D00002520B984F83C502046AA
:100C200000F0B8F8242084F83D002068016821F025
:100C3000010101602068016841F400410160206801
:100C4000016821F40041016000F022FB4D4A616817
:100C5000914201D84C4900E04C49884201D2012020
:100C600070BD4B492368B0FBF1F15E6826F03F068A
:100C70000E435E606368934206D94FF496735943FE
:100C80004FF47A73B1FBF3F12368491C1E6A26F016
:100C90003F06314319626168914210D84900401EF5
:100CA000B0FBF1F2521CC2F30B02042A01D2042061
:100CB00022E0B0FBF1F0401CC0F30B001CE0A26886
:100CC000F2B301EBC10303EB0116431EB3FBF6F3D2
:100CD0005B1C43F480431B0549D092B301EBC10276
:100CE00002EB0111401EB0FBF1F0401CC0F30B0001
:100CF00040F4804040F400402168CA694CF6FF731C
:100D00009A431043C861D4E9071001432068026880
:100D100022F0C00211430160D4E9030101432068BD
:100D2000826848F2FF339A4311438160D4E9050198
:100D300008432168CA6822F0FF021043C86001E03E
:100D40000EE016E02068016841F0010101602564B1
:100D5000202084F83D00256384F83E50002070BDBB
:100D600001EB4106431EB3FBF6F35B1CB3E7012026
:100D7000C2E701EB4101401EB0FBF1F0401CC0F3A3
:100D80000B00B7E7A086010080841E0000093D002B
:100D900040420F0010B586B00021009101910291F0
:100DA00003910068104988421BD1104CA06940F0A3
:100DB0000800A061A069694600F0080004904FF4A3
:100DC0004060009012200190032003900848FFF734
:100DD00019FEE06940F48000E061E06900F4800001
:100DE000049006B010BD0000005800400010024002
:100DF000000C01400248816802781144816070470C
:100E000004000020074810B5016841F0100101609E
:100E1000032000F095F80F2000F006F800F03EF8EF
:100E2000002010BD0020024000B5014687B000221E
:100E3000192000F065F8192000F054F81348816972
:100E400041F400618161806905A900F400600690A9
:100E5000684600F0FDF900F02BFA0D490D4AB0FB91
:100E6000F1F10D48491E0260416040F2E732002175
:100E7000C0E90321816000F0F5FD10B1012007B049
:100E800000BD054800F01CFEF9E70000001002401C
:100E900040420F00002C0140680400200F4808B5B4
:100EA000816941F001018161816901F001010091D5
:100EB000C16941F08051C161C069002200F08050D9
:100EC00000900F21901E00F01BF80548416821F0AA
:100ED000E06141F00071416008BD00000010024077
:100EE00000000140002809DB00F01F0201219140B1
:100EF0004009800000F1E020C0F8001170470000B8
:100F0000F0B40E4B1B680C46C3F30223C3F1070574
:100F1000042D00D90425191D072901D2002300E062
:100F2000DB1E012606FA05F1491E214099409E402C
:100F3000761E16403143F0BC01F009BA0CED00E01A
:100F4000064900F0070208684FF6FF03184040EA20
:100F50000220034A10430860704700000CED00E0D7
:100F60000000FA05014901200862704700000E42A6
:100F700010B528A401461DCC86B08DE81D0029A01F
:100F8000294C006804900020012923D0022939D07F
:100F900010291DD161682268D20119D5C1F383429D
:100FA000C9031DF8020009D5616804AAC1F34041D4
:100FB000515C1E4AB2FBF1F1484301E01C49484331
:100FC0006168490204D440005FF00301B0FBF1F016
:100FD00006B010BD226AC2F30121012903D1920794
:100FE00001D5C803F4E7022905D1626A920702D548
:100FF00049F64040ECE70329EAD121688903E7D5A7
:101000000C48E5E700F054F96168C1F38131491CEF
:101010004900DBE702030405060708090A0B0C0D6B
:101020000E0F10100102000000100240001BB7005C
:1010300000093D00366E01002DE9F84305460078B1
:10104000354CC00754D0E0690026C00008D4E069E0
:1010500040F08050E061E069012600F0805000908F
:101060002E480168C90512D40168804641F4807198
:101070000160FFF7C5FD074605E000BFFFF7C0FDB3
:10108000C01B642823D8D8F80000C005F6D5206A14
:1010900010F4407021D0A98801F4407181421CD025
:1010A000206A1F49012220F440700A6000220A6071
:1010B0002062C00711D0FFF7A3FD074641F2883830
:1010C00008E000BFFFF79CFDC11B414502D903208A
:1010D000BDE8F883206A8007F4D5206A696820F4A7
:1010E0004070084320621EB1E06920F08050E0614A
:1010F0002878800705D56068A96820F44040084337
:1011000060602878C00605D56068E96820F4800032
:10111000084360600020DBE70010024000700040E0
:10112000400442422DE9F0470F46050061D0434E8E
:10113000306800F00700B84209D2306820F007009C
:1011400038433060306800F00700B84251D1286859
:101150003B4C810712D5400703D5606840F4E0603E
:1011600060602878000703D5606840F460506060D4
:101170006068A96820F0F000084360602878C00724
:1011800028D06868012810D02168022810D089076B
:1011900000292EDA616821F0030101436160FFF745
:1011A0002FFD804641F288390DE021688903EFE781
:1011B0008901EDE7FFF724FDA0EB0801494502D9BD
:1011C0000320BDE8F0876068696800F00C00B0EBB0
:1011D000810FEFD1306800F00700B8420BD93068BA
:1011E00020F0070038433060306800F00700B84254
:1011F00001D00120E5E72878400705D56068E96857
:1012000020F4E060084360602878000706D5606835
:10121000296920F4605040EAC100606000F058F88D
:101220006168084AC1F30311515CC840064908606F
:1012300006480068FFF7F8FD0020C2E700200240E2
:10124000001002409C2E0008100000200800002022
:101250000F2202600C4A536803F003034360536893
:1012600003F0F0038360536803F4E063C3605268E3
:101270004FF4E06303EAD20202610448006800F020
:101280000700086070470000001002400020024084
:101290000448054900684968044AC1F30221515CC9
:1012A000C84070471000002000100240AC2E00081B
:1012B0000448054900684968044AC1F3C221515CE9
:1012C000C84070471000002000100240AC2E0008FB
:1012D00013A185B00FC98DE80F0015A0154A00684D
:1012E0000490516801F00C00042804D0082804D0B0
:1012F000114805B070471148FBE7C1F38343C903A8
:101300001DF8030009D5516804AAC1F34041515C9E
:101310000A4A5043B0FBF1F0EBE709494843E8E7DC
:1013200002030405060708090A0B0C0D0E0F101026
:10133000010200000010024000127A00001BB700FA
:1013400000093D002DE9F84F040070D02078C04D11
:10135000C00749D06868C0F38100012807D06868D9
:10136000C0F38100022809D16868C00306D5286847
:10137000800339D560680028E7D035E06068B0F5B3
:10138000803F0BD010B1B0F5A02F11D0286820F409
:1013900080302860286820F4802002E0286840F42B
:1013A00080302860606890B1FFF72AFC06460AE0AA
:1013B000286840F480202860F0E700BFFFF720FC99
:1013C000801B642873D828688003F7D50CE0FFF7EA
:1013D00017FC064605E000BFFFF712FC801B6428DF
:1013E000F0D828688003F7D420789A4E80074FF011
:1013F00001094FF0000839D5686810F00C0F07D0CC
:101400006868C0F38100022809D16868C00306D467
:101410002868800714D52069012808D110E02069C8
:10142000B0B1C6F80090FFF7EBFB074605E00AE114
:10143000FFF7E6FBC01B0228C4D828688007F7D551
:101440002868616920F0F80040EAC10028600DE0DA
:10145000C6F80080FFF7D4FB074604E0FFF7D0FB97
:10146000C01B022823D828688007F7D420780007FB
:101470002CD57948A169D9B1C0F80090FFF7C0FB1D
:10148000074604E0FFF7BCFBC01B02280FD8686AC0
:101490008007F7D571484FF4FA510068B0FBF1F0BE
:1014A000009000BF0098411E0091FAD20EE080E04B
:1014B000C0F80080FFF7A4FB074604E0FFF7A0FB9D
:1014C000C01B022875D8686A8007F7D420784007C7
:1014D00060D5E8690027C00008D4E86940F0805072
:1014E000E861E869012700F0805000905C480168DD
:1014F000C90513D40168834641F480710160FFF788
:101500007FFB824606E000BFFFF77AFBA0EB0A00F4
:1015100064284ED8DBF80000C005F5D5E068012846
:101520000AD008B1052813D0286A20F001002862EB
:10153000286A20F0040002E0286A40F001002862D6
:10154000E06841F2883B98B1FFF75AFB82460BE016
:10155000286A40F004002862EEE700BFFFF750FB66
:10156000A0EB0A0159455AD8286A8007F6D50CE045
:10157000FFF746FB824605E0FFF742FBA0EB0A01BE
:1015800059454CD8286A8007F6D41FB1E86920F085
:101590008050E861E06988B36968C1F3810102297C
:1015A00044D00228C6F8608004D0FFF729FB044627
:1015B00038E034E0FFF724FB074604E0FFF720FBA8
:1015C000C01B02282BD828688001F7D4206AB0F508
:1015D000803F05D16868A16820F400300843686046
:1015E000D4E908010843696821F47411084368606C
:1015F000C6F86090FFF704FB044606E025E000BF54
:10160000FFF7FEFA001B022809D828688001F7D5E9
:101610001BE000BFFFF7F4FA001B022802D90320E9
:10162000BDE8F88F28688001F4D40EE00128F7D0D7
:101630006868226A00F48031914204D1616A00F442
:101640007010884201D00120EAE70020E8E700009E
:10165000001002400000424280044242100000207C
:10166000007000407047704710B50446006801687C
:10167000C90717D04168C90714D040684007204601
:1016800007D5FFF7F0FF21686FF0040048600420E1
:1016900002E0FFF7E7FF012060742068416821F055
:1016A0000101416010BD000070B5040003D0607CF2
:1016B000002610B105E0012070BD2674204600F020
:1016C00043F802206074204600F01AF9042578BB24
:1016D000204600F08EFC58BB2068416821F00701CD
:1016E0004160A06820B11748016821F00101016044
:1016F0001448001F0168A26821F460711143016061
:101700006068411C04D10120FFF732FC80B1401E0B
:1017100021688A6822F00F0242EA10428A6021683A
:10172000CA6860F30F02CA60204600F07DFC08B171
:101730006574C0E7E67301206073A07360740020D5
:1017400070BD0000306C004008B500680D4988424B
:1017500017D1FFF707FC0C48C16941F00061C16176
:10176000C0690A4900F00060009001200860002272
:1017700005210320FFF7C4FBBDE808400320FFF765
:10178000B1BB08BD00280040001002403C044242AA
:101790002DE9F0410D4604003BD0C5B3207C012863
:1017A0003AD04FF0010884F8108002206074E87885
:1017B00072B300F015FCE073687800F011FC607300
:1017C000A87800F00DFCA073C2B2617BE07B00F052
:1017D00064FC20732870204600F04FFC4FF46161D8
:1017E000B0FBF1F1002518292DD91822B1FBF2F137
:1017F000A1EB011101EB4101C1EB011100EBC1169D
:101800003146204600F088FC0427C8B90BE000E010
:1018100004E00120BDE8F0810220FBE7E073687876
:101820006073A878CFE7204600F020FC411C0AD066
:10183000B04208D206490144204600F059FC10B1DC
:1018400067742574E5E784F8118025740020E1E7CA
:10185000805101002DE9F0410D46040024D01DB354
:10186000207C012823D04FF0010884F8108002204A
:1018700060742878EAB100F0B3FB4FF4616100FBBB
:1018800001F6687800F0ACFBC0EB001006EB8006B8
:10189000A87800F0A5FB35182946204600F03CFC4E
:1018A0000026042710BB0FE00120BDE8F0810220D4
:1018B000FBE74FF4616148436978C1EB011100EB2C
:1018C0008100A9784518E7E72068416821F0050103
:1018D0004160204600F0CAFB411C0AD0A84208D251
:1018E00006490144204600F003FC10B167742674D9
:1018F000DAE784F8118026740020D6E780510100D1
:1019000070B504000AD02068416821F008014160E8
:10191000FFF776F905464FF47A7608E0012070BDAE
:10192000FFF76EF9401BB04201D9032070BD20685B
:1019300040680007F4D5002070BD70B5040009D0E0
:10194000606A002540B125616561A56294F8510087
:1019500040B10CE0012070BD6068B0F5827FF4D02A
:10196000E561F2E784F85050204600F03FF802208D
:1019700084F851002068016821F040010160A088CE
:10198000218900F4827001F404410843A18901F423
:1019900000610843217C01F002010843217D01F030
:1019A00001010843218B01F400710843217F01F0FC
:1019B0003801084394F8201001F080010843218D7C
:1019C00001F40051084321680860A069042101EA7C
:1019D0001040216848602068C16921F40061C1613C
:1019E0006565012084F85100002070BD30B585B0D8
:1019F00000240094019402940394006815498842DD
:101A000025D11548C16941F48041C161C16901F422
:101A100080410491816941F00801816180690F4D25
:101A200000F0080004904FF4304000900220019034
:101A30000320039069462846FEF7E4FF4FF48040F8
:101A4000CDE90004694628460294FEF7DBFF05B0A5
:101A500030BD00000038004000100240000C014082
:101A60007047704710B5040003D094F83D0010B1E2
:101A700007E0012010BD002084F83C00204600F063
:101A80001EF8022084F83D00211D206800F0C6FBEE
:101A9000012084F8460084F83E0084F83F0084F872
:101AA000400084F8410084F8420084F8430084F840
:101AB000440084F8450084F83D00002010BD7047C4
:101AC00090F83D10012901D001207047022180F8D3
:101AD0003D100168CA6842F00102CA6000680B4903
:101AE000884208D0B0F1804F05D00949884202D021
:101AF0000849884204D1816801F00701062903D012
:101B0000016841F00101016000207047002C014094
:101B10000004004000080040704770B504460068AB
:101B200001694FF00005C943890715D4C168C9434D
:101B3000890711D4E91E016101202077206880699E
:101B40008007204602D0FFF7E7FF04E000F098F896
:101B5000204600F096F8257720680169C9434907B7
:101B600017D4C168C943490713D46FF00401016158
:101B7000022020772068806910F4407F204602D040
:101B8000FFF7CAFF04E000F07BF8204600F079F888
:101B9000257720680169C943090716D4C168C9437C
:101BA000090712D46FF00801016104202077206832
:101BB000C0698007204602D0FFF7AEFF04E000F0C6
:101BC0005FF8204600F05DF8257720680169C94379
:101BD000C90617D4C168C943C90613D46FF01001F0
:101BE0000161082020772068C06910F4407F2046FA
:101BF00002D0FFF791FF04E000F042F8204600F029
:101C000040F8257720680169C943C90708D1C16830
:101C1000C943C90704D1891E0161204600F032F88A
:101C200020680169C943090609D4C168C943090686
:101C300005D46FF0800101612046FFF711FF206895
:101C40000169C943490609D4C168C943490605D495
:101C50006FF040010161204600F01EF82068016924
:101C6000C94389060BD4C168C943890607D46FF0FC
:101C7000200101612046BDE87040FFF7F2BE70BD53
:101C80007047704700680349884201D1FFF7B2B836
:101C900070470000002C0140704770B5040004D06C
:101CA00094F83D00002510B106E0012070BD84F8D5
:101CB0003C50204600F022F8242084F83D002068A3
:101CC000C16821F40051C160204600F0DDFA2068AF
:101CD000016921F4904101612068416921F02A01E4
:101CE00041612068C16841F40051C1602564202031
:101CF00084F83D0084F83E00002070BDF0B585B04A
:101D000000240094019402940394244A0168244816
:101D100002260327234D91421DD1816941F4804160
:101D20008161816901F480410491816941F004017C
:101D300081618069694600F0040004905015CDE986
:101D4000000603972846FEF75DFE2815CDE900043E
:101D5000694602941DE0144A91421DD1C16941F4C3
:101D60000031C161C16901F400310491816941F020
:101D7000040181618069694600F004000490092033
:101D800000902846FEF73EFE0620CDE90006694693
:101D900003972846FEF736FE05B0F0BD0038014037
:101DA000001002400008014000440040FEE700002F
:101DB0003EB5002411480094019402940E498460B9
:101DC000016004730475012505614FF460214460CE
:101DD000C161FEF787FB08B172B6FEE70420CDE9CA
:101DE0000005694602940548FEF7FEFA002801D076
:101DF00072B6FEE73EBD00000024014074000020E2
:101E00000C4810B50A490160102141600021816031
:101E1000C16001614161017641768176C1760177C9
:101E20004177FEF718FD002801D072B6FEE710BD1D
:101E300000640040A40000202DE9F04786B0002493
:101E400036480094019402940394816941F0100192
:101E50008161816901F010010491816941F02001E3
:101E60008161816901F020010491816941F00401DF
:101E70008161816901F004010491816941F00801E7
:101E800081618069DFF8988000F008004FF4005508
:101E90000490002229464046FEF7ACFEDFF884A0FD
:101EA0000022E0215046FEF7A5FEDFF87C9040F2CC
:101EB000FF37002239464846FEF79CFE0095022671
:101EC00001250396CDE9015469464046FEF79AFD87
:101ED000E020CDE90005CDE9024669465046FEF70F
:101EE00091FD00970396CDE9015469464846FEF7F7
:101EF00089FD2802CDE90004694650460294FEF7A8
:101F000081FDE80300900948CDE901046946504687
:101F1000FEF778FD06B0BDE8F08700000010024033
:101F20000010014000080140000C014000001110A9
:101F30001CB5002418480194164900940160611EE4
:101F4000C0E90114FFF7B0FB08B172B6FEE78DF8E7
:101F500004408DF805408DF80640012201A90E4885
:101F6000FFF778FC08B172B6FEE705208DF8000097
:101F700006208DF8010017208DF802008DF803402F
:101F8000012269460448FFF703FC002801D072B61D
:101F9000FEE71CBD00280040200100200E4810B5BF
:101FA0000C4901604FF48271416000218160C16081
:101FB0004FF480220161C0E90512C16101624162F2
:101FC00081620A21C162FFF7B8FC002801D072B615
:101FD000FEE710BD0038004034010020FEE7FEE7B8
:101FE000010901EB810100F00F0000EB4100C0B2DC
:101FF000704770B50446FEF703FE05464FF47A7647
:1020000006E0FEF7FDFD401BB04201D9032070BD84
:10201000206840688006F4D52068416841F01001CE
:102020004160002070BD000070B504460068416842
:1020300021F010014160FEF7E3FD05464FF47A768A
:1020400007E000BFFEF7DCFD401BB04201D90320D2
:1020500070BD206840688006F4D5002070BD000087
:102060000148FFF701BB0000200100200168086A59
:10207000496A89B241EA00407047006881698AB2C2
:10208000C1698BB2816989B28A4203D0C06961F3A8
:102090001F40704743EA02407047F0B56424C1EB2B
:1020A000C1030927A500072603EB01130329B3FB8E
:1020B000F7F100F5FA60114401440AD2401EB0FB6A
:1020C000F4F201EB9001B0FBF5F0891A0844001D11
:1020D00008E0B0FBF4F201EB9001B0FBF5F0891AD7
:1020E0000844801CB0FBF6F106FB1100C0B2F0BD45
:1020F00070B50D4606460024FFF77BFF48B93168EE
:10210000280C08623168A8B248623046FFF78CFF9D
:1021100000B10124204670BD70B50D46064600246E
:10212000FFF767FF48B93168280C88613168A8B2A9
:10213000C8613046FFF778FF00B10124204670BD2A
:10214000054D4FF4005421462846FEF74BFD322042
:1021500000F078F9F7E700000010014010B55020BA
:1021600080F31188BFF34F8FBFF36F8F00F0C2FD74
:1021700018B104494FF080500860002080F31188A6
:1021800010BD000004ED00E030B593B02821684692
:10219000FEF798F814210AA8FEF794F8002401210C
:1021A0000F941194052012940090CDE902411094EF
:1021B0004FF48030019002250491CDE907500001D1
:1021C00009906846FFF7BEF808B172B6FEE70F2027
:1021D000CDE90A054FF48060CDE90C4002210AA840
:1021E0000E94FEF79FFF08B172B6FEE703200F9032
:1021F0004FF480701090C00111900FA8FEF71CFFE3
:10220000002801D072B6FEE713B030BD7047000061
:102210000148FFF782BC000068040020F0B50268A6
:10222000164B174C174D4FF08047984205D0B842D7
:1022300003D0A04201D0A84203D122F070064A6820
:102240003243984205D0B84203D0A04201D0A84200
:1022500003D122F44074CA6822434C6922F0800200
:10226000224302608A68C2620A688262984201D18F
:102270000969016301214161F0BD0000002C0140AA
:10228000000400400008004070B504460068016981
:10229000E26821F44051114301612169A0680843BB
:1022A000616908432168CA6841F20C639A4302439A
:1022B000CA6020684169A26921F4407111434161FB
:1022C0001E492068884202D1FEF7F2FF01E0FEF7C6
:1022D000DFFF00EBC00101EB0012606864218000A9
:1022E000B2FBF0F3B3FBF1F36FF018067343B2FBEC
:1022F000F0F5B2FBF0F605EB8305322303EB051591
:10230000B5FBF1F5B6FBF1F605F0F00505EB0615AA
:10231000B2FBF0F6B2FBF0F0B0FBF1F06FF0180298
:10232000504306EB800003EB0010B0FBF1F0216896
:1023300000F00F002844886070BD000000380140A4
:102340000148FEF78AB90000A4000020FEE7090753
:10235000090E002804DB00F1E02080F8001470472B
:1023600000F00F0000F1E02080F8141D704700001D
:1023700088B0FEF747FDFFF707FFFFF75DFDFFF7AA
:1023800017FDFFF73DFD254823490024016024493E
:10239000C0E901144FF48041C0E903414461846104
:1023A000C4610462FEF732FC08B172B6FEE7FFF7C3
:1023B000F5FD1D481B494FF4E1350160C0E90154AA
:1023C0000C26C460C0E90446B101C0E90614FFF759
:1023D00064FC08B172B6FEE7FFF7AAFD1248134984
:1023E00044380160C0E90154C460C0E90446846116
:1023F000C461FFF752FC08B172B6FEE71C220C491B
:102400006846FDF72DFF0021684600F027F80949CE
:10241000086000F01EF8FEE700580040CC000020E5
:10242000A086010000440040D00100200038014097
:10243000802E00080000002001460020842900D0E2
:10244000C81C704710B500B9012000F015FB002032
:1024500010BD10B500F036FB002010BD7FB50D4655
:1024600004464169B0F9080081B1A16971B1FFF773
:10247000E3FFD4E905128DE80700D4E900102B46EC
:10248000226900F00CFC039004B070BDFFF7D4FF8C
:1024900003A9CDE90001208A2B4682B2D4E90010BD
:1024A00000F0D0FB012801D00020EDE70398EBE716
:1024B0002DE9F041184C0F46054666692068001D5D
:1024C00000F016FA38B9206890F82C1001208840E6
:1024D000A1698143A161681C07D137B12168BDE8BA
:1024E000F0410E48091D00F047BA20683544B54256
:1024F0004560216805D2A068BDE8F041091D00F0E3
:1025000023BA6068091D00F01FFA206B854200D2D3
:102510002563BDE8F0810000140000208C05002038
:102520002DE9F041054600F033FA2E4C2069401C9D
:10253000206120682C4F10B1E06940B32DE0256088
:102540002069012829D1002606EB860007EB8000D0
:1025500000F0ECF9761C072EF6D323488C3000F0FF
:10256000E5F92148A03000F0E1F91F48B43000F04F
:10257000DDF91D48C83000F0D9F91B48DC3000F007
:10258000D5F919488C3060601430A06005E02068EF
:10259000E96AC06A884200D82560E06A401CE062AF
:1025A000E96A0120A26988401043A06101EB810023
:1025B00007EB8000291D00F0DFF900F009FAE0695F
:1025C00000280CD02068E96AC06A884207D207490F
:1025D0004FF080500860BFF34F8FBFF36F8FBDE89F
:1025E000F081000014000020B004002004ED00E0A1
:1025F00010B5044690F8510058B101280CD00228BB
:102600000FD0502080F31188BFF34F8FBFF36F8F2F
:10261000FEE7206B00F0F0F92046BDE8104000F026
:10262000EBB910BD10484FF44061420706D0C01D01
:102630000D4920F00700411AC1F540610B4A002303
:102640000144C2E900030839103A21F00701116082
:102650004B600B600B1AC0E9001393604FF0004011
:102660005360D06070470000A0050020600000208B
:10267000144E154CA6F1C8074FF08058DFF84C9067
:1026800012E000BF00F084F9F068C568281D00F072
:102690002FF92069401E2061E068401EE06000F0D4
:1026A00097F92846FFF7A4FFE0680028EAD13868C8
:1026B0000128F9D9C9F80080BFF34F8FBFF36F8F9E
:1026C000F2E70000780500201400002004ED00E08F
:1026D0002DE9F0479A46DDE9098481466FF003034E
:1026E000206B03EB82021044089D20F00706700760
:1026F00007D0502080F31188BFF34F8FBFF36F8F47
:10270000FEE723180A5C83F834200A5C12B1401CEF
:102710001028F6D3002784F84370072D00D3062530
:10272000E562C4E91157201D00F00BF904F118000F
:1027300000F007F92461C5F107006462A061E76455
:1027400084F8507052464946304600F0BFF8206089
:10275000B8F1000F01D0C8F80040BDE8F0870000D4
:1027600030B5114900E011460A688242FBD34B683C
:102770005C18844203D140681844486008464368A6
:102780001C18944209D1084C103C2468A24209D07C
:1027900052681A4442600A6812680260814200D09E
:1027A000086030BD0460F9E7600000200648416819
:1027B000096829B14168C968C968496801637047F7
:1027C0004FF0FF31FAE7000014000020084840688D
:1027D000401C4FF0500080F3118804D0BFF34F8F9E
:1027E000BFF36F8FFEE7BFF34F8FBFF36F8FFEE72F
:1027F000680000202DE9F0410546002700F098F917
:10280000314E306808B9FFF70DFFF06805424BD133
:10281000C5B3083568070ED005F00700C0F1080001
:102820000544680707D0502080F31188BFF34F8F0D
:10283000BFF36F8FFEE72DB37068854234D822480E
:10284000103001460C6801E020460C466168A94240
:1028500002D221680029F7D131688C4224D0076860
:102860002168016060680837411B10290FD9601981
:10287000420708D0502080F31188BFF34F8FBFF379
:102880006F8FFEE710E041606560FFF769FF6168E8
:102890007068401A7060B268904200D2B060F06810
:1028A00001430020C4E9000100F088FA780707D04E
:1028B000502080F31188BFF34F8FBFF36F8FFEE777
:1028C0003846BDE8F08100005000002010B5031F1D
:1028D0004FF080741C601B1F21F001011960191F4B
:1028E000024B0B60143940380A6010BDCD27000838
:1028F000D0E9013201699A60D0E901235A604A683F
:10290000824201D182684A60002202610868401E4A
:102910000860086870470000034B036003F154002F
:1029200008608020106070471402002000F1080148
:102930004FF0FF32C0E90112C16001610021016066
:10294000704700210161704730B50B685A1C02D0F6
:1029500000F1080202E0026904E02246546825689A
:102960009D42FAD953684B6099608A605160086152
:102970000168491C016030BD42684A6093688B6001
:1029800093685960916008610168491C0160704753
:10299000502080F31188BFF34F8FBFF36F8F0A4928
:1029A0004868401C486001280CD10848006810F0B5
:1029B000FF0F07D0502080F31188BFF34F8FBFF374
:1029C0006F8FFEE7704700006800002004ED00E014
:1029D0000849486828B1401E486001D180F3118839
:1029E0007047502080F31188BFF34F8FBFF36F8F74
:1029F000FEE700006800002070B5002827D0144DC5
:102A0000A0F108046168E868014207D1502080F312
:102A10001188BFF34F8FBFF36F8FFEE722683AB183
:102A2000502080F31188BFF34F8FBFF36F8FFEE705
:102A30008143616000F07CF8606869680844686000
:102A40002046FFF78DFEBDE8704000F0B7B970BDBD
:102A5000500000204FF0E020002101618161054914
:102A60004FF47A720968B1FBF2F1491E4161072106
:102A7000016170471000002010B5020014D00F480B
:102A8000806B38B1502080F31188BFF34F8FBFF3B4
:102A90006F8FFEE700F04CF800211046FFF708FDAD
:102AA00000F08CF9002807D105494FF080500860EC
:102AB000BFF34F8FBFF36F8F10BD000014000020D5
:102AC00004ED00E010B586B00024039405AA04A923
:102AD00003A80494FFF720FFDDE903010094CDE98A
:102AE000011000230EA11048059A00F0D8F80F49F4
:102AF0000028486311D0502080F31188BFF34F8F16
:102B0000BFF36F8F4FF0FF3008630120C8614C6145
:102B100006B0BDE8104000F041B806B010BD00009E
:102B200049444C45000000007126000814000020B4
:102B30000248816B491C816370470000140000202B
:102B40001448816B11B1012141627047002141623B
:102B50008169B1FA81F1C1F11F0101EB81020E49D6
:102B600051F822306BB101EB820101F108034A6890
:102B700052684A609A4201D152684A60D168016045
:102B80007047502080F31188BFF34F8FBFF36F8FD2
:102B9000FEE7000014000020B00400201CB5264908
:102BA00008780190FF20087008788DF800009DF8E3
:102BB00000009DF8002000F0F000904207D0502067
:102BC00080F31188BFF34F8FBFF36F8FFEE79DF83F
:102BD00000001A4B00F0500018700720986005E0C4
:102BE0009DF8002052008DF80020401E9DF8002026
:102BF0001206F5D49860032807D0502080F311887E
:102C0000BFF34F8FBFF36F8FFEE74FF440709860B4
:102C1000019808700A48016841F470010160016878
:102C200041F070410160FFF715FF00205860FDF78B
:102C3000BDFA00201CBD000000E400E06800002098
:102C400020ED00E02DE9FF5F8346DDE90E87994620
:102C500016468A469000FFF7CDFD05001CD0542093
:102C6000FFF7C8FD040014D00020256384F851004C
:102C7000CDE90240CDE900874B46324651465846E1
:102C8000FFF726FD2046FFF74BFC012004B0BDE80E
:102C9000F09F2846FFF7B0FE4FF0FF30F6E7F0B5A3
:102CA00085B0DDE90B640A9DA6B1DCB1542700971D
:102CB0002663022684F85160002604AFCDE902465F
:102CC000CDE90057FFF704FD2046FFF729FC0498E3
:102CD00005B0F0BD502080F31188BFF34F8FBFF3D4
:102CE0006F8FFEE7502080F31188BFF34F8FBFF343
:102CF0006F8FFEE72DE9F0412E4C0027A06B40B10D
:102D0000206A401C2062606A00B101273846BDE895
:102D1000F0816669761C666113D16068006838B11D
:102D2000502080F31188BFF34F8FBFF36F8FFEE702
:102D30006068A1686160A060A06A401CA062FFF7A3
:102D400035FD206BDFF87080864209D3606800682B
:102D500080B16068C068C568686886420DD220632B
:102D60002068C06A00EB800158F821000128CAD908
:102D70000127C8E74FF0FF30F1E7281DFFF7B8FD46
:102D8000A86A18B105F11800FFF7B2FDE86A012141
:102D9000A26981401143A16100EB800108EB810031
:102DA000291DFFF7E9FDE86A2168C96A8842CDD389
:102DB0000127CBE714000020B00400202DE9F047E4
:102DC0002C4D00242746A86B38B1FFF7E1FDA86B16
:102DD000401EA863A86B40B146E0502080F31188E4
:102DE000BFF34F8FBFF36F8FFEE72969224E01209B
:102DF000D1B3A6F1B40980463068E8B1F068C46880
:102E000004F11800FFF774FD201DFFF771FDE06A63
:102E1000AA6908FA00F11143A96100EB800109EBEE
:102E20008100211DFFF7A8FDE06A2968C96A884270
:102E3000E2D3C5F82480DFE70CB1FFF7B7FC2C6ABA
:102E400044B14646FFF756FF00B16E62641EF9D1E9
:102E500000202862686A38B10849012738070860ED
:102E6000BFF34F8FBFF36F8FFFF7B2FD3846BDE85A
:102E7000F0870000140000206405002004ED00E04D
:102E8000B42E0008412100080000000000000000EE
:102E900080000000000000000000000000000000B2
:102EA00000000000010203040607080900000000FA
:102EB0000102030464656661756C745461736B0090
:102EC000E02E000800000020740000002801000827
:102ED000542F0008740000208C17000044010008E3
:102EE00000000000010000001000000000000000D1
:102EF0000024F400000000000000000000000000BA
:102F000000000000000000000000000000000000C1
:102F100000000000000000000000000000000000B1
:102F200000000000000000000000000000000000A1
:102F30000000000000000000000000000000000091
:102F4000000000000000000000000000AAAAAAAAD9
:042F5000000000007D
:04000005080000ED02
:00000001FF
