:020000040800F2
:10000000F817002021020008B32900088D200008FD
:10001000B1290008BD0300080D37000800000000EA
:10002000000000000000000000000000890100083E
:10003000E506000800000000CD0100081D3400089E
:100040003B0200083B0200083B0200082530000884
:100050003B0200083B0200083B0200083B0200088C
:100060003B0200083B0200083B0200083B0200087C
:100070003B0200083B0200083B0200083B0200086C
:100080003B0200083B0200083B0200083B0200085C
:10009000013700083B0200083B0200083B02000851
:1000A0003B020008BD3400083B0200083B02000888
:1000B0003B0200083B0200083B0200083B0200082C
:1000C0003B0200083B0200083B0200083B0200081C
:1000D0003B0200083B0200083B0200083B0200080C
:1000E0003B0200083B0200083B02000800F002F857
:1000F00000F03AF80AA090E8000C82448344AAF188
:100100000107DA4501D100F02FF8AFF2090EBAE885
:100110000F0013F0010F18BFFB1A43F0010318473B
:100120001456000034560000103A24BF78C878C135
:10013000FAD8520724BF30C830C144BF04680C60ED
:10014000704700000023002400250026103A28BF35
:1001500078C1FBD8520728BF30C148BF0B60704739
:100160001FB51FBD10B510BD00F0D6F81146FFF742
:10017000F7FF03F0F9FA00F0F4F803B4FFF7F2FF29
:1001800003BC00F0FBF80000224B19680868B0E8D7
:10019000F00F80F30988BFF36F8F4FF0000080F3FA
:1001A00011884EF00D0E70470000000006480068F0
:1001B000006880F3088862B661B6BFF34F8FBFF363
:1001C0006F8F00DF00BF00BF08ED00E0EFF3098094
:1001D000BFF36F8F0F4B1A6820E9F00F106008B55E
:1001E0004FF0500080F31188BFF34F8FBFF36F8F34
:1001F00003F0A6FE4FF0000080F31188BDE8084030
:1002000019680868B0E8F00F80F30988BFF36F8FB2
:10021000704700BF34000020EFF3058070470000F6
:100220000948804709480047FEE7FEE7FEE7FEE78A
:10023000FEE7FEE7FEE7FEE7FEE7FEE704480549C6
:10024000054A064B70470000BB340008ED0000086B
:10025000F8110020F8170020F8130020F8130020F0
:1002600010B5203AC0F00B80B1E81850203AA0E851
:100270001850B1E81850A0E81850BFF4F5AF5FEA85
:10028000027C24BFB1E81850A0E8185044BF18C938
:1002900018C0BDE810405FEA827C24BF51F8043BDF
:1002A00040F8043B08BF7047D20728BF31F8023B33
:1002B00048BF11F8012B28BF20F8023B48BF00F8C7
:1002C000012B70474FF0000200B513469446964646
:1002D000203922BFA0E80C50A0E80C50B1F1200159
:1002E000BFF4F7AF090728BFA0E80C5048BF0CC007
:1002F0005DF804EB890028BF40F8042B08BF704765
:1003000048BF20F8022B11F0804F18BF00F8012BD6
:100310007047704770477047754600F02BF8AE463F
:1003200005006946534620F00700854618B020B501
:10033000FFF784FFBDE820404FF000064FF00007B4
:100340004FF000084FF0000B21F00701AC46ACE87D
:10035000C009ACE8C009ACE8C009ACE8C0098D46EA
:10036000704710B50446AFF300802046BDE810404A
:10037000FFF703BF0048704798110020014918207B
:10038000ABBEFEE72600020070470000064D4FF4AA
:1003900000544FF47A762146284600F08AFE304613
:1003A00003F050FAF7E700000010014001228A40F4
:1003B000024201D00120704700207047FEE7000094
:1003C000AA25094C5526084B084925701B1F667045
:1003D0001A1DA1F58E7000F0F9F908B100F09CF932
:1003E0000A2003F02FFAEEE714000020D8010020C5
:1003F0000349097A09B100F04DB800F003B80000D4
:10040000940000202DE9F04FDFF88490064600208C
:10041000024699F80BA099F80CB099F80E4099F89B
:10042000053099F8035099F80770D9F820E029E0D1
:10043000521C0A2926D015B104FB030021E05145C6
:1004400001D3594502D989F80D4016E0A1EB0A08FD
:1004500008EB0E0C9CF8078089F80D80A1F1D408F8
:10046000B8F1060F06D9A1F1E708B8F1050F01D9D7
:10047000D12902D1002189F80D1099F80D1001FB46
:1004800003003844B15C0029D2D1BDE8F08F0000F0
:10049000940000202DE9F84F90490446002091F87F
:1004A00007E0034691F80B904D7991F80CA08E7BF4
:1004B000CF78D1F820B009E15B1C0A2A02D017B12D
:1004C00006FB050002E14A4501D3524501D94E73AE
:1004D000FCE0382A36D00CDCA2F12C0CBCF10C0F5D
:1004E0003AD2DFE80CF0363938392F2F2F2F2F2F43
:1004F0002F2F8D2A14D008DC392A23D03B2A26D06E
:100500003F2A22D0812A27D108E08E2A0AD0902AB9
:100510000AD0982A0AD0E12A1ED109E0EA221BE07B
:10052000EB2219E0EE2217E0EF2215E0DF2213E0C4
:10053000E25C5B1C8A72C72A02D0E1225B1E0BE0E0
:10054000FB2209E0203AD2B206E0BF2204E01F22DB
:1005500002E01D2200E01C2214F803C081F80AC04A
:10056000CDF800C0BCF1370F4DD00CDCACF12C0C39
:10057000BCF10B0F2CD2DFE80CF0512B542B46466C
:10058000464646464600BCF1810F1AD00CDCBCF151
:10059000380F38D0BCF1390F35D0BCF13B0F3AD011
:1005A000BCF13F0F14D133E0BCF18D0F0CD0BCF186
:1005B0008E0F1FD0BCF1900F1FD0BCF1980F07D148
:1005C0001EE04FF0EA0C01E04FF0EB0C81F80AC09E
:1005D000C02A6DD991F809C0BCF1C00F24D90CEB29
:1005E0004C08DFF8FCC00CEB480CACF5805C9CF8C8
:1005F0007FCB1BE04FF0EE0CE8E74FF0EF0CE5E7A8
:100600004FF0DF0CE2E7DDF800C0ACF1200CDDE7D5
:100610004FF0BF0CDAE74FF01F0CD7E74FF01D0C7F
:10062000D4E74FF01C0CD1E74FF0000CCDF800C020
:1006300091F80AC0BCF1C00F0AD90CEB4C08DFF8E6
:10064000A0C00CEB480CACF5805C9CF87ECB01E0C4
:100650004FF0000CDDF800804CEA480C0CF0FF0C69
:10066000CDF800C0BCF1010F02D94FF0000C00E042
:10067000F44681F807C0DFF868C002EB42080CEBD3
:100680004808DDF800C0C444ACF5805C9CF87ACB27
:10069000ACEB090808EB0B0C9CF807C081F80DC007
:1006A0000CFB050091F807C081F807E060440CE0FE
:1006B000A2EB090808EB0B0C9CF807C081F80DC0F1
:1006C0000CFB05000EF0FF0C60444A72E25C002A4D
:1006D0007FF4F2AEFF224A72BDE8F88F940000204A
:1006E000905500087047000070B50122094D540371
:1006F0002146284600F0E5FC012002F037F80022F0
:100700002146284600F0DDFCBDE87040012002F0E3
:100710002DB80000000C0140054D4FF40054214657
:10072000284600F0C6FC192003F08CF8F7E700001B
:10073000001001401CB5002001F048FE00243F23BA
:100740007F2221462046009401F0AEFD00220223C4
:1007500011460F4801F032FD4FF4FA6003F072F8D1
:1007600000213F237F220846009401F09DFD0020D8
:1007700002F046FE074802F003F80D2106A0CDE97D
:10078000000128237F221421002002F0D3FEFEE77F
:100790000451000880420008454C454354524F4ED6
:1007A0002044524956454E0090F82020012A07D097
:1007B000022A05D0416A41F480214162012070473C
:1007C000006842690A43426100207047F0B590F822
:1007D00020500468A468012D05D0022D03D0416A81
:1007E00041F480215DE014F0406F01D1E50055D562
:1007F000C4F30164022C03D9416A41F4000150E0C2
:100800000125A5401D608D684FF4C0739DB1CE6871
:1008100035434E6845EAC605066803EB0417F551F3
:100820004FF4C275076805EB04150E697E51097D0A
:10083000012905D009E00E88CD6845EA4655EBE769
:1008400001684E5946F480764E511179D579567922
:1008500041EA056195792D0445EA062529434FF4BF
:10086000C676056806EB0416A9511178D57841EAD9
:100870000561957852782D0445EA022211434FF420
:10088000C475026805EB04155151006803EB0411AF
:10089000425842F0010242500020F0BD416A41F44A
:1008A000001141620120F0BD10B590F820300268BF
:1008B000012B07D0022B05D0416A41F4802141620F
:1008C000012010BDD2F8000240F00100C2F8000281
:1008D000087D00F01F0301209840D2F81C328343AA
:1008E000C2F81C32CB69B3B9D2F80C328343C2F8D8
:1008F0000C328C894B6864F31F434C6902EBC404CF
:10090000C4F840320C890B6864F31F434C6902EB56
:10091000C404C4F84432CB69012B16D1D2F80C328E
:100920000343C2F80C320C884B6864F31F434C69D4
:1009300002EBC404C4F840320C89CB6864F31F4353
:100940004C6902EBC404C4F844328B69002BD2F822
:1009500004320FD053EA0003C2F804320B69002BB3
:10096000D2F8143208D00343C2F81432096A0129BC
:1009700004D008E08343EFE78343F5E7D2F81C1285
:100980000143C2F81C12D2F8000220F00100C2F8A4
:100990000002002010BD704730B590F82040012CB7
:1009A00005D0022C03D0416A41F480215DE0046847
:1009B000002955D02469A40754D04FF4D874056891
:1009C00004EB01142D5915F00405956005682D59A7
:1009D0004ED0ED08556005682C5904F00204D4602F
:1009E0004FF4DA74056804EB01142D5905F00F0576
:1009F000156105682D59C5F30725956105682C59C2
:100A0000240C54614FF4DC72046802EB0112A45808
:100A10001C700468A458240A5C700468A458240C50
:100A20009C700468A258120EDA704FF4DE720468EB
:100A300002EB0112A4581C710468A458240A5C71CA
:100A40000468A458240C9C710468A258120EDA7130
:100A5000006881B1016941F020010161002030BDD1
:100A6000E468A8E7416A41F400114162012030BD09
:100A70006D0D1560AFE7C16841F02001C160EDE781
:100A80002DE9F05F0546006800244669D0F804901F
:100A90008768D0F80CB0D0F810A0D0F81880F10713
:100AA00048D0F90714D001218160B80703D5284642
:100AB00000F003FA0CE0780702D54FF4006407E079
:100AC000380702D54FF4805402E0284600F0F4F9CC
:100AD000F80516D529684FF480708860B80503D5ED
:100AE000284600F0ECF90CE0780502D544F40054F7
:100AF00007E0380502D544F4804402E0284600F0BF
:100B0000DDF9F80316D529684FF480308860B80302
:100B100003D5284600F0D5F90CE0780302D544F45B
:100B2000004407E0380302D544F4803402E028464C
:100B300000F0C6F9300707D55FEACB6004D5296815
:100B4000102044F40074C86070074FF0080707D500
:100B50005FEA0B7004D52868C760284600F05AF990
:100B6000B00706D52868C068800702D0284600F084
:100B700053F9700607D55FEACA6004D529681020CA
:100B800044F480640861B00607D55FEA0A7004D5B2
:100B900028680761284600F05FF9F00606D5286846
:100BA0000069800702D0284600F057F9B00308D545
:100BB0005FEAC96005D5296810204860284600F022
:100BC0004DF9F00307D55FEA097004D5286847603E
:100BD000284600F077F9300446D55FEA497040D5E1
:100BE000F00504D55FEAC87001D044F00104B005F7
:100BF00004D55FEA887001D544F00204700504D57D
:100C00005FEA487001D544F00404300529D518F096
:100C1000700F26D008F07000402815D006DC102890
:100C200009D020280AD0302816D10AE050280ED04A
:100C3000602811D10EE044F008040DE044F01004E7
:100C40000AE044F0200407E044F0400404E044F0EB
:100C5000800401E044F480742868816921F0700107
:100C60008161296804204860002C05D0686A20430F
:100C700068622846FFF78FFEBDE8F09F70B504005C
:100C800003D094F8200010B104E0012070BD20468C
:100C900000F082F82068016841F00101016000F075
:100CA00015FA0546052604E000F010FA401B0A2854
:100CB00011D820684068C007F6D02068016821F08C
:100CC0000201016000F002FA05460BE000F0FEF9B7
:100CD000401B0A2806D9606A40F40030606284F83C
:100CE0002060D2E7206840688007EFD4207E01288A
:100CF000206801683DD021F080010160607E0128FC
:100D00002068016838D021F040010160A07E0128F0
:100D10002068016833D021F020010160E07E0128C5
:100D2000206801682ED041F010010160207F012869
:100D30002068016829D021F008010160607F012846
:100D40002068016824D021F004010160D4E9020187
:100D50000843D4E90412114308436168491E08435B
:100D60002168C86100206062012084F82000002012
:100D700070BD41F08001C0E741F04001C5E741F09E
:100D80002001CAE721F01001CFE741F00801D4E7C4
:100D900041F00401D9E7000010B586B000210091B0
:100DA0000191029103910068174988422AD117489E
:100DB000C16941F00071C161C16901F00071049124
:100DC000816941F0040181618069114C00F00400E7
:100DD00004904FF4006000906946204600F074F8DB
:100DE000A014009002200190032003906946204641
:100DF00000F06AF800220521142000F0F3F9142015
:100E000000F0E2F906B010BD00640040001002409E
:100E1000000801407047000010B50D4B0D4A00213D
:100E2000FFF7BAFD08B1FFF777FC0A480168A1F5A2
:100E30008072033A0AD18168002907D1006902282B
:100E400004D1034802491C390078087010BD000025
:100E50001C000020F0010020704770477047000020
:100E600070B5044690F82000012804D0606A40F470
:100E70000020606218E0022084F8200020680168E9
:100E800021F00101016000F021F905460EE000BFEC
:100E900000F01CF9401B0A2808D9606A40F40030B1
:100EA0006062052084F82000012070BD2068406841
:100EB000C007EDD1606270BD7047704770477047E2
:100EC00070477047704700002DE9F84FDFF8B89180
:100ED000002409F1040A0AF1040B23460F270BF141
:100EE000040EC9E00125A5402A40AA427DD1674EE3
:100EF000D1F804C0ACEB0608B44532D014DCBCF128
:100F0000030F3AD009DCBCF1000F2AD0BCF1010F6D
:100F10001CD0BCF1020F31D11DE0BCF1110F17D074
:100F2000BCF1120F2AD119E0B8F5881F19D006DCE0
:100F3000B8F5803F15D0B8F5801F1FD111E0B8F586
:100F4000001F0ED0B8F5041F18D10AE0CB6815E0D9
:100F5000CB681B1D12E0CB6808330FE0CB680C3365
:100F60000CE08B682BB1012B4FF0080303D04561D7
:100F700004E0042302E0056100E00023FF2A01D819
:100F8000064601E000F104064FEA840501D9A5F107
:100F90002005D6F8008007FA05FC28EA0C0803FAB9
:100FA00005F548EA0508C6F800804D68ED0062D5F1
:100FB000374DAE6946F00106AE61AD6924F0030617
:100FC00005F001050095334D06EB050CDCF80850E3
:100FD000A607360F07FA06F825EA0805DFF8B880F5
:100FE000404503D14FF0000817E044E0DFF8AC8043
:100FF000404502D14FF001080FE0DFF8A4804045E2
:1010000002D14FF0020808E0DFF89880404502D195
:101010004FF0030801E04FF0040808FA06F848EA28
:101020000508CCF808804D68D9F80060ED034D46FE
:1010300001D5164300E096432E604D68DAF8006053
:10104000AD03554601D5164300E096432E604D682A
:10105000DBF80060ED025D4601D5164300E09643E3
:101060002E604D68DEF80060AD02754601D516436E
:1010700000E096432E60641C0D682A46E5407FF42C
:1010800031AFBDE8F88F00000004014000001110EE
:10109000001002400000014000080140000C014027
:1010A00000100140001401408068084000D0012079
:1010B0007047C26821EA02030A4043EA0241016123
:1010C00070470AB1016170470904FBE70148806875
:1010D0007047000024000020024881680278114413
:1010E0008160704724000020074810B5016841F076
:1010F00010010160032000F095F80F2000F006F8C1
:1011000000F03EF8002010BD0020024000B501466E
:1011100087B00022192000F065F8192000F054F87B
:101120001348816941F400618161806905A900F477
:1011300000600690684600F0FDF900F02BFA0D49BA
:101140000D4AB0FBF1F10D48491E0260416040F2CA
:10115000E7320021C0E90321816000F0F3FD10B106
:10116000012007B000BD054800F01AFEF9E70000B5
:101170000010024040420F00002C0140600400209B
:101180000F4808B5816941F001018161816901F071
:1011900001010091C16941F08051C161C069002223
:1011A00000F0805000900F21901E00F01BF80548C1
:1011B000416821F0E06141F00071416008BD00002C
:1011C0000010024000000140002809DB00F01F026F
:1011D000012191404009800000F1E020C0F8001199
:1011E00070470000F0B40E4B1B680C46C3F302239B
:1011F000C3F10705042D00D90425191D072901D2C3
:10120000002300E0DB1E012606FA05F1491E2140FD
:1012100099409E40761E16403143F0BC02F08ABAD7
:101220000CED00E0064900F0070208684FF6FF03E6
:10123000184040EA0220034A10430860704700004B
:101240000CED00E00000FA0501490120086270473A
:1012500000000E4210B528A401461DCC86B08DE8D2
:101260001D0029A0294C006804900020012923D0EA
:10127000022939D010291DD161682268D20119D5FF
:10128000C1F38342C9031DF8020009D5616804AAAD
:10129000C1F34041515C1E4AB2FBF1F1484301E009
:1012A0001C4948436168490204D440005FF00301CF
:1012B000B0FBF1F006B010BD226AC2F30121012992
:1012C00003D1920701D5C803F4E7022905D1626A68
:1012D000920702D549F64040ECE70329EAD121689C
:1012E0008903E7D50C48E5E700F054F96168C1F3DC
:1012F0008131491C4900DBE70203040506070809A0
:101300000A0B0C0D0E0F101001020000001002401D
:10131000001BB70000093D00366E01002DE9F843BF
:1013200005460078354CC00754D0E0690026C0005F
:1013300008D4E06940F08050E061E069012600F0E7
:10134000805000902E480168C90512D4016880467B
:1013500041F480710160FFF7B9FE074605E000BF68
:10136000FFF7B4FEC01B642823D8D8F80000C005DE
:10137000F6D5206A10F4407021D0A98801F440719C
:1013800081421CD0206A1F49012220F440700A606B
:1013900000220A602062C00711D0FFF797FE0746BF
:1013A00041F2883808E000BFFFF790FEC11B4145BD
:1013B00002D90320BDE8F883206A8007F4D5206AAB
:1013C000696820F44070084320621EB1E06920F093
:1013D0008050E0612878800705D56068A96820F40E
:1013E0004040084360602878C00605D56068E96819
:1013F00020F48000084360600020DBE7001002401A
:1014000000700040400442422DE9F0470F460500BD
:1014100061D0434E306800F00700B84209D230680E
:1014200020F0070038433060306800F00700B84211
:1014300051D128683B4C810712D5400703D560681D
:1014400040F4E06060602878000703D5606840F4ED
:10145000605060606068A96820F0F0000843606038
:101460002878C00728D06868012810D02168022891
:1014700010D0890700292EDA616821F003010143A9
:101480006160FFF723FE804641F288390DE0216854
:101490008903EFE78901EDE7FFF718FEA0EB0801EC
:1014A000494502D90320BDE8F0876068696800F00B
:1014B0000C00B0EB810FEFD1306800F00700B842AC
:1014C0000BD9306820F0070038433060306800F0F6
:1014D0000700B84201D00120E5E72878400705D58C
:1014E0006068E96820F4E0600843606028780007DD
:1014F00006D56068296920F4605040EAC100606048
:1015000000F058F86168084AC1F30311515CC84003
:101510000649086006480068FFF7F8FD0020C2E7AA
:1015200000200240001002407855000830000020E2
:10153000280000200F2202600C4A536803F00303C6
:101540004360536803F0F0038360536803F4E0637F
:10155000C36052684FF4E06303EAD20202610448B8
:10156000006800F0070008607047000000100240AB
:10157000002002400448054900684968044AC1F354
:101580000221515CC840704730000020001002402A
:10159000885500080448054900684968044AC1F3B1
:1015A000C221515CC840704730000020001002404A
:1015B0008855000813A185B00FC98DE80F0015A04C
:1015C000154A00680490516801F00C00042804D00A
:1015D000082804D0114805B070471148FBE7C1F353
:1015E0008343C9031DF8030009D5516804AAC1F358
:1015F0004041515C0A4A5043B0FBF1F0EBE7094926
:101600004843E8E702030405060708090A0B0C0D26
:101610000E0F1010010200000010024000127A00AC
:10162000001BB70000093D002DE9F84F040070D001
:101630002078C04DC00749D06868C0F381000128F8
:1016400007D06868C0F38100022809D16868C00328
:1016500006D52868800339D560680028E7D035E0D2
:101660006068B0F5803F0BD010B1B0F5A02F11D05D
:10167000286820F480302860286820F4802002E068
:10168000286840F480302860606890B1FFF71EFD44
:1016900006460AE0286840F480202860F0E700BF92
:1016A000FFF714FD801B642873D828688003F7D5E2
:1016B0000CE0FFF70BFD064605E000BFFFF706FD57
:1016C000801B6428F0D828688003F7D420789A4ECD
:1016D00080074FF001094FF0000839D5686810F015
:1016E0000C0F07D06868C0F38100022809D1686830
:1016F000C00306D42868800714D52069012808D1C2
:1017000010E02069B0B1C6F80090FFF7DFFC074693
:1017100005E00AE1FFF7DAFCC01B0228C4D82868FC
:101720008007F7D52868616920F0F80040EAC10019
:1017300028600DE0C6F80080FFF7C8FC074604E00B
:10174000FFF7C4FCC01B022823D828688007F7D401
:10175000207800072CD57948A169D9B1C0F800904C
:10176000FFF7B4FC074604E0FFF7B0FCC01B0228FB
:101770000FD8686A8007F7D571484FF4FA510068AE
:10178000B0FBF1F0009000BF0098411E0091FAD22A
:101790000EE080E0C0F80080FFF798FC074604E008
:1017A000FFF794FCC01B022875D8686A8007F7D43D
:1017B0002078400760D5E8690027C00008D4E869B0
:1017C00040F08050E861E869012700F08050009007
:1017D0005C480168C90513D40168834641F48071EF
:1017E0000160FFF773FC824606E000BFFFF76EFC66
:1017F000A0EB0A0064284ED8DBF80000C005F5D540
:10180000E06801280AD008B1052813D0286A20F022
:1018100001002862286A20F0040002E0286A40F0F3
:1018200001002862E06841F2883B98B1FFF74EFC66
:1018300082460BE0286A40F004002862EEE700BF11
:10184000FFF744FCA0EB0A0159455AD8286A8007E3
:10185000F6D50CE0FFF73AFC824605E0FFF736FCD0
:10186000A0EB0A0159454CD8286A8007F6D41FB16D
:10187000E86920F08050E861E06988B36968C1F3E5
:101880008101022944D00228C6F8608004D0FFF705
:101890001DFC044638E034E0FFF718FC074604E07E
:1018A000FFF714FCC01B02282BD828688001F7D44E
:1018B000206AB0F5803F05D16868A16820F4003047
:1018C00008436860D4E908010843696821F4741189
:1018D00008436860C6F86090FFF7F8FB044606E02E
:1018E00025E000BFFFF7F2FB001B022809D828689B
:1018F0008001F7D51BE000BFFFF7E8FB001B0228C3
:1019000002D90320BDE8F88F28688001F4D40EE0E6
:101910000128F7D06868226A00F48031914204D12E
:10192000616A00F47010884201D00120EAE70020CB
:10193000E8E70000001002400000424280044242FA
:1019400030000020007000407047704710B504461A
:1019500000680168C90717D04168C90714D04068FA
:101960004007204607D5FFF7F0FF21686FF004001D
:101970004860042002E0FFF7E7FF01206074206860
:10198000416821F00101416010BD000070B5040004
:1019900003D0607C002610B105E0012070BD2674E4
:1019A000204600F043F802206074204600F01AF947
:1019B000042578BB204601F0FEFA58BB2068416838
:1019C00021F007014160A06820B11748016821F0AB
:1019D000010101601448001F0168A26821F46071D0
:1019E000114301606068411C04D10120FFF732FC03
:1019F00080B1401E21688A6822F00F0242EA10423C
:101A00008A602168CA6860F30F02CA60204601F04C
:101A1000EDFA08B16574C0E7E67301206073A07346
:101A20006074002070BD0000306C004008B5006894
:101A30000D49884217D1FFF707FC0C48C16941F0F6
:101A40000061C161C0690A4900F000600090012096
:101A50000860002205210320FFF7C4FBBDE8084011
:101A60000320FFF7B1BB08BD002800400010024072
:101A70003C0442422DE9F0410D4604003BD0C5B381
:101A8000207C01283AD04FF0010884F81080022011
:101A90006074E87872B301F085FAE073687801F059
:101AA00081FA6073A87801F07DFAA073C2B2617BFD
:101AB000E07B01F0D4FA20732870204601F0BFFAD1
:101AC0004FF46161B0FBF1F1002518292DD91822DE
:101AD000B1FBF2F1A1EB011101EB4101C1EB0111ED
:101AE00000EBC1163146204601F0F8FA0427C8B9C8
:101AF0000BE000E004E00120BDE8F0810220FBE7FC
:101B0000E07368786073A878CFE7204601F090FA18
:101B1000411C0AD0B04208D206490144204601F0D7
:101B2000C9FA10B167742574E5E784F8118025744B
:101B30000020E1E7805101002DE9F0410D4604004D
:101B400024D01DB3207C012823D04FF0010884F855
:101B50001080022060742878EAB101F023FA4FF473
:101B6000616100FB01F6687801F01CFAC0EB00101F
:101B700006EB8006A87801F015FA351829462046AC
:101B800001F0ACFA0026042710BB0FE00120BDE8ED
:101B9000F0810220FBE74FF4616148436978C1EBB3
:101BA000011100EB8100A9784518E7E7206841683A
:101BB00021F005014160204601F03AFA411C0AD0AB
:101BC000A84208D206490144204601F073FA10B138
:101BD00067742674DAE784F8118026740020D6E74B
:101BE0008051010070B504000AD02068416821F0DE
:101BF00008014160FFF76AFA05464FF47A7608E07B
:101C0000012070BDFFF762FA401BB04201D90320EA
:101C100070BD206840680007F4D5002070BD70B525
:101C2000040009D0606A002540B125616561A562A4
:101C300094F8510040B10CE0012070BD6068B0F52F
:101C4000827FF4D0E561F2E784F85050204600F03E
:101C50003FF8022084F851002068016821F040011B
:101C60000160A088218900F4827001F404410843D6
:101C7000A18901F400610843217C01F002010843BD
:101C8000217D01F001010843218B01F4007108431B
:101C9000217F01F03801084394F8201001F0800101
:101CA0000843218D01F40051084321680860A069B0
:101CB000042101EA1040216848602068C16921F4CC
:101CC0000061C1616565012084F85100002070BD8C
:101CD00030B585B000240094019402940394006808
:101CE0001449884223D11448816941F480518161AB
:101CF000816901F480510491816941F0040181619D
:101D000080690E4D00F004000490B0200090022085
:101D100001900320039069462846FFF7D5F840203C
:101D2000CDE90004694628460294FFF7CDF805B0D6
:101D300030BD0000003001400010024000080140AA
:101D40007047704710B5040003D094F83D0010B1FF
:101D500007E0012010BD002084F83C00204600F080
:101D60001EF8022084F83D00211D206801F0ACFB24
:101D7000012084F8460084F83E0084F83F0084F88F
:101D8000400084F8410084F8420084F8430084F85D
:101D9000440084F8450084F83D00002010BD7047E1
:101DA00090F83D10012901D001207047022180F8F0
:101DB0003D100168CA6842F00102CA6000680B4920
:101DC000884208D0B0F1804F05D00949884202D03E
:101DD0000849884204D1816801F00701062903D02F
:101DE000016841F00101016000207047002C0140B2
:101DF0000004004000080040704770B504460068C9
:101E000001694FF00005C943890715D4C168C9436A
:101E1000890711D4E91E01610120207720688069BB
:101E20008007204602D0FFF7E7FF04E000F098F8B3
:101E3000204600F096F8257720680169C9434907D4
:101E400017D4C168C943490713D46FF00401016175
:101E5000022020772068806910F4407F204602D05D
:101E6000FFF7CAFF04E000F07BF8204600F079F8A5
:101E7000257720680169C943090716D4C168C94399
:101E8000090712D46FF0080101610420207720684F
:101E9000C0698007204602D0FFF7AEFF04E000F0E3
:101EA0005FF8204600F05DF8257720680169C94396
:101EB000C90617D4C168C943C90613D46FF010010D
:101EC0000161082020772068C06910F4407F204617
:101ED00002D0FFF791FF04E000F042F8204600F046
:101EE00040F8257720680169C943C90708D1C1684E
:101EF000C943C90704D1891E0161204600F032F8A8
:101F000020680169C943090609D4C168C9430906A3
:101F100005D46FF0800101612046FFF711FF2068B2
:101F20000169C943490609D4C168C943490605D4B2
:101F30006FF040010161204600F01EF82068016941
:101F4000C94389060BD4C168C943890607D46FF019
:101F5000200101612046BDE87040FFF7F2BE70BD70
:101F60007047704700680349884201D1FFF7B4B851
:101F700070470000002C0140704770B5040004D089
:101F800094F83D00002510B106E0012070BD84F8F2
:101F90003C50204600F022F8242084F83D002068C0
:101FA000C16821F40051C160204601F04DFB20685A
:101FB000016921F4904101612068416921F02A0101
:101FC00041612068C16841F40051C160256420204E
:101FD00084F83D0084F83E00002070BDF0B585B067
:101FE00000240094019402940394244A0168244834
:101FF00002260327234D91421DD1816941F480417E
:102000008161816901F480410491816941F0040199
:1020100081618069694600F0040004905015CDE9A3
:10202000000603972846FEF74FFF2815CDE9000468
:10203000694602941DE0144A91421DD1C16941F4E0
:102040000031C161C16901F400310491816941F03D
:10205000040181618069694600F004000490092050
:1020600000902846FEF730FF0620CDE900066946BD
:1020700003972846FEF728FF05B0F0BD0038014061
:10208000001002400008014000440040FEE700004C
:102090001FB5FF2000900020019002906946024881
:1020A000FEF712FF1FBD0000000C014070B5054691
:1020B0000024E006010E002000F05EF929462046CB
:1020C00000F005F8641CE4B2082CF2D370BD70B5C2
:1020D00000240E46C500E9B2204600F04DF9304616
:1020E00000F094FA641CE4B2802CF4D370BD0000BC
:1020F0002DE9F0412F4E3178402902D24FF00004F3
:1021000009E04FF0010406D128B14FF001014FF072
:10211000400000F049FA284D0022FF212846FEF732
:10212000D0FFFFF7B5FF6F154FF48078C4B34CB103
:10213000002241462846FEF7C4FF012239462846C0
:10214000FEF7BFFF4FF40048012241462846FEF744
:10215000B8FF0122570339462846FEF7B2FF012097
:1021600000F004FB00F0CEFF04460022394628466A
:10217000FEF7A7FF012000F0F9FA002241462846A9
:10218000FEF79FFF00F016FC7178307800F0F4F84D
:102190000848401E007800B1E443E0B2BDE8F08199
:1021A000FFE7002239462846FEF78BFF0122414611
:1021B000C5E70000B9000020000C01402DE9FF4FE9
:1021C00083B081460078029099F80180049999F8CB
:1021D0000200454629448246802903D90499C1F169
:1021E0008001CDB205990144402903D90598C0F179
:1021F0004000C0B2410703D0012101EBD00000E054
:10220000C008834600200190069802280BD00020C9
:102210000090AAF10100C3B2A8F10100C2B2DDE949
:10222000040100F041F8002429E0059800EBC40007
:10223000C1B2382904D90598382100F0070001906F
:10224000049800F099F80299002604FB081712E0A0
:1022500019F80700009001987F1C38B100F084F94C
:10226000DDE900218A401043C0B200E0009800F090
:10227000CDF9761CF6B2AE42EAD3641CE4B25C45FA
:10228000D3D3069800280CD1AAF10100C3B2A8F15B
:102290000100C2B2DDE9040107B0BDE8F04F00F073
:1022A000FBB807B0BDE8F08F2DE9F05F174601F0ED
:1022B000070283465B1C891ADDB2FF20C2F10804C5
:1022C000DDF828A001F0FF08AC4203DDC5F10801EC
:1022D000C8402C46904000F0FF094146584600F0A7
:1022E0004BF800260CE000BF00F03EF9BAF1FF0FFA
:1022F00009D020EA090000BF00F088F9761CF6B288
:10230000BE42F1D914E040EA0900F5E7C4B208F191
:102310000800C0B280460146584600F02DF800265D
:1023200004E0504600F072F9761CF6B2BE42F8D9CD
:1023300004F10800A842E9D9AC4219D2291BFF20B8
:102340008840C043C5B208F10800C1B2584600F049
:1023500013F800240AE000BF00F006F9BAF1FF0FFD
:1023600008D0A84300F052F9641CE4B2BC42F3D98F
:10237000BDE8F09F2843F5E72DE9F04106467F28A8
:102380001FD83F291DD8104C26706170A078B0EB83
:10239000D10F0CD0C808A07040F0B807002529461E
:1023A000384600F001F96D1CEDB2022DF7D320780C
:1023B000810906F03F00BDE8F04140F0400000F028
:1023C000F3B8BDE8F0810000B900002038B505463B
:1023D00000F036F8012291031748FEF772FE022042
:1023E00000F0C4F91548002421460470447084703C
:1023F000401E05703F2000F0D7F801213F2000F07B
:10240000D3F80021C02000F0CFF80121C02000F057
:10241000CBF80DB1FF2000E00020FFF747FE0021C0
:102420000846FFF7A9FF00213F237F2208460094BA
:10243000FFF73AFF38BD0000000C0140B900002052
:1024400010B5144C00224FF480412046FEF739FEAF
:102450000022FF212046FEF734FE0022A11520466F
:10246000FEF72FFE002261152046FEF72AFE00220D
:10247000A1142046FEF725FE00224FF4004120461D
:10248000FEF71FFE002261142046BDE81040FEF753
:1024900018BE0000000C01402DE9F047174601F07E
:1024A000070282465B1C891ADDB2FF20C2F10804D4
:1024B00001F0FF08AC4203DDC5F10801C8402C461D
:1024C000904000F0FF0941465046FFF755FF0026B7
:1024D0000EE000BF00F048F80146C843C0B200EA71
:1024E000090021EA0901084300F090F8761CF6B2D1
:1024F000BE42EFD914E0C4B208F10800C0B2804671
:1025000001465046FFF738FF002607E000F02CF8A0
:10251000C043C0B200F07AF8761CF6B2BE42F5D9DC
:1025200004F10800A842E6D9AC421BD2291BFF20C7
:102530008840C043C5B208F10800C1B25046FFF759
:102540001BFF00240CE000BF00F00EF80146C8435A
:10255000C0B22840A943084300F058F8641CE4B214
:10256000BC42F1D9BDE8F08710B50120FFF7C0FDEE
:10257000BDE810400020FFF7BBBD70B501F00704B7
:10258000091B1546C9B2FFF7F7FEFFF7EDFF012162
:10259000A140FF2D04D08843BDE8704000F036B85C
:1025A0000143C8B2F8E700002DE9F0414FF400758F
:1025B000154C07466E1011B1012908D011E0002218
:1025C00029462046FEF77DFD0122314606E0002225
:1025D00031462046FEF775FD012229462046FEF7CA
:1025E00070FD4FF48055002229462046FEF769FD14
:1025F000384601F08DF8FEF777F829462046BDE809
:10260000F0410122FEF75DBD000C01402DE9F05FB5
:10261000544E04463078802867D2402802D24FF0CA
:10262000000508E04FF0010505D14FF001014FF022
:102630004000FFF7B9FFB1467078DFF828A14A4E95
:1026400010F00707AAF1010A4FF4007B63D0FFF7EF
:102650008BFF04FA07F101439AF8000001F0FF082C
:1026600018B16FEA080000F0FF08EDB355B1002281
:102670004FF480713046FEF724FD01225946304662
:10268000FEF71FFD404601F043F8FEF72DF899F8DC
:10269000011099F800000831C9B2FFF76DFEFFF78D
:1026A00063FFC7F10801CC4004439AF8000008B169
:1026B000E043C4B23DB355B100224FF480713046BF
:1026C000FEF7FFFC012259463046FEF7FAFC204691
:1026D00001F01EF8FEF708F899F8011099F80000CB
:1026E0000839C9B2401C01E005E030E0BDE8F05F08
:1026F000C0B2FFF741BE002259463046FEF7E1FC6A
:1027000001221102BBE7002259463046FEF7D9FCF0
:1027100001221102D8E79AF8000008B1E043C4B2E0
:10272000BDB155B100224FF480713046FEF7C9FCAF
:10273000012259463046FEF7C4FC204600F0E8FF6F
:10274000FDF7D2FF99F80010491C89F80010BDE888
:10275000F09F002259463046FEF7B3FC01221102D9
:10276000E8E70000B9000020000C014010B5044665
:1027700002E0142000F0EEFF641EE4B2F9D210BDB6
:102780000849086282788A73C278CA734278120252
:102790008A8203781A448A824279CA7280790873DD
:1027A000704700009400002010B51F488AB01D49F2
:1027B000016012210024C0E901144FF48031C0E906
:1027C00003414461047644768476C4760477447782
:1027D000FEF754FAC8B90120CDE9064003940890E9
:1027E00004940E2005940990009401940294694683
:1027F0000D48FEF759F840B90B48FEF731FB20B9F8
:1028000002210948FDF7D0FF08B1FDF785FF074811
:1028100040F20311C460846001600221016104750B
:102820000AB010BD00640040BC000020D8010020A8
:102830002DE9F04385B000242E48009401940294C1
:102840000394816941F010018161816901F01001F7
:102850000491816941F020018161816901F02001C9
:102860000491816941F004018161816901F00401F1
:102870000491816941F0080181618069DFF8788005
:1028800000F008004FF4005504900022294640460D
:10289000FEF717FCDFF864904FF6FF770022394609
:1028A0004846FEF70EFC0095022601250396CDE969
:1028B000015469464046FEF707FB00970396CDE9B1
:1028C000015469464846FEF7FFFA2802CDE90004A4
:1028D0000B4D694628460294FEF7F6FAB0030090C5
:1028E0000848CDE9010469462846FEF7EDFA05B02F
:1028F000BDE8F0830010024000100140000C0140D0
:1029000000080140000011101CB500241648019475
:10291000144900940160611EC0E90114FFF736F804
:10292000E8B98DF804408DF805408DF80640012285
:1029300001A90D48FFF700F988B905208DF80000BE
:1029400006208DF8010017208DF802008DF8034055
:10295000012269460448FFF78DF8002801D0FDF7F1
:10296000DBFE1CBD00280040E40000200F4810B52D
:102970000D4901604FF48271416000218160C160A6
:102980004FF480220161C0E905122822C0E9072125
:10299000416281620A21C162FFF741F9002801D03A
:1029A000FDF7BAFE10BD000000300140F800002025
:1029B000FEE7FEE71FB5FF200090012001900220F6
:1029C000039069460348FEF77FFA69460248FEF71E
:1029D0007BFA1FBD00100140000C01402DE9FE4FA5
:1029E000DFF8C8814FF0000A464698F80B20D8F867
:1029F0002040851A25445146ED7988F80D5096F807
:102A000006C096F80FB0F76953460BFB0C76D64616
:102A10000A2818D0904218D398F80C70B946B842DA
:102A200013D8B8F81470002F0FD0002D0DD04746E2
:102A300098F803C07F79BCF1000F08D098F80E50C9
:102A400088F80D5015E0C8E906E6BDE8FE8FA0F154
:102A5000D40CBCF1060F06D9A0F1E70CBCF1050FB0
:102A600001D9D12805D1D8F818C005FB17C5C8F879
:102A70001850A0F13005092D04D8C2F13705655D65
:102A800088F80D5098F80DC0D8F818500CFB075571
:102A90007F2D01D9C8E906E6801A05E0E5185B1C20
:102AA000ED79DBB2294489B29842F7DC01FB0BF1E6
:102AB000A9EB020001EBC000383080B2C10800F081
:102AC00007090026029162E0002759E0B9F1070FDB
:102AD00005D90AF101024FF000091FFA82FA029AA1
:102AE000036A52441A44527801924379826906FB80
:102AF000032292B20092827842782AB18279C36925
:102B0000C91B01FB023103E08279C16907FB021195
:102B10001FFA81FB002529E0002420E049460198A6
:102B2000FDF744FC50B118780028187C0CD0C2B2D4
:102B300000982844C1B20BEB04000BE0187960B197
:102B400018780028987CF2D1C2B20BEB0400C1B215
:102B500000982844C0B2FFF710FD641CE4B298F856
:102B6000060043468442D9D36D1CEDB298F8051097
:102B70008D42D1D309F101007F1C00F0FF09FFB2A3
:102B800098F80F1040468F42A0D3761CF6B298F802
:102B90000D1040468E4297D3C27981694379114422
:102BA000427B02FB0311C8F818104EE79400002086
:102BB0002DE9FE4F60494FF0000A5246CC7A0D6A6B
:102BC000061BA94635440E46ED794D7396F806C0AE
:102BD00096F80FB0F76953460BFB0C770A2826D0FE
:102BE000A04227D391F80C80404523D88E8A002E2E
:102BF00020D0002D1ED0CD780DB18D7B4D734D7B37
:102C00004E79D1F818C005FB16CCBCF1000F05D5E4
:102C1000CF6105FB06F7C7F17F078F61CF7905FB11
:102C200006758E69751B8D614D46001B0AE07F207D
:102C3000C1E90607BDE8FE8FEE185B1CF679DBB232
:102C4000324492B29842F7DC02FB0BF2A8EB04008C
:102C500002EBC000383080B2C20800F0070800263E
:102C60008946029263E000275AE000BFB8F1070FDF
:102C700005D90AF101024FF000081FFA82FA029A00
:102C8000036A52441A44527801924379826906FBDE
:102C9000032292B20092827842782AB1CA1B8379C9
:102CA000C16902FB031103E08179C26907FB0121BD
:102CB0001FFA81FB002529E0002420E0414601980D
:102CC000FDF774FB50B118780028187C0CD0C2B204
:102CD00000982844C1B20BEB04000BE0187960B1F6
:102CE00018780028987CF2D1C2B20BEB0400C1B274
:102CF00000982844C0B2FFF740FC641CE4B299F885
:102D000006004B468442D9D36D1CEDB299F80510EC
:102D10008D42D1D308F101007F1C00F0FF08FFB203
:102D200099F80F1048468F42A0D3761CF6B299F856
:102D30000D108E4297D37DE7940000202DE9F047D7
:102D40000446DDE90897984615460E464846FDF7C5
:102D50004FFB1F49A8EB060280B2CB7B91F806C05F
:102D600003FB1C2202EBD27206EB620293B20E7AD4
:102D70002A1B002E07F0030603D0EEB1012E1FD14F
:102D800014E026B1012E05D0022E0DD108E0C8793D
:102D9000204408E0101A00EBD07004EB600002E061
:102DA000854201D9281A84B28C610AE0101A00EB1E
:102DB000D070A5EB600002E0CA792044104485B2CF
:102DC0008D614846CB61BDE8F04700F003B80000D4
:102DD0009400002070B5054608480024007A0128B8
:102DE00007D12846BDE8704000F00AB8641CFFF720
:102DF000F5FD285D0028F9D170BD00009400002089
:102E00002DE9F04F074665488DB0002690F80790F1
:102E10003546DFF88CA1EB468046B5E06D1C8D2C65
:102E200018D00CDC3B2C2AD004DC2C2C29D02E2CE6
:102E30002AD128E03F2C20D0812C25D108E08E2CEF
:102E40000AD0902C0AD0982C0AD0E12C1CD109E091
:102E5000EA2419E0EB2417E0EE2415E0EF2413E058
:102E6000DF2411E0785D6D1C88F80A00C72802D0C5
:102E7000E1246D1E08E0FB2406E0BF2404E01F24CB
:102E800002E01D2400E01C24785D88F80A008128F7
:102E900012D008DC2C282DD02E282DD03B2827D06E
:102EA0003F280ED122E08D2808D08E2818D09028F7
:102EB00018D0982805D117E0EA2100E0EB2188F826
:102EC0000A10C02C42D998F80900C02816D900EB86
:102ED00040020AEB4200A0F5805090F87F0B0EE014
:102EE000EE21ECE7EF21EAE7DF21E8E7BF21E6E7A3
:102EF0001F21E4E71D21E2E71C21E0E7002098F80C
:102F00000A10C02908D901EB41020AEB4201A1F5E0
:102F1000805191F87E1B00E0002141EA4000C0B2E0
:102F2000012803D9002288F8072001E088F80790DB
:102F300004EB44020AEB42010844A0F5805090F8EB
:102F40007A0BFFF735FE88F807901BE0A4F13000FC
:102F5000092814D8761CF6B20BF8064098F80A1027
:102F600030390A2908D20DE01BF806002038C0B21B
:102F7000FFF71EFE761EF6B2002EF5D102E02046C7
:102F8000FFF716FE88F809407C5D002C7FF446AF01
:102F9000FF2188F809100DB0BDE8F08F94000020E3
:102FA00090550008010901EB810100F00F0000EBD2
:102FB0004100C0B2704770B50446FEF787F8054679
:102FC0004FF47A7606E0FEF781F8401BB04201D953
:102FD000032070BD206840688006F4D520684168F1
:102FE00041F010014160002070BD000070B5044642
:102FF0000068416821F010014160FEF767F805465E
:103000004FF47A7607E000BFFEF760F8401BB0424D
:1030100001D9032070BD206840688006F4D50020E7
:1030200070BD00000148FEF791BC0000E4000020E4
:103030000168086A496A89B241EA0040704700683D
:1030400081698AB2C1698BB2816989B28A4203D02F
:10305000C06961F31F40704743EA02407047F0B512
:103060006424C1EBC1030927A500072603EB011364
:103070000329B3FBF7F100F5FA60114401440AD2C9
:10308000401EB0FBF4F201EB9001B0FBF5F0891AA1
:103090000844001D08E0B0FBF4F201EB9001B0FB26
:1030A000F5F0891A0844801CB0FBF6F106FB11000C
:1030B000C0B2F0BD70B50D4606460024FFF77BFF99
:1030C00048B93168280C08623168A8B248623046B5
:1030D000FFF78CFF00B10124204670BD70B50D468E
:1030E00006460024FFF767FF48B93168280C88615D
:1030F0003168A8B2C8613046FFF778FF00B10124FB
:10310000204670BD70B5274C0020274D607001210E
:103110002846FDF7C9FF18B1607840F001006070E3
:1031200002212846FDF7C0FF18B1607840F0020088
:10313000607004212846FDF7B7FF18B1607840F0B1
:103140000400607008212846FDF7AEFF18B16078D2
:1031500040F00800607010212846FDF7A5FF18B167
:10316000607840F01000607020212846FDF79CFF39
:1031700018B1607840F02000607040212846FDF7CB
:1031800093FF18B1607840F04000607080212846BD
:10319000FDF78AFF18B1607840F0800060706078B9
:1031A00070BD000000000020000C01402DE9F84334
:1031B000074698469146089CD51B0E46EAB2002366
:1031C0000094FFF771F8EAB20023414638460094B4
:1031D000FFF76AF8A8EB0605EBB200223146384645
:1031E0000094FFF761F8EBB20022314648460094A4
:1031F000FFF75AF8BDE8F8832DE9FF4F85B0824606
:10320000DDE912400699914621441A1B0291511A98
:103210000025DDF8508000289B462646C4F10107B2
:1032200001914046CDF800805DD0A9EB0A00C2B202
:103230000298CBB2C1B25046FFF736F805EB090051
:10324000011BAAEB05002044CDE90080081AC2B298
:10325000029006980023801B2044C1B20198C0B29E
:10326000FFF722F806EB0900011BAAEB0600204439
:103270000390081AC2B204900698CDF80080401B53
:103280002044C1B203980023C0B2FFF70DF80498A0
:10329000CDF80080C2B205EB0B00001BC1B2039851
:1032A0000023C0B2FFF700F80298CDF80080C2B248
:1032B00006EB0B00001BC1B201980023C0B2FEF761
:1032C000F3FF002F04DA07EB45076D1CFF1C05E038
:1032D000A81B07EB40076D1C761E7F1DB542ADDDB8
:1032E00009B0BDE8F08F0AEB0400A9EB04010390DC
:1032F000081AC2B2049003980023C0B20699FEF7E0
:10330000D3FF0498CDF80080C2B203980023C0B266
:103310005946FEF7C9FF0198CDF80080C3B2029864
:103320000022C1B25046FEF7BFFF0198CDF80080E1
:10333000C3B202980022C1B24846FEF7B5FF069814
:103340004246801B2044C1B2029005EB0900001BDD
:103350000390C0B2FFF711F906984246401B204483
:10336000C1B2009006EB0900001B0490C0B2FFF749
:1033700004F905EB0B00001BC1B201900498424612
:10338000C0B2FFF7FAF806EB0B00001BC1B20490C5
:1033900003984246C0B2FFF7F0F804984246C1B223
:1033A000AAEB050020440390C0B2FFF7E6F80198AD
:1033B0004246C1B2AAEB060020440190C0B2FFF71A
:1033C000DCF800984246C1B20198C0B2FFF7D5F8C8
:1033D00002984246C1B20398C0B2FFF7CEF8002F60
:1033E00004DA07EB45076D1CFF1C05E0A81B07EB83
:1033F00040076D1C761E7F1DB542A0DD70E7000002
:1034000004490128087202D00020886170477F209B
:10341000FBE7000094000020FEE7000010B55020FC
:1034200080F31188BFF34F8FBFF36F8F00F062FE00
:1034300018B104494FF080500860002080F31188D3
:1034400010BD000004ED00E070B594B0282168467E
:10345000FCF738FF14210AA8FCF734FF00250124EB
:103460000F951195052012950090CDE90254109505
:103470004FF48030019002260494CDE907600001EA
:1034800009906846FEF7D0F898B90F20CDE90A06F2
:10349000A002CDE90C5002210AA80E95FDF7B4FF59
:1034A00038B92002CDE90F400FA8FDF737FF0028FB
:1034B00001D0FDF731F914B070BD70470148FEF737
:1034C0009CBC000060040020F0B50268164B174C4D
:1034D000174D4FF08047984205D0B84203D0A04224
:1034E00001D0A84203D122F070064A6832439842C4
:1034F00005D0B84203D0A04201D0A84203D122F4A3
:103500004074CA6822434C6922F080022243026060
:103510008A68C2620A688262984201D109690163BD
:1035200001214161F0BD0000002C01400004004079
:10353000000800402DE9FE4FDFF808B10C460546B3
:103540000D9F91469BF812001E467907A3EB040CD1
:10355000A2EB050246D55FEA171804F1010305F155
:10356000010126D05FEA077CC7F3071A12D54FF096
:10357000010CCDF800A0CDE901C0701E00F0FF08DD
:10358000A9F10100C2B203F0FF0CC8B24346614684
:10359000FFF732FE9BF810100022CDF800A0CDE915
:1035A0000121F3B209F0FF02E1B2E8B2FFF724FE15
:1035B00022E05FEA07780AD50CF0FF0803F0FF0C61
:1035C0000090C8B2D2B243466146FEF76DFE9BF84A
:1035D00010000090F3B209F0FF02E1B2E8B2FFF789
:1035E000E5FD09E0390707D500900CF0FF03D2B2E2
:1035F000E1B2E8B2FEF758FE9BF8000028B1284679
:10360000254604464846B14606460C9917F00C0F6D
:1036100007F003000BD0CDE90010761E641CA9F161
:10362000010082B26D1CB3B2A1B2A8B205E0CDE92F
:10363000001033464A4621462846FFF77FFBBDE887
:10364000FE8F00009400002070B5044600680169F8
:10365000E26821F44051114301612169A0680843E7
:10366000616908432168CA6841F20C639A430243C6
:10367000CA6020684169A26921F440711143416127
:103680001E492068884202D1FDF784FF01E0FDF762
:1036900071FF00EBC00101EB001260686421800043
:1036A000B2FBF0F3B3FBF1F36FF018067343B2FB18
:1036B000F0F5B2FBF0F605EB8305322303EB0515BD
:1036C000B5FBF1F5B6FBF1F605F0F00505EB0615D7
:1036D000B2FBF0F6B2FBF0F0B0FBF1F06FF01802C5
:1036E000504306EB800003EB0010B0FBF1F02168C3
:1036F00000F00F002844886070BD000000380140D1
:103700000148FDF7BDB90000BC000020FEE7000045
:1037100070B5074D04460022FF212846FDF7D1FC75
:1037200021462846BDE870400122FDF7CABC0000D2
:10373000000C01400907090E002804DB00F1E0201D
:1037400080F80014704700F00F0000F1E02080F8CE
:10375000141D704702460020014601E00844491C40
:103760009142FBD9704700009CB0FDF7BDFCFFF70C
:103770006BFEFFF75DF82C482A494FF4E1350160F4
:103780000024C0E901540C26C460C0E90446B1011C
:10379000C0E90614FEF7F1FB78B9FFF7B5F8224847
:1037A000224944380160C0E90154C460C0E90446BC
:1037B0008461C461FEF7E1FB08B1FCF7ADFFFFF7E0
:1037C000D5F8FEF7F1FF1C2219496846FCF748FDC1
:1037D0000021684600F042F8164C15491C22606032
:1037E0001C3107A8FCF73CFD002107A800F036F8C3
:1037F0000F49E0601C2238310EA8FCF731FD002192
:103800000EA800F02BF80A4960601C22543115A85C
:10381000FCF726FD002115A800F020F8A06000F0BC
:1038200018F8FEE7004400409401002000380140F1
:10383000085500080000002001460020842900D01F
:10384000C81C704710B500B9012000F015FB00201E
:1038500010BD10B500F036FB002010BD7FB50D4641
:1038600004464169B0F9080081B1A16971B1FFF75F
:10387000E3FFD4E905128DE80700D4E900102B46D8
:10388000226900F00CFC039004B070BDFFF7D4FF78
:1038900003A9CDE90001208A2B4682B2D4E90010A9
:1038A00000F0D0FB012801D00020EDE70398EBE702
:1038B0002DE9F041184C0F46054666692068001D49
:1038C00000F016FA38B9206890F82C1001208840D2
:1038D000A1698143A161681C07D137B12168BDE8A6
:1038E000F0410E48091D00F047BA20683544B54242
:1038F0004560216805D2A068BDE8F041091D00F0CF
:1039000023BA6068091D00F01FFA206B854200D2BF
:103910002563BDE8F081000034000020840500200C
:103920002DE9F041054600F033FA2E4C2069401C89
:10393000206120682C4F10B1E06940B32DE0256074
:103940002069012829D1002606EB860007EB8000BC
:1039500000F0ECF9761C072EF6D323488C3000F0EB
:10396000E5F92148A03000F0E1F91F48B43000F03B
:10397000DDF91D48C83000F0D9F91B48DC3000F0F3
:10398000D5F919488C3060601430A06005E02068DB
:10399000E96AC06A884200D82560E06A401CE0629B
:1039A000E96A0120A26988401043A06101EB81000F
:1039B00007EB8000291D00F0DFF900F009FAE0694B
:1039C00000280CD02068E96AC06A884207D20749FB
:1039D0004FF080500860BFF34F8FBFF36F8FBDE88B
:1039E000F081000034000020A804002004ED00E075
:1039F00010B5044690F8510058B101280CD00228A7
:103A00000FD0502080F31188BFF34F8FBFF36F8F1B
:103A1000FEE7206B00F0F0F92046BDE8104000F012
:103A2000EBB910BD10484FF44061420706D0C01DED
:103A30000D4920F00700411AC1F540610B4A0023EF
:103A40000144C2E900030839103A21F0070111606E
:103A50004B600B600B1AC0E9001393604FF00040FD
:103A60005360D0607047000098050020800000205F
:103A7000144E154CA6F1C8074FF08058DFF84C9053
:103A800012E000BF00F084F9F068C568281D00F05E
:103A90002FF92069401E2061E068401EE06000F0C0
:103AA00097F92846FFF7A4FFE0680028EAD13868B4
:103AB0000128F9D9C9F80080BFF34F8FBFF36F8F8A
:103AC000F2E70000700500203400002004ED00E063
:103AD0002DE9F0479A46DDE9098481466FF003033A
:103AE000206B03EB82021044089D20F0070670074C
:103AF00007D0502080F31188BFF34F8FBFF36F8F33
:103B0000FEE723180A5C83F834200A5C12B1401CDB
:103B10001028F6D3002784F84370072D00D306251C
:103B2000E562C4E91157201D00F00BF904F11800FB
:103B300000F007F92461C5F107006462A061E76441
:103B400084F8507052464946304600F0BFF8206075
:103B5000B8F1000F01D0C8F80040BDE8F0870000C0
:103B600030B5114900E011460A688242FBD34B6828
:103B70005C18844203D14068184448600846436892
:103B80001C18944209D1084C103C2468A24209D068
:103B900052681A4442600A6812680260814200D08A
:103BA000086030BD0460F9E78000002006484168E5
:103BB000096829B14168C968C968496801637047E3
:103BC0004FF0FF31FAE70000340000200848406859
:103BD000401C4FF0500080F3118804D0BFF34F8F8A
:103BE000BFF36F8FFEE7BFF34F8FBFF36F8FFEE71B
:103BF000880000202DE9F0410546002700F098F9E3
:103C0000314E306808B9FFF70DFFF06805424BD11F
:103C1000C5B3083568070ED005F00700C0F10800ED
:103C20000544680707D0502080F31188BFF34F8FF9
:103C3000BFF36F8FFEE72DB37068854234D82248FA
:103C4000103001460C6801E020460C466168A9422C
:103C500002D221680029F7D131688C4224D007684C
:103C60002168016060680837411B10290FD960196D
:103C7000420708D0502080F31188BFF34F8FBFF365
:103C80006F8FFEE710E041606560FFF769FF6168D4
:103C90007068401A7060B268904200D2B060F068FC
:103CA00001430020C4E9000100F088FA780707D03A
:103CB000502080F31188BFF34F8FBFF36F8FFEE763
:103CC0003846BDE8F08100007000002010B5031FE9
:103CD0004FF080741C601B1F21F001011960191F37
:103CE000024B0B60143940380A6010BDCD3B000810
:103CF000D0E9013201699A60D0E901235A604A682B
:103D0000824201D182684A60002202610868401E36
:103D10000860086870470000034B036003F154001B
:103D200008608020106070470C02002000F108013C
:103D30004FF0FF32C0E90112C16001610021016052
:103D4000704700210161704730B50B685A1C02D0E2
:103D500000F1080202E0026904E022465468256886
:103D60009D42FAD953684B6099608A60516008613E
:103D70000168491C016030BD42684A6093688B60ED
:103D800093685960916008610168491C016070473F
:103D9000502080F31188BFF34F8FBFF36F8F0A4914
:103DA0004868401C486001280CD10848006810F0A1
:103DB000FF0F07D0502080F31188BFF34F8FBFF360
:103DC0006F8FFEE7704700008800002004ED00E0E0
:103DD0000849486828B1401E486001D180F3118825
:103DE0007047502080F31188BFF34F8FBFF36F8F60
:103DF000FEE700008800002070B5002827D0144D91
:103E0000A0F108046168E868014207D1502080F3FE
:103E10001188BFF34F8FBFF36F8FFEE722683AB16F
:103E2000502080F31188BFF34F8FBFF36F8FFEE7F1
:103E30008143616000F07CF86068696808446860EC
:103E40002046FFF78DFEBDE8704000F0B7B970BDA9
:103E5000700000204FF0E0200021016181610549E0
:103E60004FF47A720968B1FBF2F1491E41610721F2
:103E7000016170473000002010B5020014D00F48D7
:103E8000806B38B1502080F31188BFF34F8FBFF3A0
:103E90006F8FFEE700F04CF800211046FFF708FD99
:103EA00000F08CF9002807D105494FF080500860D8
:103EB000BFF34F8FBFF36F8F10BD000034000020A1
:103EC00004ED00E010B586B00024039405AA04A90F
:103ED00003A80494FFF720FFDDE903010094CDE976
:103EE000011000230EA11048059A00F0D8F80F49E0
:103EF0000028486311D0502080F31188BFF34F8F02
:103F0000BFF36F8F4FF0FF3008630120C8614C6131
:103F100006B0BDE8104000F041B806B010BD00008A
:103F200049444C4500000000713A0008340000206C
:103F30000248816B491C81637047000034000020F7
:103F40001448816B11B10121416270470021416227
:103F50008169B1FA81F1C1F11F0101EB81020E49C2
:103F600051F822306BB101EB820101F108034A687C
:103F700052684A609A4201D152684A60D168016031
:103F80007047502080F31188BFF34F8FBFF36F8FBE
:103F9000FEE7000034000020A80400201CB52649DC
:103FA00008780190FF20087008788DF800009DF8CF
:103FB00000009DF8002000F0F000904207D0502053
:103FC00080F31188BFF34F8FBFF36F8FFEE79DF82B
:103FD00000001A4B00F0500018700720986005E0B0
:103FE0009DF8002052008DF80020401E9DF8002012
:103FF0001206F5D49860032807D0502080F311886A
:10400000BFF34F8FBFF36F8FFEE74FF440709860A0
:10401000019808700A48016841F470010160016864
:1040200041F070410160FFF715FF00205860FCF778
:10403000BDF800201CBD000000E400E08800002066
:1040400020ED00E02DE9FF5F8346DDE90E8799460C
:1040500016468A469000FFF7CDFD05001CD054207F
:10406000FFF7C8FD040014D00020256384F8510038
:10407000CDE90240CDE900874B46324651465846CD
:10408000FFF726FD2046FFF74BFC012004B0BDE8FA
:10409000F09F2846FFF7B0FE4FF0FF30F6E7F0B58F
:1040A00085B0DDE90B640A9DA6B1DCB15427009709
:1040B0002663022684F85160002604AFCDE902464B
:1040C000CDE90057FFF704FD2046FFF729FC0498CF
:1040D00005B0F0BD502080F31188BFF34F8FBFF3C0
:1040E0006F8FFEE7502080F31188BFF34F8FBFF32F
:1040F0006F8FFEE72DE9F0412E4C0027A06B40B1F9
:10410000206A401C2062606A00B101273846BDE881
:10411000F0816669761C666113D16068006838B109
:10412000502080F31188BFF34F8FBFF36F8FFEE7EE
:104130006068A1686160A060A06A401CA062FFF78F
:1041400035FD206BDFF87080864209D36068006817
:1041500080B16068C068C568686886420DD2206317
:104160002068C06A00EB800158F821000128CAD9F4
:104170000127C8E74FF0FF30F1E7281DFFF7B8FD32
:10418000A86A18B105F11800FFF7B2FDE86A01212D
:10419000A26981401143A16100EB800108EB81001D
:1041A000291DFFF7E9FDE86A2168C96A8842CDD375
:1041B0000127CBE734000020A80400202DE9F047B8
:1041C0002C4D00242746A86B38B1FFF7E1FDA86B02
:1041D000401EA863A86B40B146E0502080F31188D0
:1041E000BFF34F8FBFF36F8FFEE72969224E012087
:1041F000D1B3A6F1B40980463068E8B1F068C4686C
:1042000004F11800FFF774FD201DFFF771FDE06A4F
:10421000AA6908FA00F11143A96100EB800109EBDA
:104220008100211DFFF7A8FDE06A2968C96A88425C
:10423000E2D3C5F82480DFE70CB1FFF7B7FC2C6AA6
:1042400044B14646FFF756FF00B16E62641EF9D1D5
:1042500000202862686A38B10849012738070860D9
:10426000BFF34F8FBFF36F8FFFF7B2FD3846BDE846
:10427000F0870000340000205C05002004ED00E021
:104280000E840C100100FF0506060604040408094C
:104290000809080909090B030205060707060707AD
:1042A000050B0604040404020103080705080103C2
:1042B00003070704060209060506060606060606A3
:1042C0000602040506050608090707070707080987
:1042D000050808070909070707080709090909095F
:1042E0000907030803070902070707070706070767
:1042F000050507050907070707080707070909074D
:104300000907050104070705080605090907070746
:10431000090906050806040906060809080809042B
:104320000804060808090808040408080705080620
:104330000904080404090406080809080909040511
:104340000904080909090804040604070309010807
:10435000060808080808040406060E0E0F0F0808D1
:10436000080707030A0808080708060805060808DA
:1043700008080809090707060704040806060807CD
:104380000805080704090400000000F80300040001
:104390000400000A000500F5030004000400000406
:1043A000000200FA03020401040000000000A0F86B
:1043B000530054000400040004802400030004108F
:1043C000048004100300041004840410030004009B
:1043D000040005800480240005000600040000801D
:1043E0001C4022404140418048804180428024005E
:1043F0000400040005800480040005000600040099
:1044000000801C40224041404180408041804280E9
:104410002400040004000590048004000500060048
:10442000040000801C40224841404180408041807F
:104430004280240004000400030004000400030080
:104440000400040003000400040003000420040826
:10445000032004000400030004000400030004001F
:10446000040006000580048004800400030001802D
:104470000300013000C01F3000E000401F4000304A
:10448000003000E000401F3000400030002000F00D
:1044900000E01F6000900090004000000E8011506E
:1044A00010200C40108011000EC0102009100510C3
:1044B00003200180003000C0000003001C0003C086
:1044C0000030000018000680017000800100060026
:1044D00018600090009000E007001800040004003D
:1044E000030004000400061005800480048004001A
:1044F0000300048005400640048004000200000020
:1045000000800180010000000080034003000000E3
:1045100000C002C00100000000E0049004000000A0
:1045200000FE057800000078000002401EC00378FD
:1045300002401EC00378024000C011202220223019
:104540006220222022401C0606800160001800061E
:1045500006000E7011881008110812100C000C00D3
:10456000127800C01F3060088008803060C01F8053
:1045700000A002E003C001E003A0028000800080F0
:10458000008000F0078000800080000020003800DC
:1045900018000800010001000100010001000100F5
:1045A00018001800080004000200018000400020EC
:1045B0000010000800F00F0810081008100810F094
:1045C0000F10101010F81F00100010101808140819
:1045D00012081188107010100808108810881088B0
:1045E00010700F0003800260021012F81F0012F812
:1045F000088810881088108810080FE00F101188A4
:104600001088108810000F18000818080688016824
:10461000001800700F8810881088108810700FF034
:10462000000811081108118808F007C018C0180008
:1046300020C038C018000800018002400420081083
:10464000108002800280028002800280021010200E
:1046500008400480020001100008000816080188C4
:10466000007000E00F1010882348244824C823104D
:1046700024E0030010001C88136802180260028006
:1046800013001C00100810F81F881088108810886C
:1046900010700FE0071008081008100810101078AC
:1046A000080810F81F0810081008101008E0070884
:1046B00010F81F88108810C811081018180810F872
:1046C0001F88108810C80108001800E007100808AB
:1046D00010081008111011780F00010810F81F8839
:1046E000108000800080008810F81F081008100853
:1046F00010F81F08100810000C0010001008100817
:1047000010F80F080008000810F81F081180016851
:10471000021804081800100810F81F0810081000EC
:1047200010001000180810F81F60108001000680AB
:10473000016010F81F08100810F81F2010C01000AA
:104740000108060808F81F0800E00710080810080C
:104750001008101008E0070810F81F0811081108C9
:10476000010801F000E00710480850083008301038
:1047700048E0470810F81F0811080108030805F071
:10478000180010701C880888108810081110113843
:104790000E1800080008100810F81F08100810086C
:1047A0000018000800F80F0808001000100010089A
:1047B00008F80F080008003800C8010006001800BB
:1047C00006C8013800080078008803001C800360D8
:1047D000008003001C880378000810181828144073
:1047E00002800140022814181808100800180068F8
:1047F000108010001F80106810180008001818089A
:104800001408128811481028101818FE3F022002C0
:104810002010002000400080000001000200040081
:104820000802200220FE3F40002000100008001077
:1048300000200040000040004000400040004000D8
:104840004000400040004008001000000E401140B1
:104850001140114011800F00100810F81F8008400F
:1048600010401080080007000780084010401040EA
:10487000108008C00800078008401040108808F821
:104880001F00100007800A401240124012800A00E8
:104890000B8010F01F881088100800100000638043
:1048A00084408840888084C07F40000810F81F80C2
:1048B0001040004010801F001040104010C81F0022
:1048C0001000100040008040804080C87F0810F831
:1048D0001F08120803C0144018401008100810F8F0
:1048E0001F001000104010C01F80104000C01F802B
:1048F000104000C01F00104010C01F80104000403A
:1049000010801F00100007800840104010401080E9
:104910000800074080C0FF80884090401080080059
:104920000700078008401040908088C0FF4080400A
:10493000104010C01F8010401040004000800080D8
:104940000940124012401240124012800C400040B8
:1049500000F00F40104010401000084000C00F0051
:104960001000104008C01F00104000C000400300AD
:104970000C0010000C4003C00040004000C00F407D
:10498000180007C00000074018C00740004010C0D2
:1049900018401500024015C01840104000C080406B
:1049A00083004C0030000C4003C0004000C01040A9
:1049B00018401440124011C010401800020002F0CC
:1049C0007D08800880F8FF08800880F07D000230B4
:1049D000000800080010002000200018000000005F
:1049E0001C802248414041C04200440004800448E9
:1049F00005400680030003800400140044001400F6
:104A0000040004000300000000002000380018002B
:104A100008000488044005480680030000002000C8
:104A200038001800080020003800180008000000B6
:104A300018001800000018001800000018001800E6
:104A400000000020002000F83F20002000000000AF
:104A50000020082008F83F2008200800000000106F
:104A6000000800040008001000300C4802300180EB
:104A70000C4012200C180C0012000C000400040062
:104A8000030004000400030004000400030000000D
:104A900000000180024004200800046004500490DB
:104AA000040803801C4022404140458050804480DF
:104AB000408020002000200010201008082007005F
:104AC0000000000800100000000003800400040043
:104AD0000464045204920409030000000020003022
:104AE000003800080000000000200038001800080E
:104AF0000020003000380008002000300038000896
:104B000000000020003800180008002000380018BD
:104B1000000800000400040004000F8014403280EC
:104B20002900040000000100010001000100010053
:104B3000010001000000010001000100010001006E
:104B40000100010001000000000800100000000842
:104B50000038000800380010001000380000000085
:104B6000000800100000000000200840048002003F
:104B70000100380044004000400048005400540048
:104B80003400040004001580448014000500060071
:104B9000040000801C4022404140458050804580F8
:104BA000428024000008001004200440028001F824
:104BB00003000400380044004000C0004800D40056
:104BC0005400340000000080034003000414048AF1
:104BD000040A03000000007011881F08110811303A
:104BE000100010000000000801F00090009000F09C
:104BF000000801000008001000200C400A8009F89D
:104C00000E0000000000000000F8F80000C0303086
:104C100021282248248828081918060000000008C6
:104C2000000000000008000000F0030804E409147C
:104C30000A140A24090804F0030000000008001008
:104C40000000004000A00010014802A00010010870
:104C5000021800120009000C001A00130009000CD1
:104C6000000000F0030804F40B94089408640B0897
:104C700004F003060014000A000B000000000030DE
:104C8000004800480030000000801080108010F0C4
:104C90001780108010801000000A00050015002405
:104CA0000C400A8009F80E00000A000500150424D3
:104CB0000440028001F8030004040002000A00120C
:104CC00000210C400A8009FC0E000000388044607E
:104CD00040504050480054005400340000F000F8A8
:104CE0000118011810F81F1800F81F181000000014
:104CF000000003000300000000008000A00040044A
:104D00000002000A001204210440028001F803009E
:104D10000400000000E0049004000008021001A05C
:104D20000048021001A000400000001008F8050033
:104D300002000D800A4009A01F100800001008F8AA
:104D400005000200018011C018A01410130000908B
:104D50000808052803D00D800A4009A01F1008008C
:104D600000000070008800080108160800300000EC
:104D70000400248004002300058006800200020055
:104D80000004000200FA070200010000000A00050A
:104D900000F5070000004050402823A8248014009C
:104DA0000F00A0F8570050001E28211420142000E6
:104DB0002000260015800C8000F807000380040006
:104DC00004002400040004000400030000880340E1
:104DD000044804800400030003800400042004004D
:104DE00004200400040003000380040004200408DD
:104DF00004200400040003801C4022404140418004
:104E000048804080408020801C40224041404180BA
:104E100040804080408020801C40224841404180AA
:104E20004080408040802000044004800400030053
:104E3000044804800400030020002000100010003B
:104E400008000700200020001000102008000700C4
:104E50001C002200400040004000400023001C00D5
:104E60000400040003000400040003001C002200EE
:104E7000400040004000400023001C0004200408C3
:104E800003200400040003001C0022004000400036
:104E90004000400023001C00040006000580048040
:104EA0000480040003001C00220040004000400079
:104EB000400023001C0004000610058004800480CC
:104EC000040003000020084004800200018002402A
:104ED00004200800040004F8070006000580048090
:104EE00004000300040004F8070006000590048095
:104EF000040003C01C2023204100418040004000EA
:104F000020C01C242320410041804000400020009C
:104F100004000400040003800400040004000400F2
:104F2000048004480540068003001C002200400065
:104F300040104380449024001F00038004000400BC
:104F40000460045004900408030000000E4011485F
:104F50001150114011800F0010000E0011001000C0
:104F60001000100008F8070000000E401150114812
:104F7000115011800F001000F80004000780048019
:104F8000040003001C00220040404000400040009C
:104F900021001E8003400440048004000300400000
:104FA00040002380248014000F0000000180028054
:104FB000026002800100020004000014018A028ADB
:104FC00002680280010002000400000001840280E7
:104FD00002640280010002000400000007800A5001
:104FE0001248125012800A000B00000007880A4085
:104FF0001240124012880A000B001E002100A0007F
:105000002000A000260015800C8000001E0021005A
:10501000200020002000260015800C8000000000E9
:105020000040105010C81F10100010000000004871
:10503000104010C01F08100010000400040005807C
:1050400006800680050000001C802240414041C0CF
:105050004200440004000490040003000400040023
:1050600004F803000000078008501048105010801A
:105070000800070004800548064004800400020080
:1050800004000400058006900680050000400040F2
:1050900000400048024000400040000004000400BE
:1050A00002000380048004000300004000C00F08D9
:1050B0001010104008C01F00100004640452049235
:1050C00004090300004000C00F101008105008C071
:1050D0001F0010000008A01050205C404A8009F812
:1050E0000E00040014804400130004000400048037
:1050F0000550062003C004800400030000000008DF
:1051000000100000038040000000000000000000CC
:10511000000000000000000000000000000000008F
:10512000000000000000000000000000000000007F
:10513000000000000000000000000000000000006F
:10514000000000000000000000000000000000005F
:10515000000000000000000000000000000000004F
:10516000000000000000000000000000000000003F
:10517000000000000000000000000000000000002F
:10518000000000000000000000000000000000001F
:10519000000000000000000000000000000000000F
:1051A000000000000000000000000000000080E09F
:1051B000F0F0F8FCFCFC7E7E7E7EFCFCFCF8F0F05F
:1051C000E08000000000000000000000000000007F
:1051D000080C0C0C1C1C3C7CFCF8F8F0E0C08000B7
:1051E00000000000000000000000000000000000BF
:1051F00000000000000000000000000000000000AF
:10520000000000000000000000000000000000009E
:10521000000000000000000000000000000000008E
:105220000000000000000000000080F0FCFFFF7F95
:105230008F07030100000000000000000103070FBA
:105240003FFFFFFCF08000000000000000000000B5
:105250000000000000000000000103071F7FFFFEA8
:10526000F8E0000000000000000000000000000066
:10527000000000000000000000000000000000002E
:10528000000000000000000000000000000000001E
:10529000000000000000000000000000000000000E
:1052A00000000000000000000000FFFFFFFF000002
:1052B00001071E3C78F0E0C0C0C080800000000004
:1052C0000081FFFFFFFF00C0F0F8FC3C3E1E1E3EC9
:1052D0003C3C7C78F0F0E0C0C0800000000007FF9C
:1052E000FFFFFE00000000000000000000000000C2
:1052F00000000000000000000000000000000000AE
:10530000000000000000000000000000000000009D
:10531000000000000000000000000000000000008D
:10532000000000000000000000003FFFFFFFF080D1
:1053300000000000000001030307070F0F0F0F1FFD
:105340000F0F0F07030000FFFFFFFEC0000000006B
:105350000000000000010103071F3FFEFC90F8FF62
:10536000FFFF1F0000000000000000000000000020
:10537000000000000000000000000000000000002D
:10538000000000000000000000000000000000001D
:10539000000000000000000000000000000000000D
:1053A000000000000000000000000001071F7FFF58
:1053B000FEFCF8F0E0E0C0C0C0C0C0E0E0E0F0F00B
:1053C000F8781C0600000000031F3FFFFFFCF8F008
:1053D000E0C0C0C0C0C0C0C0E0F0F8FCFEFFBFDF4E
:1053E000F7FDF0C000000000000000000000000019
:1053F00000000000000000000000000000000000AD
:10540000000000000000000000000000000000009C
:10541000000000000000000000000000000000008C
:10542000000000000000000000000000000000007C
:1054300001030307070F0F0F0F0F0F0707030301E8
:10544000000000000000000000000000010303074E
:10545000070F0F0F0F0F0F0F0F07070301000F0F9D
:105460000703010000000000000000000000000031
:10547000000000000000000000000000000000002C
:10548000000000000000000000000000000000001C
:10549000000000000000000000000000000000000C
:1054A00000000000000000000000000000000000FC
:1054B00000000000000000000000000000000000EC
:1054C00000000000000000000000000000000000DC
:1054D00000000000000000000000000000000000CC
:1054E00000000000000000000000000000000000BC
:1054F00000000000000000000000000000000000AC
:1055000000000000000000002857000819340008BF
:10551000000000000000000080000000000000000B
:1055200000000000145700088D0300080000000070
:1055300000000000800000000000000000000000EB
:105540000C570008350700080000000000000000AC
:105550008000000000000000000000001C57000850
:10556000C1030008020000000000000080000000ED
:10557000000000000000000000000000000000002B
:1055800001020304060708090000000001020304E9
:10559000C1C1C1C10000C2C202020100C3C30101F6
:1055A0000100C4C4C4C40000C5C503030100C6C6CD
:1055B000C6C60000C7C700000100C804C804010136
:1055C000C9FEE9950101CA05CA050101CB06CB0652
:1055D0000101CC0708070101CD090A090101CE0B21
:1055E0000C0B0101CFCFCFCF0100D0D0D0D0010024
:1055F000D1D1D1D10100D2D2D2D20100D38AD38A63
:105600000101D40ED40E0101D50FD50F0101D61A18
:10561000D61A0101D7D7D7D70000D8D8D8D80101DA
:10562000D9D9D9D90101DA1BF1F00101DBF57FF6F7
:105630000101DCDCDCDC0101DD80DD800101DE83D9
:10564000DE830101DF8CDF8C0101E0E0E0E000009F
:10565000E1F3E1F30101E2E2E2E20000E3F8E3F862
:105660000101E4F2E4F20101E5FEE7950101E6E65D
:10567000E6E60100E7E7E7E70000E8E8E8E8000021
:10568000E9E9E9E9000081FD81FD01018D9D9E9D13
:105690000101ECC0A0C00101EDC09CC001018E8ED3
:1056A0008E8E010090FA90FA0101F0F0F0F0000007
:1056B000F1F1F1F10000F2F2F2F20000F3F3F3F392
:1056C0000000F4F4F4F40000F5F5F5F50000F6F64A
:1056D000F6F60000F7F7F7F70000F8F8F8F8000022
:1056E000F9F9F9F90000FAFAFAFA0000A5A59F9F66
:1056F0000100FCFCFCFC0000FDFDFDFD0000FEFEC9
:10570000FEFE0000FFFFFFFF00000000474C434487
:105710005F540000424C494E4B5F540043414E429F
:1057200055535F540000000064656661756C7454E5
:1057300061736B005457000800000020BC0000009B
:105740002801000810580008BC0000203C17000089
:1057500044010008000000000000000000000000FC
:105760000000000000000000000000000000000039
:105770000000000000000000010000001000000018
:10578000000000000024F400000000000000000001
:105790000000000000000000000000000000000009
:1057A00000000000000000000000000000000000F9
:1057B00000000000000000000000000000000000E9
:1057C00000000000000000000000000000000000D9
:1057D00000000000000000000000000000000000C9
:1057E000AAAAAAAA0000000000000100000101010D
:1057F00000FFFF0000000000FF00000000000000AC
:105800000000000000000000000000000000000098
:04000005080000ED02
:00000001FF
