:020000040800F2
:1000000088170020210200085B22000899190008C7
:1000100059220008B9030008C92F00080000000099
:10002000000000000000000000000000890100083E
:10003000D506000800000000CD010008E52C0008EE
:100040003B0200083B0200083B020008CD280008E4
:100050003B0200083B0200083B0200083B0200088C
:100060003B0200083B0200083B0200083B0200087C
:100070003B0200083B0200083B0200083B0200086C
:100080003B0200083B0200083B0200083B0200085C
:100090003B0200083B0200083B0200083B0200084C
:1000A0003B020008852D00083B0200083B020008C7
:1000B0003B0200083B0200083B0200083B0200082C
:1000C0003B0200083B0200083B0200083B0200081C
:1000D0003B0200083B0200083B0200083B0200080C
:1000E0003B0200083B0200083B02000800F002F857
:1000F00000F03AF80AA090E8000C82448344AAF188
:100100000107DA4501D100F02FF8AFF2090EBAE885
:100110000F0013F0010F18BFFB1A43F0010318473B
:10012000CC4E0000EC4E0000103A24BF78C878C1D5
:10013000FAD8520724BF30C830C144BF04680C60ED
:10014000704700000023002400250026103A28BF35
:1001500078C1FBD8520728BF30C148BF0B60704739
:100160001FB51FBD10B510BD00F0D6F81146FFF742
:10017000F7FF02F057FF00F0F4F803B4FFF7F2FFC7
:1001800003BC00F0FBF80000224B19680868B0E8D7
:10019000F00F80F30988BFF36F8F4FF0000080F3FA
:1001A00011884EF00D0E70470000000006480068F0
:1001B000006880F3088862B661B6BFF34F8FBFF363
:1001C0006F8F00DF00BF00BF08ED00E0EFF3098094
:1001D000BFF36F8F0F4B1A6820E9F00F106008B55E
:1001E0004FF0500080F31188BFF34F8FBFF36F8F34
:1001F00003F002FB4FF0000080F31188BDE80840D7
:1002000019680868B0E8F00F80F30988BFF36F8FB2
:10021000704700BF20000020EFF30580704700000A
:100220000948804709480047FEE7FEE7FEE7FEE78A
:10023000FEE7FEE7FEE7FEE7FEE7FEE704480549C6
:10024000054A064B70470000832D0008ED000008AA
:1002500088110020881700208813002088130020B0
:1002600010B5203AC0F00B80B1E81850203AA0E851
:100270001850B1E81850A0E81850BFF4F5AF5FEA85
:10028000027C24BFB1E81850A0E8185044BF18C938
:1002900018C0BDE810405FEA827C24BF51F8043BDF
:1002A00040F8043B08BF7047D20728BF31F8023B33
:1002B00048BF11F8012B28BF20F8023B48BF00F8C7
:1002C000012B70474FF0000200B513469446964646
:1002D000203922BFA0E80C50A0E80C50B1F1200159
:1002E000BFF4F7AF090728BFA0E80C5048BF0CC007
:1002F0005DF804EB890028BF40F8042B08BF704765
:1003000048BF20F8022B11F0804F18BF00F8012BD6
:100310007047704770477047754600F02BF8AE463F
:1003200005006946534620F00700854618B020B501
:10033000FFF784FFBDE820404FF000064FF00007B4
:100340004FF000084FF0000B21F00701AC46ACE87D
:10035000C009ACE8C009ACE8C009ACE8C0098D46EA
:10036000704710B50446AFF300802046BDE810404A
:10037000FFF703BF004870472811002001491820EB
:10038000ABBEFEE72600020070470000054D4FF4AB
:1003900000542146284600F012FB322002F0AEFE47
:1003A000F7E700000010014001228A40024201D01C
:1003B0000120704700207047FEE70000074D00262F
:1003C00005F10804AD272878042805D0207067704F
:1003D0000A2000F0EDF9F6E72E70F4E700000020A7
:1003E0000349097A09B100F04DB800F003B80000E4
:1003F000800000202DE9F04FDFF8849006460020B1
:10040000024699F80BA099F80CB099F80E4099F8AB
:10041000053099F8035099F80770D9F820E029E0E1
:10042000521C0A2926D015B104FB030021E05145D6
:1004300001D3594502D989F80D4016E0A1EB0A080D
:1004400008EB0E0C9CF8078089F80D80A1F1D40808
:10045000B8F1060F06D9A1F1E708B8F1050F01D9E7
:10046000D12902D1002189F80D1099F80D1001FB56
:1004700003003844B15C0029D2D1BDE8F08F000000
:10048000800000202DE9F84F90490446002091F8A3
:1004900007E0034691F80B904D7991F80CA08E7B04
:1004A000CF78D1F820B009E15B1C0A2A02D017B13D
:1004B00006FB050002E14A4501D3524501D94E73BE
:1004C000FCE0382A36D00CDCA2F12C0CBCF10C0F6D
:1004D0003AD2DFE80CF0363938392F2F2F2F2F2F53
:1004E0002F2F8D2A14D008DC392A23D03B2A26D07E
:1004F0003F2A22D0812A27D108E08E2A0AD0902ACA
:100500000AD0982A0AD0E12A1ED109E0EA221BE08B
:10051000EB2219E0EE2217E0EF2215E0DF2213E0D4
:10052000E25C5B1C8A72C72A02D0E1225B1E0BE0F0
:10053000FB2209E0203AD2B206E0BF2204E01F22EB
:1005400002E01D2200E01C2214F803C081F80AC05A
:10055000CDF800C0BCF1370F4DD00CDCACF12C0C49
:10056000BCF10B0F2CD2DFE80CF0512B542B46467C
:10057000464646464600BCF1810F1AD00CDCBCF161
:10058000380F38D0BCF1390F35D0BCF13B0F3AD021
:10059000BCF13F0F14D133E0BCF18D0F0CD0BCF196
:1005A0008E0F1FD0BCF1900F1FD0BCF1980F07D158
:1005B0001EE04FF0EA0C01E04FF0EB0C81F80AC0AE
:1005C000C02A6DD991F809C0BCF1C00F24D90CEB39
:1005D0004C08DFF8FCC00CEB480CACF5805C9CF8D8
:1005E0007FCB1BE04FF0EE0CE8E74FF0EF0CE5E7B8
:1005F0004FF0DF0CE2E7DDF800C0ACF1200CDDE7E6
:100600004FF0BF0CDAE74FF01F0CD7E74FF01D0C8F
:10061000D4E74FF01C0CD1E74FF0000CCDF800C030
:1006200091F80AC0BCF1C00F0AD90CEB4C08DFF8F6
:10063000A0C00CEB480CACF5805C9CF87ECB01E0D4
:100640004FF0000CDDF800804CEA480C0CF0FF0C79
:10065000CDF800C0BCF1010F02D94FF0000C00E052
:10066000F44681F807C0DFF868C002EB42080CEBE3
:100670004808DDF800C0C444ACF5805C9CF87ACB37
:10068000ACEB090808EB0B0C9CF807C081F80DC017
:100690000CFB050091F807C081F807E060440CE00E
:1006A000A2EB090808EB0B0C9CF807C081F80DC001
:1006B0000CFB05000EF0FF0C60444A72E25C002A5D
:1006C0007FF4F2AEFF224A72BDE8F88F800000206E
:1006D000484E00087047000070B50122094D5403D0
:1006E0002146284600F073F9012001F0C5FC0022E4
:1006F0002146284600F06BF9BDE87040012001F06A
:10070000BBBC0000000C0140054D4FF400542146D5
:10071000284600F054F9192002F0F0FCF7E7000039
:10072000001001401CB5002001F0D6FA00243F2340
:100730007F2221462046009401F03CFA40F2DC552D
:100740000D26002202231146134801F0BDF9284668
:1007500000F02EF800213F237F220846009401F08C
:1007600029FA002002F0A0FA0C4801F08FFC0CA03E
:10077000CDE9000628237F221421002002F03EFB51
:10078000284600F015F800213F237F2208460094F8
:1007900001F010FAD5E70000BC490008383B00081A
:1007A000454C454354524F4E2044524956454E0005
:1007B00070B5044600F010F90546601C02D00448EC
:1007C0000078044400F008F9401BA042FAD370BD41
:1007D000100000202DE9F84FDFF8B891002409F14E
:1007E000040A0AF1040B23460F270BF1040EC9E09B
:1007F0000125A5402A40AA427DD1674ED1F804C008
:10080000ACEB0608B44532D014DCBCF1030F3AD08F
:1008100009DCBCF1000F2AD0BCF1010F1CD0BCF1E7
:10082000020F31D11DE0BCF1110F17D0BCF1120F36
:100830002AD119E0B8F5881F19D006DCB8F5803F39
:1008400015D0B8F5801F1FD111E0B8F5001F0ED0EC
:10085000B8F5041F18D10AE0CB6815E0CB681B1D62
:1008600012E0CB6808330FE0CB680C330CE08B68E8
:100870002BB1012B4FF0080303D0456104E00423A2
:1008800002E0056100E00023FF2A01D8064601E0EE
:1008900000F104064FEA840501D9A5F12005D6F838
:1008A000008007FA05FC28EA0C0803FA05F548EA77
:1008B0000508C6F800804D68ED0062D5374DAE6979
:1008C00046F00106AE61AD6924F0030605F00105AE
:1008D0000095334D06EB050CDCF80850A607360FE3
:1008E00007FA06F825EA0805DFF8B880404503D185
:1008F0004FF0000817E044E0DFF8AC80404502D13B
:100900004FF001080FE0DFF8A480404502D14FF01E
:10091000020808E0DFF89880404502D14FF0030854
:1009200001E04FF0040808FA06F848EA0508CCF898
:1009300008804D68D9F80060ED034D4601D5164397
:1009400000E096432E604D68DAF80060AD0355462E
:1009500001D5164300E096432E604D68DBF8006039
:10096000ED025D4601D5164300E096432E604D68CA
:10097000DEF80060AD02754601D5164300E09643EF
:100980002E60641C0D682A46E5407FF431AFBDE857
:10099000F88F000000040140000011100010024018
:1009A0000000014000080140000C0140001001401F
:1009B000001401408068084000D001207047C268E0
:1009C00021EA02030A4043EA0241016170470AB189
:1009D000016170470904FBE7014880687047000027
:1009E000100000200248816802781144816070473D
:1009F00010000020074810B5016841F010010160A7
:100A0000032000F095F80F2000F006F800F03EF803
:100A1000002010BD0020024000B5014687B0002232
:100A2000192000F065F8192000F054F81348816986
:100A300041F400618161806905A900F400600690BD
:100A4000684600F0FDF900F02BFA0D490D4AB0FBA5
:100A5000F1F10D48491E0260416040F2E732002189
:100A6000C0E90321816000F0F3FD10B1012007B05F
:100A700000BD054800F01AFEF9E700000010024032
:100A800040420F00002C0140F00300200F4808B541
:100A9000816941F001018161816901F001010091E9
:100AA000C16941F08051C161C069002200F08050ED
:100AB00000900F21901E00F01BF80548416821F0BE
:100AC000E06141F00071416008BD0000001002408B
:100AD00000000140002809DB00F01F0201219140C5
:100AE0004009800000F1E020C0F8001170470000CC
:100AF000F0B40E4B1B680C46C3F30223C3F1070589
:100B0000042D00D90425191D072901D2002300E076
:100B1000DB1E012606FA05F1491E214099409E4040
:100B2000761E16403143F0BC02F062BA0CED00E0D4
:100B3000064900F0070208684FF6FF03184040EA34
:100B40000220034A10430860704700000CED00E0EB
:100B50000000FA05014901200862704700000E42BA
:100B600010B528A401461DCC86B08DE81D0029A033
:100B7000294C006804900020012923D0022939D093
:100B800010291DD161682268D20119D5C1F38342B1
:100B9000C9031DF8020009D5616804AAC1F34041E8
:100BA000515C1E4AB2FBF1F1484301E01C49484345
:100BB0006168490204D440005FF00301B0FBF1F02A
:100BC00006B010BD226AC2F30121012903D19207A8
:100BD00001D5C803F4E7022905D1626A920702D55C
:100BE00049F64040ECE70329EAD121688903E7D5BB
:100BF0000C48E5E700F054F96168C1F38131491C04
:100C00004900DBE702030405060708090A0B0C0D7F
:100C10000E0F10100102000000100240001BB70070
:100C200000093D00366E01002DE9F84305460078C5
:100C3000354CC00754D0E0690026C00008D4E069F4
:100C400040F08050E061E069012600F080500090A3
:100C50002E480168C90512D40168804641F48071AC
:100C60000160FFF7B9FE074605E000BFFFF7B4FEDD
:100C7000C01B642823D8D8F80000C005F6D5206A28
:100C800010F4407021D0A98801F4407181421CD039
:100C9000206A1F49012220F440700A6000220A6085
:100CA0002062C00711D0FFF797FE074641F288384F
:100CB00008E000BFFFF790FEC11B414502D90320A9
:100CC000BDE8F883206A8007F4D5206A696820F4BB
:100CD0004070084320621EB1E06920F08050E0615E
:100CE0002878800705D56068A96820F4404008434B
:100CF00060602878C00605D56068E96820F4800047
:100D0000084360600020DBE70010024000700040F4
:100D1000400442422DE9F0470F46050061D0434EA2
:100D2000306800F00700B84209D2306820F00700B0
:100D300038433060306800F00700B84251D128686D
:100D40003B4C810712D5400703D5606840F4E06052
:100D500060602878000703D5606840F460506060E8
:100D60006068A96820F0F000084360602878C00738
:100D700028D06868012810D02168022810D089077F
:100D800000292EDA616821F0030101436160FFF759
:100D900023FE804641F288390DE021688903EFE7A0
:100DA0008901EDE7FFF718FEA0EB0801494502D9DC
:100DB0000320BDE8F0876068696800F00C00B0EBC4
:100DC000810FEFD1306800F00700B8420BD93068CE
:100DD00020F0070038433060306800F00700B84268
:100DE00001D00120E5E72878400705D56068E9686B
:100DF00020F4E060084360602878000706D560684A
:100E0000296920F4605040EAC100606000F058F8A1
:100E10006168084AC1F30311515CC8400649086083
:100E200006480068FFF7F8FD0020C2E700200240F6
:100E300000100240304E00081C000020140000206A
:100E40000F2202600C4A536803F0030343605368A7
:100E500003F0F0038360536803F4E063C3605268F7
:100E60004FF4E06303EAD20202610448006800F034
:100E70000700086070470000001002400020024098
:100E80000448054900684968044AC1F30221515CDD
:100E9000C84070471C00002000100240404E00086F
:100EA0000448054900684968044AC1F3C221515CFD
:100EB000C84070471C00002000100240404E00084F
:100EC00013A185B00FC98DE80F0015A0154A006861
:100ED0000490516801F00C00042804D0082804D0C4
:100EE000114805B070471148FBE7C1F38343C903BC
:100EF0001DF8030009D5516804AAC1F34041515CB3
:100F00000A4A5043B0FBF1F0EBE709494843E8E7F0
:100F100002030405060708090A0B0C0D0E0F10103A
:100F2000010200000010024000127A00001BB7000E
:100F300000093D002DE9F84F040070D02078C04D25
:100F4000C00749D06868C0F38100012807D06868ED
:100F5000C0F38100022809D16868C00306D528685B
:100F6000800339D560680028E7D035E06068B0F5C7
:100F7000803F0BD010B1B0F5A02F11D0286820F41D
:100F800080302860286820F4802002E0286840F43F
:100F900080302860606890B1FFF71EFD06460AE0C9
:100FA000286840F480202860F0E700BFFFF714FDB8
:100FB000801B642873D828688003F7D50CE0FFF7FE
:100FC0000BFD064605E000BFFFF706FD801B642809
:100FD000F0D828688003F7D420789A4E80074FF025
:100FE00001094FF0000839D5686810F00C0F07D0E0
:100FF0006868C0F38100022809D16868C00306D47C
:101000002868800714D52069012808D110E02069DC
:10101000B0B1C6F80090FFF7DFFC074605E00AE133
:10102000FFF7DAFCC01B0228C4D828688007F7D570
:101030002868616920F0F80040EAC10028600DE0EE
:10104000C6F80080FFF7C8FC074604E0FFF7C4FCC1
:10105000C01B022823D828688007F7D4207800070F
:101060002CD57948A169D9B1C0F80090FFF7B4FC3C
:10107000074604E0FFF7B0FCC01B02280FD8686ADF
:101080008007F7D571484FF4FA510068B0FBF1F0D2
:10109000009000BF0098411E0091FAD20EE080E05F
:1010A000C0F80080FFF798FC074604E0FFF794FCC7
:1010B000C01B022875D8686A8007F7D420784007DB
:1010C00060D5E8690027C00008D4E86940F0805086
:1010D000E861E869012700F0805000905C480168F1
:1010E000C90513D40168834641F480710160FFF79C
:1010F00073FC824606E000BFFFF76EFCA0EB0A001F
:1011000064284ED8DBF80000C005F5D5E06801285A
:101110000AD008B1052813D0286A20F001002862FF
:10112000286A20F0040002E0286A40F001002862EA
:10113000E06841F2883B98B1FFF74EFC82460BE035
:10114000286A40F004002862EEE700BFFFF744FC85
:10115000A0EB0A0159455AD8286A8007F6D50CE059
:10116000FFF73AFC824605E0FFF736FCA0EB0A01E8
:1011700059454CD8286A8007F6D41FB1E86920F099
:101180008050E861E06988B36968C1F38101022990
:1011900044D00228C6F8608004D0FFF71DFC044646
:1011A00038E034E0FFF718FC074604E0FFF714FCD2
:1011B000C01B02282BD828688001F7D4206AB0F51C
:1011C000803F05D16868A16820F40030084368605A
:1011D000D4E908010843696821F474110843686080
:1011E000C6F86090FFF7F8FB044606E025E000BF74
:1011F000FFF7F2FB001B022809D828688001F7D509
:101200001BE000BFFFF7E8FB001B022802D9032008
:10121000BDE8F88F28688001F4D40EE00128F7D0EB
:101220006868226A00F48031914204D1616A00F456
:101230007010884201D00120EAE70020E8E70000B2
:101240000010024000004242800442421C00002084
:10125000007000407047704710B504460068016890
:10126000C90717D04168C90714D040684007204615
:1012700007D5FFF7F0FF21686FF0040048600420F5
:1012800002E0FFF7E7FF012060742068416821F069
:101290000101416010BD000070B5040003D0607C06
:1012A000002610B105E0012070BD2674204600F034
:1012B00043F802206074204600F01AF9042578BB38
:1012C000204601F0CCFA58BB2068416821F00701A4
:1012D0004160A06820B11748016821F00101016058
:1012E0001448001F0168A26821F460711143016075
:1012F0006068411C04D10120FFF732FC80B1401E20
:1013000021688A6822F00F0242EA10428A6021684E
:10131000CA6860F30F02CA60204601F0BBFA08B148
:101320006574C0E7E67301206073A07360740020E9
:1013300070BD0000306C004008B500680D4988425F
:1013400017D1FFF707FC0C48C16941F00061C1618A
:10135000C0690A4900F00060009001200860002286
:1013600005210320FFF7C4FBBDE808400320FFF779
:10137000B1BB08BD00280040001002403C044242BE
:101380002DE9F0410D4604003BD0C5B3207C012877
:101390003AD04FF0010884F8108002206074E87899
:1013A00072B301F053FAE073687801F04FFA60739A
:1013B000A87801F04BFAA073C2B2617BE07B01F028
:1013C000A2FA20732870204601F08DFA4FF4616173
:1013D000B0FBF1F1002518292DD91822B1FBF2F14B
:1013E000A1EB011101EB4101C1EB011100EBC116B1
:1013F0003146204601F0C6FA0427C8B90BE000E0E8
:1014000004E00120BDE8F0810220FBE7E07368788A
:101410006073A878CFE7204601F05EFA411C0AD03D
:10142000B04208D206490144204601F097FA10B1B3
:1014300067742574E5E784F8118025740020E1E7DE
:10144000805101002DE9F0410D46040024D01DB368
:10145000207C012823D04FF0010884F8108002205E
:1014600060742878EAB101F0F1F94FF4616100FB92
:1014700001F6687801F0EAF9C0EB001006EB80068F
:10148000A87801F0E3F935182946204601F07AFAE8
:101490000026042710BB0FE00120BDE8F0810220E8
:1014A000FBE74FF4616148436978C1EB011100EB40
:1014B0008100A9784518E7E72068416821F0050117
:1014C0004160204601F008FA411C0AD0A84208D227
:1014D00006490144204601F041FA10B167742674B0
:1014E000DAE784F8118026740020D6E780510100E5
:1014F00070B504000AD02068416821F008014160FD
:10150000FFF76AFA05464FF47A7608E0012070BDCD
:10151000FFF762FA401BB04201D9032070BD20687A
:1015200040680007F4D5002070BD70B5040009D0F4
:10153000606A002540B125616561A56294F851009B
:1015400040B10CE0012070BD6068B0F5827FF4D03E
:10155000E561F2E784F85050204600F03FF80220A1
:1015600084F851002068016821F040010160A088E2
:10157000218900F4827001F404410843A18901F437
:1015800000610843217C01F002010843217D01F044
:1015900001010843218B01F400710843217F01F010
:1015A0003801084394F8201001F080010843218D90
:1015B00001F40051084321680860A069042101EA90
:1015C0001040216848602068C16921F40061C16150
:1015D0006565012084F85100002070BD30B585B0EC
:1015E00000240094019402940394006814498842F2
:1015F00023D11448816941F480518161816901F4EA
:1016000080510491816941F00401816180690E4D2E
:1016100000F004000490B02000900220019003200C
:10162000039069462846FFF7D5F84020CDE900042D
:10163000694628460294FFF7CDF805B030BD00009A
:101640000030014000100240000801407047704720
:1016500010B5040003D094F83D0010B107E001205C
:1016600010BD002084F83C00204600F01EF8022047
:1016700084F83D00211D206801F08AFB012084F8D8
:10168000460084F83E0084F83F0084F8400084F867
:10169000410084F8420084F8430084F8440084F850
:1016A000450084F83D00002010BD704790F83D10C3
:1016B000012901D001207047022180F83D10016806
:1016C000CA6842F00102CA6000680B49884208D02B
:1016D000B0F1804F05D00949884202D008498842BC
:1016E00004D1816801F00701062903D0016841F0A7
:1016F0000101016000207047002C014000040040FF
:1017000000080040704770B50446006801694FF05A
:101710000005C943890715D4C168C943890711D495
:10172000E91E01610120207720688069800720463A
:1017300002D0FFF7E7FF04E000F098F8204600F041
:1017400096F8257720680169C943490717D4C1680D
:10175000C943490713D46FF00401016102202077C7
:101760002068806910F4407F204602D0FFF7CAFF4E
:1017700004E000F07BF8204600F079F82577206837
:101780000169C943090716D4C168C943090712D4BE
:101790006FF008010161042020772068C06980078C
:1017A000204602D0FFF7AEFF04E000F05FF82046CD
:1017B00000F05DF8257720680169C943C90617D490
:1017C000C168C943C90613D46FF010010161082034
:1017D00020772068C06910F4407F204602D0FFF7D0
:1017E00091FF04E000F042F8204600F040F8257731
:1017F00020680169C943C90708D1C168C943C9073D
:1018000004D1891E0161204600F032F82068016988
:10181000C943090609D4C168C943090605D46FF054
:10182000800101612046FFF711FF20680169C9436B
:10183000490609D4C168C943490605D46FF040017F
:101840000161204600F01EF820680169C94389063D
:101850000BD4C168C943890607D46FF02001016128
:101860002046BDE87040FFF7F2BE70BD704770477C
:1018700000680349884201D1FFF7B4B870470000FF
:10188000002C0140704770B5040004D094F83D006E
:10189000002510B106E0012070BD84F83C502046C0
:1018A00000F022F8242084F83D002068C16821F46B
:1018B0000051C160204601F02BFB2068016921F432
:1018C000904101612068416921F02A01416120684D
:1018D000C16841F40051C1602564202084F83D00B6
:1018E00084F83E00002070BDF0B585B0002400945F
:1018F000019402940394244A016824480226032791
:10190000234D91421DD1816941F4804181618169FA
:1019100001F480410491816941F004018161806991
:10192000694600F0040004905015CDE900060397C5
:101930002846FEF74FFF2815CDE9000469460294BA
:101940001DE0144A91421DD1C16941F40031C161C9
:10195000C16901F400310491816941F004018161A0
:101960008069694600F00400049009200090284630
:10197000FEF730FF0620CDE90006694603972846AA
:10198000FEF728FF05B0F0BD00380140001002400E
:101990000008014000440040FEE700001FB5FF20A2
:1019A000009000200190029069460248FEF712FF65
:1019B0001FBD0000000C014070B505460024E00684
:1019C000010E002000F05EF92946204600F005F8DF
:1019D000641CE4B2082CF2D370BD70B500240E462E
:1019E000C500E9B2204600F04DF9304600F094FA07
:1019F000641CE4B2802CF4D370BD00002DE9F041EA
:101A00002F4E3178402902D24FF0000409E04FF008
:101A1000010406D128B14FF001014FF0400000F061
:101A200049FA284D0022FF212846FEF7D0FFFFF794
:101A3000B5FF6F154FF48078C4B34CB10022414616
:101A40002846FEF7C4FF012239462846FEF7BFFFAD
:101A50004FF40048012241462846FEF7B8FF012214
:101A6000570339462846FEF7B2FF012000F004FB79
:101A700000F09CFF0446002239462846FEF7A7FFE7
:101A8000012000F0F9FA002241462846FEF79FFFA8
:101A900000F0E4FB7178307800F0F4F80848401E5C
:101AA000007800B1E443E0B2BDE8F081FFE7002236
:101AB00039462846FEF78BFF01224146C5E7000064
:101AC000A5000020000C01402DE9FF4F83B08146A6
:101AD0000078029099F80180049999F8020045462F
:101AE00029448246802903D90499C1F18001CDB2ED
:101AF00005990144402903D90598C0F14000C0B2BE
:101B0000410703D0012101EBD00000E0C00883466B
:101B100000200190069802280BD000200090AAF126
:101B20000100C3B2A8F10100C2B2DDE9040100F076
:101B300041F8002429E0059800EBC400C1B238291F
:101B400004D90598382100F007000190049800F0AE
:101B500099F80299002604FB081712E019F807000B
:101B6000009001987F1C38B100F084F9DDE9002174
:101B70008A401043C0B200E0009800F0CDF9761C16
:101B8000F6B2AE42EAD3641CE4B25C45D3D3069805
:101B900000280CD1AAF10100C3B2A8F10100C2B221
:101BA000DDE9040107B0BDE8F04F00F0FBB807B075
:101BB000BDE8F08F2DE9F05F174601F0070283467C
:101BC0005B1C891ADDB2FF20C2F10804DDF828A0F1
:101BD00001F0FF08AC4203DDC5F10801C8402C4606
:101BE000904000F0FF094146584600F04BF80026AF
:101BF0000CE000BF00F03EF9BAF1FF0F09D020EA77
:101C0000090000BF00F088F9761CF6B2BE42F1D997
:101C100014E040EA0900F5E7C4B208F10800C0B2D8
:101C200080460146584600F02DF8002604E0504654
:101C300000F072F9761CF6B2BE42F8D904F1080041
:101C4000A842E9D9AC4219D2291BFF208840C043E1
:101C5000C5B208F10800C1B2584600F013F80024DC
:101C60000AE000BF00F006F9BAF1FF0F08D0A84360
:101C700000F052F9641CE4B2BC42F3D9BDE8F09F15
:101C80002843F5E72DE9F04106467F281FD83F2974
:101C90001DD8104C26706170A078B0EBD10F0CD01D
:101CA000C808A07040F0B80700252946384600F063
:101CB00001F96D1CEDB2022DF7D32078810906F0F1
:101CC0003F00BDE8F04140F0400000F0F3B8BDE84F
:101CD000F0810000A500002038B5054600F036F878
:101CE000012291031748FEF772FE022000F0C4F9AA
:101CF000154800242146047044708470401E05700D
:101D00003F2000F0D7F801213F2000F0D3F8002158
:101D1000C02000F0CFF80121C02000F0CBF80DB1B9
:101D2000FF2000E00020FFF747FE00210846FFF7F4
:101D3000A9FF00213F237F2208460094FFF73AFFC6
:101D400038BD0000000C0140A500002010B5144C67
:101D500000224FF480412046FEF739FE0022FF2189
:101D60002046FEF734FE0022A1152046FEF72FFE86
:101D7000002261152046FEF72AFE0022A11420460B
:101D8000FEF725FE00224FF400412046FEF71FFE1D
:101D9000002261142046BDE81040FEF718BE000086
:101DA000000C01402DE9F047174601F0070282467A
:101DB0005B1C891ADDB2FF20C2F1080401F0FF08A4
:101DC000AC4203DDC5F10801C8402C46904000F04C
:101DD000FF0941465046FFF755FF00260EE000BFC1
:101DE00000F048F80146C843C0B200EA090021EA01
:101DF0000901084300F090F8761CF6B2BE42EFD914
:101E000014E0C4B208F10800C0B280460146504652
:101E1000FFF738FF002607E000F02CF8C043C0B2FF
:101E200000F07AF8761CF6B2BE42F5D904F108004B
:101E3000A842E6D9AC421BD2291BFF208840C043F0
:101E4000C5B208F10800C1B25046FFF71BFF0024DD
:101E50000CE000BF00F00EF80146C843C0B22840B5
:101E6000A943084300F058F8641CE4B2BC42F1D91D
:101E7000BDE8F08710B50120FFF7C0FDBDE81040B8
:101E80000020FFF7BBBD70B501F00704091B154624
:101E9000C9B2FFF7F7FEFFF7EDFF0121A140FF2DCB
:101EA00004D08843BDE8704000F036B80143C8B2A2
:101EB000F8E700002DE9F0414FF40075154C074696
:101EC0006E1011B1012908D011E0002229462046E8
:101ED000FEF77DFD0122314606E000223146204614
:101EE000FEF775FD012229462046FEF770FD4FF4EE
:101EF0008055002229462046FEF769FD384601F04C
:101F000065F8FEF7E9FB29462046BDE8F0410122CD
:101F1000FEF75DBD000C01402DE9F05F544E044614
:101F20003078802867D2402802D24FF0000508E0C0
:101F30004FF0010505D14FF001014FF04000FFF7D0
:101F4000B9FFB1467078DFF828A14A4E10F00707B4
:101F5000AAF1010A4FF4007B63D0FFF78BFF04FA6C
:101F600007F101439AF8000001F0FF0818B16FEA89
:101F7000080000F0FF08EDB355B100224FF4807166
:101F80003046FEF724FD012259463046FEF71FFD7C
:101F9000404601F01BF8FEF79FFB99F8011099F8F5
:101FA00000000831C9B2FFF76DFEFFF763FFC7F10C
:101FB0000801CC4004439AF8000008B1E043C4B2E1
:101FC0003DB355B100224FF480713046FEF7FFFC5F
:101FD000012259463046FEF7FAFC204600F0F6FF93
:101FE000FEF77AFB99F8011099F800000839C9B298
:101FF000401C01E005E030E0BDE8F05FC0B2FFF753
:1020000041BE002259463046FEF7E1FC0122110292
:10201000BBE7002259463046FEF7D9FC01221102E7
:10202000D8E79AF8000008B1E043C4B2BDB155B199
:1020300000224FF480713046FEF7C9FC0122594658
:102040003046FEF7C4FC204600F0C0FFFEF744FB1C
:1020500099F80010491C89F80010BDE8F09F002293
:1020600059463046FEF7B3FC01221102E8E70000B2
:10207000A5000020000C014010B5044602E0142029
:1020800000F0C6FF641EE4B2F9D210BD0849086230
:1020900082788A73C278CA73427812028A8203787D
:1020A0001A448A824279CA728079087370470000A4
:1020B000800000202DE9F04385B0002437480094CB
:1020C000019402940394816941F010018161816956
:1020D00001F010010491816941F020018161816961
:1020E00001F020010491816941F00401816181695D
:1020F00001F004010491816941F008018161806966
:10210000DFF89C8000F008004FF400550490002296
:1021100029464046FEF75BFCDFF888904FF6FF77D4
:10212000002239464846FEF752FC0126CDE900560A
:10213000022569464046CDE90245FEF74BFBCDE955
:10214000007669464846CDE90245FEF743FBE801C3
:10215000CDE90004144E694630460294FEF73AFB7E
:10216000A802CDE90004694630460294FEF732FB2E
:10217000E802CDE900050320039069463046FEF7EA
:1021800029FBA80300900948CDE9010469463046BF
:10219000FEF720FB05B0BDE8F08300000010024010
:1021A00000100140000C0140000801400000111027
:1021B0001CB5002416480194144900940160611E66
:1021C000C0E90114FFF768F8E8B98DF804408DF80C
:1021D00005408DF80640012201A90D48FFF732F9AC
:1021E00088B905208DF8000006208DF80100172021
:1021F0008DF802008DF80340012269460448FFF77C
:10220000BFF8002801D0FEF77FFA1CBD002800406F
:10221000A80000200F4810B50D4901604FF48271ED
:10222000416000218160C1604FF480220161C0E9FA
:1022300005122822C0E90721416281620A21C16298
:10224000FFF773F9002801D0FEF75EFA10BD000019
:1022500000300140BC000020FEE7FEE71FB5FF2074
:102260000090012001900220039069460348FEF788
:10227000B1FA69460248FEF7ADFA1FBD00100140F1
:10228000000C01402DE9FE4FDFF8C8814FF0000A35
:10229000464698F80B20D8F82040851A2544514628
:1022A000ED7988F80D5096F806C096F80FB0F769EA
:1022B00053460BFB0C76D6460A2818D0904218D30A
:1022C00098F80C70B946B84213D8B8F81470002FBB
:1022D0000FD0002D0DD0474698F803C07F79BCF190
:1022E000000F08D098F80E5088F80D5015E0C8E996
:1022F00006E6BDE8FE8FA0F1D40CBCF1060F06D9AE
:10230000A0F1E70CBCF1050F01D9D12805D1D8F80F
:1023100018C005FB17C5C8F81850A0F13005092DE5
:1023200004D8C2F13705655D88F80D5098F80DC0E6
:10233000D8F818500CFB07557F2D01D9C8E906E6DF
:10234000801A05E0E5185B1CED79DBB2294489B2FF
:102350009842F7DC01FB0BF1A9EB020001EBC00096
:10236000383080B2C10800F007090026029162E00F
:10237000002759E0B9F1070F05D90AF101024FF022
:1023800000091FFA82FA029A036A52441A445278E8
:1023900001924379826906FB032292B2009282780D
:1023A00042782AB18279C369C91B01FB023103E07B
:1023B0008279C16907FB02111FFA81FB002529E020
:1023C000002420E049460198FDF7EEFF50B118784F
:1023D0000028187C0CD0C2B200982844C1B20BEB84
:1023E00004000BE0187960B118780028987CF2D1CD
:1023F000C2B20BEB0400C1B200982844C0B2FFF790
:1024000042FD641CE4B298F8060043468442D9D3E6
:102410006D1CEDB298F805108D42D1D309F1010081
:102420007F1C00F0FF09FFB298F80F1040468F4262
:10243000A0D3761CF6B298F80D1040468E4297D382
:10244000C279816943791144427B02FB0311C8F8C8
:1024500018104EE7800000202DE9FE4F60494FF034
:10246000000A5246CC7A0D6A061BA94635440E4630
:10247000ED794D7396F806C096F80FB0F76953469C
:102480000BFB0C770A2826D0A04227D391F80C80AA
:10249000404523D88E8A002E20D0002D1ED0CD7826
:1024A0000DB18D7B4D734D7B4E79D1F818C005FB76
:1024B00016CCBCF1000F05D5CF6105FB06F7C7F1BF
:1024C0007F078F61CF7905FB06758E69751B8D615E
:1024D0004D46001B0AE07F20C1E90607BDE8FE8FDC
:1024E000EE185B1CF679DBB2324492B29842F7DC0C
:1024F00002FB0BF2A8EB040002EBC000383080B204
:10250000C20800F0070800268946029263E000270F
:102510005AE000BFB8F1070F05D90AF101024FF0E8
:1025200000081FFA82FA029A036A52441A44527847
:1025300001924379826906FB032292B2009282786B
:1025400042782AB1CA1B8379C16902FB031103E0F7
:102550008179C26907FB01211FFA81FB002529E06F
:10256000002420E041460198FDF71EFF50B1187885
:102570000028187C0CD0C2B200982844C1B20BEBE2
:1025800004000BE0187960B118780028987CF2D12B
:10259000C2B20BEB0400C1B200982844C0B2FFF7EE
:1025A00072FC641CE4B299F806004B468442D9D30D
:1025B0006D1CEDB299F805108D42D1D308F10100E0
:1025C0007F1C00F0FF08FFB299F80F1048468F42B9
:1025D000A0D3761CF6B299F80D108E4297D37DE702
:1025E000800000202DE9F0470446DDE90897984671
:1025F00015460E464846FDF7F3FE1F49A8EB0602B6
:1026000080B2CB7B91F806C003FB1C2202EBD27296
:1026100006EB620293B20E7A2A1B002E07F0030625
:1026200003D0EEB1012E1FD114E026B1012E05D04A
:10263000022E0DD108E0C879204408E0101A00EB02
:10264000D07004EB600002E0854201D9281A84B200
:102650008C610AE0101A00EBD070A5EB600002E07C
:10266000CA792044104485B28D614846CB61BDE8EB
:10267000F04700F003B800008000002070B5054668
:1026800008480024007A012807D12846BDE8704098
:1026900000F00AB8641CFFF7F5FD285D0028F9D1A9
:1026A00070BD0000800000202DE9F04F074665480E
:1026B0008DB0002690F807903546DFF88CA1EB46E8
:1026C0008046B5E06D1C8D2C18D00CDC3B2C2AD03C
:1026D00004DC2C2C29D02E2C2AD128E03F2C20D011
:1026E000812C25D108E08E2C0AD0902C0AD0982C71
:1026F0000AD0E12C1CD109E0EA2419E0EB2417E010
:10270000EE2415E0EF2413E0DF2411E0785D6D1C6A
:1027100088F80A00C72802D0E1246D1E08E0FB24D7
:1027200006E0BF2404E01F2402E01D2400E01C2476
:10273000785D88F80A00812812D008DC2C282DD07A
:102740002E282DD03B2827D03F280ED122E08D28DF
:1027500008D08E2818D0902818D0982805D117E0D6
:10276000EA2100E0EB2188F80A10C02C42D998F841
:102770000900C02816D900EB40020AEB4200A0F580
:10278000805090F87F0B0EE0EE21ECE7EF21EAE7B6
:10279000DF21E8E7BF21E6E71F21E4E71D21E2E7AB
:1027A0001C21E0E7002098F80A10C02908D901EBA5
:1027B00041020AEB4201A1F5805191F87E1B00E035
:1027C000002141EA4000C0B2012803D9002288F864
:1027D000072001E088F8079004EB44020AEB42016D
:1027E0000844A0F5805090F87A0BFFF735FE88F882
:1027F00007901BE0A4F13000092814D8761CF6B22B
:102800000BF8064098F80A1030390A2908D20DE072
:102810001BF806002038C0B2FFF71EFE761EF6B287
:10282000002EF5D102E02046FFF716FE88F8094099
:102830007C5D002C7FF446AFFF2188F809100DB0B5
:10284000BDE8F08F80000020484E0008010901EB30
:10285000810100F00F0000EB4100C0B2704770B57D
:102860000446FEF7B9F805464FF47A7606E0FEF71F
:10287000B3F8401BB04201D9032070BD2068406806
:102880008006F4D52068416841F0100141600020C5
:1028900070BD000070B504460068416821F0100169
:1028A0004160FEF799F805464FF47A7607E000BFDD
:1028B000FEF792F8401BB04201D9032070BD20689A
:1028C00040688006F4D5002070BD00000148FEF786
:1028D000C3BC0000A80000200168086A496A89B2E8
:1028E00041EA00407047006881698AB2C1698BB2D1
:1028F000816989B28A4203D0C06961F31F40704781
:1029000043EA02407047F0B56424C1EBC1030927D4
:10291000A500072603EB01130329B3FBF7F100F52C
:10292000FA60114401440AD2401EB0FBF4F201EBFC
:102930009001B0FBF5F0891A0844001D08E0B0FBD7
:10294000F4F201EB9001B0FBF5F0891A0844801C09
:10295000B0FBF6F106FB1100C0B2F0BD70B50D463C
:1029600006460024FFF77BFF48B93168280C08624F
:102970003168A8B248623046FFF78CFF00B10124ED
:10298000204670BD70B50D4606460024FFF767FF70
:1029900048B93168280C88613168A8B2C8613046EE
:1029A000FFF778FF00B10124204670BD70B5274CB9
:1029B0000020274D607001212846FDF7FBFF18B16C
:1029C000607840F00100607002212846FDF7F2FFB8
:1029D00018B1607840F00200607004212846FDF7CD
:1029E000E9FF18B1607840F00400607008212846C3
:1029F000FDF7E0FF18B1607840F00800607010212A
:102A00002846FDF7D7FF18B1607840F010006070DD
:102A100020212846FDF7CEFF18B1607840F0200055
:102A2000607040212846FDF7C5FF18B1607840F07E
:102A30004000607080212846FDF7BCFF18B1607827
:102A400040F080006070607870BD000000000020E1
:102A5000000C01402DE9F843074698469146089C32
:102A6000D51B0E46EAB200230094FFF7A3F8EAB2A2
:102A70000023414638460094FFF79CF8A8EB060572
:102A8000EBB20022314638460094FFF793F8EBB2E0
:102A90000022314648460094FFF78CF8BDE8F883E1
:102AA0002DE9FF4F85B08246DDE912400699914637
:102AB00021441A1B0291511A0025DDF8508000288C
:102AC0009B462646C4F1010701914046CDF800809F
:102AD0005DD0A9EB0A00C2B20298CBB2C1B2504697
:102AE000FFF768F805EB0900011BAAEB050020447D
:102AF000CDE90080081AC2B2029006980023801B1C
:102B00002044C1B20198C0B2FFF754F806EB0900A7
:102B1000011BAAEB060020440390081AC2B20490DD
:102B20000698CDF80080401B2044C1B203980023D2
:102B3000C0B2FFF73FF80498CDF80080C2B205EBB1
:102B40000B00001BC1B203980023C0B2FFF732F89C
:102B50000298CDF80080C2B206EB0B00001BC1B298
:102B600001980023C0B2FFF725F8002F04DA07EB25
:102B700045076D1CFF1C05E0A81B07EB40076D1CFB
:102B8000761E7F1DB542ADDD09B0BDE8F08F0AEBC2
:102B90000400A9EB04010390081AC2B20490039840
:102BA0000023C0B20699FFF705F80498CDF800801D
:102BB000C2B203980023C0B25946FEF7FBFF01984A
:102BC000CDF80080C3B202980022C1B25046FEF791
:102BD000F1FF0198CDF80080C3B202980022C1B283
:102BE0004846FEF7E7FF06984246801B2044C1B2E4
:102BF000029005EB0900001B0390C0B2FFF743F9F8
:102C000006984246401B2044C1B2009006EB0900E2
:102C1000001B0490C0B2FFF736F905EB0B00001B58
:102C2000C1B2019004984246C0B2FFF72CF906EBFE
:102C30000B00001BC1B2049003984246C0B2FFF7DC
:102C400022F904984246C1B2AAEB05002044039041
:102C5000C0B2FFF718F901984246C1B2AAEB0600CC
:102C600020440190C0B2FFF70EF900984246C1B26D
:102C70000198C0B2FFF707F902984246C1B2039823
:102C8000C0B2FFF700F9002F04DA07EB45076D1C0F
:102C9000FF1C05E0A81B07EB40076D1C761E7F1D7F
:102CA000B542A0DD70E7000004490128087202D097
:102CB0000020886170477F20FBE700008000002033
:102CC000074D002605F10804AD272878042805D013
:102CD000207067700A20FDF76BFDF6E72E70F4E7B1
:102CE0000000002010B5502080F31188BFF34F8FF3
:102CF000BFF36F8F00F05AFE18B104494FF08050B7
:102D00000860002080F3118810BD000004ED00E091
:102D100070B594B028216846FDF7D4FA14210AA8AA
:102D2000FDF7D0FA002501240F9511950520129585
:102D30000090CDE9025410954FF4803001900226A6
:102D40000494CDE90760000109906846FEF7F2F8A7
:102D500098B90F20CDE90A06A002CDE90C50022156
:102D60000AA80E95FDF7D6FF38B92002CDE90F402D
:102D70000FA8FDF759FF002801D0FDF7C5FC14B0DE
:102D800070BD70470148FEF7BEBC0000F003002094
:102D9000F0B50268164B174C174D4FF0804798421C
:102DA00005D0B84203D0A04201D0A84203D122F0FE
:102DB00070064A683243984205D0B84203D0A04218
:102DC00001D0A84203D122F44074CA6822434C695E
:102DD00022F08002224302608A68C2620A6882622C
:102DE000984201D10969016301214161F0BD0000F0
:102DF000002C014000040040000800402DE9FE4F77
:102E0000DFF808B10C4605460D9F91469BF812006D
:102E10001E467907A3EB040CA2EB050246D55FEA38
:102E2000171804F1010305F1010126D05FEA077CC0
:102E3000C7F3071A12D54FF0010CCDF800A0CDE969
:102E400001C0701E00F0FF08A9F10100C2B203F03A
:102E5000FF0CC8B243466146FFF722FE9BF81010F4
:102E60000022CDF800A0CDE90121F3B209F0FF0264
:102E7000E1B2E8B2FFF714FE22E05FEA07780AD574
:102E80000CF0FF0803F0FF0C0090C8B2D2B243462A
:102E90006146FEF78FFE9BF810000090F3B209F038
:102EA000FF02E1B2E8B2FFF7D5FD09E0390707D527
:102EB00000900CF0FF03D2B2E1B2E8B2FEF77AFE66
:102EC0009BF8000028B12846254604464846B146EE
:102ED00006460C9917F00C0F07F003000BD0CDE954
:102EE0000010761E641CA9F1010082B26D1CB3B201
:102EF000A1B2A8B205E0CDE9001033464A4621460A
:102F00002846FFF76FFBBDE8FE8F00008000002021
:102F100070B5044600680169E26821F4405111432C
:102F200001612169A0680843616908432168CA6892
:102F300041F20C639A430243CA6020684169A26966
:102F400021F44071114341611E492068884202D139
:102F5000FDF7A6FF01E0FDF793FF00EBC00101EBD9
:102F60000012606864218000B2FBF0F3B3FBF1F360
:102F70006FF018067343B2FBF0F5B2FBF0F605EB09
:102F80008305322303EB0515B5FBF1F5B6FBF1F62E
:102F900005F0F00505EB0615B2FBF0F6B2FBF0F01C
:102FA000B0FBF1F06FF01802504306EB800003EB2A
:102FB0000010B0FBF1F0216800F00F002844886099
:102FC00070BD000000380140FEE7000070B5074DFD
:102FD00004460022FF212846FDF7F9FC2146284639
:102FE000BDE870400122FDF7F2BC0000000C01407A
:102FF0000907090E002804DB00F1E02080F8001426
:10300000704700F00F0000F1E02080F8141D7047B9
:1030100002460020014601E00844491C9142FBD9C8
:10302000704700009CB0FDF7E5FCFFF771FEFFF76D
:1030300041F82B4829494FF4E13501600024C0E9EB
:1030400001540C26C460C0E90446B101C0E906146D
:10305000FEF719FC78B9FFF7ABF82148214944384D
:103060000160C0E90154C460C0E904468461C461E0
:10307000FEF709FC08B1FDF747FBFFF7CBF81C2270
:1030800019496846FDF7ECF80021684600F042F85F
:10309000164C15491C2260601C3107A8FDF7E0F8AA
:1030A000002107A800F036F80F4960601C22383173
:1030B0000EA8FDF7D5F800210EA800F02BF80A495C
:1030C00060601C22543115A8FDF7CAF8002115A82C
:1030D00000F020F8606000F018F8FEE700440040BF
:1030E0005801002000380140C04D000800000020B9
:1030F00001460020842900D0C81C704710B500B9D3
:10310000012000F015FB002010BD10B500F036FBCB
:10311000002010BD7FB50D4604464169B0F9080096
:1031200081B1A16971B1FFF7E3FFD4E905128DE820
:103130000700D4E900102B46226900F00CFC039034
:1031400004B070BDFFF7D4FF03A9CDE90001208AC8
:103150002B4682B2D4E9001000F0D0FB012801D048
:103160000020EDE70398EBE72DE9F041184C0F46FE
:10317000054666692068001D00F016FA38B9206817
:1031800090F82C1001208840A1698143A161681C3E
:1031900007D137B12168BDE8F0410E48091D00F0A4
:1031A00047BA20683544B5424560216805D2A06819
:1031B000BDE8F041091D00F023BA6068091D00F068
:1031C0001FFA206B854200D22563BDE8F081000024
:1031D00020000020140500202DE9F041054600F0F4
:1031E00033FA2E4C2069401C206120682C4F10B10E
:1031F000E06940B32DE025602069012829D100262F
:1032000006EB860007EB800000F0ECF9761C072E39
:10321000F6D323488C3000F0E5F92148A03000F0C7
:10322000E1F91F48B43000F0DDF91D48C83000F066
:10323000D9F91B48DC3000F0D5F919488C306060B2
:103240001430A06005E02068E96AC06A884200D8AE
:103250002560E06A401CE062E96A0120A2698840BA
:103260001043A06101EB810007EB8000291D00F0F5
:10327000DFF900F009FAE06900280CD02068E96A5B
:10328000C06A884207D207494FF080500860BFF3F8
:103290004F8FBFF36F8FBDE8F0810000200000204A
:1032A0003804002004ED00E010B5044690F8510009
:1032B00058B101280CD002280FD0502080F311887B
:1032C000BFF34F8FBFF36F8FFEE7206B00F0F0F975
:1032D0002046BDE8104000F0EBB910BD10484FF497
:1032E0004061420706D0C01D0D4920F00700411A79
:1032F000C1F540610B4A00230144C2E900030839CB
:10330000103A21F0070111604B600B600B1AC0E905
:10331000001393604FF000405360D060704700008E
:10332000280500206C000020144E154CA6F1C8079B
:103330004FF08058DFF84C9012E000BF00F084F9A5
:10334000F068C568281D00F02FF92069401E206133
:10335000E068401EE06000F097F92846FFF7A4FF00
:10336000E0680028EAD138680128F9D9C9F8008056
:10337000BFF34F8FBFF36F8FF2E70000000500200F
:103380002000002004ED00E02DE9F0479A46DDE939
:10339000098481466FF00303206B03EB8202104423
:1033A000089D20F00706700707D0502080F3118891
:1033B000BFF34F8FBFF36F8FFEE723180A5C83F8CC
:1033C00034200A5C12B1401C1028F6D3002784F880
:1033D0004370072D00D30625E562C4E91157201D6F
:1033E00000F00BF904F1180000F007F92461C5F1B1
:1033F00007006462A061E76484F850705246494651
:10340000304600F0BFF82060B8F1000F01D0C8F8D6
:103410000040BDE8F087000030B5114900E01146DA
:103420000A688242FBD34B685C18844203D140682F
:1034300018444860084643681C18944209D1084C57
:10344000103C2468A24209D052681A4442600A68BB
:1034500012680260814200D0086030BD0460F9E764
:103460006C00002006484168096829B14168C968B4
:10347000C9684968016370474FF0FF31FAE70000FF
:103480002000002008484068401C4FF0500080F3A6
:10349000118804D0BFF34F8FBFF36F8FFEE7BFF3E8
:1034A0004F8FBFF36F8FFEE7740000202DE9F041CE
:1034B0000546002700F098F9314E306808B9FFF74B
:1034C0000DFFF06805424BD1C5B3083568070ED033
:1034D00005F00700C0F108000544680707D0502038
:1034E00080F31188BFF34F8FBFF36F8FFEE72DB3CB
:1034F0007068854234D82248103001460C6801E0DB
:1035000020460C466168A94202D221680029F7D101
:1035100031688C4224D007682168016060680837F0
:10352000411B10290FD96019420708D0502080F3A1
:103530001188BFF34F8FBFF36F8FFEE710E041603C
:103540006560FFF769FF61687068401A7060B26873
:10355000904200D2B060F06801430020C4E900014D
:1035600000F088FA780707D0502080F31188BFF365
:103570004F8FBFF36F8FFEE73846BDE8F081000044
:103580005C00002010B5031F4FF080741C601B1FEF
:1035900021F001011960191F024B0B6014394038EA
:1035A0000A6010BD85340008D0E9013201699A60D3
:1035B000D0E901235A604A68824201D182684A6098
:1035C000002202610868401E086008687047000019
:1035D000034B036003F154000860802010607047C3
:1035E0009C01002000F108014FF0FF32C0E90112F8
:1035F000C1600161002101607047002101617047D5
:1036000030B50B685A1C02D000F1080202E00269D2
:1036100004E02246546825689D42FAD953684B60FD
:1036200099608A60516008610168491C016030BD81
:1036300042684A6093688B60936859609160086142
:103640000168491C01607047502080F31188BFF366
:103650004F8FBFF36F8F0A494868401C48600128AC
:103660000CD10848006810F0FF0F07D0502080F3FD
:103670001188BFF34F8FBFF36F8FFEE770470000D5
:103680007400002004ED00E00849486828B1401E9D
:10369000486001D180F311887047502080F3118871
:1036A000BFF34F8FBFF36F8FFEE700007400002061
:1036B00070B5002827D0144DA0F108046168E868AF
:1036C000014207D1502080F31188BFF34F8FBFF321
:1036D0006F8FFEE722683AB1502080F31188BFF364
:1036E0004F8FBFF36F8FFEE78143616000F07CF87E
:1036F00060686968084468602046FFF78DFEBDE891
:10370000704000F0B7B970BD5C0000204FF0E020C1
:1037100000210161816105494FF47A720968B1FBAA
:10372000F2F1491E41610721016170471C00002030
:1037300010B5020014D00F48806B38B1502080F3D0
:103740001188BFF34F8FBFF36F8FFEE700F04CF887
:1037500000211046FFF708FD00F08CF9002807D182
:1037600005494FF080500860BFF34F8FBFF36F8F54
:1037700010BD00002000002004ED00E010B586B070
:103780000024039405AA04A903A80494FFF720FFCA
:10379000DDE903010094CDE9011000230EA11048DA
:1037A000059A00F0D8F80F490028486311D050203E
:1037B00080F31188BFF34F8FBFF36F8F4FF0FF304F
:1037C00008630120C8614C6106B0BDE8104000F0FC
:1037D00041B806B010BD000049444C45000000004F
:1037E00029330008200000200248816B491C8163B6
:1037F00070470000200000201448816B11B10121A6
:1038000041627047002141628169B1FA81F1C1F1E1
:103810001F0101EB81020E4951F822306BB101EB1F
:10382000820101F108034A6852684A609A4201D154
:1038300052684A60D16801607047502080F3118857
:10384000BFF34F8FBFF36F8FFEE700002000002013
:10385000380400201CB5264908780190FF20087024
:1038600008788DF800009DF800009DF8002000F019
:10387000F000904207D0502080F31188BFF34F8FA3
:10388000BFF36F8FFEE79DF800001A4B00F0500069
:1038900018700720986005E09DF8002052008DF810
:1038A0000020401E9DF800201206F5D498600328E1
:1038B00007D0502080F31188BFF34F8FBFF36F8F75
:1038C000FEE74FF440709860019808700A4801685C
:1038D00041F470010160016841F070410160FFF73F
:1038E00015FF00205860FCF761FC00201CBD0000A3
:1038F00000E400E07400002020ED00E02DE9FF5F0F
:103900008346DDE90E87994616468A469000FFF702
:10391000CDFD05001CD05420FFF7C8FD040014D0D5
:103920000020256384F85100CDE90240CDE90087ED
:103930004B46324651465846FFF726FD2046FFF7D4
:103940004BFC012004B0BDE8F09F2846FFF7B0FE15
:103950004FF0FF30F6E7F0B585B0DDE90B640A9D66
:10396000A6B1DCB1542700972663022684F8516083
:10397000002604AFCDE90246CDE90057FFF704FD6C
:103980002046FFF729FC049805B0F0BD502080F3D5
:103990001188BFF34F8FBFF36F8FFEE7502080F386
:1039A0001188BFF34F8FBFF36F8FFEE72DE9F04112
:1039B0002E4C0027A06B40B1206A401C2062606A38
:1039C00000B101273846BDE8F0816669761C666162
:1039D00013D16068006838B1502080F31188BFF3BC
:1039E0004F8FBFF36F8FFEE76068A1686160A060D2
:1039F000A06A401CA062FFF735FD206BDFF87080E5
:103A0000864209D36068006880B16068C068C56894
:103A1000686886420DD220632068C06A00EB80018E
:103A200058F821000128CAD90127C8E74FF0FF3014
:103A3000F1E7281DFFF7B8FDA86A18B105F11800D5
:103A4000FFF7B2FDE86A0121A26981401143A1613B
:103A500000EB800108EB8100291DFFF7E9FDE86A12
:103A60002168C96A8842CDD30127CBE72000002016
:103A7000380400202DE9F0472C4D00242746A86B80
:103A800038B1FFF7E1FDA86B401EA863A86B40B1F9
:103A900046E0502080F31188BFF34F8FBFF36F8F44
:103AA000FEE72969224E0120D1B3A6F1B409804670
:103AB0003068E8B1F068C46804F11800FFF774FDDD
:103AC000201DFFF771FDE06AAA6908FA00F11143B1
:103AD000A96100EB800109EB8100211DFFF7A8FD22
:103AE000E06A2968C96A8842E2D3C5F82480DFE722
:103AF0000CB1FFF7B7FC2C6A44B14646FFF756FFFE
:103B000000B16E62641EF9D100202862686A38B183
:103B10000849012738070860BFF34F8FBFF36F8F45
:103B2000FFF7B2FD3846BDE8F08700002000002016
:103B3000EC04002004ED00E00E840C100100FF05F1
:103B400006060604040408090809080909090B0304
:103B50000205060707060707050B0604040404020E
:103B60000103080705080103030707040602090605
:103B700005060606060606060602040506050608EC
:103B800009070707070708090508080709090707BC
:103B900007080709090909090907030803070902B2
:103BA00007070707070607070505070509070707AA
:103BB000070807070709090709070501040707059B
:103BC0000806050909070707090906050806040983
:103BD0000606080908080904080406080809080870
:103BE0000404080807050806090408040409040673
:103BF000080809080909040509040809090908044D
:103C00000406040703090108060808080808040454
:103C100006060E0E0F0F0808080707030A08080813
:103C2000070806080506080808080809090707061E
:103C30000704040806060807080508070409040025
:103C4000000000F8030004000400000A000500F56D
:103C50000300040004000004000200FA030204014F
:103C6000040000000000A0F8530054000400040009
:103C700004802400030004100480041003000410D6
:103C80000484041003000400040005800480240060
:103C900005000600040000801C4022404140418095
:103CA0004880418042802400040004000580048094
:103CB000040005000600040000801C402240414032
:103CC000418040804180428024000400040005902F
:103CD0000480040005000600040000801C40224807
:103CE0004140418040804180428024000400040023
:103CF00003000400040003000400040003000400A7
:103D0000040003000420040803200400040003004E
:103D10000400040003000400040006000580048081
:103D200004800400030001800300013000C01F3044
:103D300000E000401F400030003000E000401F3035
:103D400000400030002000F000E01F600090009074
:103D5000004000000E80115010200C401080110017
:103D60000EC010200910051003200180003000C093
:103D7000000003001C0003C0003000001800068093
:103D8000017000800100060018600090009000E0C3
:103D900007001800040004000300040004000610DB
:103DA0000580048004800400030004800540064070
:103DB0000480040002000000008001800100000077
:103DC000008003400300000000C002C001000000AA
:103DD00000E004900400000000FE05780000007878
:103DE000000002401EC0037802401EC0037802405B
:103DF00000C01120222022306220222022401C06F6
:103E0000068001600018000606000E701188100878
:103E1000110812100C000C00127800C01F3060084E
:103E20008008803060C01F8000A002E003C001E075
:103E300003A0028000800080008000F007800080E6
:103E40000080000020003800180008000100010078
:103E50000100010001000100180018000800040022
:103E600002000180004000200010000800F00F0850
:103E700010081008100810F00F10101010F81F0094
:103E80001000101018081408120811881070101073
:103E9000080810881088108810700F0003800260D6
:103EA000021012F81F0012F8088810881088108875
:103EB00010080FE00F1011881088108810000F18DC
:103EC0000008180806880168001800700F8810881C
:103ED0001088108810700FF0000811081108118860
:103EE00008F007C018C0180020C038C0180008002B
:103EF00001800240042008101080028002800280AD
:103F0000028002800210102008400480020001108C
:103F10000008000816080188007000E00F101088E3
:103F20002348244824C8231024E0030010001C88E0
:103F3000136802180260028013001C00100810F8B9
:103F40001F8810881088108810700FE0071008086C
:103F50001008100810101078080810F81F08100832
:103F60001008101008E0070810F81F88108810C803
:103F700011081018180810F81F88108810C80108B8
:103F8000001800E007100808100810081110117838
:103F90000F00010810F81F88108000800080008842
:103FA00010F81F081008100810F81F08100810005B
:103FB0000C0010001008100810F80F080008000886
:103FC00010F81F0811800168021804081800100872
:103FD00010F81F081008100010001000180810F842
:103FE0001F60108001000680016010F81F08100893
:103FF00010F81F2010C010000108060808F81F085C
:1040000000E00710080810081008101008E0070862
:1040100010F81F0811081108010801F000E007104E
:10402000480850083008301048E0470810F81F08CA
:1040300011080108030805F0180010701C88088892
:1040400010881008111011380E1800080008100808
:1040500010F81F08100810080018000800F80F08D2
:10406000080010001000100808F80F0800080038B9
:1040700000C801000600180006C8013800080078D2
:10408000008803001C800360008003001C88037804
:104090000008101818281440028001400228141843
:1040A0001808100800180068108010001F801068A1
:1040B0001018000800181808140812881148102851
:1040C000101818FE3F02200220100020004000803F
:1040D00000000100020004000802200220FE3F4010
:1040E00000200010000800100020004000004000E8
:1040F00040004000400040004000400040004008B8
:10410000001000000E4011401140114011800F00BE
:10411000100810F81F8008401040108008000700A9
:104120000780084010401040108008C00800078039
:1041300008401040108808F81F00100007800A404F
:104140001240124012800A000B8010F01F88108865
:10415000100800100000638084408840888084C07C
:104160007F40000810F81F801040004010801F00A2
:104170001040104010C81F00100010004000804088
:10418000804080C87F0810F81F08120803C0144040
:1041900018401008100810F81F001000104010C040
:1041A0001F80104000C01F80104000C01F00104042
:1041B00010C01F801040004010801F0010000780BA
:1041C00008401040104010800800074080C0FF8069
:1041D0008840904010800800070007800840104089
:1041E000908088C0FF408040104010C01F80104069
:1041F00010400040008000800940124012401240F0
:10420000124012800C40004000F00F40104010405F
:104210001000084000C00F001000104008C01F0030
:10422000104000C0004003000C0010000C4003C010
:104230000040004000C00F40180007C000000740C9
:1042400018C00740004010C018401500024015C0BB
:104250001840104000C0804083004C0030000C40EB
:1042600003C0004000C0104018401440124011C06C
:1042700010401800020002F07D08800880F8FF0856
:10428000800880F07D000230000800080010002047
:1042900000200018000000001C802248414041C05E
:1042A0004200440004800448054006800300038067
:1042B0000400140044001400040004000300000083
:1042C0000000200038001800080004880440054859
:1042D00006800300000020003800180008002000BD
:1042E000380018000800000018001800000018002E
:1042F000180000001800180000000020002000F83E
:104300003F200020000000000020082008F83F2087
:104310000820080000000010000800040008001039
:1043200000300C48023001800C4012200C180C00A8
:1043300012000C0004000400030004000400030049
:10434000040004000300000000000180024004207B
:104350000800046004500490040803801C402240BC
:104360004140458050804480408020002000200053
:1043700010201008082007000000000800100000AE
:104380000000038004000400046404520492040941
:10439000030000000020003000380008000000008A
:1043A0000020003800180008002000300038000805
:1043B00000200030003800080000002000380018FD
:1043C0000008002000380018000800000400040065
:1043D00004000F8014403280290004000000010016
:1043E00001000100010001000100010000000100C6
:1043F00001000100010001000100010001000000B6
:104400000008001000000008003800080038001004
:10441000001000380000000000080010000000003C
:1044200000200840048002000100380044004000E1
:10443000400048005400540034000400040015807B
:104440004480140005000600040000801C40224047
:104450004140458050804580428024000008001083
:1044600004200440028001F80300040038004400E6
:104470004000C0004800D400540034000000008018
:10448000034003000414048A040A030000000070BF
:1044900011881F08110811301000100000000008DA
:1044A00001F00090009000F00008010000080010EA
:1044B00000200C400A8009F80E00000000000000F7
:1044C00000F8F80000C0303021282248248828084D
:1044D0001918060000000008000000000008000095
:1044E00000F0030804E409140A140A24090804F07B
:1044F00003000000000800100000004000A00010B1
:10450000014802A000100108021800120009000C66
:10451000001A00130009000C000000F0030804F466
:104520000B94089408640B0804F003060014000AB6
:10453000000B000000000030004800480030000080
:1045400000801080108010F0178010801080100004
:10455000000A0005001500240C400A8009F80E002E
:10456000000A0005001504240440028001F803003D
:1045700004040002000A001200210C400A8009FC19
:104580000E00000038804460405040504800540005
:104590005400340000F000F80118011810F81F183A
:1045A00000F81F18100000000000030003000000C6
:1045B00000008000A00040040002000A0012042154
:1045C0000440028001F803000400000000E00490B1
:1045D00004000008021001A00048021001A00040E1
:1045E0000000001008F8050002000D800A4009A034
:1045F0001F100800001008F805000200018011C01B
:1046000018A01410130000900808052803D00D808E
:104610000A4009A01F100800000000700088000870
:104620000108160800300000040024800400230064
:1046300005800680020002000004000200FA070262
:1046400000010000000A000500F5070000004050CE
:10465000402823A8248014000F00A0F85700500021
:104660001E282114201420002000260015800C8014
:1046700000F8070003800400040024000400040084
:104680000400030000880340044804800400030081
:10469000038004000420040004200400040003003C
:1046A00003800400042004080420040004000380A4
:1046B0001C40224041404180488040804080208012
:1046C0001C4022404140418040804080408020800A
:1046D0001C40224841404180408040804080200072
:1046E0000440048004000300044804800400030024
:1046F000200020001000100008000700200020000B
:1047000010001020080007001C002200400040009C
:104710004000400023001C000400040003000400CB
:10472000040003001C002200400040004000400044
:1047300023001C00042004080320040004000300DC
:104740001C002200400040004000400023001C00EC
:1047500004000600058004800480040003001C009F
:104760002200400040004000400023001C000400E4
:104770000610058004800480040003000020084027
:10478000048002000180024004200800040004F8B4
:10479000070006000580048004000300040004F8FC
:1047A0000700060005900480040003C01C2023209D
:1047B000410041804000400020C01C2423204100D3
:1047C00041804000400020000400040004000380F9
:1047D000040004000400040004800448054006802E
:1047E00003001C002200400040104380449024003D
:1047F0001F000380040004000460045004900408B7
:10480000030000000E4011481150114011800F00AC
:1048100010000E00110010001000100008F8070032
:1048200000000E4011501148115011800F0010006F
:10483000F800040007800480040003001C0022002C
:10484000404040004000400021001E8003400440E2
:1048500004800400030040004000238024801400F2
:104860000F0000000180028002600280010002004F
:1048700004000014018A028A02680280010002001A
:104880000400000001840280026402800100020032
:104890000400000007800A501248125012800A00DB
:1048A0000B00000007880A401240124012880A00DC
:1048B0000B001E002100A0002000A0002600158093
:1048C0000C8000001E002100200020002000260097
:1048D00015800C80000000000040105010C81F1010
:1048E0001000100000000048104010C01F08100009
:1048F000100004000400058006800680050000000A
:104900001C802240414041C0420044000400049009
:10491000040003000400040004F803000000078002
:104920000850104810501080080007000480054807
:104930000640048004000200040004000580069084
:104940000680050000400040004000480240004052
:104950000040000004000400020003800480040002
:104960000300004000C00F081010104008C01F00D6
:10497000100004640452049204090300004000C0C3
:104980000F101008105008C01F0010000008A010E1
:1049900050205C404A8009F80E0004001480440056
:1049A00013000400040004800550062003C00480A6
:1049B0000400030000000008001000000380400015
:1049C00000000000000000000000000000000000E7
:1049D00000000000000000000000000000000000D7
:1049E00000000000000000000000000000000000C7
:1049F00000000000000000000000000000000000B7
:104A000000000000000000000000000000000000A6
:104A10000000000000000000000000000000000096
:104A20000000000000000000000000000000000086
:104A30000000000000000000000000000000000076
:104A40000000000000000000000000000000000066
:104A50000000000000000000000000000000000056
:104A600000000000000080E0F0F0F8FCFCFC7E7E1E
:104A70007E7EFCFCFCF8F0F0E0800000000000000E
:104A80000000000000000000080C0C0C1C1C3C7C0A
:104A9000FCF8F8F0E0C0800000000000000000001A
:104AA0000000000000000000000000000000000006
:104AB00000000000000000000000000000000000F6
:104AC00000000000000000000000000000000000E6
:104AD00000000000000000000000000000000000D6
:104AE000000080F0FCFFFF7F8F0703010000000043
:104AF000000000000103070F3FFFFFFCF0800000F3
:104B000000000000000000000000000000000000A5
:104B1000000103071F7FFFFEF8E000000000000017
:104B20000000000000000000000000000000000085
:104B30000000000000000000000000000000000075
:104B40000000000000000000000000000000000065
:104B50000000000000000000000000000000000055
:104B60000000FFFFFFFF000001071E3C78F0E0C0DF
:104B7000C0C08080000000000081FFFFFFFF00C078
:104B8000F0F8FC3C3E1E1E3E3C3C7C78F0F0E0C061
:104B9000C0800000000007FFFFFFFE0000000000D3
:104BA0000000000000000000000000000000000005
:104BB00000000000000000000000000000000000F5
:104BC00000000000000000000000000000000000E5
:104BD00000000000000000000000000000000000D5
:104BE00000003FFFFFFFF080000000000000010315
:104BF0000307070F0F0F0F1F0F0F0F07030000FF13
:104C0000FFFFFEC0000000000000000000010103E3
:104C1000071F3FFEFC90F8FFFFFF1F000000000091
:104C20000000000000000000000000000000000084
:104C30000000000000000000000000000000000074
:104C40000000000000000000000000000000000064
:104C50000000000000000000000000000000000054
:104C600000000001071F7FFFFEFCF8F0E0E0C0C07D
:104C7000C0C0C0E0E0E0F0F0F8781C0600000000E2
:104C8000031F3FFFFFFCF8F0E0C0C0C0C0C0C0C0C1
:104C9000E0F0F8FCFEFFBFDFF7FDF0C00000000011
:104CA0000000000000000000000000000000000004
:104CB00000000000000000000000000000000000F4
:104CC00000000000000000000000000000000000E4
:104CD00000000000000000000000000000000000D4
:104CE000000000000000000001030307070F0F0F82
:104CF0000F0F0F0707030301000000000000000072
:104D00000000000001030307070F0F0F0F0F0F0F25
:104D10000F07070301000F0F070301000000000049
:104D20000000000000000000000000000000000083
:104D30000000000000000000000000000000000073
:104D40000000000000000000000000000000000063
:104D50000000000000000000000000000000000053
:104D60000000000000000000000000000000000043
:104D70000000000000000000000000000000000033
:104D80000000000000000000000000000000000023
:104D90000000000000000000000000000000000013
:104DA0000000000000000000000000000000000003
:104DB00000000000000000000000000000000000F3
:104DC000E04F0008C12C00080000000000000000B7
:104DD000800000000000000000000000CC4F000830
:104DE0008D030008000000000000000080000000AB
:104DF0000000000000000000C44F00082507000864
:104E00000000000000000000800000000000000022
:104E100000000000D44F0008BD030008000000009F
:104E20000000000080000000000000000000000002
:104E3000000000000000000001020304060708094A
:104E40000000000001020304C1C1C1C10000C2C2D0
:104E500002020100C3C301010100C4C4C4C40000B4
:104E6000C5C503030100C6C6C6C60000C7C700000B
:104E70000100C804C8040101C9FEE9950101CA0581
:104E8000CA050101CB06CB060101CC0708070101C9
:104E9000CD090A090101CE0B0C0B0101CFCFCFCFF9
:104EA0000100D0D0D0D00100D1D1D1D10100D2D2D7
:104EB000D2D20100D38AD38A0101D40ED40E0101CB
:104EC000D50FD50F0101D61AD61A0101D7D7D7D7DA
:104ED0000000D8D8D8D80101D9D9D9D90101DA1B15
:104EE000F1F00101DBF57FF60101DCDCDCDC010126
:104EF000DD80DD800101DE83DE830101DF8CDF8C5C
:104F00000101E0E0E0E00000E1F3E1F30101E2E2B1
:104F1000E2E20000E3F8E3F80101E4F2E4F2010167
:104F2000E5FEE7950101E6E6E6E60100E7E7E7E7EB
:104F30000000E8E8E8E80000E9E9E9E9000081FDAF
:104F400081FD01018D9D9E9D0101ECC0A0C001016C
:104F5000EDC09CC001018E8E8E8E010090FA90FAF9
:104F60000101F0F0F0F00000F1F1F1F10000F2F2D7
:104F7000F2F20000F3F3F3F30000F4F4F4F40000B1
:104F8000F5F5F5F50000F6F6F6F60000F7F7F7F799
:104F90000000F8F8F8F80000F9F9F9F90000FAFA59
:104FA000FAFA0000A5A59F9F0100FCFCFCFC000094
:104FB000FDFDFDFD0000FEFEFEFE0000FFFFFFFF09
:104FC00000000000474C43445F540000424C494EEF
:104FD0004B5F540043414E4255535F540000000064
:104FE00064656661756C745461736B000C500008E5
:104FF00000000020A800000028010008B4500008AC
:10500000A8000020E0160000440100080000000095
:10501000000000000000000000000000010000008F
:1050200010000000000000000024F4000000000058
:105030000000000000000000000000000000000070
:105040000000000000000000000000000000000060
:105050000000000000000000000000000000000050
:105060000000000000000000000000000000000040
:105070000000000000000000000000000000000030
:1050800000000000AAAAAAAA000000000000010077
:105090000001010100FFFF0000000000FF00000010
:1050A0000000000000000000000000000000000000
:0450B00000000000FC
:04000005080000ED02
:00000001FF
