:10000000008000106D010000E5010000EB01000020
:10001000F1010000F7010000FD010000DE74FFEFB8
:1000200000000000000000000000000003020000CB
:1000300009020000000000000F020000150200008D
:100040001B0200001B0200001B0200001B0200003C
:100050001B0200008D9E00001B0200001B0200001E
:100060001B0200001B0200001B0200001B0200001C
:100070001B0200001B0200001B0200001B0200000C
:100080001B020000499C00001B0200001B02000034
:100090001B0200001B0200001B0200001B020000EC
:1000A000B1AB0000D19200001B0200001B02000057
:1000B0001B02000039AA00001B0200001B02000006
:1000C0001B0200001B0200001B020000B0D9000050
:1000D00000000010E0040000B0D9000000C00720BC
:1000E00000000000E0040010C857000000C0072016
:1000F0000000000080B489B000AFF860B9607A6099
:10010000BB68FB61FB68BB6100237B610AE0BA69E5
:10011000131DBB61FB69191DF96112681A607B69C7
:1001200004337B617A697B689A42F0D300BF24373D
:10013000BD4680BC704780B485B000AF7860396040
:100140007B68FB600023BB6007E0FB681A1DFA6058
:1001500000221A60BB680433BB60BA683B689A42ED
:10016000F3D300BF1437BD4680BC704780B584B060
:1001700000AF194BFB6013E0FB681A1DFA601B68A7
:10018000BB60FB681A1DFA601B687B60FB681A1D68
:10019000FA601B683B603A687968B868FFF7AAFFA5
:1001A000FB680E4A9342E7D30DE0FB681A1DFA6024
:1001B0001B687B60FB681A1DFA601B683B6039682E
:1001C0007868FFF7B8FFFB68054A9342EDD30AF061
:1001D00037FA0CF0ABF9FEE7CC000000E4000000B9
:1001E000F400000080B400AFFEE780B400AFFEE78B
:1001F00080B400AFFEE780B400AFFEE780B400AF8C
:10020000FEE780B400AFFEE780B400AFFEE780B445
:1002100000AFFEE780B400AFFEE780B400AFFEE7BA
:10022000FFFFFFFFFFFFFFFFFFFFFFFFFFFFFFFFDE
:10023000FFFFFFFFFFFFFFFFFFFFFFFFFFFFFFFFCE
:10024000FFFFFFFFFFFFFFFFFFFFFFFFFFFFFFFFBE
:10025000FFFFFFFFFFFFFFFFFFFFFFFFFFFFFFFFAE
:10026000FFFFFFFFFFFFFFFFFFFFFFFFFFFFFFFF9E
:10027000FFFFFFFFFFFFFFFFFFFFFFFFFFFFFFFF8E
:10028000FFFFFFFFFFFFFFFFFFFFFFFFFFFFFFFF7E
:10029000FFFFFFFFFFFFFFFFFFFFFFFFFFFFFFFF6E
:1002A000FFFFFFFFFFFFFFFFFFFFFFFFFFFFFFFF5E
:1002B000FFFFFFFFFFFFFFFFFFFFFFFFFFFFFFFF4E
:1002C000FFFFFFFFFFFFFFFFFFFFFFFFFFFFFFFF3E
:1002D000FFFFFFFFFFFFFFFFFFFFFFFFFFFFFFFF2E
:1002E000FFFFFFFFFFFFFFFFFFFFFFFFFFFFFFFF1E
:1002F000FFFFFFFFFFFFFFFFFFFFFFFFFFFFFFFF0E
:1003000090B585B000AF78606C4B00221A706C4BD2
:1003100000221A706B4B00221A706B4B00221A706D
:100320006A4B00221A606A4B1B88194669480AF01A
:1003300029FB694B00221A60684B00221A60684B47
:1003400000221A700023FB600CE06649FA6813462D
:100350005B001344DB000B44163300221A70FB6869
:100360000133FB60FB68632BEFDD7B689BB21946B2
:10037000012002F0A5F95C4B1B78022B40F097801E
:100380000023FB6040E0594AFB682C2101FB03F38A
:10039000134400221A70554AFB682C2101FB03F319
:1003A0001344013300221A70504AFB682C2101FBD0
:1003B00003F31344043300221A604C4AFB682C21D7
:1003C00001FB03F313440C3300221A60474AFB6815
:1003D0002C2101FB03F31344103300221A60434A1B
:1003E000FB682C2101FB03F31344143300221A6031
:1003F0003E4AFB682C2101FB03F31344193300220E
:100400001A70FB680133FB60FB68632BBBDD04F0F3
:100410002FFCB8600023FB603FE0F868FB682C22EB
:1004200002FB03F3314A1344191DFB682C2202FB23
:1004300003F308332D4A13441C1DFB682C2202FBD6
:1004400003F31833294A1344224604F073FC274A65
:10045000FB682C2101FB03F313440C331A68234976
:10046000FB682C2000FB03F30B4410331A601F4A77
:10047000FB682C2101FB03F3134401221A701B4A71
:10048000FB682C2101FB03F3134404331B6818465B
:1004900003F00EF8FB680133FB60FA68BB689A4210
:1004A000BBDB41F2883112480AF06CFA00BF114BF5
:1004B00000221A7000BF1437BD4690BD35090010E8
:1004C00034090010E60400103C100010480700102A
:1004D000983300102C5C0010E8040010EC040010AD
:1004E000F0040010401800103D070010A02100107B
:1004F000605C0010C8530010F0B5ADF68C7D06AFFF
:100500000023A7F86E3F0023C7F8503F07F13703D9
:1005100000221A7007F13603FE221A7007F1350324
:10052000FE221A7007F1340307221A7007F1320312
:1005300000221A8007F12C0300221A60002387F89A
:100540006D3F002387F86C3FA14B1B78032B00F213
:10055000478401A252F823F0790B0000E10D00005E
:1005600069050000E10D000000BF9A4B1B78002BCD
:10057000FBD0994B1B78994A9949184605F084FCA1
:10058000984B1B78984A9949184605F07DFC984B82
:100590001B78984A9849184605F076FC974B1B78CB
:1005A000012B0BD1964B93F83B30012B06D141F236
:1005B000883194480AF0E6F904F0FEFC07F12B03B9
:1005C00000221A708D4B1B78002B05D107F12B03ED
:1005D00019468D4804F082FC07F12B031B78012B90
:1005E00003D13721894804F007FD894B1B78012B83
:1005F00023D1874B00221A70864B1B78864A874985
:10060000184605F041FC864B1B78864A86491846F9
:1006100005F03AFC854B1B78854A8649184605F05B
:1006200033FC854B1B881846844B854A854905F069
:1006300069FC3721794804F0DFFC07F1320407F147
:10064000380207F12C0107F1370007F234730393E6
:1006500007F13403029307F13603019307F13503E1
:100660000093234602F05EF907F137031B78002B55
:1006700000F04281002387F86D3F0023C7F8683FF0
:1006800020E0714AD7F8683F2C2101FB03F31344A3
:100690001B78002B1BD06C4AD7F8683F2C2101FB3C
:1006A00003F3134404331A6807F12C031B689A42BE
:1006B00003D1012387F86D3F0AE0D7F8683F013383
:1006C000C7F8683FD7F8683F632BDADD00E000BF6A
:1006D00097F86D3F012B40F00F815C4B1A685A4927
:1006E000D7F8683F2C2000FB03F30B4414331A6047
:1006F00007F132031B88D8B2534AD7F8683F2C2140
:1007000001FB03F31344193302461A7007F12C035B
:100710001B68B3F5803F0AD24B4AD7F8683F2C21BB
:1007200001FB03F31344023300221A7009E0464A26
:10073000D7F8683F2C2101FB03F313440233012255
:100740001A7007F1350318783F4AD7F8683F2C2113
:1007500001FB03F31344083302461A7007F1360312
:100760001878394AD7F8683F2C2101FB03F313446A
:10077000093302461A7007F134031878324AD7F861
:10078000683F2C2101FB03F313440A3302461A701D
:100790000023C7F8603F6DE007F132031B881A465B
:1007A000D7F8603F934253DA07F13802D7F8603F39
:1007B00013441878244AD7F8683F2C2101FB03F32F
:1007C0001A44D7F8603F13441A3302461A704CE0BB
:1007D0003D0700103F070010260100103D000010EB
:1007E0003C000010250100103F0000103E000010EA
:1007F000240100104100001040000010C8530010F8
:10080000285C0010605C00103800001048000010E8
:100810004700001044070010B9000010B800001095
:1008200043070010BC000010BB000010420700107E
:10083000BF000010BE00001040070010C3000010F1
:10084000C2000010C1000010A021001048070010D5
:10085000BC4AD7F8683F2C2101FB03F31A44D7F8B0
:10086000603F13441A3300221A70D7F8603F0133F7
:10087000C7F8603FD7F8603F072B8DDD07F2347370
:100880001879B04AD7F8683F2C2101FB03F31344D1
:10089000263302461A7007F23473D878A94AD7F87B
:1008A000683F2C2101FB03F31344253302461A70E1
:1008B00007F234739878A34AD7F8683F2C2101FBDC
:1008C00003F31344243302461A7007F23473188872
:1008D0009C4AD7F8683F2C2101FB03F313442233D1
:1008E00002461A80974AD7F8683F2C2101FB03F390
:1008F0001344013301221A700023C7F8683F18E13E
:10090000002387F86C3F8F4AD7F8683F2C2101FB02
:1009100003F313441B78002B00F01181894AD7F8A8
:10092000683F2C2101FB03F3134401331B78012B97
:1009300042D1844AD7F8683F2C2101FB03F31344CA
:1009400018331B78012B0DD1012387F86C3F7D4AAA
:10095000D7F8683F2C2101FB03F313440133002235
:100960001A7029E0774AD7F8683F2C2101FB03F37E
:10097000134410331B68002B1ED1012387F86C3FF2
:10098000704AD7F8683F2C2101FB03F3134401336D
:1009900000221A706B4AD7F8683F2C2101FB03F341
:1009A00013440C331A686749D7F8683F2C2000FBC2
:1009B00003F30B4410331A6097F86C3F012B40F09F
:1009C000B380604AD7F8683F2C2101FB03F313443E
:1009D00026331B785C4A5D49184605F055FA594A9A
:1009E000D7F8683F2C2101FB03F3134425331B7810
:1009F000574A5849184605F047FA524AD7F8683F0F
:100A00002C2101FB03F3134424331B78524A53492E
:100A1000184605F039FA4B4AD7F8683F2C2101FBFC
:100A200003F3134422331B8818464D4B4D4A4E495D
:100A300005F068FA434AD7F8683F2C2101FB03F31D
:100A4000134402331B783033DAB2404B5A733D4AB9
:100A5000D7F8683F2C2101FB03F3134404331B68D0
:100A60004249184605F000FB364AD7F8683F2C216A
:100A700001FB03F3134408331B783D49184605F086
:100A8000C5FA304AD7F8683F2C2101FB03F3134421
:100A900009331B783749184605F0B8FA294AD7F8C0
:100AA000683F2C2101FB03F313440A331B783033D6
:100AB000DAB2264B9A76234AD7F8683F2C2101FBFD
:100AC00003F3134419331B783033DAB21F4B1A7710
:100AD0001E23C7F8643F0023C7F85C3F1CE0194A97
:100AE000D7F8683F2C2101FB03F31A44D7F85C3F89
:100AF00013441A331878D7F8643F144A134419463C
:100B000005F084FAD7F8643F0333C7F8643FD7F899
:100B10005C3F0133C7F85C3FD7F85C3F072BDEDD55
:100B200037210A4804F068FAD7F8683F0133C7F85C
:100B3000683FD7F8683F632B7FF7E2AE50E100BF14
:100B40004EE100BFA02100108100001080000010C5
:100B50008400001083000010870000108600001041
:100B60008B0000108A000010890000108F00001018
:100B70009400001097000010CE4B1B88002B0BD068
:100B8000CD4BDB79012B07D100F06AFCC94B1B88E8
:100B90001946CA4809F0F6FE07F1320407F1380297
:100BA00007F12C0107F1370007F23473039307F1C3
:100BB0003403029307F13603019307F135030093E1
:100BC000234601F0AFFE0346A7F86E3F07F12C0362
:100BD0001B684FF6FF7293420DD107F136031B7865
:100BE000FF2B08D107F135031B78FF2B03D107F149
:100BF000370300221A7007F137031B78002B18D136
:100C000007F1350407F1320207F1380107F12C0032
:100C100007F23473029307F13403019307F13603AB
:100C20000093234601F0ECFB03461A4607F1370315
:100C30001A70B7F86E3F012B10D0A14B1B78012B17
:100C400004D003F0F7FD0346012B07D1B7F86E3F40
:100C5000184600F0B7FC9A4B00221A70002387F860
:100C60005B3F07F1220300221A80964B1B78012B71
:100C70000CD0022B18D0002B3ED107F137031B7884
:100C8000032B34D1012387F85B3F30E007F13703B2
:100C90001B78032B04D007F137031B78022B28D1D4
:100CA000012387F85B3F24E007F137031B78032B10
:100CB00003D1012387F85B3F1DE007F137031B7861
:100CC000022B04D007F137031B78012B13D107F156
:100CD0002C031B6807F122010022184602F09AFD3E
:100CE0000346012B07D1012387F85B3F03E000BFD8
:100CF00002E000BF00E000BF97F85B3F012B68D126
:100D0000B7F86E3F013B032B69D801A252F823F0DC
:100D1000D70D0000210D0000D70D0000210D0000AF
:100D200007F12C031B681E4607F132031B889C4603
:100D300007F135031B789E4607F136031B781A46E8
:100D400007F134031B781D4607F1380407F23471AC
:100D500002AB03C983E80300019500927346624623
:100D60002146304602F0AEFD0346012B35D107F196
:100D70002C031B689C4607F132031B889E4607F133
:100D800035031B781D4607F136031B781E4607F115
:100D900034031B787B6007F1380207F2447407F2D2
:100DA000347103AB03C983E803007B6802930196A7
:100DB000009573466146204600F05AFCC7F8500F74
:100DC000D7F8501F07F244730122184609F028F99A
:100DD00003E000BF02E000BF00E000BF00BF00BFB3
:100DE0000023C7F84C3F07F1240300221A6007F1E3
:100DF000240207F244731146184600F0E1FDC7F8DB
:100E00004C0FD7F84C3F0233152B00F22C8201A275
:100E100052F823F0891000007B10000067120000D8
:100E20006D0E0000A10E0000C90E00003D0F000075
:100E3000990F00002F1000005310000067120000EF
:100E400097100000B7100000E10F00005B100000D9
:100E5000E70E0000050F0000210F00000511000043
:100E6000870E00006D110000C911000007F24473E5
:100E7000184600F085FF0346002B40F0DF8101207B
:100E800000F076FBDAE107F24473184600F097FFB2
:100E90000346002B40F0D481162000F069FBCFE11F
:100EA000022000F065FB07F24473184600F0C2FF11
:100EB000D9E100BF98330010285C00102C5C0010B2
:100EC000E60400103C100010B7F86E3F022B40F013
:100ED000B981032000F04CFB07F24473002118464F
:100EE00001F0E2F8AEE1B7F86E3F022B40F0AC81C2
:100EF000102000F03DFB07F244730121184601F079
:100F0000D3F8A1E107F244730021184600F0B0FFC6
:100F10000346002B40F09A81112000F029FB95E157
:100F200007F244730121184600F0A2FF0346002B8C
:100F300040F08E81122000F01BFB89E107F2447320
:100F40001B79A52B0FD107F244735B79692B0AD16A
:100F500007F244739B795A2B05D1052000F008FB5A
:100F60000020FFF7CDF907F244731B79A52B40F061
:100F7000718107F244735B79692B40F06B8107F252
:100F800044739B795B2B40F06581052000F0F0FAFB
:100F90000120FFF7B5F95DE107F24473DB7B1846EA
:100FA00002F012FA0346012B40F05681072000F0B0
:100FB000DFFA07F244730433184602F04DFA07F2E1
:100FC00044731B7B184602F021FA07F244735A7BE4
:100FD00007F244739B7B1946104602F027FA3BE167
:100FE00007F24473DB7B184602F0EEF90346012B4F
:100FF00040F034810E2000F0BBFA07F24473043352
:10100000184602F029FA07F244731B7B184602F0D7
:10101000FDF907F244735A7B07F244739B7B194630
:10102000104602F003FA974B01221A7016E107F2FC
:1010300044731B79092B02D00D2B06D013E1B7F8AE
:101040006E3F184600F0BEFA02E000F073FA00BFEF
:1010500009E18D4B01221A7005E107F244731B79F7
:10106000022B00F2FD8007F244731A79874B1A7045
:101070000F2000F07DFA00BFF2E0854B1B780133B2
:10108000DAB2834B1A70EEE0824B1B780133DAB28E
:10109000804B1A70E7E007F244731B79012B03D1F0
:1010A0007D4B01221A7002E07B4B00221A700B204C
:1010B00000F05EFAD7E007F244731B799BB21B0283
:1010C0009AB207F244735B799BB213449AB2734BA2
:1010D0001A80724B1B88002B06D0704B1B88632B29
:1010E00002D86E4B64221A806C4B1B8841F2883206
:1010F000934203D9694B41F288321A800C2000F0E8
:1011000037FAB0E007F244735A7A07F23C731A7068
:1011100007F244731A7A07F23C735A7007F2447369
:10112000DA7907F23C739A7007F23C730122DA70A5
:1011300007F244739A7907F23C731A7107F2447309
:101140005A7907F23C735A7107F244731B799BB2C8
:1011500003F5FA639AB207F23C73DA8007F23C7344
:10116000184608F019FE00F0ABF97CE007F2447372
:101170001B79022B1AD0042B0FD0002B1ED1484B09
:101180001B78002B1CD0464B00221A7003F0BCFCCD
:10119000424B4FF47A721A8012E003F06BFB034665
:1011A000002B0FD1322000F0E3F90BE008F088FAB1
:1011B00003461946022003F031FC04E000BF52E070
:1011C00000BF50E000BF4EE003F054FB0346002B8D
:1011D00048D1332000F0CCF90023C7F8483F002362
:1011E000C7F8443F07F244731B791A0407F24473AB
:1011F0005B791B02134407F2447292791344C7F8D7
:10120000483F07F24473DB791A0407F244731B7AF0
:101210001B02134407F24472527A1344C7F8443F46
:10122000D7F8480FD7F8443F99B207F244739A7A37
:1012300007F24473DB7A03F077FC13E000BF12E09F
:1012400000BF10E000BF0EE000BF0CE000BF0AE0EE
:1012500000BF08E000BF06E000BF04E000BF02E0FE
:1012600000BF00E000BF0E4B1B78002B40F0F18068
:10127000B7F86E3F022B40F0A7800023C7F8543F19
:101280009DE000BFE6040010E40400103C100010D4
:1012900034090010350900103D100010983300107B
:1012A0003D0700106D49D7F8542F13465B001344D7
:1012B000DB000B4416331B78012B7BD16749D7F831
:1012C000542F13465B001344DB000B4414331B788C
:1012D000012B6FD16149D7F8542F13465B0013449B
:1012E000DB000B4406331D785C49D7F8542F1346B6
:1012F0005B001344DB000B441E685849D7F8542F99
:1013000013465B001344DB000B44043393F800C026
:101310005249D7F8542F13465B001344DB000B44AB
:10132000053393F800E0D7F8542F13465B001344BD
:10133000DB000833494A99184848D7F8542F134618
:101340005B001344DB00034407331B7898B2434C23
:10135000D7F8542F13465B001344DB0023441533A6
:101360001B780293019000917346624631462846ED
:1013700000F0C0FF3949D7F8542F13465B001344DF
:10138000DB000B44103318883449D7F8542F134628
:101390005B001344DB000B44123302461A802F49D2
:1013A000D7F8542F13465B001344DB000B4414336F
:1013B00000221A70D7F8543F0133C7F8543FD7F8CA
:1013C000543F632B7FF76EAF07F1140407F1180247
:1013D00007F1380107F10C0007F23473029307F1AB
:1013E0001C03019307F110030093234602F054FB02
:1013F0000346012B2DD107F10C031B687B6007F11D
:1014000018031A683A6007F114031B6807F1100209
:10141000126807F11C010C6807F1380C07F24476DA
:1014200007F2347103AD03C985E803000294019209
:1014300000933B6862467968304600F019F9C7F8B6
:10144000500FD7F8501F07F244730122184608F0D6
:10145000E7FD00BF07F67477BD46F0BD40180010E9
:1014600080B588B000AF124B1A78124B9A72124BAB
:101470001A78104BDA72114B1A780E4B1A730D480A
:1014800000F0CAF803461A460A4B5A733B461A46FE
:101490000E21084800F0F4F9F861F9693B46012291
:1014A000184608F0BDFD00BF2037BD4680BD00BF17
:1014B000340900100000001035090010E504001088
:1014C00080B58AB000AF07F11C03184608F092FC03
:1014D0007B8CDBB23033DAB2154B1A7197F82120CE
:1014E000134B5A7197F82020114B9A71BA7F104B09
:1014F000DA717A7F0E4B1A723A7F0D4B5A720C4892
:1015000000F08AF803461A46094B9A723B1D1A46A8
:101510000B21074800F0B4F97862796A3B1D01227B
:10152000184608F07DFD00BF2837BD4680BD00BFCE
:101530002C00001080B588B000AF0C4800F06CF8AB
:1015400003461A46094B9A723B1D1A460B2107485F
:1015500000F096F9F861F9693B1D0122184608F080
:101560005FFD00BF2037BD4680BD00BF20000010DA
:1015700080B586B000AF0346FB71104B1B78012B82
:1015800018D10F4AFB7913710D4800F045F8034656
:101590001A460B4B5A7107F108031A4606210848F0
:1015A00000F06EF97861796907F1080301221846A5
:1015B00008F036FD00BF1837BD4680BD3D10001055
:1015C0001000001080B588B000AF78607B68DAB298
:1015D000104B1A7101F010FF03461A460D4B5A7159
:1015E0000C4800F019F803461A460A4B9A7107F1A5
:1015F0000C031A460721074800F042F9F861F9691F
:1016000007F10C030122184608F00AFD00BF20373D
:10161000BD4680BD1800001080B487B000AF786070
:101620007B6801331B781B02FB607B6802331B78ED
:101630001A46FB6813440133FB600023FB7501234A
:101640003B6109E03B697A6813441A78FB7D1344D7
:10165000FB753B6901333B613A69FB689A42F1DDF6
:10166000FB7D5B42DBB218461C37BD4680BC704731
:1016700090B5ADF6240D00AF07F10C04206007F122
:1016800008000160391D0A603A4613603B461B683A
:101690000133C7F8183807F11003C0221A7007F198
:1016A00010031322DA7007F108031B681B14DAB267
:1016B00007F110031A7107F108031B681B12DAB255
:1016C00007F110035A7107F108031B68DAB207F13A
:1016D00010039A71D7F83038DAB207F11003DA71D3
:1016E000D7F83438DAB207F110031A72D7F838385D
:1016F000DAB207F110035A720023C7F81C3810E061
:10170000D7F81C383A1D12681A44D7F81C380A3327
:10171000117807F11002D154D7F81C380133C7F8FB
:101720001C383B46D7F81C281B689A42E8DBD7F8E0
:101730001C380A3397F8431807F11002D154D7F830
:101740001C380133C7F81C38D7F81C380A3397F80F
:10175000421807F11002D154D7F81C380133C7F8EA
:101760001C38D7F81C380A3397F8411807F11002D3
:10177000D154D7F81C380133C7F81C38D7F81C38B7
:101780000A3397F8401807F11002D154D7F81C38E3
:101790000133C7F81C38D7F81C380A3397F83F18BC
:1017A00007F11002D154D7F81C380133C7F81C38A0
:1017B000D7F81C380A3397F83E1807F11002D154B5
:1017C000D7F81C380133C7F81C38B7F83C381B0A67
:1017D0009BB287F81738B7F83C3887F81638D7F82F
:1017E0001C380A3307F1100297F81718D154D7F8AC
:1017F0001C380133C7F81C38D7F81C380A3307F1F6
:10180000100297F81618D154D7F81C380133C7F8CE
:101810001C38D7F81C380B33C7F81838D7F81838E5
:10182000033BC7F81038D7F810381B12DAB207F1AB
:1018300010035A70D7F81038DAB207F110039A7013
:10184000D7F81C3803F10A0407F110031846FFF714
:10185000E3FE03461A4607F110031A5507F10C037D
:1018600007F110001A68D7F8181800F009F8C7F83F
:101870001C08D7F81C38184607F62407BD4690BD4B
:1018800080B487B000AFF860B9607A60FB681A78FE
:101890007B681A7001237B6101233B6139E03B695E
:1018A000FA6813441B78C02B02D0DB2B11D021E047
:1018B0007B695A1C7A611A467B681344DB221A70D2
:1018C0007B695A1C7A611A467B681344DC221A70C1
:1018D0001CE07B695A1C7A611A467B681344DB2240
:1018E0001A707B695A1C7A611A467B681344DD22A0
:1018F0001A700BE03B69FA681A447B69591C7961DC
:1019000019467B680B4412781A7000BF3B6901339B
:101910003B61BA683B699A42C1DC7B6918461C3757
:10192000BD4680BC704780B584B000AF7860396038
:101930000023FB603BE03B681A68FB68D31A012B6D
:1019400032DDFB687A6813441B78DB2B13D1FB680C
:1019500001337A6813441B78DC2B0CD1FB687A685E
:101960001344C0221A70FB6801333A68796818463C
:1019700000F048FE18E0FB687A6813441B78DB2B04
:1019800012D1FB6801337A6813441B78DD2B0BD12D
:10199000FB687A681344DB221A70FB6801333A68EB
:1019A0007968184600F02EFEFB680133FB603B6847
:1019B0001B68FA689A42BEDB00BF1037BD4680BD87
:1019C00080B58EB000AF7860396000237B63002360
:1019D000FB613B6800221A608E4B1B688E4A1344E1
:1019E00001224FF48071184608F08AFBB861894BD8
:1019F0001A68BB691344874A1360BB69002B40F324
:101A0000048100233B6308E0834A3B6B13441B784B
:101A1000C02B08D03B6B01333B637E4B1B683A6B9A
:101A20009A42F1DB00E000BF3B6B002B02DD386B1C
:101A300000F01AFE01237B610123FB620023BB62DD
:101A400000237B62744A7B6913441B78DB2B0AD129
:101A50007B690133704AD35CDC2B04D1C023BB62A9
:101A60000223FB6217E06C4A7B6913441B78DB2B73
:101A70000AD17B690133684AD35CDD2B04D1DB23B7
:101A8000BB620223FB6206E0634A7B6913441B7856
:101A9000BB620123FB627A69FB6A13447B615E4A85
:101AA0007B6913441B78DB2B0AD17B6901335A4ACB
:101AB000D35CDC2B04D1C0237B620223FB6217E0E2
:101AC000554A7B6913441B78DB2B0AD17B690133B0
:101AD000514AD35CDD2B04D1DB237B620223FB6202
:101AE00006E04D4A7B6913441B787B620123FB624D
:101AF0007A69FB6A13447B61BB6A1B027A6A1344EE
:101B00003B617B693B6300233B6227E0424A3B6BBE
:101B100013441B78C02B02D101237B6325E03E4A8E
:101B20003B6B13441B78DB2B02D10223FB620AE0E0
:101B3000394A3B6B13441B78DB2B02D10223FB6237
:101B400001E00123FB623A6BFB6A13443B633B6A8F
:101B500001333B623A6A3B699A4205D02D4B1B68C0
:101B60003A6B9A42D2DB00E000BF3B6A002B03D005
:101B70003A6A3B699A420ED07B6B012B08D16FF019
:101B80000103FB613B6A0333184600F06DFD3CE046
:101B90000023FB6139E03B683A6B1A6000233B632A
:101BA0000AE03B6B7A6813441B493A6B0A4412788B
:101BB0001A703B6B01333B633B681B683A6B9A427C
:101BC000EFDB3B681B68184600F04EFD396878680B
:101BD000FFF7A9FE3B6903333B613B683A691A6032
:101BE0007868FFF719FD0346FB733B69013B7A6890
:101BF00013441B78FA7B9A4203D04FF0FF33FB610A
:101C000003E0786800F00AF8F861FB691846383795
:101C1000BD4680BDE00400104010001080B485B0C7
:101C200000AF78600023FB607B6803331B78013BC7
:101C3000322B00F29F8001A252F823F0091D000010
:101C4000151D00001B1D0000751D0000211D00005A
:101C5000751D0000271D0000331D0000751D0000CC
:101C6000391D00003F1D0000451D0000751D0000CE
:101C70002D1D00004B1D0000511D0000571D0000D0
:101C80005D1D0000751D0000631D0000751D000036
:101C90000F1D0000751D0000751D0000751D000062
:101CA000751D0000751D0000751D0000751D0000EC
:101CB000751D0000751D0000751D0000751D0000DC
:101CC000751D0000751D0000751D0000751D0000CC
:101CD000751D0000751D0000751D0000751D0000BC
:101CE000751D0000751D0000751D0000751D0000AC
:101CF000751D0000751D0000751D0000751D00009C
:101D0000691D00006F1D00000123FB6032E01123FC
:101D1000FB602FE00223FB602CE00323FB6029E043
:101D20000423FB6026E00523FB6023E00B23FB601C
:101D300020E00623FB601DE00723FB601AE0092377
:101D4000FB6017E00A23FB6014E00C23FB6011E04A
:101D50000D23FB600EE00E23FB600BE00F23FB6006
:101D600008E01023FB6005E01223FB6002E0132370
:101D7000FB6000BFFB6818461437BD4680BC704747
:101D800080B584B000AF78607B6804331B781B0497
:101D9000FB607B6805331B781B02FA681343FB600A
:101DA0007B6806331B781A46FB681343FB60F868B0
:101DB00001F07EFB034618461037BD4680BD80B556
:101DC00086B000AF78600123FB757B6804331B7815
:101DD0001B043B617B6805331B781B023A69134384
:101DE0003B617B6806331B781A463B6913433B61B2
:101DF0007B6807331B789BB21B02FB817B6808332F
:101E00001B789AB2FB891343FB81FB89632B05D8AE
:101E10007868FFF7B5FF0346FB7506E0FB891946B6
:101E2000386901F0E5FB0346FB75FB7D1846183762
:101E3000BD4680BD80B584B000AF78607B68043358
:101E40001B781B04FB607B6805331B781B02FA6858
:101E50001343FB607B6806331B781A46FB68134309
:101E6000FB60F86801F07AFC00BF1037BD4680BD0A
:101E700090B488B000AF78600B46FB7000237B61A4
:101E80007B6804331B781B043B617B6805331B783C
:101E90001B023A6913433B617B6806331B781A4681
:101EA0003B6913433B617B680A331B789BB21B027F
:101EB000FB817B680B331B789AB2FB891344FB814F
:101EC0007B6801331B789BB21B02BB817B680233AA
:101ED0001B789AB2BB891344BB81BB890A3BBB8187
:101EE000BB89082B01D90023D6E00023FB77002310
:101EF000BB8310E0BA8B6B4913465B001344DB00D5
:101F00000B441B683A699A4202D10123FB7705E032
:101F1000BB8B0133BB83BB8B632BEBD9BB8B7B832D
:101F2000FB7F012B0DD1FB89002B0AD17A8B5D49F8
:101F300013465B001344DB000B44163300221A7077
:101F4000A9E0FB7F002B17D10023BB830DE0BA8BE8
:101F5000544913465B001344DB000B4416331B78D3
:101F6000002B06D0BB8B0133BB83BB8B632BEED91D
:101F700000E000BFBB8B7B837B8B632B00F28980EF
:101F80007A8B484913465B001344DB000B443A69E3
:101F90001A607A8B434913465B001344DB000B4401
:101FA0001033FA891A807A8B7B68187A3D49134678
:101FB0005B001344DB000B44043302461A707A8B37
:101FC0007B68D879374913465B001344DB000B4428
:101FD000053302461A707A8B7B68587A314913466A
:101FE0005B001344DB000B44063302461A707A8B05
:101FF000BB89D8B22B4913465B001344DB000B446A
:10200000073302461A700023BB8315E0BB8B0C33E9
:102010007B817B897A6813447A8BB98B1C78214841
:1020200013465B001344DB0003440B440833224691
:102030001A70BB8B0133BB83BA8BBB899A42E5D341
:102040007A8B184913465B001344DB000B441233B0
:10205000FA891A807A8B134913465B001344DB001C
:102060000B44143300221A707A8B0E4913465B001E
:102070001344DB000B441533FA781A707A8B094944
:1020800013465B001344DB000B44163301221A7025
:1020900001E001237B617B6918462037BD4690BC77
:1020A000704700BF40180010B0B58CB002AF786028
:1020B0000B46FB707B6809331B783B627B680433FB
:1020C0001B781B04FB617B6805331B781B02FA69D4
:1020D0001343FB617B6806331B781A46FB69134385
:1020E000FB617B6808331B78BB617B6807331B7817
:1020F0007B617B6801331B781B023B617B68023389
:102100001B781A463B6913443B613B69083B3B61C2
:102110003B6AD8B2F969BB69DCB27B69DDB27B6826
:102120000A333A6992B2019200932B46224601F09B
:102130007BF80346FB60FB68002B40F0CA80FB780D
:10214000012B40F0A0803B69082B66D8634B1A68CE
:10215000F969634813469B0013449B0003441960CC
:102160005E4B1A683B6AD8B25D4913469B00134424
:102170009B000B44043302461A70584B1A68BB6923
:10218000D8B2574913469B0013449B000B440533B8
:1021900002461A70514B1A687B69D8B250491346EF
:1021A0009B0013449B000B44063302461A704B4BB2
:1021B0001A683B6998B24A4913469B0013449B0036
:1021C0000B44083302461A8000237B6214E07B6ACA
:1021D0000A337A681344414A126818784049134612
:1021E0009B0013449B00CA187B6A13440A330246BF
:1021F0001A707B6A01337B627A6A3B699A42E6D342
:10220000364B1B680133354A1360344B1B68092B6E
:1022100039DD324B00221A6035E0324B1B78002B3F
:1022200031D1314B1B78012B2DD1FB692F4A136023
:102230003B6ADAB22D4B1A71BB69DAB22B4B5A7179
:102240007B69DAB2294B9A713B699AB2274B1A81A2
:1022500000237B620DE07B6A0A337A6813441978A5
:10226000224A7B6A13440A330A461A707B6A013396
:102270007B627A6A3B699A42EDD31A4B01221A704B
:10228000194B00221A701A4B1B78022B21D1F869C6
:102290007B69D9B27B6803F10A04104B1A681346B4
:1022A0009B0013449B000E4A1344224600F022FD7B
:1022B0000346FB72FB7A012B0BD1084B1B680133E1
:1022C000064A1360054B1B68092B02DD034B0022F5
:1022D0001A60FB6818462837BD46B0BDE8040010F8
:1022E000D0320010F00400101E0100103809001058
:1022F0003C10001080B586B002AF396011461A4616
:102300000346FB710B46BB7113467B717979BA7931
:10231000F879BB8B0193BB6900930B46396800F0D9
:1023200083FF0346BB60BB68002B60D197F8203069
:10233000012B5CD1304B1A68304913469B00134483
:102340009B000B443A681A602B4B1A682B491346C2
:102350009B0013449B000B440433FA791A70264BFC
:102360001A68264913469B0013449B000B4405330F
:10237000BA791A70204B1A68204913469B001344FF
:102380009B000B4406337A791A701B4B1A681B4961
:1023900013469B0013449B000B440833BA8B1A80EE
:1023A0000023FB6013E0FB68BA691344124A126809
:1023B0001878124913469B0013449B00CA18FB6807
:1023C00013440A3302461A70FB680133FB60BB8B6F
:1023D000FA689A42E7DB084B1B680133064A136030
:1023E000054B1B68092B02DD034B00221A60BB68FA
:1023F00018461037BD4680BDE8040010D0320010EA
:1024000080B586B000AFF860B9607A603B60FB6869
:1024100000221A607B6800221A803B68FE221A7034
:102420003B6AFE221A707B6A00221A7000BF674B5B
:102430001B78002BFBD0664B1A78BB6ADA71654BB0
:102440001A78BB6A9A71644B1A78BB6A5A71634BEB
:102450001A78BB6A1A71624B1A78BB6ADA70614BE0
:102460001A78BB6A9A70604B1A88BB6A1A805F4BF5
:102470001A685F4B1B689A426DD05C4B1A685D49C5
:1024800013469B0013449B000B441A68FB681A60B8
:10249000564B1A68574913469B0013449B000B4444
:1024A00004331A787B6A1A70504B1A6851491346E4
:1024B0009B0013449B000B4405331A783B6A1A7047
:1024C0004A4B1A684B4913469B0013449B000B442C
:1024D00006331A783B681A70444B1A68454913460C
:1024E0009B0013449B000B4408331A887B681A80B6
:1024F00000237B6112E03D4B1A687B69B96819447F
:102500003C4813469B0013449B00C2187B6913444C
:102510000A331B780B707B6901337B617B681B88F6
:102520001A467B699342E6DB304B1B6801332F4A26
:1025300013602E4B1B68092B02DD2C4B00221A6006
:10254000B968F86800F0CAFE0346012B01D10123E7
:1025500038E0032336E0284B1B78012B31D1274B81
:102560001B78012B2DD1264B1A68FB681A60244B6F
:102570001A797B6A1A70224B5A793B6A1A70204B7F
:102580009A793B681A701E4B1A897B681A8000235F
:102590007B610BE07B69BA68134419497A690A4484
:1025A0000A3212781A707B6901337B617B681B8861
:1025B0001A467B699342EDDB0F4B00221A7003230E
:1025C00000E0002318461837BD4680BD3F070010C5
:1025D00026010010250100102401001044070010FE
:1025E000430700104207001040070010EC040010E1
:1025F000E8040010D0320010F00400101E0100109A
:102600003809001080B489B000AFF860B9607A6012
:10261000FB680133FB61FB68BB6100237B6110E059
:10262000FB695A1CFA611A46BB681A44BB69591CFB
:10263000B9611946BB680B4412781A707B69013383
:102640007B617B681A68FB68D31A013B7A699A42FE
:10265000E6DB7B681B685A1E7B681A6000BF243764
:10266000BD4680BC7047FFFF80B487B000AF786084
:102670007B687B6100233B610F4B1A687B68D31A30
:102680000D4A13600023FB600CE07A69531C7B61E8
:102690003B69591C39610949895C084AD154FB6876
:1026A0000133FB60044B1B68FA689A42EDDB00BF04
:1026B0001C37BD4680BC7047E0040010401000107D
:1026C00080B584B000AF78603960834800F0F4FDD5
:1026D000824800F0F1FDFA227B6892FBF3F39AB294
:1026E0007F4B1A8064227B6892FBF3F39AB27D4B96
:1026F0001A8008227B6892FBF3F39AB27A4B1A8015
:1027000009227B6892FBF3F39AB2774B5A800A2234
:102710007B6892FBF3F39AB2734B9A800C227B682E
:1027200092FBF3F39AB2704BDA800F227B6892FB34
:10273000F3F39AB26C4B1A810023FB8133E0FA89E0
:102740006A4913469B001344DB000B4400221A70B5
:10275000FA89664913469B001344DB000B4404339B
:1027600000221A60FA89614913469B001344DB007A
:102770000B44083300221A80FA895C4913469B00F7
:102780001344DB000B440A3300221A80FA895749AC
:1027900013469B001344DB000B44143300221A80C1
:1027A000FB890133FB81FB89632BC8D9504B002285
:1027B0001A704F4B00225A704D4B00229A704C4BAE
:1027C0000022DA704A4B00221A71494B00225A71DA
:1027D000474B00229A71464BFE22DA71444BFE228F
:1027E0001A72434BFE225A72414B00229A72404B9E
:1027F000FE22DA723E4BFE221A733D4B00229A7380
:102800003B4B00225A7332227B6892FBF3F39AB25D
:10281000384B1A8040F2EE227B6892FBF3F39AB2B7
:10282000354B1A8032227B6892FBF3F39AB2334B1A
:102830001A8040F2EE227B6892FBF3F39AB2304B9F
:102840001A80C8227B6892FBF3F39AB22D4B1A8050
:102850004FF4FA727B6892FBF3F39AB22A4B1A8018
:1028600040F2EE227B6892FBF3F39AB2244B1A807B
:1028700040F2E2427B6892FBF3F39AB2234B1A8058
:1028800040F2E2427B6892FBF3F39AB2204B1A804B
:1028900040F21A427B6892FBF3F39AB21D4B1A8006
:1028A000002001F02FFF002001F06AFF1A4B0022E8
:1028B0001A701A4B01221A70386806F0E5FE184BA0
:1028C0001B6801221946012006F08AFD03461846BE
:1028D0001037BD4680BD00BF305C0010345C001076
:1028E000744A0010A833001014010010D43A0010EC
:1028F000AC330010CE3A00109251001090510010ED
:102900009C330010D03A0010CC3A001088510010CF
:102910008E5100108C5100108A5100101E010010C1
:102920002001001090B58BB004AFF860B9607A60F8
:102930003B600423FB757B6B02933B6B0193FB6A4B
:102940000093BB6A3A687968B86800F001FC0346F6
:102950001A46FB681A70FB681B78032B1BD1BB68F7
:102960001B6807F110010022184600F053FF0346D0
:10297000012B0DD1BB6A1A78A34B1B7B9A420AD05C
:10298000BB6A1B78FF2B06D0FB6802221A7002E09C
:10299000FB6800221A709C4B1B78002B01D1FB7D39
:1029A0009AE1994B9B78012B40F036810223FB750D
:1029B000BB681B68B3F56E4F42D04FF6D8629342A6
:1029C00000F09080B3F56A4F40F09180FB681B786F
:1029D000012B40F089807B681B78002B40F08480BD
:1029E0007B6801331B78EE2B7ED17B6802331B782A
:1029F000002B79D1BB6A1B78FF2B0CD1824B1A7B41
:102A000008230193814B0093FF234FF46E4106206E
:102A100000F00AFC68E0BB6A1A787B4B1B7B9A4289
:102A200062D1794B1A7BFB6A197808230193774BA3
:102A300000930B464FF46E41062000F0F5FB53E087
:102A4000FB6A1A78704B1B7B9A4249D16F497868B0
:102A500000F04EFB0346FB74FB7C012B1DD0022BC8
:102A600031D0002B42D1002001F04CFE002001F0BB
:102A700087FE08230193654B0093FF23FE224FF44A
:102A80006E41062000F0D0FB5F4B00229A705E4B37
:102A900001229A710323FB7523E0002001F032FE2E
:102AA000002001F06DFE584B00225A70564B002258
:102AB0009A70FB6A1B785549184600F073F9524B1F
:102AC00001221A710DE0504B1A7B082301934F4BE2
:102AD0000093FF234FF46E41062000F0A5FB00E0B9
:102AE00000BF03E000BF02E000BF00E000BFBB6822
:102AF0001B68B3F56C4F04D0BB681B68B3F56B4F14
:102B000002D1FB6800221A70BB6818683B681988FC
:102B1000BB6A1C78FB6A1B783A6B127801920093AF
:102B200023460A46796801F0C1F8FB681B78002B40
:102B300040F0D180364B93F80C37012B2ED1344B1B
:102B40009A68BB681A60324BB3F80A273B681A8050
:102B50002F4B5A7BBB6A1A702D4B1A7BFB6A1A707B
:102B60003B6BFF221A700023BB820AE0BA8ABB8A41
:102B700079680B4426490A44127C1A70BB8A0133D7
:102B8000BB82234BB3F80A37BA8A9A42EED30020AD
:102B900001F0B8FDFB6803221A709CE01D4B93F80E
:102BA0000C37012B40F097801A4B9A68BB681A606B
:102BB000184BB3F80A273B681A80164B5A7BBB6A3E
:102BC0001A70144B1A7BFB6A1A703B6BFF221A7047
:102BD0000023BB820AE0BA8ABB8A79680B440D499C
:102BE0000A44127C1A70BB8A0133BB82094BB3F8CA
:102BF0000A37BA8A9A42EED3002001F0C1FDFB6881
:102C000003221A7067E000BFAC330010F000001020
:102C1000784A0010BC330010314B9B79012B52D104
:102C20000323FB75BB681B68B3F56E4F33D04FF6BB
:102C3000D862934231D0B3F56A4F31D1FB681B782B
:102C4000012B2CD17B681B78002B28D17B680133AA
:102C50001B78EE2B23D17B6802331B78002B1ED10F
:102C6000BB6A1B78FF2B1AD11D4B9B7B5A1CD1B220
:102C70001B4A91731A461B4B33F812201A4B9A8148
:102C8000194B01229A73164B9B7B042B07D9144BCB
:102C900000229A7303E000BF02E000BF00E000BF23
:102CA000114BDB7B012B16D1104800F005FB0823EC
:102CB00001930F4B0093FF23FE224FF46E41062039
:102CC00000F0B2FA07E0FB6A1B787968184600F05A
:102CD00069F80346FB75FB7D18461C37BD4690BD61
:102CE000AC33001014010010285C0010345C00109C
:102CF000F000001080B588B002AFF8607A603B60E9
:102D00000B46FB720023FB75FB68B3F56A4F40D19D
:102D1000FB7AFF2B3DD17B681B78002B39D17B6878
:102D200001331B78EE2B34D17B6802331B78002BE8
:102D30002FD11A4B1A7B08230193194B0093FF23C1
:102D40004FF46E41062000F06FFA3B684FF46E427C
:102D50001A603B6806221A71104B1A7B3B685A7145
:102D60003B68FF229A713B6808221A810023BB82CC
:102D70000AE0BA8ABB8A0A49895C3A6813440A465F
:102D80009A72BB8A0133BB82BB8A072BF1D901231C
:102D9000FB75FB7D18461837BD4680BDAC3300106F
:102DA000F000001080B586B002AF03463960FB71B9
:102DB0000123FB73954B9B79012B02D10323FB73FA
:102DC0001EE1924B9B78012B02D10223FB7317E18A
:102DD0008E4B5B79012B1ED18D4BDB7B012B40F0A1
:102DE0000F818C4800F068FA884BDA7A0823019347
:102DF000894B0093FF234FF46E41062000F014FA34
:102E0000864B1A88824B1A81814B01229A727F4B22
:102E100000225A71F4E07D4B5B78002B2FD100F03B
:102E200007F90346012B16D1784BDA7A0823019370
:102E3000794B0093FF234FF46E41062000F0F4F924
:102E4000764B1A88724B1A81714B01229A726F4B22
:102E500001225A70D4E0082301936F4B0093FF23A3
:102E6000FE224FF46E41062000F0DEF9674B00228F
:102E70009A70664B01229A710323FB73C0E0644B86
:102E8000DB7A012B0CD1664800F016FA5F4BDA7A38
:102E90005E4B1A735D4B01229A700223FB73AFE005
:102EA000012006F075FA0346012B35D15C4800F08D
:102EB00003FA5C4B1B780133DAB25A4B1A70594B48
:102EC0001B78142B08D1514B00229A704F4B0122D2
:102ED0009A710323FB731FE0534B1B6801221946B1
:102EE000012006F07DFA494B9B7B5A1CD1B2474A20
:102EF00091731A464D4B33F81220454B9A81444B3F
:102F000001229A73414B9B7B042B02D93F4B002239
:102F10009A733E4B01225A713C4BDB7AFA799A4202
:102F20006DD13D49386800F0E3F80346BB73BB7BC5
:102F3000012B1DD0022B4ED0002B61D1002001F0BF
:102F4000E1FB002001F01CFC08230193324B0093AD
:102F5000FF23FE224FF46E41062000F065F92B4B53
:102F600000229A70294B01229A710323FB7347E0D8
:102F7000002001F0C7FB002001F002FC00F058F82F
:102F80000346012B13D1214BDA7A08230193224BFC
:102F90000093FF234FF46E41062000F045F91F4BCC
:102FA0001A881B4B1A811A4B01229A7228E00823B7
:102FB0000193194B0093FF23FE224FF46E4106202C
:102FC00000F032F9114B00229A70104B01229A71D5
:102FD0000323FB7314E00D4BDA7A082301930E4BA5
:102FE0000093FF234FF46E41062000F01DF90B4BB8
:102FF0001A88074B1A81064B01229A7200E000BF23
:10300000FB7B18461037BD4680BD00BFAC330010B7
:10301000285C0010345C0010F0000010744A0010AE
:10302000305C00108A5100102001001014010010C3
:1030300080B483B000AF0123FB712C4BDB79FE2BF6
:1030400002D12A4B0122DA70284BDB78002B07D102
:10305000264BDA79254BDA72244B0122DA703EE0F6
:10306000224B1B7AFE2B03D0204B5B7AFE2B02D126
:103070000023FB7133E01D4BDB7AFE2B03D01B4B8F
:103080009B7A002B07D1194B1A7A184BDA72174B1F
:1030900001229A720EE0154BDA7A144B5B7A9A424F
:1030A00006D2124BDB7A0133DAB2104BDA7201E04E
:1030B0000023FB710D4BDA7A0C4BDB799A420ED16F
:1030C0000A4BDA7A094B5B7A9A4206D2074BDB7AD3
:1030D0000133DAB2054BDA7201E00023FB71FB79B0
:1030E00018460C37BD4680BC704700BFAC3300109B
:1030F00080B485B000AF786039600823FB731EE0B0
:10310000FB7B013B7A6813441A78FB7B013B3968EF
:103110000B441B789A420FD0FB7B013B7A68134427
:103120001A78FB7B013B39680B441B789A4201D229
:10313000012308E0022306E0FB7B013BFB73FB7BE2
:10314000002BDDD1002318461437BD4680BC7047E4
:1031500080B58AB002AFF860B9607A603B60FB6806
:1031600000221A607B6800221A803B68FE221A70D7
:10317000BB6AFE221A70FB6A00221A7007F1140261
:1031800007F110013B6B00931346BA68012006F06B
:1031900061F90346002B3FD13B69FB617B699AB221
:1031A0007B681A80FB6903F0E053BB61BB699B0E2F
:1031B000DAB2FB6A1A70FB6923F07E4323F0FF0347
:1031C000FA681360FB681B681A0AFB681A60FB69DF
:1031D000DAB2BB6A1A703B68FF221A70FB681B6880
:1031E000184600F0D7F80346012B0AD1FB681B688C
:1031F000DAB23B681A70FB681A680A4B1340FA6827
:103200001360B968F86800F069F80346012B01D132
:10321000012302E0032300E0002318462037BD46C7
:1032200080BD00BF00FF010080B586B002AF3960ED
:1032300011461A460346FB710B46BB7113467B7160
:10324000BB8B40F2F962934201D9012330E0FB7954
:103250009A063B681B021A44BB791344FB6038682A
:1032600000F098F80346012B08D1FB6823F47F4354
:10327000FB607B791B02FA681343FB60BB8B082B56
:103280000CD97979BA79F879BB8B0193BB69009332
:103290000B46396801F0B6F9034609E0F968BA8BC4
:1032A000002300931346BA69012006F0A9F90346EA
:1032B00018461037BD4680BD80B483B000AF78603B
:1032C0007B6800221A807B6800229A707B6800224B
:1032D000DA7000BF0C37BD4680BC704780B485B043
:1032E00000AF786039600023FB737B681B681B0AA2
:1032F0007B737B681B683B737B7BEA2B2AD13B7B10
:10330000FF2B10D13B681B78002B39D13B68013370
:103310001B78EE2B34D13B6802331B78002B2FD166
:103320000123FB732CE07B681B6803F47F427B68FE
:103330001A603B681B78002B22D13B6801331B7855
:10334000EE2B1DD13B6802331B78002B18D10123D3
:10335000FB7315E00023BB730EE07B681A68BB7B30
:103360000B4951F823309A4203D10123FB7300BF6C
:1033700007E0BB7B0133BB73BB7B032BEDD900E0C4
:1033800000BFFB7B18461437BD4680BC704700BFAA
:10339000F800001080B483B000AF78607B68B3F5AC
:1033A000704F01D201230AE07B68B3F5803F05D35B
:1033B0007B68B3F5F83F01D2012300E000231846F3
:1033C0000C37BD4680BC704780B485B000AF034663
:1033D000FB710023FB73FB79012B04D1054AFB79B8
:1033E00013700123FB73FB7B18461437BD4680BC6A
:1033F000704700BFAC33001080B400AF024B1B7BA2
:103400001846BD4680BC7047AC33001080B483B012
:1034100000AF0346FB71044AFB79D37100BF0C3740
:10342000BD4680BC704700BFAC33001080B483B091
:1034300000AF03460A46FB711346BB71054AFB7990
:103440001372044ABB79537200BF0C37BD4680BC6F
:10345000704700BFAC33001080B483B000AF786019
:103460007B681A78114B1A707B685A780F4B5A7028
:103470007B689A780D4B9A707B68DA780B4BDA7020
:103480007B681A79094B1A717B685A79074B5A7114
:103490007B689A79054B9A717B68DA79034BDA710C
:1034A00000BF0C37BD4680BC704700BFF000001065
:1034B00080B584B000AF78600123FB737B6803F4B0
:1034C0007F43B3F56A4F02D14FF46A437B607B6858
:1034D00003F47F43B3F56E4F02D14FF46E437B602C
:1034E0007B68B3F5801F05D13F4B01225A7300233F
:1034F000FB7374E007F10A0301221946786800F0B3
:1035000089F90346012B23D17B891946374A0B469B
:103510009B000B44DB001344083300221A807B8994
:103520001946324A0B469B000B44DB0013440A3316
:1035300000221A807B8919462C4A0B469B000B44BB
:10354000DB001344143300221A800023FB7346E08F
:103550000023BB8140E0BA89244913469B001344F1
:10356000DB000B441B78002B33D1BA891F4913466B
:103570009B001344DB000B4401221A70BA891B49DB
:1035800013469B001344DB000B4404337A681A6033
:10359000BA89164913469B001344DB000B440833D9
:1035A00000221A80BA89114913469B001344DB009C
:1035B0000B440A3300221A80BA890C4913469B0037
:1035C0001344DB000B44143300221A800023FB73E6
:1035D00005E0BB890133BB81BB89632BBBD9FB7B76
:1035E00018461037BD4680BDAC330010D43A0010E9
:1035F00080B584B000AF78600B467B800123FB73FD
:103600007B88632B04D87868FFF752FF03469FE05E
:103610007B6803F47F43B3F56A4F01D1FB7B97E0EE
:103620007B6803F47F43B3F56E4F01D1FB7B8FE0E2
:103630007B68B3F5801F01D1FB7B89E007F10A03AA
:1036400001221946786800F0E5F80346012B37D1CE
:103650007B891946404A0B469B000B44DB00134410
:1036600000221A707B8919463B4A0B469B000B448B
:10367000DB00134408337A881A807B891946364A5E
:103680000B469B000B44DB0013440A337A881A80F4
:103690007B891946304A0B469B000B44DB001344E0
:1036A000143300221A807B8919462B4A0B469B0053
:1036B0000B44DB00134401221A700023FB7346E025
:1036C0000023BB8140E0BA89234913469B00134481
:1036D000DB000B441B78002B33D1BA891E491346FB
:1036E0009B001344DB000B4404337A681A60BA89E8
:1036F000194913469B001344DB000B4408337A88B6
:103700001A80BA89144913469B001344DB000B440A
:103710000A337A881A80BA890F4913469B001344EA
:10372000DB000B44143300221A80BA890A4913467D
:103730009B001344DB000B4401221A700023FB732F
:1037400005E0BB890133BB81BB89632BBBD9FB7B04
:1037500018461037BD4680BDD43A001080B485B0FD
:1037600000AF78607B6803F47F43B3F56A4F02D102
:103770004FF46A437B607B6803F47F43B3F56E4F7D
:1037800002D14FF46E437B607B68B3F5801F03D199
:103790001E4B00225A7333E00023FB812DE0FA898F
:1037A0001B4913469B001344DB000B4404331B6886
:1037B0007A689A421ED1FA89154913469B00134430
:1037C000DB000B4400221A70FA89114913469B0052
:1037D0001344DB000B44043300221A60FA890C49BD
:1037E00013469B001344DB000B44083300221A806D
:1037F00000BF05E0FB890133FB81FB89632BCED938
:1038000000BF1437BD4680BC704700BFAC3300100A
:10381000D43A001080B487B000AFF860B9601346A6
:10382000FB710023FB75BB684FF6FF721A80234BB8
:103830005B7B012B05D1FB79002B02D10123FB75AA
:1038400036E0FB6803F47F43B3F56A4F02D14FF4CF
:103850006A43FB60FB6803F47F43B3F56E4F02D10C
:103860004FF46E43FB600023BB821EE0BA8A14490A
:1038700013469B001344DB000B441B78012B11D132
:10388000BA8A0F4913469B001344DB000B440433F0
:103890001B68FA689A4205D10123FB75BB68BA8A96
:1038A0001A8005E0BB8A0133BB82BB8A632BDDD95A
:1038B000FB7D18461C37BD4680BC7047AC330010FA
:1038C000D43A001090B587B000AFF860B9607A6064
:1038D0003B6000237B8200237B756D4B5B7B012B60
:1038E00002D101237B75CDE0FB6807F112010122B3
:1038F0001846FFF78FFF0346012B40F0C3807B8AF9
:103900001946644A0B469B000B44DB001344083302
:103910001B88002B00F0B4807B8A1846FA685D494A
:1039200003469B000344DB000B4404331A607B8A8C
:103930001946FB6AD8B2574A0B469B000B44DB0082
:103940001344103302461A707B8A1946BB6AD8B2F8
:10395000504A0B469B000B44DB00134411330246D4
:103960001A707B8A19463B68D8B24A4A0B469B00BC
:103970000B44DB001344123302461A707B8A19464B
:103980007B6898B2434A0B469B000B44DB00134410
:10399000143302461A800023FB8213E0FB8ABA68C4
:1039A00013447A8A1046FA8A1C783A4903469B00E7
:1039B0000344DB000B441344163322461A70FB8A7F
:1039C0000133FB82FB8A072BE8D97B8A1946388EA4
:1039D000304A0B469B000B44DB0013442033024665
:1039E0001A807B8A194697F832002A4A0B469B00B8
:1039F0000B44DB001344223302461A707B8A1946BB
:103A000097F83300234A0B469B000B44DB0013441A
:103A1000233302461A707B8A194697F834001D4AF0
:103A20000B469B000B44DB001344243302461A7000
:103A30007B8A194697F83500164A0B469B000B44C3
:103A4000DB001344253302461A707B8A194697F827
:103A50003600104A0B469B000B44DB001344263310
:103A600002461A707B8A194697F83700094A0B46B6
:103A70009B000B44DB001344273302461A7001E01D
:103A800001237B757B7D18461C37BD4690BD00BF6A
:103A9000AC330010D43A001080B489B000AFF860A5
:103AA000B9607A603B600023FB750023FB61F1E0A5
:103AB0007D49FA6913469B001344DB000B441B78D5
:103AC000012B40F0E4807849FA6913469B001344C7
:103AD000DB000B4408331B88002B00F0D8807249B0
:103AE000FA6913469B001344DB000B440A331B881E
:103AF000002B40F0CC806C49FA6913469B001344BC
:103B0000DB000B4414331B88002B00F0C080012322
:103B1000FB756549FA6913469B001344DB000B44AF
:103B200004331B681A46FB681A605F49FA6913463A
:103B30009B001344DB000B4414331B881A467B683C
:103B40001A600023BB6111E0BB69BA68D1185648FE
:103B5000FA6913469B001344DB00C218BB69134487
:103B600016331B780B70BB690133BB61BB69072B34
:103B7000EADD4D49FA6913469B001344DB000B4410
:103B800012331B781A463B681A604749FA69134694
:103B90009B001344DB000B4411331B781A46BB6AAD
:103BA0001A604149FA6913469B001344DB000B4439
:103BB00010331B781A46FB6A1A603B49FA691346B0
:103BC0009B001344DB000B4420331A883B6B1A80A4
:103BD0003549FA6913469B001344DB000B4422333A
:103BE0001A783B6B9A703049FA6913469B0013446C
:103BF000DB000B4423331A783B6BDA702A49FA69ED
:103C000013469B001344DB000B4424331A783B6BB0
:103C10001A712549FA6913469B001344DB000B44D3
:103C200025331A783B6B5A711F49FA6913469B007A
:103C30001344DB000B4426331A783B6B9A711A4904
:103C4000FA6913469B001344DB000B4427331A78B0
:103C50003B6BDA711449FA6913469B001344DB008D
:103C60000B44083318881049FA6913469B00134423
:103C7000DB000B440A3302461A800B49FA691346EB
:103C80009B001344DB000B44143300221A80FB69B1
:103C90000133FB61FB69632B7FF70AAFFB7D18469D
:103CA0002437BD4680BC7047D43A001080B58AB036
:103CB00002AFF860B96011461A460B46FB80134606
:103CC0007B710023FB77974B1B78022B40F095808C
:103CD000944B5B78012B40F09080924B9B78002BAB
:103CE00041D1914B20221A708E4BB3F80A37DAB2C9
:103CF0008D4B5A708B4BB3F80A371B0A9BB2DAB262
:103D0000894B9A70874B9A7B874BDA70864BFF22E0
:103D10001A71844B9B68DAB2834B5A71814B9B6852
:103D20001B0ADAB2804B9A717E4B9B681B0CDAB28D
:103D30007D4BDA717B4B1A7B082301937A4B0093FE
:103D4000FF234FF46C410720FFF76EFA0346FB7721
:103D5000764B1A88764B1A82754B01229A74714BF6
:103D600001229A7049E0724BDB7C012B45D16D4BEF
:103D7000DB7B9BB21A46D200D31ABB83694BDB7B39
:103D80000133DAB2674BDA73664BDA7B694B1A7030
:103D900000237B830CE0BA8B7B8B1A447B8B013333
:103DA00060490A44117C634AD1547B8B01337B8385
:103DB0007B8B062BEFD95B4B1A7B082301935D4B62
:103DC0000093FF234FF46B410720FFF72DFA0346C2
:103DD000FB77544BDA7B534B9B7B9A4203D10020F9
:103DE00000F090FC09E0514B1A88514B1A82504B5D
:103DF00001229A744E4B0022DA74FB68B3F56C4FC3
:103E00005FD1BB681B78202B5BD1464B1B78002B06
:103E100057D1444B93F80C37002B52D1BB68073372
:103E20001B781A04BB6806331B781B021344BA685C
:103E30000532127813443B4A93603A4B9B6807F172
:103E4000160100221846FFF7E5FC0346012B35D189
:103E5000BB6801331B789AB2BB6802331B789BB2F4
:103E60001B029BB213449AB22E4BA3F80A272D4B88
:103E7000B3F80A3740F2F962934203D9002000F008
:103E800041FC1EE0274B01221A70264B01225A707A
:103E9000244A97F828301373224A7B795373BB68FE
:103EA000DA78204B9A731F4B0022DA73224B1A8860
:103EB0001F4B9A821E4B01229A7502E0194B002279
:103EC0009A60184B1B78012B06D1194BDB7D012B17
:103ED00002D1002000F016FC124B1B78012B51D1AF
:103EE000104B5B78012B4DD1FB68B3F56B4F49D17B
:103EF0000C4B1B7B97F828209A4243D1094B5B7BE4
:103F00007A799A423ED10C4B1A88094B9A82BB6847
:103F10001B78013B9BB21A46D200D31ABB83012304
:103F20007B8319E0784A001008010010CE3A001097
:103F3000285C0010A0330010925100107B8BBA68EF
:103F40001A44BB8B591CB98319461278994B0B4400
:103F50001A747B8B01337B837B8B072BEED9954BBC
:103F6000DB7B0133DAB2934BDA73924BDA7B914B02
:103F70009B7B9A4206D1012000F0C4FB8D4B0122AD
:103F800083F80C278C4B1B78022B0ED18A4B5B7865
:103F9000012B0AD1FB68B3F56C4F06D1BB681B78C7
:103FA000FF2B02D1002000F0EBFB834B1B78022B90
:103FB0000ED1814B5B78012B0AD1FB68B3F56C4FB6
:103FC00006D1BB681B78132B02D1002000F0D8FB70
:103FD000794B1B78022B40F04381774B5B78012BA8
:103FE00040F03E81744BDB78002B43D1734B1022A1
:103FF0001A70714BB3F80A37DAB2704B5A706E4BC5
:10400000B3F80A371B0A9BB2DAB26C4B9A706A4B50
:104010009A7B6A4BDA70694BFF221A71664B9B6878
:10402000DAB2664B5A71644B9B681B0ADAB2634B77
:104030009A71614B9B681B0CDAB2604BDA715E4B74
:104040001A7B5D4B597B082301935C4B00930B4615
:104050004FF46C410720FFF7E7F80346FB77584B16
:104060001A88584B9A83574B01229A77524B012258
:10407000DA70F5E0534BDB7F012B32D14F4BFF223F
:104080001A704E4B03225A704C4BFF229A704B4BC6
:10409000FF22DA70494BFF221A71474B9B68DAB254
:1040A000464B5A71444B9B681B0ADAB2434B9A71D8
:1040B000414B9B681B0CDAB2404BDA713E4B1A7BCA
:1040C0003D4B597B082301933C4B00930B464FF427
:1040D0006C410720FFF7A8F80346FB77002000F0AB
:1040E0004FFBFB68B3F56C4F15D1334B1B7B7A79D3
:1040F0009A4210D1BB681B78112B0CD13248FFF7C4
:10410000DBF8324B1A882F4B1A832E4B01229A76FA
:10411000294B01221A71284B1B79012B68D1294B9D
:10412000DB7E012B64D1244BDB7B9BB21A46D20091
:10413000D31ABB83204BDB7B0133DAB21E4BDA731D
:104140001D4BDA7B224B1A7000237B830CE0BA8B69
:104150007B8B1A447B8B013317490A44117C1C4A20
:10416000D1547B8B01337B837B8B062BEFD9124B96
:104170001A7B114B597B08230193154B00930B4677
:104180004FF46B410720FFF74FF80346FB770A4BCC
:10419000DA7B094B9B7B9A4220D10E48FFF78CF8C3
:1041A0000D4B1A88074B9A85064B012283F82E2067
:1041B0001EE000BF784A0010BC3300100801001058
:1041C000D03A0010285C0010445C001090510010A0
:1041D000A0330010405C00108E5100108B4B1A88E9
:1041E0008B4B1A838A4B01229A76894B0022DA760E
:1041F000874B93F82F30012B32D1864BFF221A7058
:10420000844B03225A70834BFF229A70814BFF220A
:10421000DA70804BFF221A717F4B9B68DAB27D4BBC
:104220005A717D4B9B681B0ADAB27A4B9A717A4BB2
:104230009B681B0CDAB2774BDA71774B1A7B764BA3
:10424000597B08230193734B00930B464FF46C4149
:104250000720FEF7E9FF0346FB77002000F090FA05
:10426000FB68B3F56C4F40F007816C4B1B7B7A7990
:104270009A4240F00181BB681B78102B40F0FC8013
:10428000BB6801331B789AB2BB6802331B789BB2C0
:104290001B029BB213443B835F4B1B78002B09D15D
:1042A0003B8B40F2F962934204D85B4B93F80C3796
:1042B000012B35D1574BFF221A70574BB3F80A37F1
:1042C00040F2F962934203D9524B02225A7002E043
:1042D000504B01225A704F4BFF229A704D4BFF22D8
:1042E000DA704C4BFF221A71BB685A79494B5A71EC
:1042F000BB689A79474B9A71BB68DA79454BDA719A
:1043000097F828107A7908230193424B00930B46C3
:104310004FF46C410720FEF787FF0346FB77ABE0C5
:10432000BB6807331B781A04BB6806331B781B0273
:104330001344BA68053212781344374A9360364BF7
:104340009B6807F1160100221846FFF763FA03463F
:10435000012B67D1304B01221A702F4B01225A706A
:104360002D4B01221A712C4A97F8283013732A4AD0
:104370007B795373BB68DA78274B9A73264B0022FC
:10438000DA73BB6801331B789AB2BB6802331B78BF
:104390009BB21B029BB213449AB21F4BA3F80A278D
:1043A00000237B8309E07B8BBA681A447B8B1178EE
:1043B000184AD1547B8B01337B837B8B072BF2D93B
:1043C000144B11221A70134BDA78124B5A70114B9E
:1043D00001229A700F4BFF22DA7097F828107A7931
:1043E000082301930B4B00930B464FF46C410720BD
:1043F000FEF71AFF0346FB77094B1A88044B9A8491
:10440000034B012283F8262036E000BFCE3A00108D
:10441000285C001008010010BC330010AC33001001
:104420009C330010734BFF221A70724B02225A7099
:10443000704BFF229A706F4BFF22DA706D4BFF2298
:104440001A71BB685A796B4B5A71BB689A79694B80
:104450009A71BB68DA79674BDA7197F828107A7924
:1044600008230193634B00930B464FF46C410720E4
:10447000FEF7DAFE0346FB775F4B1B78012B40F01B
:10448000B3805D4B5B78012B40F0AE805B4B93F8C3
:104490002730012B32D1002000F072F9554BFF225A
:1044A0001A70544B03225A70524BFF229A70514B90
:1044B000FF22DA704F4BFF221A714F4B9B68DAB222
:1044C0004C4B5A714C4B9B681B0ADAB2494B9A71A0
:1044D000494B9B681B0CDAB2464BDA71464B5A7B50
:1044E000454B197B08230193424B00930B464FF435
:1044F0006C410720FEF798FE0346FB77FB68B3F597
:104500006B4F71D13C4B5B7B7A799A426CD13A4BC1
:104510001B7B97F828209A4266D1394B1A88374B73
:104520001A83BB681B78013B9BB21A46D200D31A90
:10453000BB8301237B830DE07B8BBA681A44BB8B62
:10454000591CB983194612782B4B0B441A747B8B78
:1045500001337B837B8B072BEED9274BDB7B01332E
:10456000DAB2254BDA73244BDA7B234B9B7B9A42DE
:104570003AD1204B13221A701F4BB3F80A37DAB224
:104580001C4B5A701B4B00229A701B4B9A7B194B89
:10459000DA70184BFF221A71174B9B68DAB2154B71
:1045A0005A71154B9B681B0ADAB2124B9A71124B67
:1045B0009B681B0CDAB20F4BDA710F4B5A7B0E4B18
:1045C000197B082301930B4B00930B464FF46C416E
:1045D0000720FEF729FE0346FB77012000F0D0F804
:1045E000054B012283F80C27FB7F18462037BD4678
:1045F00080BD00BF08010010BC330010285C001013
:104600009051001080B487B000AF396011461A464F
:104610000346FB710B46BB7113467B710023FB7590
:104620007B79FF2B02D0354BFB6001E0344BFB6004
:10463000FB681B78002B04D1BB8C40F2F9629342DB
:1046400002D90123FB7552E000233B610CE03B697A
:104650003A6A13441978FA683B69134410330A46DE
:104660001A703B6901333B61BB8C3A699A42EEDBBD
:10467000BB8C3B610CE03B69B3F5DF6F0EDCFA6885
:104680003B6913441033FF221A703B6901333B61CD
:10469000BB8C06333A699A42EDDD00E000BFFB684F
:1046A0003A689A60FB68BA8CA3F80A27FB68BA7963
:1046B0001A73FB687A795A73BB8C3B61FB680022E2
:1046C0009A7308E03B69073B3B61FB689B7B0133C6
:1046D000DAB2FB689A733B69002BF3DCFB680022BB
:1046E000DA73FB6802221A70FB6801225A70FB7DA4
:1046F00018461C37BD4680BC704700BFBC33001055
:10470000784A001080B582B000AF0346FB71FB7998
:10471000002B1FD1164B00221A70154B00225A7025
:10472000134B00229A70124B00229A60104BFF220A
:104730001A730F4BFF225A730D4B00229A730C4BC6
:104740000022DA730A4B0022A3F80A27084B002242
:1047500083F80C270748FEF7AFFD0748FEF7ACFDCE
:10476000064B01221A7000BF0837BD4680BD00BF4E
:10477000784A0010385C00103C5C00101E010010EC
:1047800080B582B000AF0346FB71FB79002B22D1CC
:104790001F4B00221A701E4B00225A701C4B002225
:1047A000DA701B4B00221A71194B00229A60184BC9
:1047B000FF221A73164BFF225A73154B00229A736D
:1047C000134B0022DA73124B0022A3F80A27104B76
:1047D000002283F80C270F48FEF76EFD0E48FEF707
:1047E0006BFD0E48FEF768FD0D48FEF765FD0D48B0
:1047F000FEF762FD0C48FEF75FFD0C48FEF75CFD1E
:104800000B4B01221A7000BF0837BD4680BD00BFA8
:10481000BC330010405C0010445C0010485C001089
:104820004C5C0010505C0010545C0010585C001090
:104830001E01001080B483B000AF064B1B79FB71E2
:10484000044B00221A71FB7918460C37BD4680BC18
:10485000704700BFAC33001080B400AF034B044A74
:104860001A6000BFBD4680BC704700BFCC5300102B
:104870002060214C80B582B000AF002000F0F8FB32
:104880000346FB7100F026FCFB7918460837BD464D
:1048900080BDFFFF80B5ADF58D6D00AF3B1D18608D
:1048A000214B05221A70012387F86734002000F09D
:1048B000DFFB034687F8663497F86634002B08D18F
:1048C00007F50C731946002003F0E0FB034687F858
:1048D000673497F86734002B09D13B1D07F10C00B2
:1048E0000122196803F0FCFB034687F8673497F848
:1048F0006734042B11D13B1D07F10C000422196809
:1049000003F0EEFB034687F8673407F10C03184603
:1049100004F020F9034687F8673497F8673418469F
:1049200007F58D67BD4680BD0D5A001080B5ADF509
:104930008F6D00AF3B1D18603B461960012387F85F
:1049400077343B1D1B6800221A703B461B6800220F
:104950001A70304B05221A70012387F87734002033
:1049600000F086FB034687F8763497F87634002B00
:1049700008D107F11C031946002003F087FB03460A
:1049800087F8773497F87734002B09D107F514733B
:1049900001222149184603F0A3FB034687F8773428
:1049A00097F87734002B21D107F1080307F10C01A8
:1049B00007F51470042203F00FFD034687F87734DF
:1049C00007F10C035B78184601F0A8FB03461A4672
:1049D0003B1D1B681A7007F10C03DB78184601F0C9
:1049E0009DFB03461A463B461B681A7097F87734BE
:1049F000002B07D107F51473184604F0ABF80346F3
:104A000087F8773497F87734184607F58F67BD46EF
:104A100080BD00BF0D5A0010CCD2000080B5ADF5AE
:104A20008F6D00AF0246FB1D1A70BB1D0A461A703F
:104A3000012387F87734324B05221A70314800F091
:104A400019FA3048FFF726FF034687F87734012329
:104A500087F87734002000F00BFB034687F87634A4
:104A600097F87634002B08D107F11C031946002073
:104A700003F00CFB034687F8773497F87734002B64
:104A800009D107F5147302221E49184603F028FBCA
:104A9000034687F8773497F87734002B1CD107F159
:104AA0000C02FB1D1B781146184601F0AFFA07F106
:104AB0000C039A1CBB1D1B781146184601F0A6FA80
:104AC00007F1080307F10C0107F51470042203F045
:104AD000EAFD034687F8773497F87734002B07D13F
:104AE00007F51473184604F035F8034687F8773451
:104AF00097F87734184607F58F67BD4680BD00BF2D
:104B00000D5A0010CCD2000080B500AF044B052236
:104B10001A70044800F0AEF90346184680BD00BF85
:104B20000D5A0010CCD2000090B5ADF2944D00AFFC
:104B300007F10C04206007F1080001601946FB1D15
:104B40001A70BB1D0A461A70012387F88F34464B32
:104B500005221A70BB1D1B78002B02D1434800F0C0
:104B600089F94248FFF796FE034687F88F34012300
:104B700087F88F34002000F07BFA034687F88E34E4
:104B800097F88E34002B08D107F134031946002022
:104B900003F07CFA034687F88F3497F88F34002BA4
:104BA00009D107F51A7302223049184603F098FA22
:104BB000034687F88F34BB1D1B78012B14D197F85F
:104BC0008F34002B10D107F51A73DB68002B0BD044
:104BD00007F51A73DA6807F51A731146184603F0D9
:104BE000CDFF034687F88F3497F88F34002B27D1F9
:104BF00007F1180207F10C031146186801F061FA79
:104C000007F1180303F1080207F1080311461868B9
:104C100001F057FA07F1180303F11002BB1D1B78CE
:104C20001146184601F0F2F907F1140307F11801D3
:104C300007F51A70112203F036FD034687F88F340A
:104C400097F88F34002B07D107F51A73184603F035
:104C500081FF034687F88F3497F88F34184607F2A0
:104C60009447BD4690BD00BF0D5A0010D8D2000039
:104C700080B5ADF58D6D00AF0023C7F860342A4BC9
:104C800005221A70012387F86734002000F0F0F93C
:104C9000034687F85F3497F85F34002B07D13B1D3C
:104CA0001946002003F0F2F9034687F8673497F8B5
:104CB0006734002B09D107F50E7301221B491846F2
:104CC00003F00EFA034687F8673497F86734002B31
:104CD00013D107F50E73DB68C7F86034D7F860347A
:104CE000002B0DDDD7F86034114A82FB0312D2107D
:104CF000DB17D31AC7F8603402E00023C7F860342A
:104D000097F86734002B07D107F50E73184603F0A8
:104D100021FF034687F86734D7F86034184607F553
:104D20008D67BD4680BD00BF0D5A0010D8D200006F
:104D30007978787890B5ADF2944D00AF07F10C0416
:104D4000206007F108000160391D0A603A461360CF
:104D500007F108031B6800221A603B1D1B68002234
:104D60001A603B461B6800221A70404B05221A70DD
:104D7000012387F88F34002000F07AF9034687F882
:104D80008E3497F88E34002B08D107F13003194682
:104D9000002003F07BF9034687F88F3497F88F34AF
:104DA000002B09D107F51A7301223149184603F087
:104DB00097F9034687F88F3497F88F34002B13D177
:104DC00007F51A73DB68002B0ED007F10C031A6885
:104DD00013461B011A4407F51A731146184603F0CF
:104DE000CDFE034687F88F3407F5197307F11401D8
:104DF00007F51A70112203F0EFFA034687F88F3493
:104E000097F88F34002B07D107F51A73184603F073
:104E1000A1FE034687F88F3497F88F34002B1DD1FD
:104E200007F11403184601F090F903461A4607F1FA
:104E300008031B681A6007F114030833184601F0D1
:104E400084F903461A463B1D1B681A6007F11403D8
:104E50001B7C303BDAB23B461B681A7097F88F34E4
:104E6000184607F29447BD4690BD00BF0D5A00108A
:104E7000D8D2000080B5ADF5107D00AF3B1D1860A5
:104E8000154B05221A70012387F83F32002000F0ED
:104E9000EFF8034687F83E3297F83E32002B08D1F0
:104EA00007F108031946002003F0F0F8034687F8DD
:104EB0003F3297F83F32002B06D13B1D186803F0B4
:104EC000C1FF034687F83F3297F83F32184607F58F
:104ED0001077BD4680BD00BF0D5A001080B584B06C
:104EE00000AF786039600023FB732D4B00221A70ED
:104EF0003B6800221A702B4B1B78002B4AD12A4B9F
:104F000005221A70002000F0B3F803461A46274B1A
:104F10001A70264B1B78002B07D12549002003F07F
:104F2000B5F803461A461F4B1A701E4B1B78002B10
:104F300006D1022279681F4803F0D2F80346FB73BA
:104F4000FB7B042B1CD1042279681A4803F0C8F8B3
:104F500003461A46134B1A70164803F0FBFD03462E
:104F60001A46104B1A7002227968124803F0B8F8FA
:104F700003461A460B4B1A703B6801221A7002E076
:104F8000084AFB7B1370074B1B78002B02D1044BA4
:104F900001221A70034B1B7818461037BD4680BD9E
:104FA000C8530010F10400100D5A0010D053001027
:104FB00094510010D453001080B500AF0A4B1B78F9
:104FC000002B0CD1094B05221A70094803F0C2FDD1
:104FD00003461A46044B1A70064B00221A70024B05
:104FE0001B78184680BD00BFF10400100D5A001058
:104FF000D4530010C853001080B584B000AF78605F
:105000003960134B1B78002B1BD1124B05221A70F1
:10501000114BDB68002B09D00F4BDB6819460E489B
:1050200003F0ACFD03461A46094B1A703A6807F1C3
:105030000C037968084803F036FB03461A46044B14
:105040001A70034B1B7818461037BD4680BD00BF51
:10505000F10400100D5A0010D453001080B400AFBA
:10506000024B1B781846BD4680BC7047F104001007
:1050700080B582B000AF0346FB71FB79002B01D0F5
:1050800001231EE0114B1B78DBB203F00203002B5F
:1050900001D0022315E000F081F90346002B0DD06A
:1050A0000B4800F0C1FB0346002B07D0074B1B78D1
:1050B000DBB223F00103DAB2044B1A70034B1B7806
:1050C000DBB218460837BD4680BD00BF1F01001087
:1050D000F404001080B400AF034B01221A7000BF2B
:1050E000BD4680BC704700BF1F01001080B584B072
:1050F00000AF03463A60FB710B46BB713B68BB6077
:10510000FB79002B01D00423AEE0594B1B78DBB2B6
:1051100003F00103002B01D00323A5E00123FB735F
:10512000BB790E2B00F2978001A252F823F000BF4A
:105130006D5100007D5100008B5100009B5100001B
:1051400057520000575200005752000057520000BB
:105150005752000057520000A9510000B7510000FB
:10516000E1510000095200003152000000F0F6F851
:105170000346002B72D00023FB736FE03D4B9A680F
:105180003B681A600023FB736BE03A4BDB689AB212
:105190003B681A800023FB7363E0364B1A693B6857
:1051A0001A600023FB735CE0334B1A78BB681A70FB
:1051B0000023FB7355E00023BB730BE0BA7BBB7B82
:1051C000B9680B442B490A4492F828201A70BB7B1B
:1051D0000133BB73BB7B0F2BF0D90023FB7340E083
:1051E0000023BB730AE0BA7BBB7BB9680B4421493F
:1051F0000A44127E1A70BB7B0133BB73BB7B0F2B3F
:10520000F1D90023FB732CE00023BB730AE0BA7BC7
:10521000BB7BB9680B4417490A44127D1A70BB7BEB
:105220000133BB73BB7B032BF1D90023FB7318E065
:105230000021CD2000F076F90346002B10D100F0BC
:1052400008FD4021B86800F035FA0346002B07D06E
:105250000023FB7304E00423FB7302E000BF00E0C3
:1052600000BF00F0FEFCFB7B18461037BD4680BD3A
:105270001F010010F4040010F204001080B584B087
:1052800000AFB9607A601A460346FB731346BB73DE
:10529000FB7B002B02D1BB7B002B01D1042314E04C
:1052A0000C4B1B78DBB203F00103002B01D003236E
:1052B0000BE0BB7B1A46B968786800F0A7F9034693
:1052C000002B01D0002300E0012318461037BD4613
:1052D00080BD00BF1F01001080B483B000AF034643
:1052E000FB71FB79002B01D0012302E0034B1B78FB
:1052F000DBB218460C37BD4680BC70471F0100105A
:1053000080B584B000AFB9607A601A460346FB737B
:105310001346BB73FB7B002B02D1BB7B002B01D15F
:10532000042314E00C4B1B78DBB203F00103002BC9
:1053300001D003230BE0BB7B1A46B968786800F004
:10534000DFF90346002B01D0002300E001231846BB
:105350001037BD4680BD00BF1F01001080B582B070
:1053600000AF0D4B7B60FF2000F066FC00F071FC8D
:105370000346FB70FB78FF2B04D07B685A1E7A60D3
:10538000002BF3D1FB78FF2B0CBF01230023DBB2F2
:1053900018460837BD4680BD801A060080B584B027
:1053A00000AF00237B7100F06DFB0023FB6005E084
:1053B000FF2000F041FCFB680133FB60FB684F2BD2
:1053C000F6D90023BB710021402000F0ABF8034662
:1053D000012B40F084804CF25033BB604FF4D57108
:1053E000482000F09FF80346012B78D10023FB6092
:1053F0000BE000F02EFC034619463A46FB681344C6
:105400000A461A70FB680133FB60FB68032BF0D976
:10541000BB78012B36D1FB78AA2B33D100BFBB68F8
:105420005A1EBA60002B07D04FF08041E92000F0EF
:1054300079F80346002BF2D1BB68002B4ED0002137
:105440007A2000F06FF80346002B47D10023FB6061
:105450000BE000F0FEFB034619463A46FB68134496
:105460000A461A70FB680133FB60FB68032BF0D916
:105470003B7803F04003002B01D00C2300E0042311
:10548000BB712BE00021E92000F04CF80346012B12
:1054900004D80223BB71E923FB7103E00123BB7134
:1054A0004123FB7100BFBB685A1EBA60002B07D0B6
:1054B000FB790021184600F035F80346002BF2D1A5
:1054C000BB68002B07D04FF40071502000F02AF881
:1054D0000346002B03D00023BB7100E000BF104A3D
:1054E000BB79137000F0BDFBBB79002B0CD00123FE
:1054F0007B71BB79012B03D1042000F04FFB09E045
:10550000042000F04BFB05E000F060FBFFF726FFF6
:1055100000F020FB7B7918461037BD4680BD00BFE8
:10552000F204001080B584B000AF03463960FB710F
:1055300097F90730002B0FDAFB7903F07F03FB713B
:1055400000217720FFF7EEFF0346BB60BB68012B0D
:1055500002D9BB68DBB254E000F046FB00F036FB3A
:10556000FFF7FCFE034683F00103DBB2002B01D002
:10557000FF2346E0FF2000F05FFBFB79184600F0B8
:105580005BFB3B681B0EDBB2184600F055FB3B682B
:105590001B0CDBB2184600F04FFB3B681B0ADBB26A
:1055A000184600F049FB3B68DBB2184600F044FBAC
:1055B0000123FB60FB79402B01D19523FB60FB7934
:1055C000482B01D18723FB60FB68DBB2184600F053
:1055D00033FBFB794C2B01D100F03BFB0A23FB6032
:1055E00000F037FB0346BB60BB6803F08003002B71
:1055F00005D0FB68013BFB60FB68002BF0D1BB686A
:10560000DBB218461037BD4680BDFFFF80B584B0C1
:1056100000AFF860B9607A60254B1B7803F008038F
:10562000002B02D1FB685B02FB607B68012B11D170
:10563000F9685120FFF776FF0346002B2CD14FF479
:105640000071B86800F036F80346002B24D0002320
:105650007B6021E0F9685220FFF764FF0346002BCE
:105660001AD14FF40071B86800F024F8034683F0B3
:105670000103DBB2002B0AD1BB6803F50073BB60EA
:105680007B68013B7B607B68002BEAD100E000BFB8
:1056900000214C20FFF746FF00F0E3FA7B68002B67
:1056A0000CBF01230023DBB218461037BD4680BD76
:1056B000F204001080B584B000AF7860396044F621
:1056C0002063FB6000F0C5FA0346FB72FB7AFF2BF8
:1056D00004D1FB685A1EFA60002BF3D1FB7AFE2B33
:1056E00001D0002308E03968786800F0C3FA00F0C0
:1056F000B0FA00F0AEFA012318461037BD4680BD5F
:1057000080B584B000AFF860B9607A602D4B1B782B
:1057100003F00803002B02D1FB685B02FB607B688F
:10572000012B10D1F9685820FFF7FCFE0346002B2F
:105730003CD1FE21B86800F047F80346002B35D075
:1057400000237B6032E01F4B1B7803F00603002B25
:1057500003D07968D720FFF7E5FEF9685920FFF7F5
:10576000E1FE0346002B21D1FC21B86800F02CF8A3
:10577000034683F00103DBB2002B0AD1BB6803F5BB
:105780000073BB607B68013B7B607B68002BEBD1C7
:1057900000E000BFFD21002000F016F8034683F072
:1057A0000103DBB2002B01D001237B6000F059FA2A
:1057B0007B68002B0CBF01230023DBB21846103797
:1057C000BD4680BDF204001080B584B000AF7860A3
:1057D0000B46FB70FB78184600F02EFAFB78FD2B89
:1057E0001DD0786800F09EFAFF2000F025FAFF2017
:1057F00000F022FA00F02DFA0346FB73FB7B03F066
:105800001F03052B01D000230AE0FFF7A7FD034685
:1058100083F00103DBB2002B01D0002300E0012361
:1058200018461037BD4680BD90B589B000AF78608E
:1058300000237B7700217A20FFF774FE0346002BBC
:1058400040F00F810023FB770AE0FC7F00F001FAB3
:1058500003461A467B6823441A75FB7F0133FB77A6
:10586000FB7F032BF1D900214A20FFF75BFE0346A3
:10587000002B40F0F8807B68183310211846FFF7A2
:1058800019FF034683F00103DBB2002B40F0EB80ED
:1058900000214920FFF746FE0346002B40F0E5803B
:1058A0007B68283310211846FFF704FF034683F076
:1058B0000103DBB2002B40F0D8807B684FF400720C
:1058C000DA607B6893F828309B09DBB2012B12D198
:1058D0007B6893F831309AB27B6893F830309BB292
:1058E0001B029BB213449BB201337B837B8B9A02D6
:1058F0007B689A6038E07B6893F82D3003F00F03E3
:10590000DAB27B6893F83230DB09DBB21344DAB2E7
:105910007B6893F831305B00DBB203F00603DBB247
:105920001344DBB20233BB777B6893F830309B09BA
:10593000DBB29AB27B6893F82F309BB29B009BB28C
:1059400013449AB27B6893F82E309B029BB203F407
:1059500040639BB213449BB201337B837A8BBB7F42
:10596000093B9A407B689A607B689B687A68D2683A
:1059700002FB03F27B685A60414B1B7803F004037F
:10598000002B28D00021CD20FFF7CCFD0346002BB3
:105990006ED100F05EF907F1080310211846FFF7F9
:1059A00089FE0346002B63D03023BB7704E000F070
:1059B00050F9BB7F013BBB77BB7F002BF7D1BB7C92
:1059C0001B09DBB21A46102303FA02F27B681A6144
:1059D00001237B774CE000214920FFF7A3FD03461C
:1059E000002B44D107F1080310211846FFF762FE8F
:1059F0000346002B3BD0224B1B7803F00203002B05
:105A000012D0BB7C5B0003F07E03FA7CD209D2B2D9
:105A100013445A1C7B7D9B09DBB2013B02FA03F362
:105A20001A467B681A6119E07B6893F832309B1044
:105A30009BB203F01F0301337A6892F83220D20040
:105A400002F01802796891F833104909C9B20A4482
:105A5000013202FB03F31A467B681A6101237B774C
:105A600006E000BF04E000BF02E000BF00E000BFAE
:105A700000F0F7F87B7F18462437BD4690BD00BF85
:105A8000F204001080B582B000AF2E4BD3F8C430C2
:105A90002C4A43F48063C2F8C4302B4B1B682A4A5B
:105AA00043F040031360294B1B68284A23F44053FA
:105AB000136000F099F8254B1B68244A23F44043F7
:105AC0001360224B1B68214A43F4004313601F4BB1
:105AD0001B681E4A23F4702313601C4B1B681B4A6F
